{
	"data": {
		"bytecode": {
			"linkReferences": {},
			"object": "60806040523480156200001157600080fd5b50735b38da6a701c568545dcfcb03fcb875f56beddc460018060008190555060006daaeb6d7670e522a718067333cd4e73ffffffffffffffffffffffffffffffffffffffff163b111562000225578015620000eb576daaeb6d7670e522a718067333cd4e73ffffffffffffffffffffffffffffffffffffffff16637d3e3dbe30846040518363ffffffff1660e01b8152600401620000b192919062000272565b600060405180830381600087803b158015620000cc57600080fd5b505af1158015620000e1573d6000803e3d6000fd5b5050505062000224565b600073ffffffffffffffffffffffffffffffffffffffff168273ffffffffffffffffffffffffffffffffffffffff1614620001a5576daaeb6d7670e522a718067333cd4e73ffffffffffffffffffffffffffffffffffffffff1663a0af290330846040518363ffffffff1660e01b81526004016200016b92919062000272565b600060405180830381600087803b1580156200018657600080fd5b505af11580156200019b573d6000803e3d6000fd5b5050505062000223565b6daaeb6d7670e522a718067333cd4e73ffffffffffffffffffffffffffffffffffffffff16634420e486306040518263ffffffff1660e01b8152600401620001ee91906200029f565b600060405180830381600087803b1580156200020957600080fd5b505af11580156200021e573d6000803e3d6000fd5b505050505b5b5b5050620002bc565b600073ffffffffffffffffffffffffffffffffffffffff82169050919050565b60006200025a826200022d565b9050919050565b6200026c816200024d565b82525050565b600060408201905062000289600083018562000261565b62000298602083018462000261565b9392505050565b6000602082019050620002b6600083018462000261565b92915050565b61644e80620002cc6000396000f3fe6080604052600436106104475760003560e01c8063715018a611610234578063c303734a1161012e578063e086e5ec116100b6578063f04e283e1161007a578063f04e283e14611040578063f2fde38b1461105c578063fb796e6c14611078578063fee81cf4146110a3578063ffdb7163146110e057610447565b8063e086e5ec14610f66578063e58306f914610f7d578063e6c5a1ef14610fad578063e8a3d48514610fd8578063e985e9c51461100357610447565b8063d111515d116100fd578063d111515d14610e93578063d539139314610eaa578063d7533f0214610ed5578063dc33e68114610f00578063dfb725f714610f3d57610447565b8063c303734a14610dd7578063c4e5db8f14610e02578063c87b56dd14610e2d578063d05e873214610e6a57610447565b8063938e3d7b116101bc578063b040adf611610180578063b040adf614610d11578063b7c0b8e814610d3c578063b88d4fde14610d65578063b9c9d93a14610d81578063bbc17bc414610dac57610447565b8063938e3d7b14610c3e57806395d89b4114610c67578063a22cb46514610c92578063a2309ff814610cbb578063a6f32d4314610ce657610447565b806375794a3c1161020357806375794a3c14610b5357806375b238fc14610b7e578063778faeec14610ba957806379502c5514610be65780638da5cb5b14610c1357610447565b8063715018a614610acc57806372c7dbbe14610ad657806372dfb77814610aff5780637359e41f14610b1657610447565b806333ea51a81161034557806354214f69116102cd57806361fea7681161029157806361fea768146109bf5780636352211e146109fc5780636c0360eb14610a395780636f38c33014610a6457806370a0823114610a8f57610447565b806354214f691461090b57806354d1f13d1461093657806355f804b3146109405780635b8d02d7146109695780635e6ae4ed1461099457610447565b806341f434341161031457806341f434341461084257806342842e0e1461086d5780634a4ee7b1146108895780634c261247146108a5578063514e62fc146108ce57610447565b806333ea51a81461079a57806336e79a5a146107c35780633ab9d139146107ec57806340197c141461081757610447565b80631909159a116103d357806325024a2b1161039757806325024a2b146106ba57806325692962146106ea5780632a55205a146106f45780632c02cb7e146107325780632de948071461075d57610447565b80631909159a146105e55780631c10893f146106155780631cd64df4146106315780631d2c0b381461066e57806323b872dd1461069e57610447565b80630fd0733d1161041a5780630fd0733d1461050d57806313a661ed1461053857806313af40351461057557806318160ddd1461059e578063183a4f6e146105c957610447565b806301ffc9a71461044c57806306fdde0314610489578063081812fc146104b4578063095ea7b3146104f1575b600080fd5b34801561045857600080fd5b50610473600480360381019061046e919061455e565b611109565b60405161048091906145a6565b60405180910390f35b34801561049557600080fd5b5061049e611270565b6040516104ab9190614651565b60405180910390f35b3480156104c057600080fd5b506104db60048036038101906104d691906146a9565b611286565b6040516104e89190614717565b60405180910390f35b61050b6004803603810190610506919061475e565b6112ed565b005b34801561051957600080fd5b50610522611306565b60405161052f9190614651565b60405180910390f35b34801561054457600080fd5b5061055f600480360381019061055a919061491f565b611394565b60405161056c9190614977565b60405180910390f35b34801561058157600080fd5b5061059c60048036038101906105979190614992565b6113be565b005b3480156105aa57600080fd5b506105b36113d6565b6040516105c09190614977565b60405180910390f35b6105e360048036038101906105de91906146a9565b6113ff565b005b6105ff60048036038101906105fa91906146a9565b61140c565b60405161060c9190614977565b60405180910390f35b61062f600480360381019061062a919061475e565b611676565b005b34801561063d57600080fd5b506106586004803603810190610653919061475e565b61168c565b60405161066591906145a6565b60405180910390f35b34801561067a57600080fd5b506106836116ac565b60405161069596959493929190614a29565b60405180910390f35b6106b860048036038101906106b39190614a8a565b61174f565b005b6106d460048036038101906106cf9190614b38565b61179e565b6040516106e19190614977565b60405180910390f35b6106f2611a3f565b005b34801561070057600080fd5b5061071b60048036038101906107169190614bc0565b611a93565b604051610729929190614c00565b60405180910390f35b34801561073e57600080fd5b50610747611af5565b6040516107549190614c38565b60405180910390f35b34801561076957600080fd5b50610784600480360381019061077f9190614992565b611afa565b6040516107919190614977565b60405180910390f35b3480156107a657600080fd5b506107c160048036038101906107bc9190614992565b611b15565b005b3480156107cf57600080fd5b506107ea60048036038101906107e59190614c8d565b611c24565b005b3480156107f857600080fd5b50610801611ccd565b60405161080e9190614cba565b60405180910390f35b34801561082357600080fd5b5061082c611ce3565b6040516108399190614d34565b60405180910390f35b34801561084e57600080fd5b50610857611d09565b6040516108649190614d70565b60405180910390f35b61088760048036038101906108829190614a8a565b611d1b565b005b6108a3600480360381019061089e919061475e565b611d6a565b005b3480156108b157600080fd5b506108cc60048036038101906108c79190614de1565b611d80565b005b3480156108da57600080fd5b506108f560048036038101906108f0919061475e565b611e13565b60405161090291906145a6565b60405180910390f35b34801561091757600080fd5b50610920611e33565b60405161092d91906145a6565b60405180910390f35b61093e611e46565b005b34801561094c57600080fd5b5061096760048036038101906109629190614ee3565b611e82565b005b34801561097557600080fd5b5061097e611f32565b60405161098b9190614717565b60405180910390f35b3480156109a057600080fd5b506109a9611f58565b6040516109b69190614c38565b60405180910390f35b3480156109cb57600080fd5b506109e660048036038101906109e19190614992565b611f5d565b6040516109f39190614977565b60405180910390f35b348015610a0857600080fd5b50610a236004803603810190610a1e91906146a9565b611f75565b604051610a309190614717565b60405180910390f35b348015610a4557600080fd5b50610a4e611f87565b604051610a5b9190614651565b60405180910390f35b348015610a7057600080fd5b50610a79612019565b604051610a869190614977565b60405180910390f35b348015610a9b57600080fd5b50610ab66004803603810190610ab19190614992565b61201e565b604051610ac39190614977565b60405180910390f35b610ad46120be565b005b348015610ae257600080fd5b50610afd6004803603810190610af89190614ee3565b6120d2565b005b348015610b0b57600080fd5b50610b14612145565b005b348015610b2257600080fd5b50610b3d6004803603810190610b3891906146a9565b612147565b604051610b4a9190614fea565b60405180910390f35b348015610b5f57600080fd5b50610b68612193565b604051610b759190614977565b60405180910390f35b348015610b8a57600080fd5b50610b936121a2565b604051610ba09190614977565b60405180910390f35b348015610bb557600080fd5b50610bd06004803603810190610bcb9190615062565b6121a7565b604051610bdd9190614977565b60405180910390f35b348015610bf257600080fd5b50610bfb612290565b604051610c0a939291906150f2565b60405180910390f35b348015610c1f57600080fd5b50610c286122ea565b604051610c359190614717565b60405180910390f35b348015610c4a57600080fd5b50610c656004803603810190610c609190614ee3565b6122f9565b005b348015610c7357600080fd5b50610c7c6123a9565b604051610c899190614651565b60405180910390f35b348015610c9e57600080fd5b50610cb96004803603810190610cb49190615155565b6123bf565b005b348015610cc757600080fd5b50610cd06123d8565b604051610cdd9190614977565b60405180910390f35b348015610cf257600080fd5b50610cfb6123e7565b604051610d0891906145a6565b60405180910390f35b348015610d1d57600080fd5b50610d26612405565b604051610d3391906145a6565b60405180910390f35b348015610d4857600080fd5b50610d636004803603810190610d5e9190615195565b61240e565b005b610d7f6004803603810190610d7a9190615263565b6124a4565b005b348015610d8d57600080fd5b50610d966124f5565b604051610da391906152e6565b60405180910390f35b348015610db857600080fd5b50610dc1612509565b604051610dce9190614c38565b60405180910390f35b348015610de357600080fd5b50610dec61250e565b604051610df99190614c38565b60405180910390f35b348015610e0e57600080fd5b50610e17612513565b604051610e249190614651565b60405180910390f35b348015610e3957600080fd5b50610e546004803603810190610e4f91906146a9565b6125a1565b604051610e619190614651565b60405180910390f35b348015610e7657600080fd5b50610e916004803603810190610e8c919061551b565b61263f565b005b348015610e9f57600080fd5b50610ea861268f565b005b348015610eb657600080fd5b50610ebf612761565b604051610ecc9190614977565b60405180910390f35b348015610ee157600080fd5b50610eea612766565b604051610ef79190615564565b60405180910390f35b348015610f0c57600080fd5b50610f276004803603810190610f229190614992565b612771565b604051610f349190614977565b60405180910390f35b348015610f4957600080fd5b50610f646004803603810190610f5f91906156e1565b612783565b005b348015610f7257600080fd5b50610f7b612ada565b005b610f976004803603810190610f92919061475e565b612e99565b604051610fa49190614977565b60405180910390f35b348015610fb957600080fd5b50610fc2612f6c565b604051610fcf9190614cba565b60405180910390f35b348015610fe457600080fd5b50610fed612f86565b604051610ffa9190614651565b60405180910390f35b34801561100f57600080fd5b5061102a60048036038101906110259190615831565b613018565b60405161103791906145a6565b60405180910390f35b61105a60048036038101906110559190614992565b6130b5565b005b61107660048036038101906110719190614992565b6130f6565b005b34801561108457600080fd5b5061108d613120565b60405161109a91906145a6565b60405180910390f35b3480156110af57600080fd5b506110ca60048036038101906110c59190614992565b61312f565b6040516110d79190614977565b60405180910390f35b3480156110ec57600080fd5b50611107600480360381019061110291906158a7565b61314a565b005b600063e1b3426d60e01b7bffffffffffffffffffffffffffffffffffffffffffffffffffffffff1916827bffffffffffffffffffffffffffffffffffffffffffffffffffffffff191614806111bb57507fe04a9827000000000000000000000000000000000000000000000000000000007bffffffffffffffffffffffffffffffffffffffffffffffffffffffff1916827bffffffffffffffffffffffffffffffffffffffffffffffffffffffff1916145b806111cb57506111ca826132ac565b5b8061121a5750632a55205a60e01b7bffffffffffffffffffffffffffffffffffffffffffffffffffffffff1916827bffffffffffffffffffffffffffffffffffffffffffffffffffffffff1916145b8061126957506301ffc9a760e01b7bffffffffffffffffffffffffffffffffffffffffffffffffffffffff1916827bffffffffffffffffffffffffffffffffffffffffffffffffffffffff1916145b9050919050565b6060600061127c61333e565b5090508091505090565b60006112918261349a565b6112a6576112a563cf4700e460e01b613525565b5b6112ae61352f565b600601600083815260200190815260200160002060000160009054906101000a900473ffffffffffffffffffffffffffffffffffffffff169050919050565b816112f78161355c565b6113018383613659565b505050565b6004805461131390615978565b80601f016020809104026020016040519081016040528092919081815260200182805461133f90615978565b801561138c5780601f106113615761010080835404028352916020019161138c565b820191906000526020600020905b81548152906001019060200180831161136f57829003601f168201915b505050505081565b6000815160051b5b80156113b857816001828501511b17915060208103905061139c565b50919050565b60016113c981613669565b6113d2826136a0565b5050565b60006113e06136de565b6113e861352f565b600101546113f461352f565b600001540303905090565b61140933826136e7565b50565b60008160ff81111561144a576040517f851cf82a00000000000000000000000000000000000000000000000000000000815260040160405180910390fd5b8260006114556123d8565b90506000611461612f6c565b63ffffffff1690508083830111156114b75760008282039050806040517f4d5c803f0000000000000000000000000000000000000000000000000000000081526004016114ae9190614cba565b60405180910390fd5b50506000600860000160009054906101000a90046cffffffffffffffffffffffffff166cffffffffffffffffffffffffff16905084816114f791906159d8565b341461154557848161150991906159d8565b6040517f6a1c179e00000000000000000000000000000000000000000000000000000000815260040161153c9190614977565b60405180910390fd5b60006008600001600d9054906101000a900463ffffffff1663ffffffff16141580156115e857506008600001600d9054906101000a900463ffffffff1663ffffffff16600a60003373ffffffffffffffffffffffffffffffffffffffff1673ffffffffffffffffffffffffffffffffffffffff16815260200190815260200160002054866115d233613736565b6115dc9190615a1a565b6115e69190615a4e565b115b1561161f576040517f220ae94c00000000000000000000000000000000000000000000000000000000815260040160405180910390fd5b611627613796565b935061163333866137a9565b7f25b428dfde728ccfaddad7e29e4ac23c24ed7fd1a6e3e3f91894a9a073f5dfff33868660405161166693929190615a82565b60405180910390a1505050919050565b61167e613931565b611688828261394e565b5050565b6000638b78c6d8600c528260005281826020600c20541614905092915050565b60088060000160009054906101000a90046cffffffffffffffffffffffffff169080600001600d9054906101000a900463ffffffff16908060000160119054906101000a900467ffffffffffffffff16908060010160009054906101000a900467ffffffffffffffff16908060010160089054906101000a900467ffffffffffffffff16908060010160109054906101000a900467ffffffffffffffff16905086565b823373ffffffffffffffffffffffffffffffffffffffff168173ffffffffffffffffffffffffffffffffffffffff161461178d5761178c3361355c565b5b611798848484613999565b50505050565b60006002600054036117e5576040517f08c379a00000000000000000000000000000000000000000000000000000000081526004016117dc90615b05565b60405180910390fd5b60026000819055508560006117f86123d8565b90506000611804612f6c565b63ffffffff16905080838301111561185a5760008282039050806040517f4d5c803f0000000000000000000000000000000000000000000000000000000081526004016118519190614cba565b60405180910390fd5b5050611864613c90565b61189a576040517f95ed3c1a00000000000000000000000000000000000000000000000000000000815260040160405180910390fd5b86856118a691906159d8565b34146118f45786856118b891906159d8565b6040517f6a1c179e0000000000000000000000000000000000000000000000000000000081526004016118eb9190614977565b60405180910390fd5b86600a60003373ffffffffffffffffffffffffffffffffffffffff1673ffffffffffffffffffffffffffffffffffffffff16815260200190815260200160002060008282546119439190615a1a565b9250508190555085600a60003373ffffffffffffffffffffffffffffffffffffffff1673ffffffffffffffffffffffffffffffffffffffff1681526020019081526020016000205411156119c3576040517fa7b32bb100000000000000000000000000000000000000000000000000000000815260040160405180910390fd5b6119cd33886137a9565b60006119d7613796565b905085883373ffffffffffffffffffffffffffffffffffffffff167f4e26b0356a15833a75d497ecc40ebbb716b99466ed0dba9454f1fff451e25a9084604051611a219190614977565b60405180910390a48092505050600160008190555095945050505050565b6000611a49612766565b67ffffffffffffffff164201905063389a75e1600c5233600052806020600c2055337fdbf36a107da19e49527a7176a1babf963b4b0ff8cde35ee35d6cd8f1f9ac7e1d600080a250565b600080600560009054906101000a900473ffffffffffffffffffffffffffffffffffffffff16915061271061ffff166006601d9054906101000a900461ffff1661ffff1684611ae291906159d8565b611aec9190615b54565b90509250929050565b600181565b6000638b78c6d8600c52816000526020600c20549050919050565b6001611b2081613cec565b600073ffffffffffffffffffffffffffffffffffffffff168273ffffffffffffffffffffffffffffffffffffffff1603611b86576040517fb942d92000000000000000000000000000000000000000000000000000000000815260040160405180910390fd5b81600560006101000a81548173ffffffffffffffffffffffffffffffffffffffff021916908373ffffffffffffffffffffffffffffffffffffffff1602179055507f8442bcb3c78bbc2d0a1a10dd2c2ba99ef8058b97c2843a976f7ca7edbfe9d3f1600560009054906101000a900473ffffffffffffffffffffffffffffffffffffffff16604051611c189190614717565b60405180910390a15050565b6001611c2f81613cec565b8161271061ffff168161ffff161115611c74576040517fca88643800000000000000000000000000000000000000000000000000000000815260040160405180910390fd5b826006601d6101000a81548161ffff021916908361ffff1602179055507f092d0aa94dc2b378c7fd77faaaf4cb3fd8336ae247cd486fb593726705772ac083604051611cc091906152e6565b60405180910390a1505050565b600160009054906101000a900463ffffffff1681565b600660009054906101000a900473ffffffffffffffffffffffffffffffffffffffff1681565b6daaeb6d7670e522a718067333cd4e81565b823373ffffffffffffffffffffffffffffffffffffffff168173ffffffffffffffffffffffffffffffffffffffff1614611d5957611d583361355c565b5b611d64848484613d23565b50505050565b611d72613931565b611d7c82826136e7565b5050565b6001611d8b81613cec565b600b60009054906101000a900460ff1615611da557600080fd5b6001600b60006101000a81548160ff021916908315150217905550828260039182611dd1929190615d32565b507f518159e6371cd5b4c2aadcb329217344ee78b366cd3730e987f31878702401b683836001604051611e0693929190615e2f565b60405180910390a1505050565b6000638b78c6d8600c5282600052816020600c2054161515905092915050565b600b60009054906101000a900460ff1681565b63389a75e1600c523360005260006020600c2055337ffa7b8eab7da67f412cc9575ed43464468f9bfbae89d1675917346ca6d8fe3c92600080a2565b6001611e8d81613cec565b600060016006601f9054906101000a900460ff161660ff1614611edc576040517fb087bbf300000000000000000000000000000000000000000000000000000000815260040160405180910390fd5b8160039081611eeb9190615e61565b5081604051611efa9190615f6f565b60405180910390207ff9c7803e94e0d3c02900d8a90893a6d5e90dd04d32a4cfe825520f82bf9f32f660405160405180910390a25050565b600560009054906101000a900473ffffffffffffffffffffffffffffffffffffffff1681565b600481565b600a6020528060005260406000206000915090505481565b6000611f8082613d43565b9050919050565b606060038054611f9690615978565b80601f0160208091040260200160405190810160405280929190818152602001828054611fc290615978565b801561200f5780601f10611fe45761010080835404028352916020019161200f565b820191906000526020600020905b815481529060010190602001808311611ff257829003601f168201915b5050505050905090565b60ff81565b60008073ffffffffffffffffffffffffffffffffffffffff168273ffffffffffffffffffffffffffffffffffffffff160361206457612063638f4eb60460e01b613525565b5b67ffffffffffffffff61207561352f565b60050160008473ffffffffffffffffffffffffffffffffffffffff1673ffffffffffffffffffffffffffffffffffffffff16815260200190815260200160002054169050919050565b6120c6613931565b6120d060006136a0565b565b60016120dd81613cec565b600b60009054906101000a900460ff16156120f757600080fd5b81600390816121069190615e61565b507f518159e6371cd5b4c2aadcb329217344ee78b366cd3730e987f31878702401b6826000604051612139929190615f86565b60405180910390a15050565b565b60606040519050602081016000835b60011561217c578183526001811660051b8301925060018201915084821c905080612156575b5060208301820360051c8352816040525050919050565b600061219d613796565b905090565b600181565b600060016121b481613cec565b600085859050036121f1576040517fe10344d500000000000000000000000000000000000000000000000000000000815260040160405180910390fd5b6121f9613796565b9150600085859050905060005b8181146122495761223e87878381811061222357612222615fb6565b5b90506020020160208101906122389190614992565b866137a9565b806001019050612206565b50507ffe9ac969bdc4dbb3461e515fb1f4b43a4bf6d21274b0c195082e75bcb586ead38585858560405161228094939291906160a8565b60405180910390a1509392505050565b60078060000160009054906101000a900467ffffffffffffffff16908060000160089054906101000a900461ffff169080600001600a9054906101000a900473ffffffffffffffffffffffffffffffffffffffff16905083565b60006122f4613e4a565b905090565b600161230481613cec565b600060016006601f9054906101000a900460ff161660ff1614612353576040517fb087bbf300000000000000000000000000000000000000000000000000000000815260040160405180910390fd5b81600490816123629190615e61565b50816040516123719190615f6f565b60405180910390207faf497693a87db12ca89131a31edbb3db4bb5702dfb284e8ae7427d185f09112d60405160405180910390a25050565b606060006123b561333e565b9150508091505090565b816123c98161355c565b6123d38383613e58565b505050565b60006123e2613f6c565b905090565b60006123f1612f6c565b63ffffffff166123ff613f6c565b14905090565b60006001905090565b600161241981613cec565b811515612424613120565b1515146124695760046006601f8282829054906101000a900460ff161892506101000a81548160ff021916908360ff160217905550811561246857612467612145565b5b5b7fdf13a96ac57161f0b62aae644560a12a80c1877faac821ee18874355ff1ab73b8260405161249891906145a6565b60405180910390a15050565b833373ffffffffffffffffffffffffffffffffffffffff168173ffffffffffffffffffffffffffffffffffffffff16146124e2576124e13361355c565b5b6124ee85858585613f88565b5050505050565b6006601d9054906101000a900461ffff1681565b600281565b600881565b6003805461252090615978565b80601f016020809104026020016040519081016040528092919081815260200182805461254c90615978565b80156125995780601f1061256e57610100808354040283529160200191612599565b820191906000526020600020905b81548152906001019060200180831161257c57829003601f168201915b505050505081565b60606125ac8261349a565b6125e2576040517fa14c4b5000000000000000000000000000000000000000000000000000000000815260040160405180910390fd5b60006125ec611f87565b9050600081510361260c5760405180602001604052806000815250612637565b8061261684613fda565b6040516020016126279291906160e8565b6040516020818303038152906040525b915050919050565b600161264a81613cec565b60008251905060005b818110156126895761267e84828151811061267157612670615fb6565b5b602002602001015161402a565b806001019050612653565b50505050565b600161269a81613cec565b600060016006601f9054906101000a900460ff161660ff16146126e9576040517fb087bbf300000000000000000000000000000000000000000000000000000000815260040160405180910390fd5b60016006601f8282829054906101000a900460ff161792506101000a81548160ff021916908360ff1602179055507f3cd3338a64f0386bca46b40bd96e90a61be656a5183dc54b430d8626e1333273612740611f87565b612748612f86565b60405161275692919061610c565b60405180910390a150565b600281565b60006202a300905090565b600061277c82613736565b9050919050565b8461271061ffff168161ffff1611156127c8576040517fca88643800000000000000000000000000000000000000000000000000000000815260040160405180910390fd5b60006127d2613796565b14612809576040517f82b4290000000000000000000000000000000000000000000000000000000000815260040160405180910390fd5b600073ffffffffffffffffffffffffffffffffffffffff168773ffffffffffffffffffffffffffffffffffffffff160361286f576040517fb942d92000000000000000000000000000000000000000000000000000000000815260040160405180910390fd5b6128798b8b614089565b6128816136de565b61288961352f565b60000181905550612899336140e6565b88600390816128a89190615e61565b5087600490816128b89190615e61565b5086600560006101000a81548173ffffffffffffffffffffffffffffffffffffffff021916908373ffffffffffffffffffffffffffffffffffffffff16021790555084600860008201518160000160006101000a8154816cffffffffffffffffffffffffff02191690836cffffffffffffffffffffffffff160217905550602082015181600001600d6101000a81548163ffffffff021916908363ffffffff16021790555060408201518160000160116101000a81548167ffffffffffffffff021916908367ffffffffffffffff16021790555060608201518160010160006101000a81548167ffffffffffffffff021916908367ffffffffffffffff16021790555060808201518160010160086101000a81548167ffffffffffffffff021916908367ffffffffffffffff16021790555060a08201518160010160106101000a81548167ffffffffffffffff021916908367ffffffffffffffff160217905550905050826006601f6101000a81548160ff021916908360ff160217905550856006601d6101000a81548161ffff021916908361ffff16021790555081600660006101000a81548173ffffffffffffffffffffffffffffffffffffffff021916908373ffffffffffffffffffffffffffffffffffffffff16021790555083600160006101000a81548163ffffffff021916908363ffffffff16021790555060006004841660ff1614612acd57612acc612145565b5b5050505050505050505050565b600260005403612b1f576040517f08c379a0000000000000000000000000000000000000000000000000000000008152600401612b1690615b05565b60405180910390fd5b600260008190555060004790506000600660009054906101000a900473ffffffffffffffffffffffffffffffffffffffff1673ffffffffffffffffffffffffffffffffffffffff1663e714942d6040518163ffffffff1660e01b8152600401602060405180830381865afa158015612b9b573d6000803e3d6000fd5b505050506040513d601f19601f82011682018060405250810190612bbf9190616158565b90506000600660009054906101000a900473ffffffffffffffffffffffffffffffffffffffff1673ffffffffffffffffffffffffffffffffffffffff16630d411b21846040518263ffffffff1660e01b8152600401612c1e91906161b0565b602060405180830381865afa158015612c3b573d6000803e3d6000fd5b505050506040513d601f19601f82011682018060405250810190612c5f91906161f7565b6fffffffffffffffffffffffffffffffff1690506000811115612d355760008273ffffffffffffffffffffffffffffffffffffffff16826203345090604051612ca790616255565b600060405180830381858888f193505050503d8060008114612ce5576040519150601f19603f3d011682016040523d82523d6000602084013e612cea565b606091505b5050905080612d25576040517fd3c0b1f400000000000000000000000000000000000000000000000000000000815260040160405180910390fd5b8184612d319190615a4e565b9350505b6000600560009054906101000a900473ffffffffffffffffffffffffffffffffffffffff1673ffffffffffffffffffffffffffffffffffffffff16846203345090604051612d8290616255565b600060405180830381858888f193505050503d8060008114612dc0576040519150601f19603f3d011682016040523d82523d6000602084013e612dc5565b606091505b5050905080612e00576040517fd3c0b1f400000000000000000000000000000000000000000000000000000000815260040160405180910390fd5b600560009054906101000a900473ffffffffffffffffffffffffffffffffffffffff1673ffffffffffffffffffffffffffffffffffffffff163373ffffffffffffffffffffffffffffffffffffffff167f8a95554e4c9dcaaf33f247387f2ee77390780487d3365e3a804788791a1df500868686604051612e839392919061626a565b60405180910390a3505050506001600081905550565b60006001612ea681613cec565b826000612eb16123d8565b90506000612ebd612f6c565b63ffffffff169050808383011115612f135760008282039050806040517f4d5c803f000000000000000000000000000000000000000000000000000000008152600401612f0a9190614cba565b60405180910390fd5b5050612f1d613796565b9250612f2985856137a9565b7f25b428dfde728ccfaddad7e29e4ac23c24ed7fd1a6e3e3f91894a9a073f5dfff858585604051612f5c93929190615a82565b60405180910390a1505092915050565b6000600160009054906101000a900463ffffffff16905090565b606060048054612f9590615978565b80601f0160208091040260200160405190810160405280929190818152602001828054612fc190615978565b801561300e5780601f10612fe35761010080835404028352916020019161300e565b820191906000526020600020905b815481529060010190602001808311612ff157829003601f168201915b5050505050905090565b600061302261352f565b60070160008473ffffffffffffffffffffffffffffffffffffffff1673ffffffffffffffffffffffffffffffffffffffff16815260200190815260200160002060008373ffffffffffffffffffffffffffffffffffffffff1673ffffffffffffffffffffffffffffffffffffffff16815260200190815260200160002060009054906101000a900460ff16905092915050565b6130bd613931565b63389a75e1600c52806000526020600c2080544211156130e557636f5e88186000526004601cfd5b60008155506130f3816136a0565b50565b6130fe613931565b8060601b61311457637448fbae6000526004601cfd5b61311d816136a0565b50565b600061312a612405565b905090565b600063389a75e1600c52816000526020600c20549050919050565b600161315581613cec565b87600860000160006101000a8154816cffffffffffffffffffffffffff02191690836cffffffffffffffffffffffffff160217905550866008600001600d6101000a81548163ffffffff021916908363ffffffff16021790555085600860000160116101000a81548167ffffffffffffffff021916908367ffffffffffffffff16021790555084600860010160006101000a81548167ffffffffffffffff021916908367ffffffffffffffff16021790555083600860010160086101000a81548167ffffffffffffffff021916908367ffffffffffffffff16021790555082600860010160106101000a81548167ffffffffffffffff021916908367ffffffffffffffff1602179055503373ffffffffffffffffffffffffffffffffffffffff167fc1ff5e4744ac8dd2b8027a10e3723b165975297501c71c4e7dcb8796d96375db60405160405180910390a25050505050505050565b60006301ffc9a760e01b827bffffffffffffffffffffffffffffffffffffffffffffffffffffffff1916148061330757506380ac58cd60e01b827bffffffffffffffffffffffffffffffffffffffffffffffffffffffff1916145b806133375750635b5e139f60e01b827bffffffffffffffffffffffffffffffffffffffffffffffffffffffff1916145b9050919050565b606080600060025490506000801b81146133685761335b81614122565b8093508194505050613495565b61337061352f565b600201805461337e90615978565b80601f01602080910402602001604051908101604052809291908181526020018280546133aa90615978565b80156133f75780601f106133cc576101008083540402835291602001916133f7565b820191906000526020600020905b8154815290600101906020018083116133da57829003601f168201915b5050505050925061340661352f565b600301805461341490615978565b80601f016020809104026020016040519081016040528092919081815260200182805461344090615978565b801561348d5780601f106134625761010080835404028352916020019161348d565b820191906000526020600020905b81548152906001019060200180831161347057829003601f168201915b505050505091505b509091565b6000816134a56136de565b11613520576134b261352f565b6000015482101561351f5760005b60006134ca61352f565b600401600085815260200190815260200160002054915081036134f857826134f1906162a1565b92506134c0565b60007c01000000000000000000000000000000000000000000000000000000008216149150505b5b919050565b8060005260046000fd5b6000807f2569078dfb4b0305704d3008e7403993ae9601b85f7ae5e742de3de8f8011c4090508091505090565b60006daaeb6d7670e522a718067333cd4e73ffffffffffffffffffffffffffffffffffffffff163b1115613656576daaeb6d7670e522a718067333cd4e73ffffffffffffffffffffffffffffffffffffffff1663c617113430836040518363ffffffff1660e01b81526004016135d39291906162ca565b602060405180830381865afa1580156135f0573d6000803e3d6000fd5b505050506040513d601f19601f820116820180604052508101906136149190616308565b61365557806040517fede71dcc00000000000000000000000000000000000000000000000000000000815260040161364c9190614717565b60405180910390fd5b5b50565b6136658282600161416b565b5050565b638b78c6d81954331461369d57638b78c6d8600c5233600052806020600c20541661369c576382b429006000526004601cfd5b5b50565b638b78c6d8198160601b60601c91508181547f8be0079c531659141344cd1fd0a4f28419497f9722a3daafe3b4186f6b6457e0600080a38181555050565b60006001905090565b638b78c6d8600c52816000526020600c2080548281168118925082825582600c5160601c7f715ad5ce61fc9595c7b415289d59cf203f23a94fa06f04af7e489a0a76e1fe26600080a350505050565b600067ffffffffffffffff604061374b61352f565b60050160008573ffffffffffffffffffffffffffffffffffffffff1673ffffffffffffffffffffffffffffffffffffffff16815260200190815260200160002054901c169050919050565b60006137a061352f565b60000154905090565b60006137b361352f565b600001549050600082036137d2576137d163b562e8dd60e01b613525565b5b6137df60008483856142a3565b6137ff836137f060008660006142a9565b6137f9856142d1565b176142e1565b61380761352f565b600401600083815260200190815260200160002081905550600160406001901b17820261383261352f565b60050160008573ffffffffffffffffffffffffffffffffffffffff1673ffffffffffffffffffffffffffffffffffffffff16815260200190815260200160002060008282540192505081905550600073ffffffffffffffffffffffffffffffffffffffff8473ffffffffffffffffffffffffffffffffffffffff16169050600081036138c9576138c8632e07630060e01b613525565b5b6000838301905060008390505b808360007fddf252ad1be2c89b69c2b068fc378daa952ba7f163c4a11628f55a4df523b3ef600080a48181600101915081036138d6578161391561352f565b6000018190555050505061392c600084838561430c565b505050565b638b78c6d81954331461394c576382b429006000526004601cfd5b565b638b78c6d8600c52816000526020600c2081815417915081815581600c5160601c7f715ad5ce61fc9595c7b415289d59cf203f23a94fa06f04af7e489a0a76e1fe26600080a3505050565b60006139a482613d43565b905073ffffffffffffffffffffffffffffffffffffffff8473ffffffffffffffffffffffffffffffffffffffff161693508373ffffffffffffffffffffffffffffffffffffffff168173ffffffffffffffffffffffffffffffffffffffff1614613a1957613a1863a114810060e01b613525565b5b600080613a2584614312565b91509150613a3b8187613a36614342565b61434a565b613a6657613a5086613a4b614342565b613018565b613a6557613a646359c896be60e01b613525565b5b5b613a7386868660016142a3565b8015613a7e57600082555b613a8661352f565b60050160008773ffffffffffffffffffffffffffffffffffffffff1673ffffffffffffffffffffffffffffffffffffffff168152602001908152602001600020600081546001900391905081905550613add61352f565b60050160008673ffffffffffffffffffffffffffffffffffffffff1673ffffffffffffffffffffffffffffffffffffffff1681526020019081526020016000206000815460010191905081905550613b5e85613b3a8888876142a9565b7c0200000000000000000000000000000000000000000000000000000000176142e1565b613b6661352f565b60040160008681526020019081526020016000208190555060007c0200000000000000000000000000000000000000000000000000000000841603613c085760006001850190506000613bb761352f565b60040160008381526020019081526020016000205403613c0657613bd961352f565b600001548114613c055783613bec61352f565b6004016000838152602001908152602001600020819055505b5b505b600073ffffffffffffffffffffffffffffffffffffffff8673ffffffffffffffffffffffffffffffffffffffff161690508481887fddf252ad1be2c89b69c2b068fc378daa952ba7f163c4a11628f55a4df523b3ef600080a460008103613c7a57613c7963ea553b3460e01b613525565b5b613c87878787600161430c565b50505050505050565b600042600860010160089054906101000a900467ffffffffffffffff1667ffffffffffffffff1611158015613ce7575042600860010160109054906101000a900467ffffffffffffffff1667ffffffffffffffff16115b905090565b638b78c6d8600c5233600052806020600c205416613d2057638b78c6d819543314613d1f576382b429006000526004601cfd5b5b50565b613d3e838383604051806020016040528060008152506124a4565b505050565b600081613d4e6136de565b11613e3457613d5b61352f565b600401600083815260200190815260200160002054905060008103613e0b57613d8261352f565b600001548210613d9d57613d9c63df2d9b4260e01b613525565b5b5b613da661352f565b6004016000836001900393508381526020019081526020016000205490506000810315613e065760007c010000000000000000000000000000000000000000000000000000000082160315613e4557613e0563df2d9b4260e01b613525565b5b613d9e565b60007c010000000000000000000000000000000000000000000000000000000082160315613e45575b613e4463df2d9b4260e01b613525565b5b919050565b6000638b78c6d81954905090565b80613e6161352f565b6007016000613e6e614342565b73ffffffffffffffffffffffffffffffffffffffff1673ffffffffffffffffffffffffffffffffffffffff16815260200190815260200160002060008473ffffffffffffffffffffffffffffffffffffffff1673ffffffffffffffffffffffffffffffffffffffff16815260200190815260200160002060006101000a81548160ff0219169083151502179055508173ffffffffffffffffffffffffffffffffffffffff16613f1b614342565b73ffffffffffffffffffffffffffffffffffffffff167f17307eab39ab6107e8899845ad3d59bd9653f200f220920489ca2b5937696c3183604051613f6091906145a6565b60405180910390a35050565b6000613f766136de565b613f7e61352f565b6000015403905090565b613f9384848461174f565b60008373ffffffffffffffffffffffffffffffffffffffff163b14613fd457613fbe8484848461438e565b613fd357613fd263d1a57ed660e01b613525565b5b5b50505050565b606060a060405101806040526020810391506000825281835b60011561401557600184039350600a81066030018453600a8104905080613ff3575b50828103602084039350808452505050919050565b6000816020015151905060005b818110156140845760008360200151828151811061405857614057615fb6565b5b6020026020010151905061407861406d6122ea565b856000015183611d1b565b81600101915050614037565b505050565b600061409583836144bd565b90506000801b81036140d957826140aa61352f565b60020190816140b99190615e61565b50816140c361352f565b60030190816140d29190615e61565b50506140e2565b80600281905550505b5050565b8060601b60601c905080638b78c6d819558060007f8be0079c531659141344cd1fd0a4f28419497f9722a3daafe3b4186f6b6457e0600080a350565b606080604051915060408201905060408101604052600082526000815282601f8301528151602083010151601f8201526000825160208401015260008151602083010152915091565b600061417683611f75565b90508180156141b857508073ffffffffffffffffffffffffffffffffffffffff1661419f614342565b73ffffffffffffffffffffffffffffffffffffffff1614155b156141e4576141ce816141c9614342565b613018565b6141e3576141e263cfb3b94260e01b613525565b5b5b836141ed61352f565b600601600085815260200190815260200160002060000160006101000a81548173ffffffffffffffffffffffffffffffffffffffff021916908373ffffffffffffffffffffffffffffffffffffffff160217905550828473ffffffffffffffffffffffffffffffffffffffff168273ffffffffffffffffffffffffffffffffffffffff167f8c5be1e5ebec7d5bd14f71427d1e84f3dd0314c0f7b2291e5b200ac8c7c3b92560405160405180910390a450505050565b50505050565b60008060e883901c905060e86142c08686846144e9565b62ffffff16901b9150509392505050565b60006001821460e11b9050919050565b600073ffffffffffffffffffffffffffffffffffffffff83169250814260a01b178317905092915050565b50505050565b600080600061431f61352f565b600601600085815260200190815260200160002090508092508254915050915091565b600033905090565b600073ffffffffffffffffffffffffffffffffffffffff8316925073ffffffffffffffffffffffffffffffffffffffff821691508382148383141790509392505050565b60008373ffffffffffffffffffffffffffffffffffffffff1663150b7a026143b4614342565b8786866040518563ffffffff1660e01b81526004016143d6949392919061638a565b6020604051808303816000875af192505050801561441257506040513d601f19601f8201168201806040525081019061440f91906163eb565b60015b61446a573d8060008114614442576040519150601f19603f3d011682016040523d82523d6000602084013e614447565b606091505b5060008151036144625761446163d1a57ed660e01b613525565b5b805181602001fd5b63150b7a0260e01b7bffffffffffffffffffffffffffffffffffffffffffffffffffffffff1916817bffffffffffffffffffffffffffffffffffffffffffffffffffffffff191614915050949350505050565b60008251601e600184518301031081601e850103518286015183601f0360031b1b170291505092915050565b60009392505050565b6000604051905090565b600080fd5b600080fd5b60007fffffffff0000000000000000000000000000000000000000000000000000000082169050919050565b61453b81614506565b811461454657600080fd5b50565b60008135905061455881614532565b92915050565b600060208284031215614574576145736144fc565b5b600061458284828501614549565b91505092915050565b60008115159050919050565b6145a08161458b565b82525050565b60006020820190506145bb6000830184614597565b92915050565b600081519050919050565b600082825260208201905092915050565b60005b838110156145fb5780820151818401526020810190506145e0565b60008484015250505050565b6000601f19601f8301169050919050565b6000614623826145c1565b61462d81856145cc565b935061463d8185602086016145dd565b61464681614607565b840191505092915050565b6000602082019050818103600083015261466b8184614618565b905092915050565b6000819050919050565b61468681614673565b811461469157600080fd5b50565b6000813590506146a38161467d565b92915050565b6000602082840312156146bf576146be6144fc565b5b60006146cd84828501614694565b91505092915050565b600073ffffffffffffffffffffffffffffffffffffffff82169050919050565b6000614701826146d6565b9050919050565b614711816146f6565b82525050565b600060208201905061472c6000830184614708565b92915050565b61473b816146f6565b811461474657600080fd5b50565b60008135905061475881614732565b92915050565b60008060408385031215614775576147746144fc565b5b600061478385828601614749565b925050602061479485828601614694565b9150509250929050565b600080fd5b7f4e487b7100000000000000000000000000000000000000000000000000000000600052604160045260246000fd5b6147db82614607565b810181811067ffffffffffffffff821117156147fa576147f96147a3565b5b80604052505050565b600061480d6144f2565b905061481982826147d2565b919050565b600067ffffffffffffffff821115614839576148386147a3565b5b602082029050602081019050919050565b600080fd5b600060ff82169050919050565b6148658161484f565b811461487057600080fd5b50565b6000813590506148828161485c565b92915050565b600061489b6148968461481e565b614803565b905080838252602082019050602084028301858111156148be576148bd61484a565b5b835b818110156148e757806148d38882614873565b8452602084019350506020810190506148c0565b5050509392505050565b600082601f8301126149065761490561479e565b5b8135614916848260208601614888565b91505092915050565b600060208284031215614935576149346144fc565b5b600082013567ffffffffffffffff81111561495357614952614501565b5b61495f848285016148f1565b91505092915050565b61497181614673565b82525050565b600060208201905061498c6000830184614968565b92915050565b6000602082840312156149a8576149a76144fc565b5b60006149b684828501614749565b91505092915050565b60006cffffffffffffffffffffffffff82169050919050565b6149e1816149bf565b82525050565b600063ffffffff82169050919050565b614a00816149e7565b82525050565b600067ffffffffffffffff82169050919050565b614a2381614a06565b82525050565b600060c082019050614a3e60008301896149d8565b614a4b60208301886149f7565b614a586040830187614a1a565b614a656060830186614a1a565b614a726080830185614a1a565b614a7f60a0830184614a1a565b979650505050505050565b600080600060608486031215614aa357614aa26144fc565b5b6000614ab186828701614749565b9350506020614ac286828701614749565b9250506040614ad386828701614694565b9150509250925092565b600080fd5b60008083601f840112614af857614af761479e565b5b8235905067ffffffffffffffff811115614b1557614b14614add565b5b602083019150836020820283011115614b3157614b3061484a565b5b9250929050565b600080600080600060808688031215614b5457614b536144fc565b5b6000614b6288828901614694565b9550506020614b7388828901614694565b9450506040614b8488828901614694565b935050606086013567ffffffffffffffff811115614ba557614ba4614501565b5b614bb188828901614ae2565b92509250509295509295909350565b60008060408385031215614bd757614bd66144fc565b5b6000614be585828601614694565b9250506020614bf685828601614694565b9150509250929050565b6000604082019050614c156000830185614708565b614c226020830184614968565b9392505050565b614c328161484f565b82525050565b6000602082019050614c4d6000830184614c29565b92915050565b600061ffff82169050919050565b614c6a81614c53565b8114614c7557600080fd5b50565b600081359050614c8781614c61565b92915050565b600060208284031215614ca357614ca26144fc565b5b6000614cb184828501614c78565b91505092915050565b6000602082019050614ccf60008301846149f7565b92915050565b6000819050919050565b6000614cfa614cf5614cf0846146d6565b614cd5565b6146d6565b9050919050565b6000614d0c82614cdf565b9050919050565b6000614d1e82614d01565b9050919050565b614d2e81614d13565b82525050565b6000602082019050614d496000830184614d25565b92915050565b6000614d5a82614d01565b9050919050565b614d6a81614d4f565b82525050565b6000602082019050614d856000830184614d61565b92915050565b60008083601f840112614da157614da061479e565b5b8235905067ffffffffffffffff811115614dbe57614dbd614add565b5b602083019150836001820283011115614dda57614dd961484a565b5b9250929050565b60008060208385031215614df857614df76144fc565b5b600083013567ffffffffffffffff811115614e1657614e15614501565b5b614e2285828601614d8b565b92509250509250929050565b600080fd5b600067ffffffffffffffff821115614e4e57614e4d6147a3565b5b614e5782614607565b9050602081019050919050565b82818337600083830152505050565b6000614e86614e8184614e33565b614803565b905082815260208101848484011115614ea257614ea1614e2e565b5b614ead848285614e64565b509392505050565b600082601f830112614eca57614ec961479e565b5b8135614eda848260208601614e73565b91505092915050565b600060208284031215614ef957614ef86144fc565b5b600082013567ffffffffffffffff811115614f1757614f16614501565b5b614f2384828501614eb5565b91505092915050565b600081519050919050565b600082825260208201905092915050565b6000819050602082019050919050565b614f618161484f565b82525050565b6000614f738383614f58565b60208301905092915050565b6000602082019050919050565b6000614f9782614f2c565b614fa18185614f37565b9350614fac83614f48565b8060005b83811015614fdd578151614fc48882614f67565b9750614fcf83614f7f565b925050600181019050614fb0565b5085935050505092915050565b600060208201905081810360008301526150048184614f8c565b905092915050565b60008083601f8401126150225761502161479e565b5b8235905067ffffffffffffffff81111561503f5761503e614add565b5b60208301915083602082028301111561505b5761505a61484a565b5b9250929050565b60008060006040848603121561507b5761507a6144fc565b5b600084013567ffffffffffffffff81111561509957615098614501565b5b6150a58682870161500c565b935093505060206150b886828701614694565b9150509250925092565b6150cb81614c53565b82525050565b60006150dc826146d6565b9050919050565b6150ec816150d1565b82525050565b60006060820190506151076000830186614a1a565b61511460208301856150c2565b61512160408301846150e3565b949350505050565b6151328161458b565b811461513d57600080fd5b50565b60008135905061514f81615129565b92915050565b6000806040838503121561516c5761516b6144fc565b5b600061517a85828601614749565b925050602061518b85828601615140565b9150509250929050565b6000602082840312156151ab576151aa6144fc565b5b60006151b984828501615140565b91505092915050565b600067ffffffffffffffff8211156151dd576151dc6147a3565b5b6151e682614607565b9050602081019050919050565b6000615206615201846151c2565b614803565b90508281526020810184848401111561522257615221614e2e565b5b61522d848285614e64565b509392505050565b600082601f83011261524a5761524961479e565b5b813561525a8482602086016151f3565b91505092915050565b6000806000806080858703121561527d5761527c6144fc565b5b600061528b87828801614749565b945050602061529c87828801614749565b93505060406152ad87828801614694565b925050606085013567ffffffffffffffff8111156152ce576152cd614501565b5b6152da87828801615235565b91505092959194509250565b60006020820190506152fb60008301846150c2565b92915050565b600067ffffffffffffffff82111561531c5761531b6147a3565b5b602082029050602081019050919050565b600080fd5b600080fd5b600067ffffffffffffffff821115615352576153516147a3565b5b602082029050602081019050919050565b600061537661537184615337565b614803565b905080838252602082019050602084028301858111156153995761539861484a565b5b835b818110156153c257806153ae8882614694565b84526020840193505060208101905061539b565b5050509392505050565b600082601f8301126153e1576153e061479e565b5b81356153f1848260208601615363565b91505092915050565b6000604082840312156154105761540f61532d565b5b61541a6040614803565b9050600061542a84828501614749565b600083015250602082013567ffffffffffffffff81111561544e5761544d615332565b5b61545a848285016153cc565b60208301525092915050565b600061547961547484615301565b614803565b9050808382526020820190506020840283018581111561549c5761549b61484a565b5b835b818110156154e357803567ffffffffffffffff8111156154c1576154c061479e565b5b8086016154ce89826153fa565b8552602085019450505060208101905061549e565b5050509392505050565b600082601f8301126155025761550161479e565b5b8135615512848260208601615466565b91505092915050565b600060208284031215615531576155306144fc565b5b600082013567ffffffffffffffff81111561554f5761554e614501565b5b61555b848285016154ed565b91505092915050565b60006020820190506155796000830184614a1a565b92915050565b615588816149bf565b811461559357600080fd5b50565b6000813590506155a58161557f565b92915050565b6155b4816149e7565b81146155bf57600080fd5b50565b6000813590506155d1816155ab565b92915050565b6155e081614a06565b81146155eb57600080fd5b50565b6000813590506155fd816155d7565b92915050565b600060c082840312156156195761561861532d565b5b61562360c0614803565b9050600061563384828501615596565b6000830152506020615647848285016155c2565b602083015250604061565b848285016155ee565b604083015250606061566f848285016155ee565b6060830152506080615683848285016155ee565b60808301525060a0615697848285016155ee565b60a08301525092915050565b60006156ae826146f6565b9050919050565b6156be816156a3565b81146156c957600080fd5b50565b6000813590506156db816156b5565b92915050565b6000806000806000806000806000806101e08b8d031215615705576157046144fc565b5b60008b013567ffffffffffffffff81111561572357615722614501565b5b61572f8d828e01614eb5565b9a505060208b013567ffffffffffffffff8111156157505761574f614501565b5b61575c8d828e01614eb5565b99505060408b013567ffffffffffffffff81111561577d5761577c614501565b5b6157898d828e01614eb5565b98505060608b013567ffffffffffffffff8111156157aa576157a9614501565b5b6157b68d828e01614eb5565b97505060806157c78d828e01614749565b96505060a06157d88d828e01614c78565b95505060c06157e98d828e01615603565b9450506101806157fb8d828e016155c2565b9350506101a061580d8d828e01614873565b9250506101c061581f8d828e016156cc565b9150509295989b9194979a5092959850565b60008060408385031215615848576158476144fc565b5b600061585685828601614749565b925050602061586785828601614749565b9150509250929050565b6000819050919050565b61588481615871565b811461588f57600080fd5b50565b6000813590506158a18161587b565b92915050565b600080600080600080600060e0888a0312156158c6576158c56144fc565b5b60006158d48a828b01615596565b97505060206158e58a828b016155c2565b96505060406158f68a828b016155ee565b95505060606159078a828b016155ee565b94505060806159188a828b016155ee565b93505060a06159298a828b016155ee565b92505060c061593a8a828b01615892565b91505092959891949750929550565b7f4e487b7100000000000000000000000000000000000000000000000000000000600052602260045260246000fd5b6000600282049050600182168061599057607f821691505b6020821081036159a3576159a2615949565b5b50919050565b7f4e487b7100000000000000000000000000000000000000000000000000000000600052601160045260246000fd5b60006159e382614673565b91506159ee83614673565b92508282026159fc81614673565b91508282048414831517615a1357615a126159a9565b5b5092915050565b6000615a2582614673565b9150615a3083614673565b9250828201905080821115615a4857615a476159a9565b5b92915050565b6000615a5982614673565b9150615a6483614673565b9250828203905081811115615a7c57615a7b6159a9565b5b92915050565b6000606082019050615a976000830186614708565b615aa46020830185614968565b615ab16040830184614968565b949350505050565b7f5265656e7472616e637947756172643a207265656e7472616e742063616c6c00600082015250565b6000615aef601f836145cc565b9150615afa82615ab9565b602082019050919050565b60006020820190508181036000830152615b1e81615ae2565b9050919050565b7f4e487b7100000000000000000000000000000000000000000000000000000000600052601260045260246000fd5b6000615b5f82614673565b9150615b6a83614673565b925082615b7a57615b79615b25565b5b828204905092915050565b600082905092915050565b60008190508160005260206000209050919050565b60006020601f8301049050919050565b600082821b905092915050565b600060088302615bf27fffffffffffffffffffffffffffffffffffffffffffffffffffffffffffffffff82615bb5565b615bfc8683615bb5565b95508019841693508086168417925050509392505050565b6000615c2f615c2a615c2584614673565b614cd5565b614673565b9050919050565b6000819050919050565b615c4983615c14565b615c5d615c5582615c36565b848454615bc2565b825550505050565b600090565b615c72615c65565b615c7d818484615c40565b505050565b5b81811015615ca157615c96600082615c6a565b600181019050615c83565b5050565b601f821115615ce657615cb781615b90565b615cc084615ba5565b81016020851015615ccf578190505b615ce3615cdb85615ba5565b830182615c82565b50505b505050565b600082821c905092915050565b6000615d0960001984600802615ceb565b1980831691505092915050565b6000615d228383615cf8565b9150826002028217905092915050565b615d3c8383615b85565b67ffffffffffffffff811115615d5557615d546147a3565b5b615d5f8254615978565b615d6a828285615ca5565b6000601f831160018114615d995760008415615d87578287013590505b615d918582615d16565b865550615df9565b601f198416615da786615b90565b60005b82811015615dcf57848901358255600182019150602085019450602081019050615daa565b86831015615dec5784890135615de8601f891682615cf8565b8355505b6001600288020188555050505b50505050505050565b6000615e0e83856145cc565b9350615e1b838584614e64565b615e2483614607565b840190509392505050565b60006040820190508181036000830152615e4a818587615e02565b9050615e596020830184614597565b949350505050565b615e6a826145c1565b67ffffffffffffffff811115615e8357615e826147a3565b5b615e8d8254615978565b615e98828285615ca5565b600060209050601f831160018114615ecb5760008415615eb9578287015190505b615ec38582615d16565b865550615f2b565b601f198416615ed986615b90565b60005b82811015615f0157848901518255600182019150602085019450602081019050615edc565b86831015615f1e5784890151615f1a601f891682615cf8565b8355505b6001600288020188555050505b505050505050565b600081905092915050565b6000615f49826145c1565b615f538185615f33565b9350615f638185602086016145dd565b80840191505092915050565b6000615f7b8284615f3e565b915081905092915050565b60006040820190508181036000830152615fa08185614618565b9050615faf6020830184614597565b9392505050565b7f4e487b7100000000000000000000000000000000000000000000000000000000600052603260045260246000fd5b600082825260208201905092915050565b6000819050919050565b616009816146f6565b82525050565b600061601b8383616000565b60208301905092915050565b60006160366020840184614749565b905092915050565b6000602082019050919050565b60006160578385615fe5565b935061606282615ff6565b8060005b8581101561609b576160788284616027565b616082888261600f565b975061608d8361603e565b925050600181019050616066565b5085925050509392505050565b600060608201905081810360008301526160c381868861604b565b90506160d26020830185614968565b6160df6040830184614968565b95945050505050565b60006160f48285615f3e565b91506161008284615f3e565b91508190509392505050565b600060408201905081810360008301526161268185614618565b9050818103602083015261613a8184614618565b90509392505050565b60008151905061615281614732565b92915050565b60006020828403121561616e5761616d6144fc565b5b600061617c84828501616143565b91505092915050565b60006fffffffffffffffffffffffffffffffff82169050919050565b6161aa81616185565b82525050565b60006020820190506161c560008301846161a1565b92915050565b6161d481616185565b81146161df57600080fd5b50565b6000815190506161f1816161cb565b92915050565b60006020828403121561620d5761620c6144fc565b5b600061621b848285016161e2565b91505092915050565b600081905092915050565b50565b600061623f600083616224565b915061624a8261622f565b600082019050919050565b600061626082616232565b9150819050919050565b600060608201905061627f6000830186614968565b61628c6020830185614708565b6162996040830184614968565b949350505050565b60006162ac82614673565b9150600082036162bf576162be6159a9565b5b600182039050919050565b60006040820190506162df6000830185614708565b6162ec6020830184614708565b9392505050565b60008151905061630281615129565b92915050565b60006020828403121561631e5761631d6144fc565b5b600061632c848285016162f3565b91505092915050565b600081519050919050565b600082825260208201905092915050565b600061635c82616335565b6163668185616340565b93506163768185602086016145dd565b61637f81614607565b840191505092915050565b600060808201905061639f6000830187614708565b6163ac6020830186614708565b6163b96040830185614968565b81810360608301526163cb8184616351565b905095945050505050565b6000815190506163e581614532565b92915050565b600060208284031215616401576164006144fc565b5b600061640f848285016163d6565b9150509291505056fea26469706673582212207e5bc4599c3a3db330de49fc9bfaf93045c04db84bf8c6351f10d53eb50ebc5a64736f6c63430008130033",
			"opcodes": "PUSH1 0x80 PUSH1 0x40 MSTORE CALLVALUE DUP1 ISZERO PUSH3 0x11 JUMPI PUSH1 0x0 DUP1 REVERT JUMPDEST POP PUSH20 0x5B38DA6A701C568545DCFCB03FCB875F56BEDDC4 PUSH1 0x1 DUP1 PUSH1 0x0 DUP2 SWAP1 SSTORE POP PUSH1 0x0 PUSH14 0xAAEB6D7670E522A718067333CD4E PUSH20 0xFFFFFFFFFFFFFFFFFFFFFFFFFFFFFFFFFFFFFFFF AND EXTCODESIZE GT ISZERO PUSH3 0x225 JUMPI DUP1 ISZERO PUSH3 0xEB JUMPI PUSH14 0xAAEB6D7670E522A718067333CD4E PUSH20 0xFFFFFFFFFFFFFFFFFFFFFFFFFFFFFFFFFFFFFFFF AND PUSH4 0x7D3E3DBE ADDRESS DUP5 PUSH1 0x40 MLOAD DUP4 PUSH4 0xFFFFFFFF AND PUSH1 0xE0 SHL DUP2 MSTORE PUSH1 0x4 ADD PUSH3 0xB1 SWAP3 SWAP2 SWAP1 PUSH3 0x272 JUMP JUMPDEST PUSH1 0x0 PUSH1 0x40 MLOAD DUP1 DUP4 SUB DUP2 PUSH1 0x0 DUP8 DUP1 EXTCODESIZE ISZERO DUP1 ISZERO PUSH3 0xCC JUMPI PUSH1 0x0 DUP1 REVERT JUMPDEST POP GAS CALL ISZERO DUP1 ISZERO PUSH3 0xE1 JUMPI RETURNDATASIZE PUSH1 0x0 DUP1 RETURNDATACOPY RETURNDATASIZE PUSH1 0x0 REVERT JUMPDEST POP POP POP POP PUSH3 0x224 JUMP JUMPDEST PUSH1 0x0 PUSH20 0xFFFFFFFFFFFFFFFFFFFFFFFFFFFFFFFFFFFFFFFF AND DUP3 PUSH20 0xFFFFFFFFFFFFFFFFFFFFFFFFFFFFFFFFFFFFFFFF AND EQ PUSH3 0x1A5 JUMPI PUSH14 0xAAEB6D7670E522A718067333CD4E PUSH20 0xFFFFFFFFFFFFFFFFFFFFFFFFFFFFFFFFFFFFFFFF AND PUSH4 0xA0AF2903 ADDRESS DUP5 PUSH1 0x40 MLOAD DUP4 PUSH4 0xFFFFFFFF AND PUSH1 0xE0 SHL DUP2 MSTORE PUSH1 0x4 ADD PUSH3 0x16B SWAP3 SWAP2 SWAP1 PUSH3 0x272 JUMP JUMPDEST PUSH1 0x0 PUSH1 0x40 MLOAD DUP1 DUP4 SUB DUP2 PUSH1 0x0 DUP8 DUP1 EXTCODESIZE ISZERO DUP1 ISZERO PUSH3 0x186 JUMPI PUSH1 0x0 DUP1 REVERT JUMPDEST POP GAS CALL ISZERO DUP1 ISZERO PUSH3 0x19B JUMPI RETURNDATASIZE PUSH1 0x0 DUP1 RETURNDATACOPY RETURNDATASIZE PUSH1 0x0 REVERT JUMPDEST POP POP POP POP PUSH3 0x223 JUMP JUMPDEST PUSH14 0xAAEB6D7670E522A718067333CD4E PUSH20 0xFFFFFFFFFFFFFFFFFFFFFFFFFFFFFFFFFFFFFFFF AND PUSH4 0x4420E486 ADDRESS PUSH1 0x40 MLOAD DUP3 PUSH4 0xFFFFFFFF AND PUSH1 0xE0 SHL DUP2 MSTORE PUSH1 0x4 ADD PUSH3 0x1EE SWAP2 SWAP1 PUSH3 0x29F JUMP JUMPDEST PUSH1 0x0 PUSH1 0x40 MLOAD DUP1 DUP4 SUB DUP2 PUSH1 0x0 DUP8 DUP1 EXTCODESIZE ISZERO DUP1 ISZERO PUSH3 0x209 JUMPI PUSH1 0x0 DUP1 REVERT JUMPDEST POP GAS CALL ISZERO DUP1 ISZERO PUSH3 0x21E JUMPI RETURNDATASIZE PUSH1 0x0 DUP1 RETURNDATACOPY RETURNDATASIZE PUSH1 0x0 REVERT JUMPDEST POP POP POP POP JUMPDEST JUMPDEST JUMPDEST POP POP PUSH3 0x2BC JUMP JUMPDEST PUSH1 0x0 PUSH20 0xFFFFFFFFFFFFFFFFFFFFFFFFFFFFFFFFFFFFFFFF DUP3 AND SWAP1 POP SWAP2 SWAP1 POP JUMP JUMPDEST PUSH1 0x0 PUSH3 0x25A DUP3 PUSH3 0x22D JUMP JUMPDEST SWAP1 POP SWAP2 SWAP1 POP JUMP JUMPDEST PUSH3 0x26C DUP2 PUSH3 0x24D JUMP JUMPDEST DUP3 MSTORE POP POP JUMP JUMPDEST PUSH1 0x0 PUSH1 0x40 DUP3 ADD SWAP1 POP PUSH3 0x289 PUSH1 0x0 DUP4 ADD DUP6 PUSH3 0x261 JUMP JUMPDEST PUSH3 0x298 PUSH1 0x20 DUP4 ADD DUP5 PUSH3 0x261 JUMP JUMPDEST SWAP4 SWAP3 POP POP POP JUMP JUMPDEST PUSH1 0x0 PUSH1 0x20 DUP3 ADD SWAP1 POP PUSH3 0x2B6 PUSH1 0x0 DUP4 ADD DUP5 PUSH3 0x261 JUMP JUMPDEST SWAP3 SWAP2 POP POP JUMP JUMPDEST PUSH2 0x644E DUP1 PUSH3 0x2CC PUSH1 0x0 CODECOPY PUSH1 0x0 RETURN INVALID PUSH1 0x80 PUSH1 0x40 MSTORE PUSH1 0x4 CALLDATASIZE LT PUSH2 0x447 JUMPI PUSH1 0x0 CALLDATALOAD PUSH1 0xE0 SHR DUP1 PUSH4 0x715018A6 GT PUSH2 0x234 JUMPI DUP1 PUSH4 0xC303734A GT PUSH2 0x12E JUMPI DUP1 PUSH4 0xE086E5EC GT PUSH2 0xB6 JUMPI DUP1 PUSH4 0xF04E283E GT PUSH2 0x7A JUMPI DUP1 PUSH4 0xF04E283E EQ PUSH2 0x1040 JUMPI DUP1 PUSH4 0xF2FDE38B EQ PUSH2 0x105C JUMPI DUP1 PUSH4 0xFB796E6C EQ PUSH2 0x1078 JUMPI DUP1 PUSH4 0xFEE81CF4 EQ PUSH2 0x10A3 JUMPI DUP1 PUSH4 0xFFDB7163 EQ PUSH2 0x10E0 JUMPI PUSH2 0x447 JUMP JUMPDEST DUP1 PUSH4 0xE086E5EC EQ PUSH2 0xF66 JUMPI DUP1 PUSH4 0xE58306F9 EQ PUSH2 0xF7D JUMPI DUP1 PUSH4 0xE6C5A1EF EQ PUSH2 0xFAD JUMPI DUP1 PUSH4 0xE8A3D485 EQ PUSH2 0xFD8 JUMPI DUP1 PUSH4 0xE985E9C5 EQ PUSH2 0x1003 JUMPI PUSH2 0x447 JUMP JUMPDEST DUP1 PUSH4 0xD111515D GT PUSH2 0xFD JUMPI DUP1 PUSH4 0xD111515D EQ PUSH2 0xE93 JUMPI DUP1 PUSH4 0xD5391393 EQ PUSH2 0xEAA JUMPI DUP1 PUSH4 0xD7533F02 EQ PUSH2 0xED5 JUMPI DUP1 PUSH4 0xDC33E681 EQ PUSH2 0xF00 JUMPI DUP1 PUSH4 0xDFB725F7 EQ PUSH2 0xF3D JUMPI PUSH2 0x447 JUMP JUMPDEST DUP1 PUSH4 0xC303734A EQ PUSH2 0xDD7 JUMPI DUP1 PUSH4 0xC4E5DB8F EQ PUSH2 0xE02 JUMPI DUP1 PUSH4 0xC87B56DD EQ PUSH2 0xE2D JUMPI DUP1 PUSH4 0xD05E8732 EQ PUSH2 0xE6A JUMPI PUSH2 0x447 JUMP JUMPDEST DUP1 PUSH4 0x938E3D7B GT PUSH2 0x1BC JUMPI DUP1 PUSH4 0xB040ADF6 GT PUSH2 0x180 JUMPI DUP1 PUSH4 0xB040ADF6 EQ PUSH2 0xD11 JUMPI DUP1 PUSH4 0xB7C0B8E8 EQ PUSH2 0xD3C JUMPI DUP1 PUSH4 0xB88D4FDE EQ PUSH2 0xD65 JUMPI DUP1 PUSH4 0xB9C9D93A EQ PUSH2 0xD81 JUMPI DUP1 PUSH4 0xBBC17BC4 EQ PUSH2 0xDAC JUMPI PUSH2 0x447 JUMP JUMPDEST DUP1 PUSH4 0x938E3D7B EQ PUSH2 0xC3E JUMPI DUP1 PUSH4 0x95D89B41 EQ PUSH2 0xC67 JUMPI DUP1 PUSH4 0xA22CB465 EQ PUSH2 0xC92 JUMPI DUP1 PUSH4 0xA2309FF8 EQ PUSH2 0xCBB JUMPI DUP1 PUSH4 0xA6F32D43 EQ PUSH2 0xCE6 JUMPI PUSH2 0x447 JUMP JUMPDEST DUP1 PUSH4 0x75794A3C GT PUSH2 0x203 JUMPI DUP1 PUSH4 0x75794A3C EQ PUSH2 0xB53 JUMPI DUP1 PUSH4 0x75B238FC EQ PUSH2 0xB7E JUMPI DUP1 PUSH4 0x778FAEEC EQ PUSH2 0xBA9 JUMPI DUP1 PUSH4 0x79502C55 EQ PUSH2 0xBE6 JUMPI DUP1 PUSH4 0x8DA5CB5B EQ PUSH2 0xC13 JUMPI PUSH2 0x447 JUMP JUMPDEST DUP1 PUSH4 0x715018A6 EQ PUSH2 0xACC JUMPI DUP1 PUSH4 0x72C7DBBE EQ PUSH2 0xAD6 JUMPI DUP1 PUSH4 0x72DFB778 EQ PUSH2 0xAFF JUMPI DUP1 PUSH4 0x7359E41F EQ PUSH2 0xB16 JUMPI PUSH2 0x447 JUMP JUMPDEST DUP1 PUSH4 0x33EA51A8 GT PUSH2 0x345 JUMPI DUP1 PUSH4 0x54214F69 GT PUSH2 0x2CD JUMPI DUP1 PUSH4 0x61FEA768 GT PUSH2 0x291 JUMPI DUP1 PUSH4 0x61FEA768 EQ PUSH2 0x9BF JUMPI DUP1 PUSH4 0x6352211E EQ PUSH2 0x9FC JUMPI DUP1 PUSH4 0x6C0360EB EQ PUSH2 0xA39 JUMPI DUP1 PUSH4 0x6F38C330 EQ PUSH2 0xA64 JUMPI DUP1 PUSH4 0x70A08231 EQ PUSH2 0xA8F JUMPI PUSH2 0x447 JUMP JUMPDEST DUP1 PUSH4 0x54214F69 EQ PUSH2 0x90B JUMPI DUP1 PUSH4 0x54D1F13D EQ PUSH2 0x936 JUMPI DUP1 PUSH4 0x55F804B3 EQ PUSH2 0x940 JUMPI DUP1 PUSH4 0x5B8D02D7 EQ PUSH2 0x969 JUMPI DUP1 PUSH4 0x5E6AE4ED EQ PUSH2 0x994 JUMPI PUSH2 0x447 JUMP JUMPDEST DUP1 PUSH4 0x41F43434 GT PUSH2 0x314 JUMPI DUP1 PUSH4 0x41F43434 EQ PUSH2 0x842 JUMPI DUP1 PUSH4 0x42842E0E EQ PUSH2 0x86D JUMPI DUP1 PUSH4 0x4A4EE7B1 EQ PUSH2 0x889 JUMPI DUP1 PUSH4 0x4C261247 EQ PUSH2 0x8A5 JUMPI DUP1 PUSH4 0x514E62FC EQ PUSH2 0x8CE JUMPI PUSH2 0x447 JUMP JUMPDEST DUP1 PUSH4 0x33EA51A8 EQ PUSH2 0x79A JUMPI DUP1 PUSH4 0x36E79A5A EQ PUSH2 0x7C3 JUMPI DUP1 PUSH4 0x3AB9D139 EQ PUSH2 0x7EC JUMPI DUP1 PUSH4 0x40197C14 EQ PUSH2 0x817 JUMPI PUSH2 0x447 JUMP JUMPDEST DUP1 PUSH4 0x1909159A GT PUSH2 0x3D3 JUMPI DUP1 PUSH4 0x25024A2B GT PUSH2 0x397 JUMPI DUP1 PUSH4 0x25024A2B EQ PUSH2 0x6BA JUMPI DUP1 PUSH4 0x25692962 EQ PUSH2 0x6EA JUMPI DUP1 PUSH4 0x2A55205A EQ PUSH2 0x6F4 JUMPI DUP1 PUSH4 0x2C02CB7E EQ PUSH2 0x732 JUMPI DUP1 PUSH4 0x2DE94807 EQ PUSH2 0x75D JUMPI PUSH2 0x447 JUMP JUMPDEST DUP1 PUSH4 0x1909159A EQ PUSH2 0x5E5 JUMPI DUP1 PUSH4 0x1C10893F EQ PUSH2 0x615 JUMPI DUP1 PUSH4 0x1CD64DF4 EQ PUSH2 0x631 JUMPI DUP1 PUSH4 0x1D2C0B38 EQ PUSH2 0x66E JUMPI DUP1 PUSH4 0x23B872DD EQ PUSH2 0x69E JUMPI PUSH2 0x447 JUMP JUMPDEST DUP1 PUSH4 0xFD0733D GT PUSH2 0x41A JUMPI DUP1 PUSH4 0xFD0733D EQ PUSH2 0x50D JUMPI DUP1 PUSH4 0x13A661ED EQ PUSH2 0x538 JUMPI DUP1 PUSH4 0x13AF4035 EQ PUSH2 0x575 JUMPI DUP1 PUSH4 0x18160DDD EQ PUSH2 0x59E JUMPI DUP1 PUSH4 0x183A4F6E EQ PUSH2 0x5C9 JUMPI PUSH2 0x447 JUMP JUMPDEST DUP1 PUSH4 0x1FFC9A7 EQ PUSH2 0x44C JUMPI DUP1 PUSH4 0x6FDDE03 EQ PUSH2 0x489 JUMPI DUP1 PUSH4 0x81812FC EQ PUSH2 0x4B4 JUMPI DUP1 PUSH4 0x95EA7B3 EQ PUSH2 0x4F1 JUMPI JUMPDEST PUSH1 0x0 DUP1 REVERT JUMPDEST CALLVALUE DUP1 ISZERO PUSH2 0x458 JUMPI PUSH1 0x0 DUP1 REVERT JUMPDEST POP PUSH2 0x473 PUSH1 0x4 DUP1 CALLDATASIZE SUB DUP2 ADD SWAP1 PUSH2 0x46E SWAP2 SWAP1 PUSH2 0x455E JUMP JUMPDEST PUSH2 0x1109 JUMP JUMPDEST PUSH1 0x40 MLOAD PUSH2 0x480 SWAP2 SWAP1 PUSH2 0x45A6 JUMP JUMPDEST PUSH1 0x40 MLOAD DUP1 SWAP2 SUB SWAP1 RETURN JUMPDEST CALLVALUE DUP1 ISZERO PUSH2 0x495 JUMPI PUSH1 0x0 DUP1 REVERT JUMPDEST POP PUSH2 0x49E PUSH2 0x1270 JUMP JUMPDEST PUSH1 0x40 MLOAD PUSH2 0x4AB SWAP2 SWAP1 PUSH2 0x4651 JUMP JUMPDEST PUSH1 0x40 MLOAD DUP1 SWAP2 SUB SWAP1 RETURN JUMPDEST CALLVALUE DUP1 ISZERO PUSH2 0x4C0 JUMPI PUSH1 0x0 DUP1 REVERT JUMPDEST POP PUSH2 0x4DB PUSH1 0x4 DUP1 CALLDATASIZE SUB DUP2 ADD SWAP1 PUSH2 0x4D6 SWAP2 SWAP1 PUSH2 0x46A9 JUMP JUMPDEST PUSH2 0x1286 JUMP JUMPDEST PUSH1 0x40 MLOAD PUSH2 0x4E8 SWAP2 SWAP1 PUSH2 0x4717 JUMP JUMPDEST PUSH1 0x40 MLOAD DUP1 SWAP2 SUB SWAP1 RETURN JUMPDEST PUSH2 0x50B PUSH1 0x4 DUP1 CALLDATASIZE SUB DUP2 ADD SWAP1 PUSH2 0x506 SWAP2 SWAP1 PUSH2 0x475E JUMP JUMPDEST PUSH2 0x12ED JUMP JUMPDEST STOP JUMPDEST CALLVALUE DUP1 ISZERO PUSH2 0x519 JUMPI PUSH1 0x0 DUP1 REVERT JUMPDEST POP PUSH2 0x522 PUSH2 0x1306 JUMP JUMPDEST PUSH1 0x40 MLOAD PUSH2 0x52F SWAP2 SWAP1 PUSH2 0x4651 JUMP JUMPDEST PUSH1 0x40 MLOAD DUP1 SWAP2 SUB SWAP1 RETURN JUMPDEST CALLVALUE DUP1 ISZERO PUSH2 0x544 JUMPI PUSH1 0x0 DUP1 REVERT JUMPDEST POP PUSH2 0x55F PUSH1 0x4 DUP1 CALLDATASIZE SUB DUP2 ADD SWAP1 PUSH2 0x55A SWAP2 SWAP1 PUSH2 0x491F JUMP JUMPDEST PUSH2 0x1394 JUMP JUMPDEST PUSH1 0x40 MLOAD PUSH2 0x56C SWAP2 SWAP1 PUSH2 0x4977 JUMP JUMPDEST PUSH1 0x40 MLOAD DUP1 SWAP2 SUB SWAP1 RETURN JUMPDEST CALLVALUE DUP1 ISZERO PUSH2 0x581 JUMPI PUSH1 0x0 DUP1 REVERT JUMPDEST POP PUSH2 0x59C PUSH1 0x4 DUP1 CALLDATASIZE SUB DUP2 ADD SWAP1 PUSH2 0x597 SWAP2 SWAP1 PUSH2 0x4992 JUMP JUMPDEST PUSH2 0x13BE JUMP JUMPDEST STOP JUMPDEST CALLVALUE DUP1 ISZERO PUSH2 0x5AA JUMPI PUSH1 0x0 DUP1 REVERT JUMPDEST POP PUSH2 0x5B3 PUSH2 0x13D6 JUMP JUMPDEST PUSH1 0x40 MLOAD PUSH2 0x5C0 SWAP2 SWAP1 PUSH2 0x4977 JUMP JUMPDEST PUSH1 0x40 MLOAD DUP1 SWAP2 SUB SWAP1 RETURN JUMPDEST PUSH2 0x5E3 PUSH1 0x4 DUP1 CALLDATASIZE SUB DUP2 ADD SWAP1 PUSH2 0x5DE SWAP2 SWAP1 PUSH2 0x46A9 JUMP JUMPDEST PUSH2 0x13FF JUMP JUMPDEST STOP JUMPDEST PUSH2 0x5FF PUSH1 0x4 DUP1 CALLDATASIZE SUB DUP2 ADD SWAP1 PUSH2 0x5FA SWAP2 SWAP1 PUSH2 0x46A9 JUMP JUMPDEST PUSH2 0x140C JUMP JUMPDEST PUSH1 0x40 MLOAD PUSH2 0x60C SWAP2 SWAP1 PUSH2 0x4977 JUMP JUMPDEST PUSH1 0x40 MLOAD DUP1 SWAP2 SUB SWAP1 RETURN JUMPDEST PUSH2 0x62F PUSH1 0x4 DUP1 CALLDATASIZE SUB DUP2 ADD SWAP1 PUSH2 0x62A SWAP2 SWAP1 PUSH2 0x475E JUMP JUMPDEST PUSH2 0x1676 JUMP JUMPDEST STOP JUMPDEST CALLVALUE DUP1 ISZERO PUSH2 0x63D JUMPI PUSH1 0x0 DUP1 REVERT JUMPDEST POP PUSH2 0x658 PUSH1 0x4 DUP1 CALLDATASIZE SUB DUP2 ADD SWAP1 PUSH2 0x653 SWAP2 SWAP1 PUSH2 0x475E JUMP JUMPDEST PUSH2 0x168C JUMP JUMPDEST PUSH1 0x40 MLOAD PUSH2 0x665 SWAP2 SWAP1 PUSH2 0x45A6 JUMP JUMPDEST PUSH1 0x40 MLOAD DUP1 SWAP2 SUB SWAP1 RETURN JUMPDEST CALLVALUE DUP1 ISZERO PUSH2 0x67A JUMPI PUSH1 0x0 DUP1 REVERT JUMPDEST POP PUSH2 0x683 PUSH2 0x16AC JUMP JUMPDEST PUSH1 0x40 MLOAD PUSH2 0x695 SWAP7 SWAP6 SWAP5 SWAP4 SWAP3 SWAP2 SWAP1 PUSH2 0x4A29 JUMP JUMPDEST PUSH1 0x40 MLOAD DUP1 SWAP2 SUB SWAP1 RETURN JUMPDEST PUSH2 0x6B8 PUSH1 0x4 DUP1 CALLDATASIZE SUB DUP2 ADD SWAP1 PUSH2 0x6B3 SWAP2 SWAP1 PUSH2 0x4A8A JUMP JUMPDEST PUSH2 0x174F JUMP JUMPDEST STOP JUMPDEST PUSH2 0x6D4 PUSH1 0x4 DUP1 CALLDATASIZE SUB DUP2 ADD SWAP1 PUSH2 0x6CF SWAP2 SWAP1 PUSH2 0x4B38 JUMP JUMPDEST PUSH2 0x179E JUMP JUMPDEST PUSH1 0x40 MLOAD PUSH2 0x6E1 SWAP2 SWAP1 PUSH2 0x4977 JUMP JUMPDEST PUSH1 0x40 MLOAD DUP1 SWAP2 SUB SWAP1 RETURN JUMPDEST PUSH2 0x6F2 PUSH2 0x1A3F JUMP JUMPDEST STOP JUMPDEST CALLVALUE DUP1 ISZERO PUSH2 0x700 JUMPI PUSH1 0x0 DUP1 REVERT JUMPDEST POP PUSH2 0x71B PUSH1 0x4 DUP1 CALLDATASIZE SUB DUP2 ADD SWAP1 PUSH2 0x716 SWAP2 SWAP1 PUSH2 0x4BC0 JUMP JUMPDEST PUSH2 0x1A93 JUMP JUMPDEST PUSH1 0x40 MLOAD PUSH2 0x729 SWAP3 SWAP2 SWAP1 PUSH2 0x4C00 JUMP JUMPDEST PUSH1 0x40 MLOAD DUP1 SWAP2 SUB SWAP1 RETURN JUMPDEST CALLVALUE DUP1 ISZERO PUSH2 0x73E JUMPI PUSH1 0x0 DUP1 REVERT JUMPDEST POP PUSH2 0x747 PUSH2 0x1AF5 JUMP JUMPDEST PUSH1 0x40 MLOAD PUSH2 0x754 SWAP2 SWAP1 PUSH2 0x4C38 JUMP JUMPDEST PUSH1 0x40 MLOAD DUP1 SWAP2 SUB SWAP1 RETURN JUMPDEST CALLVALUE DUP1 ISZERO PUSH2 0x769 JUMPI PUSH1 0x0 DUP1 REVERT JUMPDEST POP PUSH2 0x784 PUSH1 0x4 DUP1 CALLDATASIZE SUB DUP2 ADD SWAP1 PUSH2 0x77F SWAP2 SWAP1 PUSH2 0x4992 JUMP JUMPDEST PUSH2 0x1AFA JUMP JUMPDEST PUSH1 0x40 MLOAD PUSH2 0x791 SWAP2 SWAP1 PUSH2 0x4977 JUMP JUMPDEST PUSH1 0x40 MLOAD DUP1 SWAP2 SUB SWAP1 RETURN JUMPDEST CALLVALUE DUP1 ISZERO PUSH2 0x7A6 JUMPI PUSH1 0x0 DUP1 REVERT JUMPDEST POP PUSH2 0x7C1 PUSH1 0x4 DUP1 CALLDATASIZE SUB DUP2 ADD SWAP1 PUSH2 0x7BC SWAP2 SWAP1 PUSH2 0x4992 JUMP JUMPDEST PUSH2 0x1B15 JUMP JUMPDEST STOP JUMPDEST CALLVALUE DUP1 ISZERO PUSH2 0x7CF JUMPI PUSH1 0x0 DUP1 REVERT JUMPDEST POP PUSH2 0x7EA PUSH1 0x4 DUP1 CALLDATASIZE SUB DUP2 ADD SWAP1 PUSH2 0x7E5 SWAP2 SWAP1 PUSH2 0x4C8D JUMP JUMPDEST PUSH2 0x1C24 JUMP JUMPDEST STOP JUMPDEST CALLVALUE DUP1 ISZERO PUSH2 0x7F8 JUMPI PUSH1 0x0 DUP1 REVERT JUMPDEST POP PUSH2 0x801 PUSH2 0x1CCD JUMP JUMPDEST PUSH1 0x40 MLOAD PUSH2 0x80E SWAP2 SWAP1 PUSH2 0x4CBA JUMP JUMPDEST PUSH1 0x40 MLOAD DUP1 SWAP2 SUB SWAP1 RETURN JUMPDEST CALLVALUE DUP1 ISZERO PUSH2 0x823 JUMPI PUSH1 0x0 DUP1 REVERT JUMPDEST POP PUSH2 0x82C PUSH2 0x1CE3 JUMP JUMPDEST PUSH1 0x40 MLOAD PUSH2 0x839 SWAP2 SWAP1 PUSH2 0x4D34 JUMP JUMPDEST PUSH1 0x40 MLOAD DUP1 SWAP2 SUB SWAP1 RETURN JUMPDEST CALLVALUE DUP1 ISZERO PUSH2 0x84E JUMPI PUSH1 0x0 DUP1 REVERT JUMPDEST POP PUSH2 0x857 PUSH2 0x1D09 JUMP JUMPDEST PUSH1 0x40 MLOAD PUSH2 0x864 SWAP2 SWAP1 PUSH2 0x4D70 JUMP JUMPDEST PUSH1 0x40 MLOAD DUP1 SWAP2 SUB SWAP1 RETURN JUMPDEST PUSH2 0x887 PUSH1 0x4 DUP1 CALLDATASIZE SUB DUP2 ADD SWAP1 PUSH2 0x882 SWAP2 SWAP1 PUSH2 0x4A8A JUMP JUMPDEST PUSH2 0x1D1B JUMP JUMPDEST STOP JUMPDEST PUSH2 0x8A3 PUSH1 0x4 DUP1 CALLDATASIZE SUB DUP2 ADD SWAP1 PUSH2 0x89E SWAP2 SWAP1 PUSH2 0x475E JUMP JUMPDEST PUSH2 0x1D6A JUMP JUMPDEST STOP JUMPDEST CALLVALUE DUP1 ISZERO PUSH2 0x8B1 JUMPI PUSH1 0x0 DUP1 REVERT JUMPDEST POP PUSH2 0x8CC PUSH1 0x4 DUP1 CALLDATASIZE SUB DUP2 ADD SWAP1 PUSH2 0x8C7 SWAP2 SWAP1 PUSH2 0x4DE1 JUMP JUMPDEST PUSH2 0x1D80 JUMP JUMPDEST STOP JUMPDEST CALLVALUE DUP1 ISZERO PUSH2 0x8DA JUMPI PUSH1 0x0 DUP1 REVERT JUMPDEST POP PUSH2 0x8F5 PUSH1 0x4 DUP1 CALLDATASIZE SUB DUP2 ADD SWAP1 PUSH2 0x8F0 SWAP2 SWAP1 PUSH2 0x475E JUMP JUMPDEST PUSH2 0x1E13 JUMP JUMPDEST PUSH1 0x40 MLOAD PUSH2 0x902 SWAP2 SWAP1 PUSH2 0x45A6 JUMP JUMPDEST PUSH1 0x40 MLOAD DUP1 SWAP2 SUB SWAP1 RETURN JUMPDEST CALLVALUE DUP1 ISZERO PUSH2 0x917 JUMPI PUSH1 0x0 DUP1 REVERT JUMPDEST POP PUSH2 0x920 PUSH2 0x1E33 JUMP JUMPDEST PUSH1 0x40 MLOAD PUSH2 0x92D SWAP2 SWAP1 PUSH2 0x45A6 JUMP JUMPDEST PUSH1 0x40 MLOAD DUP1 SWAP2 SUB SWAP1 RETURN JUMPDEST PUSH2 0x93E PUSH2 0x1E46 JUMP JUMPDEST STOP JUMPDEST CALLVALUE DUP1 ISZERO PUSH2 0x94C JUMPI PUSH1 0x0 DUP1 REVERT JUMPDEST POP PUSH2 0x967 PUSH1 0x4 DUP1 CALLDATASIZE SUB DUP2 ADD SWAP1 PUSH2 0x962 SWAP2 SWAP1 PUSH2 0x4EE3 JUMP JUMPDEST PUSH2 0x1E82 JUMP JUMPDEST STOP JUMPDEST CALLVALUE DUP1 ISZERO PUSH2 0x975 JUMPI PUSH1 0x0 DUP1 REVERT JUMPDEST POP PUSH2 0x97E PUSH2 0x1F32 JUMP JUMPDEST PUSH1 0x40 MLOAD PUSH2 0x98B SWAP2 SWAP1 PUSH2 0x4717 JUMP JUMPDEST PUSH1 0x40 MLOAD DUP1 SWAP2 SUB SWAP1 RETURN JUMPDEST CALLVALUE DUP1 ISZERO PUSH2 0x9A0 JUMPI PUSH1 0x0 DUP1 REVERT JUMPDEST POP PUSH2 0x9A9 PUSH2 0x1F58 JUMP JUMPDEST PUSH1 0x40 MLOAD PUSH2 0x9B6 SWAP2 SWAP1 PUSH2 0x4C38 JUMP JUMPDEST PUSH1 0x40 MLOAD DUP1 SWAP2 SUB SWAP1 RETURN JUMPDEST CALLVALUE DUP1 ISZERO PUSH2 0x9CB JUMPI PUSH1 0x0 DUP1 REVERT JUMPDEST POP PUSH2 0x9E6 PUSH1 0x4 DUP1 CALLDATASIZE SUB DUP2 ADD SWAP1 PUSH2 0x9E1 SWAP2 SWAP1 PUSH2 0x4992 JUMP JUMPDEST PUSH2 0x1F5D JUMP JUMPDEST PUSH1 0x40 MLOAD PUSH2 0x9F3 SWAP2 SWAP1 PUSH2 0x4977 JUMP JUMPDEST PUSH1 0x40 MLOAD DUP1 SWAP2 SUB SWAP1 RETURN JUMPDEST CALLVALUE DUP1 ISZERO PUSH2 0xA08 JUMPI PUSH1 0x0 DUP1 REVERT JUMPDEST POP PUSH2 0xA23 PUSH1 0x4 DUP1 CALLDATASIZE SUB DUP2 ADD SWAP1 PUSH2 0xA1E SWAP2 SWAP1 PUSH2 0x46A9 JUMP JUMPDEST PUSH2 0x1F75 JUMP JUMPDEST PUSH1 0x40 MLOAD PUSH2 0xA30 SWAP2 SWAP1 PUSH2 0x4717 JUMP JUMPDEST PUSH1 0x40 MLOAD DUP1 SWAP2 SUB SWAP1 RETURN JUMPDEST CALLVALUE DUP1 ISZERO PUSH2 0xA45 JUMPI PUSH1 0x0 DUP1 REVERT JUMPDEST POP PUSH2 0xA4E PUSH2 0x1F87 JUMP JUMPDEST PUSH1 0x40 MLOAD PUSH2 0xA5B SWAP2 SWAP1 PUSH2 0x4651 JUMP JUMPDEST PUSH1 0x40 MLOAD DUP1 SWAP2 SUB SWAP1 RETURN JUMPDEST CALLVALUE DUP1 ISZERO PUSH2 0xA70 JUMPI PUSH1 0x0 DUP1 REVERT JUMPDEST POP PUSH2 0xA79 PUSH2 0x2019 JUMP JUMPDEST PUSH1 0x40 MLOAD PUSH2 0xA86 SWAP2 SWAP1 PUSH2 0x4977 JUMP JUMPDEST PUSH1 0x40 MLOAD DUP1 SWAP2 SUB SWAP1 RETURN JUMPDEST CALLVALUE DUP1 ISZERO PUSH2 0xA9B JUMPI PUSH1 0x0 DUP1 REVERT JUMPDEST POP PUSH2 0xAB6 PUSH1 0x4 DUP1 CALLDATASIZE SUB DUP2 ADD SWAP1 PUSH2 0xAB1 SWAP2 SWAP1 PUSH2 0x4992 JUMP JUMPDEST PUSH2 0x201E JUMP JUMPDEST PUSH1 0x40 MLOAD PUSH2 0xAC3 SWAP2 SWAP1 PUSH2 0x4977 JUMP JUMPDEST PUSH1 0x40 MLOAD DUP1 SWAP2 SUB SWAP1 RETURN JUMPDEST PUSH2 0xAD4 PUSH2 0x20BE JUMP JUMPDEST STOP JUMPDEST CALLVALUE DUP1 ISZERO PUSH2 0xAE2 JUMPI PUSH1 0x0 DUP1 REVERT JUMPDEST POP PUSH2 0xAFD PUSH1 0x4 DUP1 CALLDATASIZE SUB DUP2 ADD SWAP1 PUSH2 0xAF8 SWAP2 SWAP1 PUSH2 0x4EE3 JUMP JUMPDEST PUSH2 0x20D2 JUMP JUMPDEST STOP JUMPDEST CALLVALUE DUP1 ISZERO PUSH2 0xB0B JUMPI PUSH1 0x0 DUP1 REVERT JUMPDEST POP PUSH2 0xB14 PUSH2 0x2145 JUMP JUMPDEST STOP JUMPDEST CALLVALUE DUP1 ISZERO PUSH2 0xB22 JUMPI PUSH1 0x0 DUP1 REVERT JUMPDEST POP PUSH2 0xB3D PUSH1 0x4 DUP1 CALLDATASIZE SUB DUP2 ADD SWAP1 PUSH2 0xB38 SWAP2 SWAP1 PUSH2 0x46A9 JUMP JUMPDEST PUSH2 0x2147 JUMP JUMPDEST PUSH1 0x40 MLOAD PUSH2 0xB4A SWAP2 SWAP1 PUSH2 0x4FEA JUMP JUMPDEST PUSH1 0x40 MLOAD DUP1 SWAP2 SUB SWAP1 RETURN JUMPDEST CALLVALUE DUP1 ISZERO PUSH2 0xB5F JUMPI PUSH1 0x0 DUP1 REVERT JUMPDEST POP PUSH2 0xB68 PUSH2 0x2193 JUMP JUMPDEST PUSH1 0x40 MLOAD PUSH2 0xB75 SWAP2 SWAP1 PUSH2 0x4977 JUMP JUMPDEST PUSH1 0x40 MLOAD DUP1 SWAP2 SUB SWAP1 RETURN JUMPDEST CALLVALUE DUP1 ISZERO PUSH2 0xB8A JUMPI PUSH1 0x0 DUP1 REVERT JUMPDEST POP PUSH2 0xB93 PUSH2 0x21A2 JUMP JUMPDEST PUSH1 0x40 MLOAD PUSH2 0xBA0 SWAP2 SWAP1 PUSH2 0x4977 JUMP JUMPDEST PUSH1 0x40 MLOAD DUP1 SWAP2 SUB SWAP1 RETURN JUMPDEST CALLVALUE DUP1 ISZERO PUSH2 0xBB5 JUMPI PUSH1 0x0 DUP1 REVERT JUMPDEST POP PUSH2 0xBD0 PUSH1 0x4 DUP1 CALLDATASIZE SUB DUP2 ADD SWAP1 PUSH2 0xBCB SWAP2 SWAP1 PUSH2 0x5062 JUMP JUMPDEST PUSH2 0x21A7 JUMP JUMPDEST PUSH1 0x40 MLOAD PUSH2 0xBDD SWAP2 SWAP1 PUSH2 0x4977 JUMP JUMPDEST PUSH1 0x40 MLOAD DUP1 SWAP2 SUB SWAP1 RETURN JUMPDEST CALLVALUE DUP1 ISZERO PUSH2 0xBF2 JUMPI PUSH1 0x0 DUP1 REVERT JUMPDEST POP PUSH2 0xBFB PUSH2 0x2290 JUMP JUMPDEST PUSH1 0x40 MLOAD PUSH2 0xC0A SWAP4 SWAP3 SWAP2 SWAP1 PUSH2 0x50F2 JUMP JUMPDEST PUSH1 0x40 MLOAD DUP1 SWAP2 SUB SWAP1 RETURN JUMPDEST CALLVALUE DUP1 ISZERO PUSH2 0xC1F JUMPI PUSH1 0x0 DUP1 REVERT JUMPDEST POP PUSH2 0xC28 PUSH2 0x22EA JUMP JUMPDEST PUSH1 0x40 MLOAD PUSH2 0xC35 SWAP2 SWAP1 PUSH2 0x4717 JUMP JUMPDEST PUSH1 0x40 MLOAD DUP1 SWAP2 SUB SWAP1 RETURN JUMPDEST CALLVALUE DUP1 ISZERO PUSH2 0xC4A JUMPI PUSH1 0x0 DUP1 REVERT JUMPDEST POP PUSH2 0xC65 PUSH1 0x4 DUP1 CALLDATASIZE SUB DUP2 ADD SWAP1 PUSH2 0xC60 SWAP2 SWAP1 PUSH2 0x4EE3 JUMP JUMPDEST PUSH2 0x22F9 JUMP JUMPDEST STOP JUMPDEST CALLVALUE DUP1 ISZERO PUSH2 0xC73 JUMPI PUSH1 0x0 DUP1 REVERT JUMPDEST POP PUSH2 0xC7C PUSH2 0x23A9 JUMP JUMPDEST PUSH1 0x40 MLOAD PUSH2 0xC89 SWAP2 SWAP1 PUSH2 0x4651 JUMP JUMPDEST PUSH1 0x40 MLOAD DUP1 SWAP2 SUB SWAP1 RETURN JUMPDEST CALLVALUE DUP1 ISZERO PUSH2 0xC9E JUMPI PUSH1 0x0 DUP1 REVERT JUMPDEST POP PUSH2 0xCB9 PUSH1 0x4 DUP1 CALLDATASIZE SUB DUP2 ADD SWAP1 PUSH2 0xCB4 SWAP2 SWAP1 PUSH2 0x5155 JUMP JUMPDEST PUSH2 0x23BF JUMP JUMPDEST STOP JUMPDEST CALLVALUE DUP1 ISZERO PUSH2 0xCC7 JUMPI PUSH1 0x0 DUP1 REVERT JUMPDEST POP PUSH2 0xCD0 PUSH2 0x23D8 JUMP JUMPDEST PUSH1 0x40 MLOAD PUSH2 0xCDD SWAP2 SWAP1 PUSH2 0x4977 JUMP JUMPDEST PUSH1 0x40 MLOAD DUP1 SWAP2 SUB SWAP1 RETURN JUMPDEST CALLVALUE DUP1 ISZERO PUSH2 0xCF2 JUMPI PUSH1 0x0 DUP1 REVERT JUMPDEST POP PUSH2 0xCFB PUSH2 0x23E7 JUMP JUMPDEST PUSH1 0x40 MLOAD PUSH2 0xD08 SWAP2 SWAP1 PUSH2 0x45A6 JUMP JUMPDEST PUSH1 0x40 MLOAD DUP1 SWAP2 SUB SWAP1 RETURN JUMPDEST CALLVALUE DUP1 ISZERO PUSH2 0xD1D JUMPI PUSH1 0x0 DUP1 REVERT JUMPDEST POP PUSH2 0xD26 PUSH2 0x2405 JUMP JUMPDEST PUSH1 0x40 MLOAD PUSH2 0xD33 SWAP2 SWAP1 PUSH2 0x45A6 JUMP JUMPDEST PUSH1 0x40 MLOAD DUP1 SWAP2 SUB SWAP1 RETURN JUMPDEST CALLVALUE DUP1 ISZERO PUSH2 0xD48 JUMPI PUSH1 0x0 DUP1 REVERT JUMPDEST POP PUSH2 0xD63 PUSH1 0x4 DUP1 CALLDATASIZE SUB DUP2 ADD SWAP1 PUSH2 0xD5E SWAP2 SWAP1 PUSH2 0x5195 JUMP JUMPDEST PUSH2 0x240E JUMP JUMPDEST STOP JUMPDEST PUSH2 0xD7F PUSH1 0x4 DUP1 CALLDATASIZE SUB DUP2 ADD SWAP1 PUSH2 0xD7A SWAP2 SWAP1 PUSH2 0x5263 JUMP JUMPDEST PUSH2 0x24A4 JUMP JUMPDEST STOP JUMPDEST CALLVALUE DUP1 ISZERO PUSH2 0xD8D JUMPI PUSH1 0x0 DUP1 REVERT JUMPDEST POP PUSH2 0xD96 PUSH2 0x24F5 JUMP JUMPDEST PUSH1 0x40 MLOAD PUSH2 0xDA3 SWAP2 SWAP1 PUSH2 0x52E6 JUMP JUMPDEST PUSH1 0x40 MLOAD DUP1 SWAP2 SUB SWAP1 RETURN JUMPDEST CALLVALUE DUP1 ISZERO PUSH2 0xDB8 JUMPI PUSH1 0x0 DUP1 REVERT JUMPDEST POP PUSH2 0xDC1 PUSH2 0x2509 JUMP JUMPDEST PUSH1 0x40 MLOAD PUSH2 0xDCE SWAP2 SWAP1 PUSH2 0x4C38 JUMP JUMPDEST PUSH1 0x40 MLOAD DUP1 SWAP2 SUB SWAP1 RETURN JUMPDEST CALLVALUE DUP1 ISZERO PUSH2 0xDE3 JUMPI PUSH1 0x0 DUP1 REVERT JUMPDEST POP PUSH2 0xDEC PUSH2 0x250E JUMP JUMPDEST PUSH1 0x40 MLOAD PUSH2 0xDF9 SWAP2 SWAP1 PUSH2 0x4C38 JUMP JUMPDEST PUSH1 0x40 MLOAD DUP1 SWAP2 SUB SWAP1 RETURN JUMPDEST CALLVALUE DUP1 ISZERO PUSH2 0xE0E JUMPI PUSH1 0x0 DUP1 REVERT JUMPDEST POP PUSH2 0xE17 PUSH2 0x2513 JUMP JUMPDEST PUSH1 0x40 MLOAD PUSH2 0xE24 SWAP2 SWAP1 PUSH2 0x4651 JUMP JUMPDEST PUSH1 0x40 MLOAD DUP1 SWAP2 SUB SWAP1 RETURN JUMPDEST CALLVALUE DUP1 ISZERO PUSH2 0xE39 JUMPI PUSH1 0x0 DUP1 REVERT JUMPDEST POP PUSH2 0xE54 PUSH1 0x4 DUP1 CALLDATASIZE SUB DUP2 ADD SWAP1 PUSH2 0xE4F SWAP2 SWAP1 PUSH2 0x46A9 JUMP JUMPDEST PUSH2 0x25A1 JUMP JUMPDEST PUSH1 0x40 MLOAD PUSH2 0xE61 SWAP2 SWAP1 PUSH2 0x4651 JUMP JUMPDEST PUSH1 0x40 MLOAD DUP1 SWAP2 SUB SWAP1 RETURN JUMPDEST CALLVALUE DUP1 ISZERO PUSH2 0xE76 JUMPI PUSH1 0x0 DUP1 REVERT JUMPDEST POP PUSH2 0xE91 PUSH1 0x4 DUP1 CALLDATASIZE SUB DUP2 ADD SWAP1 PUSH2 0xE8C SWAP2 SWAP1 PUSH2 0x551B JUMP JUMPDEST PUSH2 0x263F JUMP JUMPDEST STOP JUMPDEST CALLVALUE DUP1 ISZERO PUSH2 0xE9F JUMPI PUSH1 0x0 DUP1 REVERT JUMPDEST POP PUSH2 0xEA8 PUSH2 0x268F JUMP JUMPDEST STOP JUMPDEST CALLVALUE DUP1 ISZERO PUSH2 0xEB6 JUMPI PUSH1 0x0 DUP1 REVERT JUMPDEST POP PUSH2 0xEBF PUSH2 0x2761 JUMP JUMPDEST PUSH1 0x40 MLOAD PUSH2 0xECC SWAP2 SWAP1 PUSH2 0x4977 JUMP JUMPDEST PUSH1 0x40 MLOAD DUP1 SWAP2 SUB SWAP1 RETURN JUMPDEST CALLVALUE DUP1 ISZERO PUSH2 0xEE1 JUMPI PUSH1 0x0 DUP1 REVERT JUMPDEST POP PUSH2 0xEEA PUSH2 0x2766 JUMP JUMPDEST PUSH1 0x40 MLOAD PUSH2 0xEF7 SWAP2 SWAP1 PUSH2 0x5564 JUMP JUMPDEST PUSH1 0x40 MLOAD DUP1 SWAP2 SUB SWAP1 RETURN JUMPDEST CALLVALUE DUP1 ISZERO PUSH2 0xF0C JUMPI PUSH1 0x0 DUP1 REVERT JUMPDEST POP PUSH2 0xF27 PUSH1 0x4 DUP1 CALLDATASIZE SUB DUP2 ADD SWAP1 PUSH2 0xF22 SWAP2 SWAP1 PUSH2 0x4992 JUMP JUMPDEST PUSH2 0x2771 JUMP JUMPDEST PUSH1 0x40 MLOAD PUSH2 0xF34 SWAP2 SWAP1 PUSH2 0x4977 JUMP JUMPDEST PUSH1 0x40 MLOAD DUP1 SWAP2 SUB SWAP1 RETURN JUMPDEST CALLVALUE DUP1 ISZERO PUSH2 0xF49 JUMPI PUSH1 0x0 DUP1 REVERT JUMPDEST POP PUSH2 0xF64 PUSH1 0x4 DUP1 CALLDATASIZE SUB DUP2 ADD SWAP1 PUSH2 0xF5F SWAP2 SWAP1 PUSH2 0x56E1 JUMP JUMPDEST PUSH2 0x2783 JUMP JUMPDEST STOP JUMPDEST CALLVALUE DUP1 ISZERO PUSH2 0xF72 JUMPI PUSH1 0x0 DUP1 REVERT JUMPDEST POP PUSH2 0xF7B PUSH2 0x2ADA JUMP JUMPDEST STOP JUMPDEST PUSH2 0xF97 PUSH1 0x4 DUP1 CALLDATASIZE SUB DUP2 ADD SWAP1 PUSH2 0xF92 SWAP2 SWAP1 PUSH2 0x475E JUMP JUMPDEST PUSH2 0x2E99 JUMP JUMPDEST PUSH1 0x40 MLOAD PUSH2 0xFA4 SWAP2 SWAP1 PUSH2 0x4977 JUMP JUMPDEST PUSH1 0x40 MLOAD DUP1 SWAP2 SUB SWAP1 RETURN JUMPDEST CALLVALUE DUP1 ISZERO PUSH2 0xFB9 JUMPI PUSH1 0x0 DUP1 REVERT JUMPDEST POP PUSH2 0xFC2 PUSH2 0x2F6C JUMP JUMPDEST PUSH1 0x40 MLOAD PUSH2 0xFCF SWAP2 SWAP1 PUSH2 0x4CBA JUMP JUMPDEST PUSH1 0x40 MLOAD DUP1 SWAP2 SUB SWAP1 RETURN JUMPDEST CALLVALUE DUP1 ISZERO PUSH2 0xFE4 JUMPI PUSH1 0x0 DUP1 REVERT JUMPDEST POP PUSH2 0xFED PUSH2 0x2F86 JUMP JUMPDEST PUSH1 0x40 MLOAD PUSH2 0xFFA SWAP2 SWAP1 PUSH2 0x4651 JUMP JUMPDEST PUSH1 0x40 MLOAD DUP1 SWAP2 SUB SWAP1 RETURN JUMPDEST CALLVALUE DUP1 ISZERO PUSH2 0x100F JUMPI PUSH1 0x0 DUP1 REVERT JUMPDEST POP PUSH2 0x102A PUSH1 0x4 DUP1 CALLDATASIZE SUB DUP2 ADD SWAP1 PUSH2 0x1025 SWAP2 SWAP1 PUSH2 0x5831 JUMP JUMPDEST PUSH2 0x3018 JUMP JUMPDEST PUSH1 0x40 MLOAD PUSH2 0x1037 SWAP2 SWAP1 PUSH2 0x45A6 JUMP JUMPDEST PUSH1 0x40 MLOAD DUP1 SWAP2 SUB SWAP1 RETURN JUMPDEST PUSH2 0x105A PUSH1 0x4 DUP1 CALLDATASIZE SUB DUP2 ADD SWAP1 PUSH2 0x1055 SWAP2 SWAP1 PUSH2 0x4992 JUMP JUMPDEST PUSH2 0x30B5 JUMP JUMPDEST STOP JUMPDEST PUSH2 0x1076 PUSH1 0x4 DUP1 CALLDATASIZE SUB DUP2 ADD SWAP1 PUSH2 0x1071 SWAP2 SWAP1 PUSH2 0x4992 JUMP JUMPDEST PUSH2 0x30F6 JUMP JUMPDEST STOP JUMPDEST CALLVALUE DUP1 ISZERO PUSH2 0x1084 JUMPI PUSH1 0x0 DUP1 REVERT JUMPDEST POP PUSH2 0x108D PUSH2 0x3120 JUMP JUMPDEST PUSH1 0x40 MLOAD PUSH2 0x109A SWAP2 SWAP1 PUSH2 0x45A6 JUMP JUMPDEST PUSH1 0x40 MLOAD DUP1 SWAP2 SUB SWAP1 RETURN JUMPDEST CALLVALUE DUP1 ISZERO PUSH2 0x10AF JUMPI PUSH1 0x0 DUP1 REVERT JUMPDEST POP PUSH2 0x10CA PUSH1 0x4 DUP1 CALLDATASIZE SUB DUP2 ADD SWAP1 PUSH2 0x10C5 SWAP2 SWAP1 PUSH2 0x4992 JUMP JUMPDEST PUSH2 0x312F JUMP JUMPDEST PUSH1 0x40 MLOAD PUSH2 0x10D7 SWAP2 SWAP1 PUSH2 0x4977 JUMP JUMPDEST PUSH1 0x40 MLOAD DUP1 SWAP2 SUB SWAP1 RETURN JUMPDEST CALLVALUE DUP1 ISZERO PUSH2 0x10EC JUMPI PUSH1 0x0 DUP1 REVERT JUMPDEST POP PUSH2 0x1107 PUSH1 0x4 DUP1 CALLDATASIZE SUB DUP2 ADD SWAP1 PUSH2 0x1102 SWAP2 SWAP1 PUSH2 0x58A7 JUMP JUMPDEST PUSH2 0x314A JUMP JUMPDEST STOP JUMPDEST PUSH1 0x0 PUSH4 0xE1B3426D PUSH1 0xE0 SHL PUSH28 0xFFFFFFFFFFFFFFFFFFFFFFFFFFFFFFFFFFFFFFFFFFFFFFFFFFFFFFFF NOT AND DUP3 PUSH28 0xFFFFFFFFFFFFFFFFFFFFFFFFFFFFFFFFFFFFFFFFFFFFFFFFFFFFFFFF NOT AND EQ DUP1 PUSH2 0x11BB JUMPI POP PUSH32 0xE04A982700000000000000000000000000000000000000000000000000000000 PUSH28 0xFFFFFFFFFFFFFFFFFFFFFFFFFFFFFFFFFFFFFFFFFFFFFFFFFFFFFFFF NOT AND DUP3 PUSH28 0xFFFFFFFFFFFFFFFFFFFFFFFFFFFFFFFFFFFFFFFFFFFFFFFFFFFFFFFF NOT AND EQ JUMPDEST DUP1 PUSH2 0x11CB JUMPI POP PUSH2 0x11CA DUP3 PUSH2 0x32AC JUMP JUMPDEST JUMPDEST DUP1 PUSH2 0x121A JUMPI POP PUSH4 0x2A55205A PUSH1 0xE0 SHL PUSH28 0xFFFFFFFFFFFFFFFFFFFFFFFFFFFFFFFFFFFFFFFFFFFFFFFFFFFFFFFF NOT AND DUP3 PUSH28 0xFFFFFFFFFFFFFFFFFFFFFFFFFFFFFFFFFFFFFFFFFFFFFFFFFFFFFFFF NOT AND EQ JUMPDEST DUP1 PUSH2 0x1269 JUMPI POP PUSH4 0x1FFC9A7 PUSH1 0xE0 SHL PUSH28 0xFFFFFFFFFFFFFFFFFFFFFFFFFFFFFFFFFFFFFFFFFFFFFFFFFFFFFFFF NOT AND DUP3 PUSH28 0xFFFFFFFFFFFFFFFFFFFFFFFFFFFFFFFFFFFFFFFFFFFFFFFFFFFFFFFF NOT AND EQ JUMPDEST SWAP1 POP SWAP2 SWAP1 POP JUMP JUMPDEST PUSH1 0x60 PUSH1 0x0 PUSH2 0x127C PUSH2 0x333E JUMP JUMPDEST POP SWAP1 POP DUP1 SWAP2 POP POP SWAP1 JUMP JUMPDEST PUSH1 0x0 PUSH2 0x1291 DUP3 PUSH2 0x349A JUMP JUMPDEST PUSH2 0x12A6 JUMPI PUSH2 0x12A5 PUSH4 0xCF4700E4 PUSH1 0xE0 SHL PUSH2 0x3525 JUMP JUMPDEST JUMPDEST PUSH2 0x12AE PUSH2 0x352F JUMP JUMPDEST PUSH1 0x6 ADD PUSH1 0x0 DUP4 DUP2 MSTORE PUSH1 0x20 ADD SWAP1 DUP2 MSTORE PUSH1 0x20 ADD PUSH1 0x0 KECCAK256 PUSH1 0x0 ADD PUSH1 0x0 SWAP1 SLOAD SWAP1 PUSH2 0x100 EXP SWAP1 DIV PUSH20 0xFFFFFFFFFFFFFFFFFFFFFFFFFFFFFFFFFFFFFFFF AND SWAP1 POP SWAP2 SWAP1 POP JUMP JUMPDEST DUP2 PUSH2 0x12F7 DUP2 PUSH2 0x355C JUMP JUMPDEST PUSH2 0x1301 DUP4 DUP4 PUSH2 0x3659 JUMP JUMPDEST POP POP POP JUMP JUMPDEST PUSH1 0x4 DUP1 SLOAD PUSH2 0x1313 SWAP1 PUSH2 0x5978 JUMP JUMPDEST DUP1 PUSH1 0x1F ADD PUSH1 0x20 DUP1 SWAP2 DIV MUL PUSH1 0x20 ADD PUSH1 0x40 MLOAD SWAP1 DUP2 ADD PUSH1 0x40 MSTORE DUP1 SWAP3 SWAP2 SWAP1 DUP2 DUP2 MSTORE PUSH1 0x20 ADD DUP3 DUP1 SLOAD PUSH2 0x133F SWAP1 PUSH2 0x5978 JUMP JUMPDEST DUP1 ISZERO PUSH2 0x138C JUMPI DUP1 PUSH1 0x1F LT PUSH2 0x1361 JUMPI PUSH2 0x100 DUP1 DUP4 SLOAD DIV MUL DUP4 MSTORE SWAP2 PUSH1 0x20 ADD SWAP2 PUSH2 0x138C JUMP JUMPDEST DUP3 ADD SWAP2 SWAP1 PUSH1 0x0 MSTORE PUSH1 0x20 PUSH1 0x0 KECCAK256 SWAP1 JUMPDEST DUP2 SLOAD DUP2 MSTORE SWAP1 PUSH1 0x1 ADD SWAP1 PUSH1 0x20 ADD DUP1 DUP4 GT PUSH2 0x136F JUMPI DUP3 SWAP1 SUB PUSH1 0x1F AND DUP3 ADD SWAP2 JUMPDEST POP POP POP POP POP DUP2 JUMP JUMPDEST PUSH1 0x0 DUP2 MLOAD PUSH1 0x5 SHL JUMPDEST DUP1 ISZERO PUSH2 0x13B8 JUMPI DUP2 PUSH1 0x1 DUP3 DUP6 ADD MLOAD SHL OR SWAP2 POP PUSH1 0x20 DUP2 SUB SWAP1 POP PUSH2 0x139C JUMP JUMPDEST POP SWAP2 SWAP1 POP JUMP JUMPDEST PUSH1 0x1 PUSH2 0x13C9 DUP2 PUSH2 0x3669 JUMP JUMPDEST PUSH2 0x13D2 DUP3 PUSH2 0x36A0 JUMP JUMPDEST POP POP JUMP JUMPDEST PUSH1 0x0 PUSH2 0x13E0 PUSH2 0x36DE JUMP JUMPDEST PUSH2 0x13E8 PUSH2 0x352F JUMP JUMPDEST PUSH1 0x1 ADD SLOAD PUSH2 0x13F4 PUSH2 0x352F JUMP JUMPDEST PUSH1 0x0 ADD SLOAD SUB SUB SWAP1 POP SWAP1 JUMP JUMPDEST PUSH2 0x1409 CALLER DUP3 PUSH2 0x36E7 JUMP JUMPDEST POP JUMP JUMPDEST PUSH1 0x0 DUP2 PUSH1 0xFF DUP2 GT ISZERO PUSH2 0x144A JUMPI PUSH1 0x40 MLOAD PUSH32 0x851CF82A00000000000000000000000000000000000000000000000000000000 DUP2 MSTORE PUSH1 0x4 ADD PUSH1 0x40 MLOAD DUP1 SWAP2 SUB SWAP1 REVERT JUMPDEST DUP3 PUSH1 0x0 PUSH2 0x1455 PUSH2 0x23D8 JUMP JUMPDEST SWAP1 POP PUSH1 0x0 PUSH2 0x1461 PUSH2 0x2F6C JUMP JUMPDEST PUSH4 0xFFFFFFFF AND SWAP1 POP DUP1 DUP4 DUP4 ADD GT ISZERO PUSH2 0x14B7 JUMPI PUSH1 0x0 DUP3 DUP3 SUB SWAP1 POP DUP1 PUSH1 0x40 MLOAD PUSH32 0x4D5C803F00000000000000000000000000000000000000000000000000000000 DUP2 MSTORE PUSH1 0x4 ADD PUSH2 0x14AE SWAP2 SWAP1 PUSH2 0x4CBA JUMP JUMPDEST PUSH1 0x40 MLOAD DUP1 SWAP2 SUB SWAP1 REVERT JUMPDEST POP POP PUSH1 0x0 PUSH1 0x8 PUSH1 0x0 ADD PUSH1 0x0 SWAP1 SLOAD SWAP1 PUSH2 0x100 EXP SWAP1 DIV PUSH13 0xFFFFFFFFFFFFFFFFFFFFFFFFFF AND PUSH13 0xFFFFFFFFFFFFFFFFFFFFFFFFFF AND SWAP1 POP DUP5 DUP2 PUSH2 0x14F7 SWAP2 SWAP1 PUSH2 0x59D8 JUMP JUMPDEST CALLVALUE EQ PUSH2 0x1545 JUMPI DUP5 DUP2 PUSH2 0x1509 SWAP2 SWAP1 PUSH2 0x59D8 JUMP JUMPDEST PUSH1 0x40 MLOAD PUSH32 0x6A1C179E00000000000000000000000000000000000000000000000000000000 DUP2 MSTORE PUSH1 0x4 ADD PUSH2 0x153C SWAP2 SWAP1 PUSH2 0x4977 JUMP JUMPDEST PUSH1 0x40 MLOAD DUP1 SWAP2 SUB SWAP1 REVERT JUMPDEST PUSH1 0x0 PUSH1 0x8 PUSH1 0x0 ADD PUSH1 0xD SWAP1 SLOAD SWAP1 PUSH2 0x100 EXP SWAP1 DIV PUSH4 0xFFFFFFFF AND PUSH4 0xFFFFFFFF AND EQ ISZERO DUP1 ISZERO PUSH2 0x15E8 JUMPI POP PUSH1 0x8 PUSH1 0x0 ADD PUSH1 0xD SWAP1 SLOAD SWAP1 PUSH2 0x100 EXP SWAP1 DIV PUSH4 0xFFFFFFFF AND PUSH4 0xFFFFFFFF AND PUSH1 0xA PUSH1 0x0 CALLER PUSH20 0xFFFFFFFFFFFFFFFFFFFFFFFFFFFFFFFFFFFFFFFF AND PUSH20 0xFFFFFFFFFFFFFFFFFFFFFFFFFFFFFFFFFFFFFFFF AND DUP2 MSTORE PUSH1 0x20 ADD SWAP1 DUP2 MSTORE PUSH1 0x20 ADD PUSH1 0x0 KECCAK256 SLOAD DUP7 PUSH2 0x15D2 CALLER PUSH2 0x3736 JUMP JUMPDEST PUSH2 0x15DC SWAP2 SWAP1 PUSH2 0x5A1A JUMP JUMPDEST PUSH2 0x15E6 SWAP2 SWAP1 PUSH2 0x5A4E JUMP JUMPDEST GT JUMPDEST ISZERO PUSH2 0x161F JUMPI PUSH1 0x40 MLOAD PUSH32 0x220AE94C00000000000000000000000000000000000000000000000000000000 DUP2 MSTORE PUSH1 0x4 ADD PUSH1 0x40 MLOAD DUP1 SWAP2 SUB SWAP1 REVERT JUMPDEST PUSH2 0x1627 PUSH2 0x3796 JUMP JUMPDEST SWAP4 POP PUSH2 0x1633 CALLER DUP7 PUSH2 0x37A9 JUMP JUMPDEST PUSH32 0x25B428DFDE728CCFADDAD7E29E4AC23C24ED7FD1A6E3E3F91894A9A073F5DFFF CALLER DUP7 DUP7 PUSH1 0x40 MLOAD PUSH2 0x1666 SWAP4 SWAP3 SWAP2 SWAP1 PUSH2 0x5A82 JUMP JUMPDEST PUSH1 0x40 MLOAD DUP1 SWAP2 SUB SWAP1 LOG1 POP POP POP SWAP2 SWAP1 POP JUMP JUMPDEST PUSH2 0x167E PUSH2 0x3931 JUMP JUMPDEST PUSH2 0x1688 DUP3 DUP3 PUSH2 0x394E JUMP JUMPDEST POP POP JUMP JUMPDEST PUSH1 0x0 PUSH4 0x8B78C6D8 PUSH1 0xC MSTORE DUP3 PUSH1 0x0 MSTORE DUP2 DUP3 PUSH1 0x20 PUSH1 0xC KECCAK256 SLOAD AND EQ SWAP1 POP SWAP3 SWAP2 POP POP JUMP JUMPDEST PUSH1 0x8 DUP1 PUSH1 0x0 ADD PUSH1 0x0 SWAP1 SLOAD SWAP1 PUSH2 0x100 EXP SWAP1 DIV PUSH13 0xFFFFFFFFFFFFFFFFFFFFFFFFFF AND SWAP1 DUP1 PUSH1 0x0 ADD PUSH1 0xD SWAP1 SLOAD SWAP1 PUSH2 0x100 EXP SWAP1 DIV PUSH4 0xFFFFFFFF AND SWAP1 DUP1 PUSH1 0x0 ADD PUSH1 0x11 SWAP1 SLOAD SWAP1 PUSH2 0x100 EXP SWAP1 DIV PUSH8 0xFFFFFFFFFFFFFFFF AND SWAP1 DUP1 PUSH1 0x1 ADD PUSH1 0x0 SWAP1 SLOAD SWAP1 PUSH2 0x100 EXP SWAP1 DIV PUSH8 0xFFFFFFFFFFFFFFFF AND SWAP1 DUP1 PUSH1 0x1 ADD PUSH1 0x8 SWAP1 SLOAD SWAP1 PUSH2 0x100 EXP SWAP1 DIV PUSH8 0xFFFFFFFFFFFFFFFF AND SWAP1 DUP1 PUSH1 0x1 ADD PUSH1 0x10 SWAP1 SLOAD SWAP1 PUSH2 0x100 EXP SWAP1 DIV PUSH8 0xFFFFFFFFFFFFFFFF AND SWAP1 POP DUP7 JUMP JUMPDEST DUP3 CALLER PUSH20 0xFFFFFFFFFFFFFFFFFFFFFFFFFFFFFFFFFFFFFFFF AND DUP2 PUSH20 0xFFFFFFFFFFFFFFFFFFFFFFFFFFFFFFFFFFFFFFFF AND EQ PUSH2 0x178D JUMPI PUSH2 0x178C CALLER PUSH2 0x355C JUMP JUMPDEST JUMPDEST PUSH2 0x1798 DUP5 DUP5 DUP5 PUSH2 0x3999 JUMP JUMPDEST POP POP POP POP JUMP JUMPDEST PUSH1 0x0 PUSH1 0x2 PUSH1 0x0 SLOAD SUB PUSH2 0x17E5 JUMPI PUSH1 0x40 MLOAD PUSH32 0x8C379A000000000000000000000000000000000000000000000000000000000 DUP2 MSTORE PUSH1 0x4 ADD PUSH2 0x17DC SWAP1 PUSH2 0x5B05 JUMP JUMPDEST PUSH1 0x40 MLOAD DUP1 SWAP2 SUB SWAP1 REVERT JUMPDEST PUSH1 0x2 PUSH1 0x0 DUP2 SWAP1 SSTORE POP DUP6 PUSH1 0x0 PUSH2 0x17F8 PUSH2 0x23D8 JUMP JUMPDEST SWAP1 POP PUSH1 0x0 PUSH2 0x1804 PUSH2 0x2F6C JUMP JUMPDEST PUSH4 0xFFFFFFFF AND SWAP1 POP DUP1 DUP4 DUP4 ADD GT ISZERO PUSH2 0x185A JUMPI PUSH1 0x0 DUP3 DUP3 SUB SWAP1 POP DUP1 PUSH1 0x40 MLOAD PUSH32 0x4D5C803F00000000000000000000000000000000000000000000000000000000 DUP2 MSTORE PUSH1 0x4 ADD PUSH2 0x1851 SWAP2 SWAP1 PUSH2 0x4CBA JUMP JUMPDEST PUSH1 0x40 MLOAD DUP1 SWAP2 SUB SWAP1 REVERT JUMPDEST POP POP PUSH2 0x1864 PUSH2 0x3C90 JUMP JUMPDEST PUSH2 0x189A JUMPI PUSH1 0x40 MLOAD PUSH32 0x95ED3C1A00000000000000000000000000000000000000000000000000000000 DUP2 MSTORE PUSH1 0x4 ADD PUSH1 0x40 MLOAD DUP1 SWAP2 SUB SWAP1 REVERT JUMPDEST DUP7 DUP6 PUSH2 0x18A6 SWAP2 SWAP1 PUSH2 0x59D8 JUMP JUMPDEST CALLVALUE EQ PUSH2 0x18F4 JUMPI DUP7 DUP6 PUSH2 0x18B8 SWAP2 SWAP1 PUSH2 0x59D8 JUMP JUMPDEST PUSH1 0x40 MLOAD PUSH32 0x6A1C179E00000000000000000000000000000000000000000000000000000000 DUP2 MSTORE PUSH1 0x4 ADD PUSH2 0x18EB SWAP2 SWAP1 PUSH2 0x4977 JUMP JUMPDEST PUSH1 0x40 MLOAD DUP1 SWAP2 SUB SWAP1 REVERT JUMPDEST DUP7 PUSH1 0xA PUSH1 0x0 CALLER PUSH20 0xFFFFFFFFFFFFFFFFFFFFFFFFFFFFFFFFFFFFFFFF AND PUSH20 0xFFFFFFFFFFFFFFFFFFFFFFFFFFFFFFFFFFFFFFFF AND DUP2 MSTORE PUSH1 0x20 ADD SWAP1 DUP2 MSTORE PUSH1 0x20 ADD PUSH1 0x0 KECCAK256 PUSH1 0x0 DUP3 DUP3 SLOAD PUSH2 0x1943 SWAP2 SWAP1 PUSH2 0x5A1A JUMP JUMPDEST SWAP3 POP POP DUP2 SWAP1 SSTORE POP DUP6 PUSH1 0xA PUSH1 0x0 CALLER PUSH20 0xFFFFFFFFFFFFFFFFFFFFFFFFFFFFFFFFFFFFFFFF AND PUSH20 0xFFFFFFFFFFFFFFFFFFFFFFFFFFFFFFFFFFFFFFFF AND DUP2 MSTORE PUSH1 0x20 ADD SWAP1 DUP2 MSTORE PUSH1 0x20 ADD PUSH1 0x0 KECCAK256 SLOAD GT ISZERO PUSH2 0x19C3 JUMPI PUSH1 0x40 MLOAD PUSH32 0xA7B32BB100000000000000000000000000000000000000000000000000000000 DUP2 MSTORE PUSH1 0x4 ADD PUSH1 0x40 MLOAD DUP1 SWAP2 SUB SWAP1 REVERT JUMPDEST PUSH2 0x19CD CALLER DUP9 PUSH2 0x37A9 JUMP JUMPDEST PUSH1 0x0 PUSH2 0x19D7 PUSH2 0x3796 JUMP JUMPDEST SWAP1 POP DUP6 DUP9 CALLER PUSH20 0xFFFFFFFFFFFFFFFFFFFFFFFFFFFFFFFFFFFFFFFF AND PUSH32 0x4E26B0356A15833A75D497ECC40EBBB716B99466ED0DBA9454F1FFF451E25A90 DUP5 PUSH1 0x40 MLOAD PUSH2 0x1A21 SWAP2 SWAP1 PUSH2 0x4977 JUMP JUMPDEST PUSH1 0x40 MLOAD DUP1 SWAP2 SUB SWAP1 LOG4 DUP1 SWAP3 POP POP POP PUSH1 0x1 PUSH1 0x0 DUP2 SWAP1 SSTORE POP SWAP6 SWAP5 POP POP POP POP POP JUMP JUMPDEST PUSH1 0x0 PUSH2 0x1A49 PUSH2 0x2766 JUMP JUMPDEST PUSH8 0xFFFFFFFFFFFFFFFF AND TIMESTAMP ADD SWAP1 POP PUSH4 0x389A75E1 PUSH1 0xC MSTORE CALLER PUSH1 0x0 MSTORE DUP1 PUSH1 0x20 PUSH1 0xC KECCAK256 SSTORE CALLER PUSH32 0xDBF36A107DA19E49527A7176A1BABF963B4B0FF8CDE35EE35D6CD8F1F9AC7E1D PUSH1 0x0 DUP1 LOG2 POP JUMP JUMPDEST PUSH1 0x0 DUP1 PUSH1 0x5 PUSH1 0x0 SWAP1 SLOAD SWAP1 PUSH2 0x100 EXP SWAP1 DIV PUSH20 0xFFFFFFFFFFFFFFFFFFFFFFFFFFFFFFFFFFFFFFFF AND SWAP2 POP PUSH2 0x2710 PUSH2 0xFFFF AND PUSH1 0x6 PUSH1 0x1D SWAP1 SLOAD SWAP1 PUSH2 0x100 EXP SWAP1 DIV PUSH2 0xFFFF AND PUSH2 0xFFFF AND DUP5 PUSH2 0x1AE2 SWAP2 SWAP1 PUSH2 0x59D8 JUMP JUMPDEST PUSH2 0x1AEC SWAP2 SWAP1 PUSH2 0x5B54 JUMP JUMPDEST SWAP1 POP SWAP3 POP SWAP3 SWAP1 POP JUMP JUMPDEST PUSH1 0x1 DUP2 JUMP JUMPDEST PUSH1 0x0 PUSH4 0x8B78C6D8 PUSH1 0xC MSTORE DUP2 PUSH1 0x0 MSTORE PUSH1 0x20 PUSH1 0xC KECCAK256 SLOAD SWAP1 POP SWAP2 SWAP1 POP JUMP JUMPDEST PUSH1 0x1 PUSH2 0x1B20 DUP2 PUSH2 0x3CEC JUMP JUMPDEST PUSH1 0x0 PUSH20 0xFFFFFFFFFFFFFFFFFFFFFFFFFFFFFFFFFFFFFFFF AND DUP3 PUSH20 0xFFFFFFFFFFFFFFFFFFFFFFFFFFFFFFFFFFFFFFFF AND SUB PUSH2 0x1B86 JUMPI PUSH1 0x40 MLOAD PUSH32 0xB942D92000000000000000000000000000000000000000000000000000000000 DUP2 MSTORE PUSH1 0x4 ADD PUSH1 0x40 MLOAD DUP1 SWAP2 SUB SWAP1 REVERT JUMPDEST DUP2 PUSH1 0x5 PUSH1 0x0 PUSH2 0x100 EXP DUP2 SLOAD DUP2 PUSH20 0xFFFFFFFFFFFFFFFFFFFFFFFFFFFFFFFFFFFFFFFF MUL NOT AND SWAP1 DUP4 PUSH20 0xFFFFFFFFFFFFFFFFFFFFFFFFFFFFFFFFFFFFFFFF AND MUL OR SWAP1 SSTORE POP PUSH32 0x8442BCB3C78BBC2D0A1A10DD2C2BA99EF8058B97C2843A976F7CA7EDBFE9D3F1 PUSH1 0x5 PUSH1 0x0 SWAP1 SLOAD SWAP1 PUSH2 0x100 EXP SWAP1 DIV PUSH20 0xFFFFFFFFFFFFFFFFFFFFFFFFFFFFFFFFFFFFFFFF AND PUSH1 0x40 MLOAD PUSH2 0x1C18 SWAP2 SWAP1 PUSH2 0x4717 JUMP JUMPDEST PUSH1 0x40 MLOAD DUP1 SWAP2 SUB SWAP1 LOG1 POP POP JUMP JUMPDEST PUSH1 0x1 PUSH2 0x1C2F DUP2 PUSH2 0x3CEC JUMP JUMPDEST DUP2 PUSH2 0x2710 PUSH2 0xFFFF AND DUP2 PUSH2 0xFFFF AND GT ISZERO PUSH2 0x1C74 JUMPI PUSH1 0x40 MLOAD PUSH32 0xCA88643800000000000000000000000000000000000000000000000000000000 DUP2 MSTORE PUSH1 0x4 ADD PUSH1 0x40 MLOAD DUP1 SWAP2 SUB SWAP1 REVERT JUMPDEST DUP3 PUSH1 0x6 PUSH1 0x1D PUSH2 0x100 EXP DUP2 SLOAD DUP2 PUSH2 0xFFFF MUL NOT AND SWAP1 DUP4 PUSH2 0xFFFF AND MUL OR SWAP1 SSTORE POP PUSH32 0x92D0AA94DC2B378C7FD77FAAAF4CB3FD8336AE247CD486FB593726705772AC0 DUP4 PUSH1 0x40 MLOAD PUSH2 0x1CC0 SWAP2 SWAP1 PUSH2 0x52E6 JUMP JUMPDEST PUSH1 0x40 MLOAD DUP1 SWAP2 SUB SWAP1 LOG1 POP POP POP JUMP JUMPDEST PUSH1 0x1 PUSH1 0x0 SWAP1 SLOAD SWAP1 PUSH2 0x100 EXP SWAP1 DIV PUSH4 0xFFFFFFFF AND DUP2 JUMP JUMPDEST PUSH1 0x6 PUSH1 0x0 SWAP1 SLOAD SWAP1 PUSH2 0x100 EXP SWAP1 DIV PUSH20 0xFFFFFFFFFFFFFFFFFFFFFFFFFFFFFFFFFFFFFFFF AND DUP2 JUMP JUMPDEST PUSH14 0xAAEB6D7670E522A718067333CD4E DUP2 JUMP JUMPDEST DUP3 CALLER PUSH20 0xFFFFFFFFFFFFFFFFFFFFFFFFFFFFFFFFFFFFFFFF AND DUP2 PUSH20 0xFFFFFFFFFFFFFFFFFFFFFFFFFFFFFFFFFFFFFFFF AND EQ PUSH2 0x1D59 JUMPI PUSH2 0x1D58 CALLER PUSH2 0x355C JUMP JUMPDEST JUMPDEST PUSH2 0x1D64 DUP5 DUP5 DUP5 PUSH2 0x3D23 JUMP JUMPDEST POP POP POP POP JUMP JUMPDEST PUSH2 0x1D72 PUSH2 0x3931 JUMP JUMPDEST PUSH2 0x1D7C DUP3 DUP3 PUSH2 0x36E7 JUMP JUMPDEST POP POP JUMP JUMPDEST PUSH1 0x1 PUSH2 0x1D8B DUP2 PUSH2 0x3CEC JUMP JUMPDEST PUSH1 0xB PUSH1 0x0 SWAP1 SLOAD SWAP1 PUSH2 0x100 EXP SWAP1 DIV PUSH1 0xFF AND ISZERO PUSH2 0x1DA5 JUMPI PUSH1 0x0 DUP1 REVERT JUMPDEST PUSH1 0x1 PUSH1 0xB PUSH1 0x0 PUSH2 0x100 EXP DUP2 SLOAD DUP2 PUSH1 0xFF MUL NOT AND SWAP1 DUP4 ISZERO ISZERO MUL OR SWAP1 SSTORE POP DUP3 DUP3 PUSH1 0x3 SWAP2 DUP3 PUSH2 0x1DD1 SWAP3 SWAP2 SWAP1 PUSH2 0x5D32 JUMP JUMPDEST POP PUSH32 0x518159E6371CD5B4C2AADCB329217344EE78B366CD3730E987F31878702401B6 DUP4 DUP4 PUSH1 0x1 PUSH1 0x40 MLOAD PUSH2 0x1E06 SWAP4 SWAP3 SWAP2 SWAP1 PUSH2 0x5E2F JUMP JUMPDEST PUSH1 0x40 MLOAD DUP1 SWAP2 SUB SWAP1 LOG1 POP POP POP JUMP JUMPDEST PUSH1 0x0 PUSH4 0x8B78C6D8 PUSH1 0xC MSTORE DUP3 PUSH1 0x0 MSTORE DUP2 PUSH1 0x20 PUSH1 0xC KECCAK256 SLOAD AND ISZERO ISZERO SWAP1 POP SWAP3 SWAP2 POP POP JUMP JUMPDEST PUSH1 0xB PUSH1 0x0 SWAP1 SLOAD SWAP1 PUSH2 0x100 EXP SWAP1 DIV PUSH1 0xFF AND DUP2 JUMP JUMPDEST PUSH4 0x389A75E1 PUSH1 0xC MSTORE CALLER PUSH1 0x0 MSTORE PUSH1 0x0 PUSH1 0x20 PUSH1 0xC KECCAK256 SSTORE CALLER PUSH32 0xFA7B8EAB7DA67F412CC9575ED43464468F9BFBAE89D1675917346CA6D8FE3C92 PUSH1 0x0 DUP1 LOG2 JUMP JUMPDEST PUSH1 0x1 PUSH2 0x1E8D DUP2 PUSH2 0x3CEC JUMP JUMPDEST PUSH1 0x0 PUSH1 0x1 PUSH1 0x6 PUSH1 0x1F SWAP1 SLOAD SWAP1 PUSH2 0x100 EXP SWAP1 DIV PUSH1 0xFF AND AND PUSH1 0xFF AND EQ PUSH2 0x1EDC JUMPI PUSH1 0x40 MLOAD PUSH32 0xB087BBF300000000000000000000000000000000000000000000000000000000 DUP2 MSTORE PUSH1 0x4 ADD PUSH1 0x40 MLOAD DUP1 SWAP2 SUB SWAP1 REVERT JUMPDEST DUP2 PUSH1 0x3 SWAP1 DUP2 PUSH2 0x1EEB SWAP2 SWAP1 PUSH2 0x5E61 JUMP JUMPDEST POP DUP2 PUSH1 0x40 MLOAD PUSH2 0x1EFA SWAP2 SWAP1 PUSH2 0x5F6F JUMP JUMPDEST PUSH1 0x40 MLOAD DUP1 SWAP2 SUB SWAP1 KECCAK256 PUSH32 0xF9C7803E94E0D3C02900D8A90893A6D5E90DD04D32A4CFE825520F82BF9F32F6 PUSH1 0x40 MLOAD PUSH1 0x40 MLOAD DUP1 SWAP2 SUB SWAP1 LOG2 POP POP JUMP JUMPDEST PUSH1 0x5 PUSH1 0x0 SWAP1 SLOAD SWAP1 PUSH2 0x100 EXP SWAP1 DIV PUSH20 0xFFFFFFFFFFFFFFFFFFFFFFFFFFFFFFFFFFFFFFFF AND DUP2 JUMP JUMPDEST PUSH1 0x4 DUP2 JUMP JUMPDEST PUSH1 0xA PUSH1 0x20 MSTORE DUP1 PUSH1 0x0 MSTORE PUSH1 0x40 PUSH1 0x0 KECCAK256 PUSH1 0x0 SWAP2 POP SWAP1 POP SLOAD DUP2 JUMP JUMPDEST PUSH1 0x0 PUSH2 0x1F80 DUP3 PUSH2 0x3D43 JUMP JUMPDEST SWAP1 POP SWAP2 SWAP1 POP JUMP JUMPDEST PUSH1 0x60 PUSH1 0x3 DUP1 SLOAD PUSH2 0x1F96 SWAP1 PUSH2 0x5978 JUMP JUMPDEST DUP1 PUSH1 0x1F ADD PUSH1 0x20 DUP1 SWAP2 DIV MUL PUSH1 0x20 ADD PUSH1 0x40 MLOAD SWAP1 DUP2 ADD PUSH1 0x40 MSTORE DUP1 SWAP3 SWAP2 SWAP1 DUP2 DUP2 MSTORE PUSH1 0x20 ADD DUP3 DUP1 SLOAD PUSH2 0x1FC2 SWAP1 PUSH2 0x5978 JUMP JUMPDEST DUP1 ISZERO PUSH2 0x200F JUMPI DUP1 PUSH1 0x1F LT PUSH2 0x1FE4 JUMPI PUSH2 0x100 DUP1 DUP4 SLOAD DIV MUL DUP4 MSTORE SWAP2 PUSH1 0x20 ADD SWAP2 PUSH2 0x200F JUMP JUMPDEST DUP3 ADD SWAP2 SWAP1 PUSH1 0x0 MSTORE PUSH1 0x20 PUSH1 0x0 KECCAK256 SWAP1 JUMPDEST DUP2 SLOAD DUP2 MSTORE SWAP1 PUSH1 0x1 ADD SWAP1 PUSH1 0x20 ADD DUP1 DUP4 GT PUSH2 0x1FF2 JUMPI DUP3 SWAP1 SUB PUSH1 0x1F AND DUP3 ADD SWAP2 JUMPDEST POP POP POP POP POP SWAP1 POP SWAP1 JUMP JUMPDEST PUSH1 0xFF DUP2 JUMP JUMPDEST PUSH1 0x0 DUP1 PUSH20 0xFFFFFFFFFFFFFFFFFFFFFFFFFFFFFFFFFFFFFFFF AND DUP3 PUSH20 0xFFFFFFFFFFFFFFFFFFFFFFFFFFFFFFFFFFFFFFFF AND SUB PUSH2 0x2064 JUMPI PUSH2 0x2063 PUSH4 0x8F4EB604 PUSH1 0xE0 SHL PUSH2 0x3525 JUMP JUMPDEST JUMPDEST PUSH8 0xFFFFFFFFFFFFFFFF PUSH2 0x2075 PUSH2 0x352F JUMP JUMPDEST PUSH1 0x5 ADD PUSH1 0x0 DUP5 PUSH20 0xFFFFFFFFFFFFFFFFFFFFFFFFFFFFFFFFFFFFFFFF AND PUSH20 0xFFFFFFFFFFFFFFFFFFFFFFFFFFFFFFFFFFFFFFFF AND DUP2 MSTORE PUSH1 0x20 ADD SWAP1 DUP2 MSTORE PUSH1 0x20 ADD PUSH1 0x0 KECCAK256 SLOAD AND SWAP1 POP SWAP2 SWAP1 POP JUMP JUMPDEST PUSH2 0x20C6 PUSH2 0x3931 JUMP JUMPDEST PUSH2 0x20D0 PUSH1 0x0 PUSH2 0x36A0 JUMP JUMPDEST JUMP JUMPDEST PUSH1 0x1 PUSH2 0x20DD DUP2 PUSH2 0x3CEC JUMP JUMPDEST PUSH1 0xB PUSH1 0x0 SWAP1 SLOAD SWAP1 PUSH2 0x100 EXP SWAP1 DIV PUSH1 0xFF AND ISZERO PUSH2 0x20F7 JUMPI PUSH1 0x0 DUP1 REVERT JUMPDEST DUP2 PUSH1 0x3 SWAP1 DUP2 PUSH2 0x2106 SWAP2 SWAP1 PUSH2 0x5E61 JUMP JUMPDEST POP PUSH32 0x518159E6371CD5B4C2AADCB329217344EE78B366CD3730E987F31878702401B6 DUP3 PUSH1 0x0 PUSH1 0x40 MLOAD PUSH2 0x2139 SWAP3 SWAP2 SWAP1 PUSH2 0x5F86 JUMP JUMPDEST PUSH1 0x40 MLOAD DUP1 SWAP2 SUB SWAP1 LOG1 POP POP JUMP JUMPDEST JUMP JUMPDEST PUSH1 0x60 PUSH1 0x40 MLOAD SWAP1 POP PUSH1 0x20 DUP2 ADD PUSH1 0x0 DUP4 JUMPDEST PUSH1 0x1 ISZERO PUSH2 0x217C JUMPI DUP2 DUP4 MSTORE PUSH1 0x1 DUP2 AND PUSH1 0x5 SHL DUP4 ADD SWAP3 POP PUSH1 0x1 DUP3 ADD SWAP2 POP DUP5 DUP3 SHR SWAP1 POP DUP1 PUSH2 0x2156 JUMPI JUMPDEST POP PUSH1 0x20 DUP4 ADD DUP3 SUB PUSH1 0x5 SHR DUP4 MSTORE DUP2 PUSH1 0x40 MSTORE POP POP SWAP2 SWAP1 POP JUMP JUMPDEST PUSH1 0x0 PUSH2 0x219D PUSH2 0x3796 JUMP JUMPDEST SWAP1 POP SWAP1 JUMP JUMPDEST PUSH1 0x1 DUP2 JUMP JUMPDEST PUSH1 0x0 PUSH1 0x1 PUSH2 0x21B4 DUP2 PUSH2 0x3CEC JUMP JUMPDEST PUSH1 0x0 DUP6 DUP6 SWAP1 POP SUB PUSH2 0x21F1 JUMPI PUSH1 0x40 MLOAD PUSH32 0xE10344D500000000000000000000000000000000000000000000000000000000 DUP2 MSTORE PUSH1 0x4 ADD PUSH1 0x40 MLOAD DUP1 SWAP2 SUB SWAP1 REVERT JUMPDEST PUSH2 0x21F9 PUSH2 0x3796 JUMP JUMPDEST SWAP2 POP PUSH1 0x0 DUP6 DUP6 SWAP1 POP SWAP1 POP PUSH1 0x0 JUMPDEST DUP2 DUP2 EQ PUSH2 0x2249 JUMPI PUSH2 0x223E DUP8 DUP8 DUP4 DUP2 DUP2 LT PUSH2 0x2223 JUMPI PUSH2 0x2222 PUSH2 0x5FB6 JUMP JUMPDEST JUMPDEST SWAP1 POP PUSH1 0x20 MUL ADD PUSH1 0x20 DUP2 ADD SWAP1 PUSH2 0x2238 SWAP2 SWAP1 PUSH2 0x4992 JUMP JUMPDEST DUP7 PUSH2 0x37A9 JUMP JUMPDEST DUP1 PUSH1 0x1 ADD SWAP1 POP PUSH2 0x2206 JUMP JUMPDEST POP POP PUSH32 0xFE9AC969BDC4DBB3461E515FB1F4B43A4BF6D21274B0C195082E75BCB586EAD3 DUP6 DUP6 DUP6 DUP6 PUSH1 0x40 MLOAD PUSH2 0x2280 SWAP5 SWAP4 SWAP3 SWAP2 SWAP1 PUSH2 0x60A8 JUMP JUMPDEST PUSH1 0x40 MLOAD DUP1 SWAP2 SUB SWAP1 LOG1 POP SWAP4 SWAP3 POP POP POP JUMP JUMPDEST PUSH1 0x7 DUP1 PUSH1 0x0 ADD PUSH1 0x0 SWAP1 SLOAD SWAP1 PUSH2 0x100 EXP SWAP1 DIV PUSH8 0xFFFFFFFFFFFFFFFF AND SWAP1 DUP1 PUSH1 0x0 ADD PUSH1 0x8 SWAP1 SLOAD SWAP1 PUSH2 0x100 EXP SWAP1 DIV PUSH2 0xFFFF AND SWAP1 DUP1 PUSH1 0x0 ADD PUSH1 0xA SWAP1 SLOAD SWAP1 PUSH2 0x100 EXP SWAP1 DIV PUSH20 0xFFFFFFFFFFFFFFFFFFFFFFFFFFFFFFFFFFFFFFFF AND SWAP1 POP DUP4 JUMP JUMPDEST PUSH1 0x0 PUSH2 0x22F4 PUSH2 0x3E4A JUMP JUMPDEST SWAP1 POP SWAP1 JUMP JUMPDEST PUSH1 0x1 PUSH2 0x2304 DUP2 PUSH2 0x3CEC JUMP JUMPDEST PUSH1 0x0 PUSH1 0x1 PUSH1 0x6 PUSH1 0x1F SWAP1 SLOAD SWAP1 PUSH2 0x100 EXP SWAP1 DIV PUSH1 0xFF AND AND PUSH1 0xFF AND EQ PUSH2 0x2353 JUMPI PUSH1 0x40 MLOAD PUSH32 0xB087BBF300000000000000000000000000000000000000000000000000000000 DUP2 MSTORE PUSH1 0x4 ADD PUSH1 0x40 MLOAD DUP1 SWAP2 SUB SWAP1 REVERT JUMPDEST DUP2 PUSH1 0x4 SWAP1 DUP2 PUSH2 0x2362 SWAP2 SWAP1 PUSH2 0x5E61 JUMP JUMPDEST POP DUP2 PUSH1 0x40 MLOAD PUSH2 0x2371 SWAP2 SWAP1 PUSH2 0x5F6F JUMP JUMPDEST PUSH1 0x40 MLOAD DUP1 SWAP2 SUB SWAP1 KECCAK256 PUSH32 0xAF497693A87DB12CA89131A31EDBB3DB4BB5702DFB284E8AE7427D185F09112D PUSH1 0x40 MLOAD PUSH1 0x40 MLOAD DUP1 SWAP2 SUB SWAP1 LOG2 POP POP JUMP JUMPDEST PUSH1 0x60 PUSH1 0x0 PUSH2 0x23B5 PUSH2 0x333E JUMP JUMPDEST SWAP2 POP POP DUP1 SWAP2 POP POP SWAP1 JUMP JUMPDEST DUP2 PUSH2 0x23C9 DUP2 PUSH2 0x355C JUMP JUMPDEST PUSH2 0x23D3 DUP4 DUP4 PUSH2 0x3E58 JUMP JUMPDEST POP POP POP JUMP JUMPDEST PUSH1 0x0 PUSH2 0x23E2 PUSH2 0x3F6C JUMP JUMPDEST SWAP1 POP SWAP1 JUMP JUMPDEST PUSH1 0x0 PUSH2 0x23F1 PUSH2 0x2F6C JUMP JUMPDEST PUSH4 0xFFFFFFFF AND PUSH2 0x23FF PUSH2 0x3F6C JUMP JUMPDEST EQ SWAP1 POP SWAP1 JUMP JUMPDEST PUSH1 0x0 PUSH1 0x1 SWAP1 POP SWAP1 JUMP JUMPDEST PUSH1 0x1 PUSH2 0x2419 DUP2 PUSH2 0x3CEC JUMP JUMPDEST DUP2 ISZERO ISZERO PUSH2 0x2424 PUSH2 0x3120 JUMP JUMPDEST ISZERO ISZERO EQ PUSH2 0x2469 JUMPI PUSH1 0x4 PUSH1 0x6 PUSH1 0x1F DUP3 DUP3 DUP3 SWAP1 SLOAD SWAP1 PUSH2 0x100 EXP SWAP1 DIV PUSH1 0xFF AND XOR SWAP3 POP PUSH2 0x100 EXP DUP2 SLOAD DUP2 PUSH1 0xFF MUL NOT AND SWAP1 DUP4 PUSH1 0xFF AND MUL OR SWAP1 SSTORE POP DUP2 ISZERO PUSH2 0x2468 JUMPI PUSH2 0x2467 PUSH2 0x2145 JUMP JUMPDEST JUMPDEST JUMPDEST PUSH32 0xDF13A96AC57161F0B62AAE644560A12A80C1877FAAC821EE18874355FF1AB73B DUP3 PUSH1 0x40 MLOAD PUSH2 0x2498 SWAP2 SWAP1 PUSH2 0x45A6 JUMP JUMPDEST PUSH1 0x40 MLOAD DUP1 SWAP2 SUB SWAP1 LOG1 POP POP JUMP JUMPDEST DUP4 CALLER PUSH20 0xFFFFFFFFFFFFFFFFFFFFFFFFFFFFFFFFFFFFFFFF AND DUP2 PUSH20 0xFFFFFFFFFFFFFFFFFFFFFFFFFFFFFFFFFFFFFFFF AND EQ PUSH2 0x24E2 JUMPI PUSH2 0x24E1 CALLER PUSH2 0x355C JUMP JUMPDEST JUMPDEST PUSH2 0x24EE DUP6 DUP6 DUP6 DUP6 PUSH2 0x3F88 JUMP JUMPDEST POP POP POP POP POP JUMP JUMPDEST PUSH1 0x6 PUSH1 0x1D SWAP1 SLOAD SWAP1 PUSH2 0x100 EXP SWAP1 DIV PUSH2 0xFFFF AND DUP2 JUMP JUMPDEST PUSH1 0x2 DUP2 JUMP JUMPDEST PUSH1 0x8 DUP2 JUMP JUMPDEST PUSH1 0x3 DUP1 SLOAD PUSH2 0x2520 SWAP1 PUSH2 0x5978 JUMP JUMPDEST DUP1 PUSH1 0x1F ADD PUSH1 0x20 DUP1 SWAP2 DIV MUL PUSH1 0x20 ADD PUSH1 0x40 MLOAD SWAP1 DUP2 ADD PUSH1 0x40 MSTORE DUP1 SWAP3 SWAP2 SWAP1 DUP2 DUP2 MSTORE PUSH1 0x20 ADD DUP3 DUP1 SLOAD PUSH2 0x254C SWAP1 PUSH2 0x5978 JUMP JUMPDEST DUP1 ISZERO PUSH2 0x2599 JUMPI DUP1 PUSH1 0x1F LT PUSH2 0x256E JUMPI PUSH2 0x100 DUP1 DUP4 SLOAD DIV MUL DUP4 MSTORE SWAP2 PUSH1 0x20 ADD SWAP2 PUSH2 0x2599 JUMP JUMPDEST DUP3 ADD SWAP2 SWAP1 PUSH1 0x0 MSTORE PUSH1 0x20 PUSH1 0x0 KECCAK256 SWAP1 JUMPDEST DUP2 SLOAD DUP2 MSTORE SWAP1 PUSH1 0x1 ADD SWAP1 PUSH1 0x20 ADD DUP1 DUP4 GT PUSH2 0x257C JUMPI DUP3 SWAP1 SUB PUSH1 0x1F AND DUP3 ADD SWAP2 JUMPDEST POP POP POP POP POP DUP2 JUMP JUMPDEST PUSH1 0x60 PUSH2 0x25AC DUP3 PUSH2 0x349A JUMP JUMPDEST PUSH2 0x25E2 JUMPI PUSH1 0x40 MLOAD PUSH32 0xA14C4B5000000000000000000000000000000000000000000000000000000000 DUP2 MSTORE PUSH1 0x4 ADD PUSH1 0x40 MLOAD DUP1 SWAP2 SUB SWAP1 REVERT JUMPDEST PUSH1 0x0 PUSH2 0x25EC PUSH2 0x1F87 JUMP JUMPDEST SWAP1 POP PUSH1 0x0 DUP2 MLOAD SUB PUSH2 0x260C JUMPI PUSH1 0x40 MLOAD DUP1 PUSH1 0x20 ADD PUSH1 0x40 MSTORE DUP1 PUSH1 0x0 DUP2 MSTORE POP PUSH2 0x2637 JUMP JUMPDEST DUP1 PUSH2 0x2616 DUP5 PUSH2 0x3FDA JUMP JUMPDEST PUSH1 0x40 MLOAD PUSH1 0x20 ADD PUSH2 0x2627 SWAP3 SWAP2 SWAP1 PUSH2 0x60E8 JUMP JUMPDEST PUSH1 0x40 MLOAD PUSH1 0x20 DUP2 DUP4 SUB SUB DUP2 MSTORE SWAP1 PUSH1 0x40 MSTORE JUMPDEST SWAP2 POP POP SWAP2 SWAP1 POP JUMP JUMPDEST PUSH1 0x1 PUSH2 0x264A DUP2 PUSH2 0x3CEC JUMP JUMPDEST PUSH1 0x0 DUP3 MLOAD SWAP1 POP PUSH1 0x0 JUMPDEST DUP2 DUP2 LT ISZERO PUSH2 0x2689 JUMPI PUSH2 0x267E DUP5 DUP3 DUP2 MLOAD DUP2 LT PUSH2 0x2671 JUMPI PUSH2 0x2670 PUSH2 0x5FB6 JUMP JUMPDEST JUMPDEST PUSH1 0x20 MUL PUSH1 0x20 ADD ADD MLOAD PUSH2 0x402A JUMP JUMPDEST DUP1 PUSH1 0x1 ADD SWAP1 POP PUSH2 0x2653 JUMP JUMPDEST POP POP POP POP JUMP JUMPDEST PUSH1 0x1 PUSH2 0x269A DUP2 PUSH2 0x3CEC JUMP JUMPDEST PUSH1 0x0 PUSH1 0x1 PUSH1 0x6 PUSH1 0x1F SWAP1 SLOAD SWAP1 PUSH2 0x100 EXP SWAP1 DIV PUSH1 0xFF AND AND PUSH1 0xFF AND EQ PUSH2 0x26E9 JUMPI PUSH1 0x40 MLOAD PUSH32 0xB087BBF300000000000000000000000000000000000000000000000000000000 DUP2 MSTORE PUSH1 0x4 ADD PUSH1 0x40 MLOAD DUP1 SWAP2 SUB SWAP1 REVERT JUMPDEST PUSH1 0x1 PUSH1 0x6 PUSH1 0x1F DUP3 DUP3 DUP3 SWAP1 SLOAD SWAP1 PUSH2 0x100 EXP SWAP1 DIV PUSH1 0xFF AND OR SWAP3 POP PUSH2 0x100 EXP DUP2 SLOAD DUP2 PUSH1 0xFF MUL NOT AND SWAP1 DUP4 PUSH1 0xFF AND MUL OR SWAP1 SSTORE POP PUSH32 0x3CD3338A64F0386BCA46B40BD96E90A61BE656A5183DC54B430D8626E1333273 PUSH2 0x2740 PUSH2 0x1F87 JUMP JUMPDEST PUSH2 0x2748 PUSH2 0x2F86 JUMP JUMPDEST PUSH1 0x40 MLOAD PUSH2 0x2756 SWAP3 SWAP2 SWAP1 PUSH2 0x610C JUMP JUMPDEST PUSH1 0x40 MLOAD DUP1 SWAP2 SUB SWAP1 LOG1 POP JUMP JUMPDEST PUSH1 0x2 DUP2 JUMP JUMPDEST PUSH1 0x0 PUSH3 0x2A300 SWAP1 POP SWAP1 JUMP JUMPDEST PUSH1 0x0 PUSH2 0x277C DUP3 PUSH2 0x3736 JUMP JUMPDEST SWAP1 POP SWAP2 SWAP1 POP JUMP JUMPDEST DUP5 PUSH2 0x2710 PUSH2 0xFFFF AND DUP2 PUSH2 0xFFFF AND GT ISZERO PUSH2 0x27C8 JUMPI PUSH1 0x40 MLOAD PUSH32 0xCA88643800000000000000000000000000000000000000000000000000000000 DUP2 MSTORE PUSH1 0x4 ADD PUSH1 0x40 MLOAD DUP1 SWAP2 SUB SWAP1 REVERT JUMPDEST PUSH1 0x0 PUSH2 0x27D2 PUSH2 0x3796 JUMP JUMPDEST EQ PUSH2 0x2809 JUMPI PUSH1 0x40 MLOAD PUSH32 0x82B4290000000000000000000000000000000000000000000000000000000000 DUP2 MSTORE PUSH1 0x4 ADD PUSH1 0x40 MLOAD DUP1 SWAP2 SUB SWAP1 REVERT JUMPDEST PUSH1 0x0 PUSH20 0xFFFFFFFFFFFFFFFFFFFFFFFFFFFFFFFFFFFFFFFF AND DUP8 PUSH20 0xFFFFFFFFFFFFFFFFFFFFFFFFFFFFFFFFFFFFFFFF AND SUB PUSH2 0x286F JUMPI PUSH1 0x40 MLOAD PUSH32 0xB942D92000000000000000000000000000000000000000000000000000000000 DUP2 MSTORE PUSH1 0x4 ADD PUSH1 0x40 MLOAD DUP1 SWAP2 SUB SWAP1 REVERT JUMPDEST PUSH2 0x2879 DUP12 DUP12 PUSH2 0x4089 JUMP JUMPDEST PUSH2 0x2881 PUSH2 0x36DE JUMP JUMPDEST PUSH2 0x2889 PUSH2 0x352F JUMP JUMPDEST PUSH1 0x0 ADD DUP2 SWAP1 SSTORE POP PUSH2 0x2899 CALLER PUSH2 0x40E6 JUMP JUMPDEST DUP9 PUSH1 0x3 SWAP1 DUP2 PUSH2 0x28A8 SWAP2 SWAP1 PUSH2 0x5E61 JUMP JUMPDEST POP DUP8 PUSH1 0x4 SWAP1 DUP2 PUSH2 0x28B8 SWAP2 SWAP1 PUSH2 0x5E61 JUMP JUMPDEST POP DUP7 PUSH1 0x5 PUSH1 0x0 PUSH2 0x100 EXP DUP2 SLOAD DUP2 PUSH20 0xFFFFFFFFFFFFFFFFFFFFFFFFFFFFFFFFFFFFFFFF MUL NOT AND SWAP1 DUP4 PUSH20 0xFFFFFFFFFFFFFFFFFFFFFFFFFFFFFFFFFFFFFFFF AND MUL OR SWAP1 SSTORE POP DUP5 PUSH1 0x8 PUSH1 0x0 DUP3 ADD MLOAD DUP2 PUSH1 0x0 ADD PUSH1 0x0 PUSH2 0x100 EXP DUP2 SLOAD DUP2 PUSH13 0xFFFFFFFFFFFFFFFFFFFFFFFFFF MUL NOT AND SWAP1 DUP4 PUSH13 0xFFFFFFFFFFFFFFFFFFFFFFFFFF AND MUL OR SWAP1 SSTORE POP PUSH1 0x20 DUP3 ADD MLOAD DUP2 PUSH1 0x0 ADD PUSH1 0xD PUSH2 0x100 EXP DUP2 SLOAD DUP2 PUSH4 0xFFFFFFFF MUL NOT AND SWAP1 DUP4 PUSH4 0xFFFFFFFF AND MUL OR SWAP1 SSTORE POP PUSH1 0x40 DUP3 ADD MLOAD DUP2 PUSH1 0x0 ADD PUSH1 0x11 PUSH2 0x100 EXP DUP2 SLOAD DUP2 PUSH8 0xFFFFFFFFFFFFFFFF MUL NOT AND SWAP1 DUP4 PUSH8 0xFFFFFFFFFFFFFFFF AND MUL OR SWAP1 SSTORE POP PUSH1 0x60 DUP3 ADD MLOAD DUP2 PUSH1 0x1 ADD PUSH1 0x0 PUSH2 0x100 EXP DUP2 SLOAD DUP2 PUSH8 0xFFFFFFFFFFFFFFFF MUL NOT AND SWAP1 DUP4 PUSH8 0xFFFFFFFFFFFFFFFF AND MUL OR SWAP1 SSTORE POP PUSH1 0x80 DUP3 ADD MLOAD DUP2 PUSH1 0x1 ADD PUSH1 0x8 PUSH2 0x100 EXP DUP2 SLOAD DUP2 PUSH8 0xFFFFFFFFFFFFFFFF MUL NOT AND SWAP1 DUP4 PUSH8 0xFFFFFFFFFFFFFFFF AND MUL OR SWAP1 SSTORE POP PUSH1 0xA0 DUP3 ADD MLOAD DUP2 PUSH1 0x1 ADD PUSH1 0x10 PUSH2 0x100 EXP DUP2 SLOAD DUP2 PUSH8 0xFFFFFFFFFFFFFFFF MUL NOT AND SWAP1 DUP4 PUSH8 0xFFFFFFFFFFFFFFFF AND MUL OR SWAP1 SSTORE POP SWAP1 POP POP DUP3 PUSH1 0x6 PUSH1 0x1F PUSH2 0x100 EXP DUP2 SLOAD DUP2 PUSH1 0xFF MUL NOT AND SWAP1 DUP4 PUSH1 0xFF AND MUL OR SWAP1 SSTORE POP DUP6 PUSH1 0x6 PUSH1 0x1D PUSH2 0x100 EXP DUP2 SLOAD DUP2 PUSH2 0xFFFF MUL NOT AND SWAP1 DUP4 PUSH2 0xFFFF AND MUL OR SWAP1 SSTORE POP DUP2 PUSH1 0x6 PUSH1 0x0 PUSH2 0x100 EXP DUP2 SLOAD DUP2 PUSH20 0xFFFFFFFFFFFFFFFFFFFFFFFFFFFFFFFFFFFFFFFF MUL NOT AND SWAP1 DUP4 PUSH20 0xFFFFFFFFFFFFFFFFFFFFFFFFFFFFFFFFFFFFFFFF AND MUL OR SWAP1 SSTORE POP DUP4 PUSH1 0x1 PUSH1 0x0 PUSH2 0x100 EXP DUP2 SLOAD DUP2 PUSH4 0xFFFFFFFF MUL NOT AND SWAP1 DUP4 PUSH4 0xFFFFFFFF AND MUL OR SWAP1 SSTORE POP PUSH1 0x0 PUSH1 0x4 DUP5 AND PUSH1 0xFF AND EQ PUSH2 0x2ACD JUMPI PUSH2 0x2ACC PUSH2 0x2145 JUMP JUMPDEST JUMPDEST POP POP POP POP POP POP POP POP POP POP POP JUMP JUMPDEST PUSH1 0x2 PUSH1 0x0 SLOAD SUB PUSH2 0x2B1F JUMPI PUSH1 0x40 MLOAD PUSH32 0x8C379A000000000000000000000000000000000000000000000000000000000 DUP2 MSTORE PUSH1 0x4 ADD PUSH2 0x2B16 SWAP1 PUSH2 0x5B05 JUMP JUMPDEST PUSH1 0x40 MLOAD DUP1 SWAP2 SUB SWAP1 REVERT JUMPDEST PUSH1 0x2 PUSH1 0x0 DUP2 SWAP1 SSTORE POP PUSH1 0x0 SELFBALANCE SWAP1 POP PUSH1 0x0 PUSH1 0x6 PUSH1 0x0 SWAP1 SLOAD SWAP1 PUSH2 0x100 EXP SWAP1 DIV PUSH20 0xFFFFFFFFFFFFFFFFFFFFFFFFFFFFFFFFFFFFFFFF AND PUSH20 0xFFFFFFFFFFFFFFFFFFFFFFFFFFFFFFFFFFFFFFFF AND PUSH4 0xE714942D PUSH1 0x40 MLOAD DUP2 PUSH4 0xFFFFFFFF AND PUSH1 0xE0 SHL DUP2 MSTORE PUSH1 0x4 ADD PUSH1 0x20 PUSH1 0x40 MLOAD DUP1 DUP4 SUB DUP2 DUP7 GAS STATICCALL ISZERO DUP1 ISZERO PUSH2 0x2B9B JUMPI RETURNDATASIZE PUSH1 0x0 DUP1 RETURNDATACOPY RETURNDATASIZE PUSH1 0x0 REVERT JUMPDEST POP POP POP POP PUSH1 0x40 MLOAD RETURNDATASIZE PUSH1 0x1F NOT PUSH1 0x1F DUP3 ADD AND DUP3 ADD DUP1 PUSH1 0x40 MSTORE POP DUP2 ADD SWAP1 PUSH2 0x2BBF SWAP2 SWAP1 PUSH2 0x6158 JUMP JUMPDEST SWAP1 POP PUSH1 0x0 PUSH1 0x6 PUSH1 0x0 SWAP1 SLOAD SWAP1 PUSH2 0x100 EXP SWAP1 DIV PUSH20 0xFFFFFFFFFFFFFFFFFFFFFFFFFFFFFFFFFFFFFFFF AND PUSH20 0xFFFFFFFFFFFFFFFFFFFFFFFFFFFFFFFFFFFFFFFF AND PUSH4 0xD411B21 DUP5 PUSH1 0x40 MLOAD DUP3 PUSH4 0xFFFFFFFF AND PUSH1 0xE0 SHL DUP2 MSTORE PUSH1 0x4 ADD PUSH2 0x2C1E SWAP2 SWAP1 PUSH2 0x61B0 JUMP JUMPDEST PUSH1 0x20 PUSH1 0x40 MLOAD DUP1 DUP4 SUB DUP2 DUP7 GAS STATICCALL ISZERO DUP1 ISZERO PUSH2 0x2C3B JUMPI RETURNDATASIZE PUSH1 0x0 DUP1 RETURNDATACOPY RETURNDATASIZE PUSH1 0x0 REVERT JUMPDEST POP POP POP POP PUSH1 0x40 MLOAD RETURNDATASIZE PUSH1 0x1F NOT PUSH1 0x1F DUP3 ADD AND DUP3 ADD DUP1 PUSH1 0x40 MSTORE POP DUP2 ADD SWAP1 PUSH2 0x2C5F SWAP2 SWAP1 PUSH2 0x61F7 JUMP JUMPDEST PUSH16 0xFFFFFFFFFFFFFFFFFFFFFFFFFFFFFFFF AND SWAP1 POP PUSH1 0x0 DUP2 GT ISZERO PUSH2 0x2D35 JUMPI PUSH1 0x0 DUP3 PUSH20 0xFFFFFFFFFFFFFFFFFFFFFFFFFFFFFFFFFFFFFFFF AND DUP3 PUSH3 0x33450 SWAP1 PUSH1 0x40 MLOAD PUSH2 0x2CA7 SWAP1 PUSH2 0x6255 JUMP JUMPDEST PUSH1 0x0 PUSH1 0x40 MLOAD DUP1 DUP4 SUB DUP2 DUP6 DUP9 DUP9 CALL SWAP4 POP POP POP POP RETURNDATASIZE DUP1 PUSH1 0x0 DUP2 EQ PUSH2 0x2CE5 JUMPI PUSH1 0x40 MLOAD SWAP2 POP PUSH1 0x1F NOT PUSH1 0x3F RETURNDATASIZE ADD AND DUP3 ADD PUSH1 0x40 MSTORE RETURNDATASIZE DUP3 MSTORE RETURNDATASIZE PUSH1 0x0 PUSH1 0x20 DUP5 ADD RETURNDATACOPY PUSH2 0x2CEA JUMP JUMPDEST PUSH1 0x60 SWAP2 POP JUMPDEST POP POP SWAP1 POP DUP1 PUSH2 0x2D25 JUMPI PUSH1 0x40 MLOAD PUSH32 0xD3C0B1F400000000000000000000000000000000000000000000000000000000 DUP2 MSTORE PUSH1 0x4 ADD PUSH1 0x40 MLOAD DUP1 SWAP2 SUB SWAP1 REVERT JUMPDEST DUP2 DUP5 PUSH2 0x2D31 SWAP2 SWAP1 PUSH2 0x5A4E JUMP JUMPDEST SWAP4 POP POP JUMPDEST PUSH1 0x0 PUSH1 0x5 PUSH1 0x0 SWAP1 SLOAD SWAP1 PUSH2 0x100 EXP SWAP1 DIV PUSH20 0xFFFFFFFFFFFFFFFFFFFFFFFFFFFFFFFFFFFFFFFF AND PUSH20 0xFFFFFFFFFFFFFFFFFFFFFFFFFFFFFFFFFFFFFFFF AND DUP5 PUSH3 0x33450 SWAP1 PUSH1 0x40 MLOAD PUSH2 0x2D82 SWAP1 PUSH2 0x6255 JUMP JUMPDEST PUSH1 0x0 PUSH1 0x40 MLOAD DUP1 DUP4 SUB DUP2 DUP6 DUP9 DUP9 CALL SWAP4 POP POP POP POP RETURNDATASIZE DUP1 PUSH1 0x0 DUP2 EQ PUSH2 0x2DC0 JUMPI PUSH1 0x40 MLOAD SWAP2 POP PUSH1 0x1F NOT PUSH1 0x3F RETURNDATASIZE ADD AND DUP3 ADD PUSH1 0x40 MSTORE RETURNDATASIZE DUP3 MSTORE RETURNDATASIZE PUSH1 0x0 PUSH1 0x20 DUP5 ADD RETURNDATACOPY PUSH2 0x2DC5 JUMP JUMPDEST PUSH1 0x60 SWAP2 POP JUMPDEST POP POP SWAP1 POP DUP1 PUSH2 0x2E00 JUMPI PUSH1 0x40 MLOAD PUSH32 0xD3C0B1F400000000000000000000000000000000000000000000000000000000 DUP2 MSTORE PUSH1 0x4 ADD PUSH1 0x40 MLOAD DUP1 SWAP2 SUB SWAP1 REVERT JUMPDEST PUSH1 0x5 PUSH1 0x0 SWAP1 SLOAD SWAP1 PUSH2 0x100 EXP SWAP1 DIV PUSH20 0xFFFFFFFFFFFFFFFFFFFFFFFFFFFFFFFFFFFFFFFF AND PUSH20 0xFFFFFFFFFFFFFFFFFFFFFFFFFFFFFFFFFFFFFFFF AND CALLER PUSH20 0xFFFFFFFFFFFFFFFFFFFFFFFFFFFFFFFFFFFFFFFF AND PUSH32 0x8A95554E4C9DCAAF33F247387F2EE77390780487D3365E3A804788791A1DF500 DUP7 DUP7 DUP7 PUSH1 0x40 MLOAD PUSH2 0x2E83 SWAP4 SWAP3 SWAP2 SWAP1 PUSH2 0x626A JUMP JUMPDEST PUSH1 0x40 MLOAD DUP1 SWAP2 SUB SWAP1 LOG3 POP POP POP POP PUSH1 0x1 PUSH1 0x0 DUP2 SWAP1 SSTORE POP JUMP JUMPDEST PUSH1 0x0 PUSH1 0x1 PUSH2 0x2EA6 DUP2 PUSH2 0x3CEC JUMP JUMPDEST DUP3 PUSH1 0x0 PUSH2 0x2EB1 PUSH2 0x23D8 JUMP JUMPDEST SWAP1 POP PUSH1 0x0 PUSH2 0x2EBD PUSH2 0x2F6C JUMP JUMPDEST PUSH4 0xFFFFFFFF AND SWAP1 POP DUP1 DUP4 DUP4 ADD GT ISZERO PUSH2 0x2F13 JUMPI PUSH1 0x0 DUP3 DUP3 SUB SWAP1 POP DUP1 PUSH1 0x40 MLOAD PUSH32 0x4D5C803F00000000000000000000000000000000000000000000000000000000 DUP2 MSTORE PUSH1 0x4 ADD PUSH2 0x2F0A SWAP2 SWAP1 PUSH2 0x4CBA JUMP JUMPDEST PUSH1 0x40 MLOAD DUP1 SWAP2 SUB SWAP1 REVERT JUMPDEST POP POP PUSH2 0x2F1D PUSH2 0x3796 JUMP JUMPDEST SWAP3 POP PUSH2 0x2F29 DUP6 DUP6 PUSH2 0x37A9 JUMP JUMPDEST PUSH32 0x25B428DFDE728CCFADDAD7E29E4AC23C24ED7FD1A6E3E3F91894A9A073F5DFFF DUP6 DUP6 DUP6 PUSH1 0x40 MLOAD PUSH2 0x2F5C SWAP4 SWAP3 SWAP2 SWAP1 PUSH2 0x5A82 JUMP JUMPDEST PUSH1 0x40 MLOAD DUP1 SWAP2 SUB SWAP1 LOG1 POP POP SWAP3 SWAP2 POP POP JUMP JUMPDEST PUSH1 0x0 PUSH1 0x1 PUSH1 0x0 SWAP1 SLOAD SWAP1 PUSH2 0x100 EXP SWAP1 DIV PUSH4 0xFFFFFFFF AND SWAP1 POP SWAP1 JUMP JUMPDEST PUSH1 0x60 PUSH1 0x4 DUP1 SLOAD PUSH2 0x2F95 SWAP1 PUSH2 0x5978 JUMP JUMPDEST DUP1 PUSH1 0x1F ADD PUSH1 0x20 DUP1 SWAP2 DIV MUL PUSH1 0x20 ADD PUSH1 0x40 MLOAD SWAP1 DUP2 ADD PUSH1 0x40 MSTORE DUP1 SWAP3 SWAP2 SWAP1 DUP2 DUP2 MSTORE PUSH1 0x20 ADD DUP3 DUP1 SLOAD PUSH2 0x2FC1 SWAP1 PUSH2 0x5978 JUMP JUMPDEST DUP1 ISZERO PUSH2 0x300E JUMPI DUP1 PUSH1 0x1F LT PUSH2 0x2FE3 JUMPI PUSH2 0x100 DUP1 DUP4 SLOAD DIV MUL DUP4 MSTORE SWAP2 PUSH1 0x20 ADD SWAP2 PUSH2 0x300E JUMP JUMPDEST DUP3 ADD SWAP2 SWAP1 PUSH1 0x0 MSTORE PUSH1 0x20 PUSH1 0x0 KECCAK256 SWAP1 JUMPDEST DUP2 SLOAD DUP2 MSTORE SWAP1 PUSH1 0x1 ADD SWAP1 PUSH1 0x20 ADD DUP1 DUP4 GT PUSH2 0x2FF1 JUMPI DUP3 SWAP1 SUB PUSH1 0x1F AND DUP3 ADD SWAP2 JUMPDEST POP POP POP POP POP SWAP1 POP SWAP1 JUMP JUMPDEST PUSH1 0x0 PUSH2 0x3022 PUSH2 0x352F JUMP JUMPDEST PUSH1 0x7 ADD PUSH1 0x0 DUP5 PUSH20 0xFFFFFFFFFFFFFFFFFFFFFFFFFFFFFFFFFFFFFFFF AND PUSH20 0xFFFFFFFFFFFFFFFFFFFFFFFFFFFFFFFFFFFFFFFF AND DUP2 MSTORE PUSH1 0x20 ADD SWAP1 DUP2 MSTORE PUSH1 0x20 ADD PUSH1 0x0 KECCAK256 PUSH1 0x0 DUP4 PUSH20 0xFFFFFFFFFFFFFFFFFFFFFFFFFFFFFFFFFFFFFFFF AND PUSH20 0xFFFFFFFFFFFFFFFFFFFFFFFFFFFFFFFFFFFFFFFF AND DUP2 MSTORE PUSH1 0x20 ADD SWAP1 DUP2 MSTORE PUSH1 0x20 ADD PUSH1 0x0 KECCAK256 PUSH1 0x0 SWAP1 SLOAD SWAP1 PUSH2 0x100 EXP SWAP1 DIV PUSH1 0xFF AND SWAP1 POP SWAP3 SWAP2 POP POP JUMP JUMPDEST PUSH2 0x30BD PUSH2 0x3931 JUMP JUMPDEST PUSH4 0x389A75E1 PUSH1 0xC MSTORE DUP1 PUSH1 0x0 MSTORE PUSH1 0x20 PUSH1 0xC KECCAK256 DUP1 SLOAD TIMESTAMP GT ISZERO PUSH2 0x30E5 JUMPI PUSH4 0x6F5E8818 PUSH1 0x0 MSTORE PUSH1 0x4 PUSH1 0x1C REVERT JUMPDEST PUSH1 0x0 DUP2 SSTORE POP PUSH2 0x30F3 DUP2 PUSH2 0x36A0 JUMP JUMPDEST POP JUMP JUMPDEST PUSH2 0x30FE PUSH2 0x3931 JUMP JUMPDEST DUP1 PUSH1 0x60 SHL PUSH2 0x3114 JUMPI PUSH4 0x7448FBAE PUSH1 0x0 MSTORE PUSH1 0x4 PUSH1 0x1C REVERT JUMPDEST PUSH2 0x311D DUP2 PUSH2 0x36A0 JUMP JUMPDEST POP JUMP JUMPDEST PUSH1 0x0 PUSH2 0x312A PUSH2 0x2405 JUMP JUMPDEST SWAP1 POP SWAP1 JUMP JUMPDEST PUSH1 0x0 PUSH4 0x389A75E1 PUSH1 0xC MSTORE DUP2 PUSH1 0x0 MSTORE PUSH1 0x20 PUSH1 0xC KECCAK256 SLOAD SWAP1 POP SWAP2 SWAP1 POP JUMP JUMPDEST PUSH1 0x1 PUSH2 0x3155 DUP2 PUSH2 0x3CEC JUMP JUMPDEST DUP8 PUSH1 0x8 PUSH1 0x0 ADD PUSH1 0x0 PUSH2 0x100 EXP DUP2 SLOAD DUP2 PUSH13 0xFFFFFFFFFFFFFFFFFFFFFFFFFF MUL NOT AND SWAP1 DUP4 PUSH13 0xFFFFFFFFFFFFFFFFFFFFFFFFFF AND MUL OR SWAP1 SSTORE POP DUP7 PUSH1 0x8 PUSH1 0x0 ADD PUSH1 0xD PUSH2 0x100 EXP DUP2 SLOAD DUP2 PUSH4 0xFFFFFFFF MUL NOT AND SWAP1 DUP4 PUSH4 0xFFFFFFFF AND MUL OR SWAP1 SSTORE POP DUP6 PUSH1 0x8 PUSH1 0x0 ADD PUSH1 0x11 PUSH2 0x100 EXP DUP2 SLOAD DUP2 PUSH8 0xFFFFFFFFFFFFFFFF MUL NOT AND SWAP1 DUP4 PUSH8 0xFFFFFFFFFFFFFFFF AND MUL OR SWAP1 SSTORE POP DUP5 PUSH1 0x8 PUSH1 0x1 ADD PUSH1 0x0 PUSH2 0x100 EXP DUP2 SLOAD DUP2 PUSH8 0xFFFFFFFFFFFFFFFF MUL NOT AND SWAP1 DUP4 PUSH8 0xFFFFFFFFFFFFFFFF AND MUL OR SWAP1 SSTORE POP DUP4 PUSH1 0x8 PUSH1 0x1 ADD PUSH1 0x8 PUSH2 0x100 EXP DUP2 SLOAD DUP2 PUSH8 0xFFFFFFFFFFFFFFFF MUL NOT AND SWAP1 DUP4 PUSH8 0xFFFFFFFFFFFFFFFF AND MUL OR SWAP1 SSTORE POP DUP3 PUSH1 0x8 PUSH1 0x1 ADD PUSH1 0x10 PUSH2 0x100 EXP DUP2 SLOAD DUP2 PUSH8 0xFFFFFFFFFFFFFFFF MUL NOT AND SWAP1 DUP4 PUSH8 0xFFFFFFFFFFFFFFFF AND MUL OR SWAP1 SSTORE POP CALLER PUSH20 0xFFFFFFFFFFFFFFFFFFFFFFFFFFFFFFFFFFFFFFFF AND PUSH32 0xC1FF5E4744AC8DD2B8027A10E3723B165975297501C71C4E7DCB8796D96375DB PUSH1 0x40 MLOAD PUSH1 0x40 MLOAD DUP1 SWAP2 SUB SWAP1 LOG2 POP POP POP POP POP POP POP POP JUMP JUMPDEST PUSH1 0x0 PUSH4 0x1FFC9A7 PUSH1 0xE0 SHL DUP3 PUSH28 0xFFFFFFFFFFFFFFFFFFFFFFFFFFFFFFFFFFFFFFFFFFFFFFFFFFFFFFFF NOT AND EQ DUP1 PUSH2 0x3307 JUMPI POP PUSH4 0x80AC58CD PUSH1 0xE0 SHL DUP3 PUSH28 0xFFFFFFFFFFFFFFFFFFFFFFFFFFFFFFFFFFFFFFFFFFFFFFFFFFFFFFFF NOT AND EQ JUMPDEST DUP1 PUSH2 0x3337 JUMPI POP PUSH4 0x5B5E139F PUSH1 0xE0 SHL DUP3 PUSH28 0xFFFFFFFFFFFFFFFFFFFFFFFFFFFFFFFFFFFFFFFFFFFFFFFFFFFFFFFF NOT AND EQ JUMPDEST SWAP1 POP SWAP2 SWAP1 POP JUMP JUMPDEST PUSH1 0x60 DUP1 PUSH1 0x0 PUSH1 0x2 SLOAD SWAP1 POP PUSH1 0x0 DUP1 SHL DUP2 EQ PUSH2 0x3368 JUMPI PUSH2 0x335B DUP2 PUSH2 0x4122 JUMP JUMPDEST DUP1 SWAP4 POP DUP2 SWAP5 POP POP POP PUSH2 0x3495 JUMP JUMPDEST PUSH2 0x3370 PUSH2 0x352F JUMP JUMPDEST PUSH1 0x2 ADD DUP1 SLOAD PUSH2 0x337E SWAP1 PUSH2 0x5978 JUMP JUMPDEST DUP1 PUSH1 0x1F ADD PUSH1 0x20 DUP1 SWAP2 DIV MUL PUSH1 0x20 ADD PUSH1 0x40 MLOAD SWAP1 DUP2 ADD PUSH1 0x40 MSTORE DUP1 SWAP3 SWAP2 SWAP1 DUP2 DUP2 MSTORE PUSH1 0x20 ADD DUP3 DUP1 SLOAD PUSH2 0x33AA SWAP1 PUSH2 0x5978 JUMP JUMPDEST DUP1 ISZERO PUSH2 0x33F7 JUMPI DUP1 PUSH1 0x1F LT PUSH2 0x33CC JUMPI PUSH2 0x100 DUP1 DUP4 SLOAD DIV MUL DUP4 MSTORE SWAP2 PUSH1 0x20 ADD SWAP2 PUSH2 0x33F7 JUMP JUMPDEST DUP3 ADD SWAP2 SWAP1 PUSH1 0x0 MSTORE PUSH1 0x20 PUSH1 0x0 KECCAK256 SWAP1 JUMPDEST DUP2 SLOAD DUP2 MSTORE SWAP1 PUSH1 0x1 ADD SWAP1 PUSH1 0x20 ADD DUP1 DUP4 GT PUSH2 0x33DA JUMPI DUP3 SWAP1 SUB PUSH1 0x1F AND DUP3 ADD SWAP2 JUMPDEST POP POP POP POP POP SWAP3 POP PUSH2 0x3406 PUSH2 0x352F JUMP JUMPDEST PUSH1 0x3 ADD DUP1 SLOAD PUSH2 0x3414 SWAP1 PUSH2 0x5978 JUMP JUMPDEST DUP1 PUSH1 0x1F ADD PUSH1 0x20 DUP1 SWAP2 DIV MUL PUSH1 0x20 ADD PUSH1 0x40 MLOAD SWAP1 DUP2 ADD PUSH1 0x40 MSTORE DUP1 SWAP3 SWAP2 SWAP1 DUP2 DUP2 MSTORE PUSH1 0x20 ADD DUP3 DUP1 SLOAD PUSH2 0x3440 SWAP1 PUSH2 0x5978 JUMP JUMPDEST DUP1 ISZERO PUSH2 0x348D JUMPI DUP1 PUSH1 0x1F LT PUSH2 0x3462 JUMPI PUSH2 0x100 DUP1 DUP4 SLOAD DIV MUL DUP4 MSTORE SWAP2 PUSH1 0x20 ADD SWAP2 PUSH2 0x348D JUMP JUMPDEST DUP3 ADD SWAP2 SWAP1 PUSH1 0x0 MSTORE PUSH1 0x20 PUSH1 0x0 KECCAK256 SWAP1 JUMPDEST DUP2 SLOAD DUP2 MSTORE SWAP1 PUSH1 0x1 ADD SWAP1 PUSH1 0x20 ADD DUP1 DUP4 GT PUSH2 0x3470 JUMPI DUP3 SWAP1 SUB PUSH1 0x1F AND DUP3 ADD SWAP2 JUMPDEST POP POP POP POP POP SWAP2 POP JUMPDEST POP SWAP1 SWAP2 JUMP JUMPDEST PUSH1 0x0 DUP2 PUSH2 0x34A5 PUSH2 0x36DE JUMP JUMPDEST GT PUSH2 0x3520 JUMPI PUSH2 0x34B2 PUSH2 0x352F JUMP JUMPDEST PUSH1 0x0 ADD SLOAD DUP3 LT ISZERO PUSH2 0x351F JUMPI PUSH1 0x0 JUMPDEST PUSH1 0x0 PUSH2 0x34CA PUSH2 0x352F JUMP JUMPDEST PUSH1 0x4 ADD PUSH1 0x0 DUP6 DUP2 MSTORE PUSH1 0x20 ADD SWAP1 DUP2 MSTORE PUSH1 0x20 ADD PUSH1 0x0 KECCAK256 SLOAD SWAP2 POP DUP2 SUB PUSH2 0x34F8 JUMPI DUP3 PUSH2 0x34F1 SWAP1 PUSH2 0x62A1 JUMP JUMPDEST SWAP3 POP PUSH2 0x34C0 JUMP JUMPDEST PUSH1 0x0 PUSH29 0x100000000000000000000000000000000000000000000000000000000 DUP3 AND EQ SWAP2 POP POP JUMPDEST JUMPDEST SWAP2 SWAP1 POP JUMP JUMPDEST DUP1 PUSH1 0x0 MSTORE PUSH1 0x4 PUSH1 0x0 REVERT JUMPDEST PUSH1 0x0 DUP1 PUSH32 0x2569078DFB4B0305704D3008E7403993AE9601B85F7AE5E742DE3DE8F8011C40 SWAP1 POP DUP1 SWAP2 POP POP SWAP1 JUMP JUMPDEST PUSH1 0x0 PUSH14 0xAAEB6D7670E522A718067333CD4E PUSH20 0xFFFFFFFFFFFFFFFFFFFFFFFFFFFFFFFFFFFFFFFF AND EXTCODESIZE GT ISZERO PUSH2 0x3656 JUMPI PUSH14 0xAAEB6D7670E522A718067333CD4E PUSH20 0xFFFFFFFFFFFFFFFFFFFFFFFFFFFFFFFFFFFFFFFF AND PUSH4 0xC6171134 ADDRESS DUP4 PUSH1 0x40 MLOAD DUP4 PUSH4 0xFFFFFFFF AND PUSH1 0xE0 SHL DUP2 MSTORE PUSH1 0x4 ADD PUSH2 0x35D3 SWAP3 SWAP2 SWAP1 PUSH2 0x62CA JUMP JUMPDEST PUSH1 0x20 PUSH1 0x40 MLOAD DUP1 DUP4 SUB DUP2 DUP7 GAS STATICCALL ISZERO DUP1 ISZERO PUSH2 0x35F0 JUMPI RETURNDATASIZE PUSH1 0x0 DUP1 RETURNDATACOPY RETURNDATASIZE PUSH1 0x0 REVERT JUMPDEST POP POP POP POP PUSH1 0x40 MLOAD RETURNDATASIZE PUSH1 0x1F NOT PUSH1 0x1F DUP3 ADD AND DUP3 ADD DUP1 PUSH1 0x40 MSTORE POP DUP2 ADD SWAP1 PUSH2 0x3614 SWAP2 SWAP1 PUSH2 0x6308 JUMP JUMPDEST PUSH2 0x3655 JUMPI DUP1 PUSH1 0x40 MLOAD PUSH32 0xEDE71DCC00000000000000000000000000000000000000000000000000000000 DUP2 MSTORE PUSH1 0x4 ADD PUSH2 0x364C SWAP2 SWAP1 PUSH2 0x4717 JUMP JUMPDEST PUSH1 0x40 MLOAD DUP1 SWAP2 SUB SWAP1 REVERT JUMPDEST JUMPDEST POP JUMP JUMPDEST PUSH2 0x3665 DUP3 DUP3 PUSH1 0x1 PUSH2 0x416B JUMP JUMPDEST POP POP JUMP JUMPDEST PUSH4 0x8B78C6D8 NOT SLOAD CALLER EQ PUSH2 0x369D JUMPI PUSH4 0x8B78C6D8 PUSH1 0xC MSTORE CALLER PUSH1 0x0 MSTORE DUP1 PUSH1 0x20 PUSH1 0xC KECCAK256 SLOAD AND PUSH2 0x369C JUMPI PUSH4 0x82B42900 PUSH1 0x0 MSTORE PUSH1 0x4 PUSH1 0x1C REVERT JUMPDEST JUMPDEST POP JUMP JUMPDEST PUSH4 0x8B78C6D8 NOT DUP2 PUSH1 0x60 SHL PUSH1 0x60 SHR SWAP2 POP DUP2 DUP2 SLOAD PUSH32 0x8BE0079C531659141344CD1FD0A4F28419497F9722A3DAAFE3B4186F6B6457E0 PUSH1 0x0 DUP1 LOG3 DUP2 DUP2 SSTORE POP POP JUMP JUMPDEST PUSH1 0x0 PUSH1 0x1 SWAP1 POP SWAP1 JUMP JUMPDEST PUSH4 0x8B78C6D8 PUSH1 0xC MSTORE DUP2 PUSH1 0x0 MSTORE PUSH1 0x20 PUSH1 0xC KECCAK256 DUP1 SLOAD DUP3 DUP2 AND DUP2 XOR SWAP3 POP DUP3 DUP3 SSTORE DUP3 PUSH1 0xC MLOAD PUSH1 0x60 SHR PUSH32 0x715AD5CE61FC9595C7B415289D59CF203F23A94FA06F04AF7E489A0A76E1FE26 PUSH1 0x0 DUP1 LOG3 POP POP POP POP JUMP JUMPDEST PUSH1 0x0 PUSH8 0xFFFFFFFFFFFFFFFF PUSH1 0x40 PUSH2 0x374B PUSH2 0x352F JUMP JUMPDEST PUSH1 0x5 ADD PUSH1 0x0 DUP6 PUSH20 0xFFFFFFFFFFFFFFFFFFFFFFFFFFFFFFFFFFFFFFFF AND PUSH20 0xFFFFFFFFFFFFFFFFFFFFFFFFFFFFFFFFFFFFFFFF AND DUP2 MSTORE PUSH1 0x20 ADD SWAP1 DUP2 MSTORE PUSH1 0x20 ADD PUSH1 0x0 KECCAK256 SLOAD SWAP1 SHR AND SWAP1 POP SWAP2 SWAP1 POP JUMP JUMPDEST PUSH1 0x0 PUSH2 0x37A0 PUSH2 0x352F JUMP JUMPDEST PUSH1 0x0 ADD SLOAD SWAP1 POP SWAP1 JUMP JUMPDEST PUSH1 0x0 PUSH2 0x37B3 PUSH2 0x352F JUMP JUMPDEST PUSH1 0x0 ADD SLOAD SWAP1 POP PUSH1 0x0 DUP3 SUB PUSH2 0x37D2 JUMPI PUSH2 0x37D1 PUSH4 0xB562E8DD PUSH1 0xE0 SHL PUSH2 0x3525 JUMP JUMPDEST JUMPDEST PUSH2 0x37DF PUSH1 0x0 DUP5 DUP4 DUP6 PUSH2 0x42A3 JUMP JUMPDEST PUSH2 0x37FF DUP4 PUSH2 0x37F0 PUSH1 0x0 DUP7 PUSH1 0x0 PUSH2 0x42A9 JUMP JUMPDEST PUSH2 0x37F9 DUP6 PUSH2 0x42D1 JUMP JUMPDEST OR PUSH2 0x42E1 JUMP JUMPDEST PUSH2 0x3807 PUSH2 0x352F JUMP JUMPDEST PUSH1 0x4 ADD PUSH1 0x0 DUP4 DUP2 MSTORE PUSH1 0x20 ADD SWAP1 DUP2 MSTORE PUSH1 0x20 ADD PUSH1 0x0 KECCAK256 DUP2 SWAP1 SSTORE POP PUSH1 0x1 PUSH1 0x40 PUSH1 0x1 SWAP1 SHL OR DUP3 MUL PUSH2 0x3832 PUSH2 0x352F JUMP JUMPDEST PUSH1 0x5 ADD PUSH1 0x0 DUP6 PUSH20 0xFFFFFFFFFFFFFFFFFFFFFFFFFFFFFFFFFFFFFFFF AND PUSH20 0xFFFFFFFFFFFFFFFFFFFFFFFFFFFFFFFFFFFFFFFF AND DUP2 MSTORE PUSH1 0x20 ADD SWAP1 DUP2 MSTORE PUSH1 0x20 ADD PUSH1 0x0 KECCAK256 PUSH1 0x0 DUP3 DUP3 SLOAD ADD SWAP3 POP POP DUP2 SWAP1 SSTORE POP PUSH1 0x0 PUSH20 0xFFFFFFFFFFFFFFFFFFFFFFFFFFFFFFFFFFFFFFFF DUP5 PUSH20 0xFFFFFFFFFFFFFFFFFFFFFFFFFFFFFFFFFFFFFFFF AND AND SWAP1 POP PUSH1 0x0 DUP2 SUB PUSH2 0x38C9 JUMPI PUSH2 0x38C8 PUSH4 0x2E076300 PUSH1 0xE0 SHL PUSH2 0x3525 JUMP JUMPDEST JUMPDEST PUSH1 0x0 DUP4 DUP4 ADD SWAP1 POP PUSH1 0x0 DUP4 SWAP1 POP JUMPDEST DUP1 DUP4 PUSH1 0x0 PUSH32 0xDDF252AD1BE2C89B69C2B068FC378DAA952BA7F163C4A11628F55A4DF523B3EF PUSH1 0x0 DUP1 LOG4 DUP2 DUP2 PUSH1 0x1 ADD SWAP2 POP DUP2 SUB PUSH2 0x38D6 JUMPI DUP2 PUSH2 0x3915 PUSH2 0x352F JUMP JUMPDEST PUSH1 0x0 ADD DUP2 SWAP1 SSTORE POP POP POP POP PUSH2 0x392C PUSH1 0x0 DUP5 DUP4 DUP6 PUSH2 0x430C JUMP JUMPDEST POP POP POP JUMP JUMPDEST PUSH4 0x8B78C6D8 NOT SLOAD CALLER EQ PUSH2 0x394C JUMPI PUSH4 0x82B42900 PUSH1 0x0 MSTORE PUSH1 0x4 PUSH1 0x1C REVERT JUMPDEST JUMP JUMPDEST PUSH4 0x8B78C6D8 PUSH1 0xC MSTORE DUP2 PUSH1 0x0 MSTORE PUSH1 0x20 PUSH1 0xC KECCAK256 DUP2 DUP2 SLOAD OR SWAP2 POP DUP2 DUP2 SSTORE DUP2 PUSH1 0xC MLOAD PUSH1 0x60 SHR PUSH32 0x715AD5CE61FC9595C7B415289D59CF203F23A94FA06F04AF7E489A0A76E1FE26 PUSH1 0x0 DUP1 LOG3 POP POP POP JUMP JUMPDEST PUSH1 0x0 PUSH2 0x39A4 DUP3 PUSH2 0x3D43 JUMP JUMPDEST SWAP1 POP PUSH20 0xFFFFFFFFFFFFFFFFFFFFFFFFFFFFFFFFFFFFFFFF DUP5 PUSH20 0xFFFFFFFFFFFFFFFFFFFFFFFFFFFFFFFFFFFFFFFF AND AND SWAP4 POP DUP4 PUSH20 0xFFFFFFFFFFFFFFFFFFFFFFFFFFFFFFFFFFFFFFFF AND DUP2 PUSH20 0xFFFFFFFFFFFFFFFFFFFFFFFFFFFFFFFFFFFFFFFF AND EQ PUSH2 0x3A19 JUMPI PUSH2 0x3A18 PUSH4 0xA1148100 PUSH1 0xE0 SHL PUSH2 0x3525 JUMP JUMPDEST JUMPDEST PUSH1 0x0 DUP1 PUSH2 0x3A25 DUP5 PUSH2 0x4312 JUMP JUMPDEST SWAP2 POP SWAP2 POP PUSH2 0x3A3B DUP2 DUP8 PUSH2 0x3A36 PUSH2 0x4342 JUMP JUMPDEST PUSH2 0x434A JUMP JUMPDEST PUSH2 0x3A66 JUMPI PUSH2 0x3A50 DUP7 PUSH2 0x3A4B PUSH2 0x4342 JUMP JUMPDEST PUSH2 0x3018 JUMP JUMPDEST PUSH2 0x3A65 JUMPI PUSH2 0x3A64 PUSH4 0x59C896BE PUSH1 0xE0 SHL PUSH2 0x3525 JUMP JUMPDEST JUMPDEST JUMPDEST PUSH2 0x3A73 DUP7 DUP7 DUP7 PUSH1 0x1 PUSH2 0x42A3 JUMP JUMPDEST DUP1 ISZERO PUSH2 0x3A7E JUMPI PUSH1 0x0 DUP3 SSTORE JUMPDEST PUSH2 0x3A86 PUSH2 0x352F JUMP JUMPDEST PUSH1 0x5 ADD PUSH1 0x0 DUP8 PUSH20 0xFFFFFFFFFFFFFFFFFFFFFFFFFFFFFFFFFFFFFFFF AND PUSH20 0xFFFFFFFFFFFFFFFFFFFFFFFFFFFFFFFFFFFFFFFF AND DUP2 MSTORE PUSH1 0x20 ADD SWAP1 DUP2 MSTORE PUSH1 0x20 ADD PUSH1 0x0 KECCAK256 PUSH1 0x0 DUP2 SLOAD PUSH1 0x1 SWAP1 SUB SWAP2 SWAP1 POP DUP2 SWAP1 SSTORE POP PUSH2 0x3ADD PUSH2 0x352F JUMP JUMPDEST PUSH1 0x5 ADD PUSH1 0x0 DUP7 PUSH20 0xFFFFFFFFFFFFFFFFFFFFFFFFFFFFFFFFFFFFFFFF AND PUSH20 0xFFFFFFFFFFFFFFFFFFFFFFFFFFFFFFFFFFFFFFFF AND DUP2 MSTORE PUSH1 0x20 ADD SWAP1 DUP2 MSTORE PUSH1 0x20 ADD PUSH1 0x0 KECCAK256 PUSH1 0x0 DUP2 SLOAD PUSH1 0x1 ADD SWAP2 SWAP1 POP DUP2 SWAP1 SSTORE POP PUSH2 0x3B5E DUP6 PUSH2 0x3B3A DUP9 DUP9 DUP8 PUSH2 0x42A9 JUMP JUMPDEST PUSH29 0x200000000000000000000000000000000000000000000000000000000 OR PUSH2 0x42E1 JUMP JUMPDEST PUSH2 0x3B66 PUSH2 0x352F JUMP JUMPDEST PUSH1 0x4 ADD PUSH1 0x0 DUP7 DUP2 MSTORE PUSH1 0x20 ADD SWAP1 DUP2 MSTORE PUSH1 0x20 ADD PUSH1 0x0 KECCAK256 DUP2 SWAP1 SSTORE POP PUSH1 0x0 PUSH29 0x200000000000000000000000000000000000000000000000000000000 DUP5 AND SUB PUSH2 0x3C08 JUMPI PUSH1 0x0 PUSH1 0x1 DUP6 ADD SWAP1 POP PUSH1 0x0 PUSH2 0x3BB7 PUSH2 0x352F JUMP JUMPDEST PUSH1 0x4 ADD PUSH1 0x0 DUP4 DUP2 MSTORE PUSH1 0x20 ADD SWAP1 DUP2 MSTORE PUSH1 0x20 ADD PUSH1 0x0 KECCAK256 SLOAD SUB PUSH2 0x3C06 JUMPI PUSH2 0x3BD9 PUSH2 0x352F JUMP JUMPDEST PUSH1 0x0 ADD SLOAD DUP2 EQ PUSH2 0x3C05 JUMPI DUP4 PUSH2 0x3BEC PUSH2 0x352F JUMP JUMPDEST PUSH1 0x4 ADD PUSH1 0x0 DUP4 DUP2 MSTORE PUSH1 0x20 ADD SWAP1 DUP2 MSTORE PUSH1 0x20 ADD PUSH1 0x0 KECCAK256 DUP2 SWAP1 SSTORE POP JUMPDEST JUMPDEST POP JUMPDEST PUSH1 0x0 PUSH20 0xFFFFFFFFFFFFFFFFFFFFFFFFFFFFFFFFFFFFFFFF DUP7 PUSH20 0xFFFFFFFFFFFFFFFFFFFFFFFFFFFFFFFFFFFFFFFF AND AND SWAP1 POP DUP5 DUP2 DUP9 PUSH32 0xDDF252AD1BE2C89B69C2B068FC378DAA952BA7F163C4A11628F55A4DF523B3EF PUSH1 0x0 DUP1 LOG4 PUSH1 0x0 DUP2 SUB PUSH2 0x3C7A JUMPI PUSH2 0x3C79 PUSH4 0xEA553B34 PUSH1 0xE0 SHL PUSH2 0x3525 JUMP JUMPDEST JUMPDEST PUSH2 0x3C87 DUP8 DUP8 DUP8 PUSH1 0x1 PUSH2 0x430C JUMP JUMPDEST POP POP POP POP POP POP POP JUMP JUMPDEST PUSH1 0x0 TIMESTAMP PUSH1 0x8 PUSH1 0x1 ADD PUSH1 0x8 SWAP1 SLOAD SWAP1 PUSH2 0x100 EXP SWAP1 DIV PUSH8 0xFFFFFFFFFFFFFFFF AND PUSH8 0xFFFFFFFFFFFFFFFF AND GT ISZERO DUP1 ISZERO PUSH2 0x3CE7 JUMPI POP TIMESTAMP PUSH1 0x8 PUSH1 0x1 ADD PUSH1 0x10 SWAP1 SLOAD SWAP1 PUSH2 0x100 EXP SWAP1 DIV PUSH8 0xFFFFFFFFFFFFFFFF AND PUSH8 0xFFFFFFFFFFFFFFFF AND GT JUMPDEST SWAP1 POP SWAP1 JUMP JUMPDEST PUSH4 0x8B78C6D8 PUSH1 0xC MSTORE CALLER PUSH1 0x0 MSTORE DUP1 PUSH1 0x20 PUSH1 0xC KECCAK256 SLOAD AND PUSH2 0x3D20 JUMPI PUSH4 0x8B78C6D8 NOT SLOAD CALLER EQ PUSH2 0x3D1F JUMPI PUSH4 0x82B42900 PUSH1 0x0 MSTORE PUSH1 0x4 PUSH1 0x1C REVERT JUMPDEST JUMPDEST POP JUMP JUMPDEST PUSH2 0x3D3E DUP4 DUP4 DUP4 PUSH1 0x40 MLOAD DUP1 PUSH1 0x20 ADD PUSH1 0x40 MSTORE DUP1 PUSH1 0x0 DUP2 MSTORE POP PUSH2 0x24A4 JUMP JUMPDEST POP POP POP JUMP JUMPDEST PUSH1 0x0 DUP2 PUSH2 0x3D4E PUSH2 0x36DE JUMP JUMPDEST GT PUSH2 0x3E34 JUMPI PUSH2 0x3D5B PUSH2 0x352F JUMP JUMPDEST PUSH1 0x4 ADD PUSH1 0x0 DUP4 DUP2 MSTORE PUSH1 0x20 ADD SWAP1 DUP2 MSTORE PUSH1 0x20 ADD PUSH1 0x0 KECCAK256 SLOAD SWAP1 POP PUSH1 0x0 DUP2 SUB PUSH2 0x3E0B JUMPI PUSH2 0x3D82 PUSH2 0x352F JUMP JUMPDEST PUSH1 0x0 ADD SLOAD DUP3 LT PUSH2 0x3D9D JUMPI PUSH2 0x3D9C PUSH4 0xDF2D9B42 PUSH1 0xE0 SHL PUSH2 0x3525 JUMP JUMPDEST JUMPDEST JUMPDEST PUSH2 0x3DA6 PUSH2 0x352F JUMP JUMPDEST PUSH1 0x4 ADD PUSH1 0x0 DUP4 PUSH1 0x1 SWAP1 SUB SWAP4 POP DUP4 DUP2 MSTORE PUSH1 0x20 ADD SWAP1 DUP2 MSTORE PUSH1 0x20 ADD PUSH1 0x0 KECCAK256 SLOAD SWAP1 POP PUSH1 0x0 DUP2 SUB ISZERO PUSH2 0x3E06 JUMPI PUSH1 0x0 PUSH29 0x100000000000000000000000000000000000000000000000000000000 DUP3 AND SUB ISZERO PUSH2 0x3E45 JUMPI PUSH2 0x3E05 PUSH4 0xDF2D9B42 PUSH1 0xE0 SHL PUSH2 0x3525 JUMP JUMPDEST JUMPDEST PUSH2 0x3D9E JUMP JUMPDEST PUSH1 0x0 PUSH29 0x100000000000000000000000000000000000000000000000000000000 DUP3 AND SUB ISZERO PUSH2 0x3E45 JUMPI JUMPDEST PUSH2 0x3E44 PUSH4 0xDF2D9B42 PUSH1 0xE0 SHL PUSH2 0x3525 JUMP JUMPDEST JUMPDEST SWAP2 SWAP1 POP JUMP JUMPDEST PUSH1 0x0 PUSH4 0x8B78C6D8 NOT SLOAD SWAP1 POP SWAP1 JUMP JUMPDEST DUP1 PUSH2 0x3E61 PUSH2 0x352F JUMP JUMPDEST PUSH1 0x7 ADD PUSH1 0x0 PUSH2 0x3E6E PUSH2 0x4342 JUMP JUMPDEST PUSH20 0xFFFFFFFFFFFFFFFFFFFFFFFFFFFFFFFFFFFFFFFF AND PUSH20 0xFFFFFFFFFFFFFFFFFFFFFFFFFFFFFFFFFFFFFFFF AND DUP2 MSTORE PUSH1 0x20 ADD SWAP1 DUP2 MSTORE PUSH1 0x20 ADD PUSH1 0x0 KECCAK256 PUSH1 0x0 DUP5 PUSH20 0xFFFFFFFFFFFFFFFFFFFFFFFFFFFFFFFFFFFFFFFF AND PUSH20 0xFFFFFFFFFFFFFFFFFFFFFFFFFFFFFFFFFFFFFFFF AND DUP2 MSTORE PUSH1 0x20 ADD SWAP1 DUP2 MSTORE PUSH1 0x20 ADD PUSH1 0x0 KECCAK256 PUSH1 0x0 PUSH2 0x100 EXP DUP2 SLOAD DUP2 PUSH1 0xFF MUL NOT AND SWAP1 DUP4 ISZERO ISZERO MUL OR SWAP1 SSTORE POP DUP2 PUSH20 0xFFFFFFFFFFFFFFFFFFFFFFFFFFFFFFFFFFFFFFFF AND PUSH2 0x3F1B PUSH2 0x4342 JUMP JUMPDEST PUSH20 0xFFFFFFFFFFFFFFFFFFFFFFFFFFFFFFFFFFFFFFFF AND PUSH32 0x17307EAB39AB6107E8899845AD3D59BD9653F200F220920489CA2B5937696C31 DUP4 PUSH1 0x40 MLOAD PUSH2 0x3F60 SWAP2 SWAP1 PUSH2 0x45A6 JUMP JUMPDEST PUSH1 0x40 MLOAD DUP1 SWAP2 SUB SWAP1 LOG3 POP POP JUMP JUMPDEST PUSH1 0x0 PUSH2 0x3F76 PUSH2 0x36DE JUMP JUMPDEST PUSH2 0x3F7E PUSH2 0x352F JUMP JUMPDEST PUSH1 0x0 ADD SLOAD SUB SWAP1 POP SWAP1 JUMP JUMPDEST PUSH2 0x3F93 DUP5 DUP5 DUP5 PUSH2 0x174F JUMP JUMPDEST PUSH1 0x0 DUP4 PUSH20 0xFFFFFFFFFFFFFFFFFFFFFFFFFFFFFFFFFFFFFFFF AND EXTCODESIZE EQ PUSH2 0x3FD4 JUMPI PUSH2 0x3FBE DUP5 DUP5 DUP5 DUP5 PUSH2 0x438E JUMP JUMPDEST PUSH2 0x3FD3 JUMPI PUSH2 0x3FD2 PUSH4 0xD1A57ED6 PUSH1 0xE0 SHL PUSH2 0x3525 JUMP JUMPDEST JUMPDEST JUMPDEST POP POP POP POP JUMP JUMPDEST PUSH1 0x60 PUSH1 0xA0 PUSH1 0x40 MLOAD ADD DUP1 PUSH1 0x40 MSTORE PUSH1 0x20 DUP2 SUB SWAP2 POP PUSH1 0x0 DUP3 MSTORE DUP2 DUP4 JUMPDEST PUSH1 0x1 ISZERO PUSH2 0x4015 JUMPI PUSH1 0x1 DUP5 SUB SWAP4 POP PUSH1 0xA DUP2 MOD PUSH1 0x30 ADD DUP5 MSTORE8 PUSH1 0xA DUP2 DIV SWAP1 POP DUP1 PUSH2 0x3FF3 JUMPI JUMPDEST POP DUP3 DUP2 SUB PUSH1 0x20 DUP5 SUB SWAP4 POP DUP1 DUP5 MSTORE POP POP POP SWAP2 SWAP1 POP JUMP JUMPDEST PUSH1 0x0 DUP2 PUSH1 0x20 ADD MLOAD MLOAD SWAP1 POP PUSH1 0x0 JUMPDEST DUP2 DUP2 LT ISZERO PUSH2 0x4084 JUMPI PUSH1 0x0 DUP4 PUSH1 0x20 ADD MLOAD DUP3 DUP2 MLOAD DUP2 LT PUSH2 0x4058 JUMPI PUSH2 0x4057 PUSH2 0x5FB6 JUMP JUMPDEST JUMPDEST PUSH1 0x20 MUL PUSH1 0x20 ADD ADD MLOAD SWAP1 POP PUSH2 0x4078 PUSH2 0x406D PUSH2 0x22EA JUMP JUMPDEST DUP6 PUSH1 0x0 ADD MLOAD DUP4 PUSH2 0x1D1B JUMP JUMPDEST DUP2 PUSH1 0x1 ADD SWAP2 POP POP PUSH2 0x4037 JUMP JUMPDEST POP POP POP JUMP JUMPDEST PUSH1 0x0 PUSH2 0x4095 DUP4 DUP4 PUSH2 0x44BD JUMP JUMPDEST SWAP1 POP PUSH1 0x0 DUP1 SHL DUP2 SUB PUSH2 0x40D9 JUMPI DUP3 PUSH2 0x40AA PUSH2 0x352F JUMP JUMPDEST PUSH1 0x2 ADD SWAP1 DUP2 PUSH2 0x40B9 SWAP2 SWAP1 PUSH2 0x5E61 JUMP JUMPDEST POP DUP2 PUSH2 0x40C3 PUSH2 0x352F JUMP JUMPDEST PUSH1 0x3 ADD SWAP1 DUP2 PUSH2 0x40D2 SWAP2 SWAP1 PUSH2 0x5E61 JUMP JUMPDEST POP POP PUSH2 0x40E2 JUMP JUMPDEST DUP1 PUSH1 0x2 DUP2 SWAP1 SSTORE POP POP JUMPDEST POP POP JUMP JUMPDEST DUP1 PUSH1 0x60 SHL PUSH1 0x60 SHR SWAP1 POP DUP1 PUSH4 0x8B78C6D8 NOT SSTORE DUP1 PUSH1 0x0 PUSH32 0x8BE0079C531659141344CD1FD0A4F28419497F9722A3DAAFE3B4186F6B6457E0 PUSH1 0x0 DUP1 LOG3 POP JUMP JUMPDEST PUSH1 0x60 DUP1 PUSH1 0x40 MLOAD SWAP2 POP PUSH1 0x40 DUP3 ADD SWAP1 POP PUSH1 0x40 DUP2 ADD PUSH1 0x40 MSTORE PUSH1 0x0 DUP3 MSTORE PUSH1 0x0 DUP2 MSTORE DUP3 PUSH1 0x1F DUP4 ADD MSTORE DUP2 MLOAD PUSH1 0x20 DUP4 ADD ADD MLOAD PUSH1 0x1F DUP3 ADD MSTORE PUSH1 0x0 DUP3 MLOAD PUSH1 0x20 DUP5 ADD ADD MSTORE PUSH1 0x0 DUP2 MLOAD PUSH1 0x20 DUP4 ADD ADD MSTORE SWAP2 POP SWAP2 JUMP JUMPDEST PUSH1 0x0 PUSH2 0x4176 DUP4 PUSH2 0x1F75 JUMP JUMPDEST SWAP1 POP DUP2 DUP1 ISZERO PUSH2 0x41B8 JUMPI POP DUP1 PUSH20 0xFFFFFFFFFFFFFFFFFFFFFFFFFFFFFFFFFFFFFFFF AND PUSH2 0x419F PUSH2 0x4342 JUMP JUMPDEST PUSH20 0xFFFFFFFFFFFFFFFFFFFFFFFFFFFFFFFFFFFFFFFF AND EQ ISZERO JUMPDEST ISZERO PUSH2 0x41E4 JUMPI PUSH2 0x41CE DUP2 PUSH2 0x41C9 PUSH2 0x4342 JUMP JUMPDEST PUSH2 0x3018 JUMP JUMPDEST PUSH2 0x41E3 JUMPI PUSH2 0x41E2 PUSH4 0xCFB3B942 PUSH1 0xE0 SHL PUSH2 0x3525 JUMP JUMPDEST JUMPDEST JUMPDEST DUP4 PUSH2 0x41ED PUSH2 0x352F JUMP JUMPDEST PUSH1 0x6 ADD PUSH1 0x0 DUP6 DUP2 MSTORE PUSH1 0x20 ADD SWAP1 DUP2 MSTORE PUSH1 0x20 ADD PUSH1 0x0 KECCAK256 PUSH1 0x0 ADD PUSH1 0x0 PUSH2 0x100 EXP DUP2 SLOAD DUP2 PUSH20 0xFFFFFFFFFFFFFFFFFFFFFFFFFFFFFFFFFFFFFFFF MUL NOT AND SWAP1 DUP4 PUSH20 0xFFFFFFFFFFFFFFFFFFFFFFFFFFFFFFFFFFFFFFFF AND MUL OR SWAP1 SSTORE POP DUP3 DUP5 PUSH20 0xFFFFFFFFFFFFFFFFFFFFFFFFFFFFFFFFFFFFFFFF AND DUP3 PUSH20 0xFFFFFFFFFFFFFFFFFFFFFFFFFFFFFFFFFFFFFFFF AND PUSH32 0x8C5BE1E5EBEC7D5BD14F71427D1E84F3DD0314C0F7B2291E5B200AC8C7C3B925 PUSH1 0x40 MLOAD PUSH1 0x40 MLOAD DUP1 SWAP2 SUB SWAP1 LOG4 POP POP POP POP JUMP JUMPDEST POP POP POP POP JUMP JUMPDEST PUSH1 0x0 DUP1 PUSH1 0xE8 DUP4 SWAP1 SHR SWAP1 POP PUSH1 0xE8 PUSH2 0x42C0 DUP7 DUP7 DUP5 PUSH2 0x44E9 JUMP JUMPDEST PUSH3 0xFFFFFF AND SWAP1 SHL SWAP2 POP POP SWAP4 SWAP3 POP POP POP JUMP JUMPDEST PUSH1 0x0 PUSH1 0x1 DUP3 EQ PUSH1 0xE1 SHL SWAP1 POP SWAP2 SWAP1 POP JUMP JUMPDEST PUSH1 0x0 PUSH20 0xFFFFFFFFFFFFFFFFFFFFFFFFFFFFFFFFFFFFFFFF DUP4 AND SWAP3 POP DUP2 TIMESTAMP PUSH1 0xA0 SHL OR DUP4 OR SWAP1 POP SWAP3 SWAP2 POP POP JUMP JUMPDEST POP POP POP POP JUMP JUMPDEST PUSH1 0x0 DUP1 PUSH1 0x0 PUSH2 0x431F PUSH2 0x352F JUMP JUMPDEST PUSH1 0x6 ADD PUSH1 0x0 DUP6 DUP2 MSTORE PUSH1 0x20 ADD SWAP1 DUP2 MSTORE PUSH1 0x20 ADD PUSH1 0x0 KECCAK256 SWAP1 POP DUP1 SWAP3 POP DUP3 SLOAD SWAP2 POP POP SWAP2 POP SWAP2 JUMP JUMPDEST PUSH1 0x0 CALLER SWAP1 POP SWAP1 JUMP JUMPDEST PUSH1 0x0 PUSH20 0xFFFFFFFFFFFFFFFFFFFFFFFFFFFFFFFFFFFFFFFF DUP4 AND SWAP3 POP PUSH20 0xFFFFFFFFFFFFFFFFFFFFFFFFFFFFFFFFFFFFFFFF DUP3 AND SWAP2 POP DUP4 DUP3 EQ DUP4 DUP4 EQ OR SWAP1 POP SWAP4 SWAP3 POP POP POP JUMP JUMPDEST PUSH1 0x0 DUP4 PUSH20 0xFFFFFFFFFFFFFFFFFFFFFFFFFFFFFFFFFFFFFFFF AND PUSH4 0x150B7A02 PUSH2 0x43B4 PUSH2 0x4342 JUMP JUMPDEST DUP8 DUP7 DUP7 PUSH1 0x40 MLOAD DUP6 PUSH4 0xFFFFFFFF AND PUSH1 0xE0 SHL DUP2 MSTORE PUSH1 0x4 ADD PUSH2 0x43D6 SWAP5 SWAP4 SWAP3 SWAP2 SWAP1 PUSH2 0x638A JUMP JUMPDEST PUSH1 0x20 PUSH1 0x40 MLOAD DUP1 DUP4 SUB DUP2 PUSH1 0x0 DUP8 GAS CALL SWAP3 POP POP POP DUP1 ISZERO PUSH2 0x4412 JUMPI POP PUSH1 0x40 MLOAD RETURNDATASIZE PUSH1 0x1F NOT PUSH1 0x1F DUP3 ADD AND DUP3 ADD DUP1 PUSH1 0x40 MSTORE POP DUP2 ADD SWAP1 PUSH2 0x440F SWAP2 SWAP1 PUSH2 0x63EB JUMP JUMPDEST PUSH1 0x1 JUMPDEST PUSH2 0x446A JUMPI RETURNDATASIZE DUP1 PUSH1 0x0 DUP2 EQ PUSH2 0x4442 JUMPI PUSH1 0x40 MLOAD SWAP2 POP PUSH1 0x1F NOT PUSH1 0x3F RETURNDATASIZE ADD AND DUP3 ADD PUSH1 0x40 MSTORE RETURNDATASIZE DUP3 MSTORE RETURNDATASIZE PUSH1 0x0 PUSH1 0x20 DUP5 ADD RETURNDATACOPY PUSH2 0x4447 JUMP JUMPDEST PUSH1 0x60 SWAP2 POP JUMPDEST POP PUSH1 0x0 DUP2 MLOAD SUB PUSH2 0x4462 JUMPI PUSH2 0x4461 PUSH4 0xD1A57ED6 PUSH1 0xE0 SHL PUSH2 0x3525 JUMP JUMPDEST JUMPDEST DUP1 MLOAD DUP2 PUSH1 0x20 ADD REVERT JUMPDEST PUSH4 0x150B7A02 PUSH1 0xE0 SHL PUSH28 0xFFFFFFFFFFFFFFFFFFFFFFFFFFFFFFFFFFFFFFFFFFFFFFFFFFFFFFFF NOT AND DUP2 PUSH28 0xFFFFFFFFFFFFFFFFFFFFFFFFFFFFFFFFFFFFFFFFFFFFFFFFFFFFFFFF NOT AND EQ SWAP2 POP POP SWAP5 SWAP4 POP POP POP POP JUMP JUMPDEST PUSH1 0x0 DUP3 MLOAD PUSH1 0x1E PUSH1 0x1 DUP5 MLOAD DUP4 ADD SUB LT DUP2 PUSH1 0x1E DUP6 ADD SUB MLOAD DUP3 DUP7 ADD MLOAD DUP4 PUSH1 0x1F SUB PUSH1 0x3 SHL SHL OR MUL SWAP2 POP POP SWAP3 SWAP2 POP POP JUMP JUMPDEST PUSH1 0x0 SWAP4 SWAP3 POP POP POP JUMP JUMPDEST PUSH1 0x0 PUSH1 0x40 MLOAD SWAP1 POP SWAP1 JUMP JUMPDEST PUSH1 0x0 DUP1 REVERT JUMPDEST PUSH1 0x0 DUP1 REVERT JUMPDEST PUSH1 0x0 PUSH32 0xFFFFFFFF00000000000000000000000000000000000000000000000000000000 DUP3 AND SWAP1 POP SWAP2 SWAP1 POP JUMP JUMPDEST PUSH2 0x453B DUP2 PUSH2 0x4506 JUMP JUMPDEST DUP2 EQ PUSH2 0x4546 JUMPI PUSH1 0x0 DUP1 REVERT JUMPDEST POP JUMP JUMPDEST PUSH1 0x0 DUP2 CALLDATALOAD SWAP1 POP PUSH2 0x4558 DUP2 PUSH2 0x4532 JUMP JUMPDEST SWAP3 SWAP2 POP POP JUMP JUMPDEST PUSH1 0x0 PUSH1 0x20 DUP3 DUP5 SUB SLT ISZERO PUSH2 0x4574 JUMPI PUSH2 0x4573 PUSH2 0x44FC JUMP JUMPDEST JUMPDEST PUSH1 0x0 PUSH2 0x4582 DUP5 DUP3 DUP6 ADD PUSH2 0x4549 JUMP JUMPDEST SWAP2 POP POP SWAP3 SWAP2 POP POP JUMP JUMPDEST PUSH1 0x0 DUP2 ISZERO ISZERO SWAP1 POP SWAP2 SWAP1 POP JUMP JUMPDEST PUSH2 0x45A0 DUP2 PUSH2 0x458B JUMP JUMPDEST DUP3 MSTORE POP POP JUMP JUMPDEST PUSH1 0x0 PUSH1 0x20 DUP3 ADD SWAP1 POP PUSH2 0x45BB PUSH1 0x0 DUP4 ADD DUP5 PUSH2 0x4597 JUMP JUMPDEST SWAP3 SWAP2 POP POP JUMP JUMPDEST PUSH1 0x0 DUP2 MLOAD SWAP1 POP SWAP2 SWAP1 POP JUMP JUMPDEST PUSH1 0x0 DUP3 DUP3 MSTORE PUSH1 0x20 DUP3 ADD SWAP1 POP SWAP3 SWAP2 POP POP JUMP JUMPDEST PUSH1 0x0 JUMPDEST DUP4 DUP2 LT ISZERO PUSH2 0x45FB JUMPI DUP1 DUP3 ADD MLOAD DUP2 DUP5 ADD MSTORE PUSH1 0x20 DUP2 ADD SWAP1 POP PUSH2 0x45E0 JUMP JUMPDEST PUSH1 0x0 DUP5 DUP5 ADD MSTORE POP POP POP POP JUMP JUMPDEST PUSH1 0x0 PUSH1 0x1F NOT PUSH1 0x1F DUP4 ADD AND SWAP1 POP SWAP2 SWAP1 POP JUMP JUMPDEST PUSH1 0x0 PUSH2 0x4623 DUP3 PUSH2 0x45C1 JUMP JUMPDEST PUSH2 0x462D DUP2 DUP6 PUSH2 0x45CC JUMP JUMPDEST SWAP4 POP PUSH2 0x463D DUP2 DUP6 PUSH1 0x20 DUP7 ADD PUSH2 0x45DD JUMP JUMPDEST PUSH2 0x4646 DUP2 PUSH2 0x4607 JUMP JUMPDEST DUP5 ADD SWAP2 POP POP SWAP3 SWAP2 POP POP JUMP JUMPDEST PUSH1 0x0 PUSH1 0x20 DUP3 ADD SWAP1 POP DUP2 DUP2 SUB PUSH1 0x0 DUP4 ADD MSTORE PUSH2 0x466B DUP2 DUP5 PUSH2 0x4618 JUMP JUMPDEST SWAP1 POP SWAP3 SWAP2 POP POP JUMP JUMPDEST PUSH1 0x0 DUP2 SWAP1 POP SWAP2 SWAP1 POP JUMP JUMPDEST PUSH2 0x4686 DUP2 PUSH2 0x4673 JUMP JUMPDEST DUP2 EQ PUSH2 0x4691 JUMPI PUSH1 0x0 DUP1 REVERT JUMPDEST POP JUMP JUMPDEST PUSH1 0x0 DUP2 CALLDATALOAD SWAP1 POP PUSH2 0x46A3 DUP2 PUSH2 0x467D JUMP JUMPDEST SWAP3 SWAP2 POP POP JUMP JUMPDEST PUSH1 0x0 PUSH1 0x20 DUP3 DUP5 SUB SLT ISZERO PUSH2 0x46BF JUMPI PUSH2 0x46BE PUSH2 0x44FC JUMP JUMPDEST JUMPDEST PUSH1 0x0 PUSH2 0x46CD DUP5 DUP3 DUP6 ADD PUSH2 0x4694 JUMP JUMPDEST SWAP2 POP POP SWAP3 SWAP2 POP POP JUMP JUMPDEST PUSH1 0x0 PUSH20 0xFFFFFFFFFFFFFFFFFFFFFFFFFFFFFFFFFFFFFFFF DUP3 AND SWAP1 POP SWAP2 SWAP1 POP JUMP JUMPDEST PUSH1 0x0 PUSH2 0x4701 DUP3 PUSH2 0x46D6 JUMP JUMPDEST SWAP1 POP SWAP2 SWAP1 POP JUMP JUMPDEST PUSH2 0x4711 DUP2 PUSH2 0x46F6 JUMP JUMPDEST DUP3 MSTORE POP POP JUMP JUMPDEST PUSH1 0x0 PUSH1 0x20 DUP3 ADD SWAP1 POP PUSH2 0x472C PUSH1 0x0 DUP4 ADD DUP5 PUSH2 0x4708 JUMP JUMPDEST SWAP3 SWAP2 POP POP JUMP JUMPDEST PUSH2 0x473B DUP2 PUSH2 0x46F6 JUMP JUMPDEST DUP2 EQ PUSH2 0x4746 JUMPI PUSH1 0x0 DUP1 REVERT JUMPDEST POP JUMP JUMPDEST PUSH1 0x0 DUP2 CALLDATALOAD SWAP1 POP PUSH2 0x4758 DUP2 PUSH2 0x4732 JUMP JUMPDEST SWAP3 SWAP2 POP POP JUMP JUMPDEST PUSH1 0x0 DUP1 PUSH1 0x40 DUP4 DUP6 SUB SLT ISZERO PUSH2 0x4775 JUMPI PUSH2 0x4774 PUSH2 0x44FC JUMP JUMPDEST JUMPDEST PUSH1 0x0 PUSH2 0x4783 DUP6 DUP3 DUP7 ADD PUSH2 0x4749 JUMP JUMPDEST SWAP3 POP POP PUSH1 0x20 PUSH2 0x4794 DUP6 DUP3 DUP7 ADD PUSH2 0x4694 JUMP JUMPDEST SWAP2 POP POP SWAP3 POP SWAP3 SWAP1 POP JUMP JUMPDEST PUSH1 0x0 DUP1 REVERT JUMPDEST PUSH32 0x4E487B7100000000000000000000000000000000000000000000000000000000 PUSH1 0x0 MSTORE PUSH1 0x41 PUSH1 0x4 MSTORE PUSH1 0x24 PUSH1 0x0 REVERT JUMPDEST PUSH2 0x47DB DUP3 PUSH2 0x4607 JUMP JUMPDEST DUP2 ADD DUP2 DUP2 LT PUSH8 0xFFFFFFFFFFFFFFFF DUP3 GT OR ISZERO PUSH2 0x47FA JUMPI PUSH2 0x47F9 PUSH2 0x47A3 JUMP JUMPDEST JUMPDEST DUP1 PUSH1 0x40 MSTORE POP POP POP JUMP JUMPDEST PUSH1 0x0 PUSH2 0x480D PUSH2 0x44F2 JUMP JUMPDEST SWAP1 POP PUSH2 0x4819 DUP3 DUP3 PUSH2 0x47D2 JUMP JUMPDEST SWAP2 SWAP1 POP JUMP JUMPDEST PUSH1 0x0 PUSH8 0xFFFFFFFFFFFFFFFF DUP3 GT ISZERO PUSH2 0x4839 JUMPI PUSH2 0x4838 PUSH2 0x47A3 JUMP JUMPDEST JUMPDEST PUSH1 0x20 DUP3 MUL SWAP1 POP PUSH1 0x20 DUP2 ADD SWAP1 POP SWAP2 SWAP1 POP JUMP JUMPDEST PUSH1 0x0 DUP1 REVERT JUMPDEST PUSH1 0x0 PUSH1 0xFF DUP3 AND SWAP1 POP SWAP2 SWAP1 POP JUMP JUMPDEST PUSH2 0x4865 DUP2 PUSH2 0x484F JUMP JUMPDEST DUP2 EQ PUSH2 0x4870 JUMPI PUSH1 0x0 DUP1 REVERT JUMPDEST POP JUMP JUMPDEST PUSH1 0x0 DUP2 CALLDATALOAD SWAP1 POP PUSH2 0x4882 DUP2 PUSH2 0x485C JUMP JUMPDEST SWAP3 SWAP2 POP POP JUMP JUMPDEST PUSH1 0x0 PUSH2 0x489B PUSH2 0x4896 DUP5 PUSH2 0x481E JUMP JUMPDEST PUSH2 0x4803 JUMP JUMPDEST SWAP1 POP DUP1 DUP4 DUP3 MSTORE PUSH1 0x20 DUP3 ADD SWAP1 POP PUSH1 0x20 DUP5 MUL DUP4 ADD DUP6 DUP2 GT ISZERO PUSH2 0x48BE JUMPI PUSH2 0x48BD PUSH2 0x484A JUMP JUMPDEST JUMPDEST DUP4 JUMPDEST DUP2 DUP2 LT ISZERO PUSH2 0x48E7 JUMPI DUP1 PUSH2 0x48D3 DUP9 DUP3 PUSH2 0x4873 JUMP JUMPDEST DUP5 MSTORE PUSH1 0x20 DUP5 ADD SWAP4 POP POP PUSH1 0x20 DUP2 ADD SWAP1 POP PUSH2 0x48C0 JUMP JUMPDEST POP POP POP SWAP4 SWAP3 POP POP POP JUMP JUMPDEST PUSH1 0x0 DUP3 PUSH1 0x1F DUP4 ADD SLT PUSH2 0x4906 JUMPI PUSH2 0x4905 PUSH2 0x479E JUMP JUMPDEST JUMPDEST DUP2 CALLDATALOAD PUSH2 0x4916 DUP5 DUP3 PUSH1 0x20 DUP7 ADD PUSH2 0x4888 JUMP JUMPDEST SWAP2 POP POP SWAP3 SWAP2 POP POP JUMP JUMPDEST PUSH1 0x0 PUSH1 0x20 DUP3 DUP5 SUB SLT ISZERO PUSH2 0x4935 JUMPI PUSH2 0x4934 PUSH2 0x44FC JUMP JUMPDEST JUMPDEST PUSH1 0x0 DUP3 ADD CALLDATALOAD PUSH8 0xFFFFFFFFFFFFFFFF DUP2 GT ISZERO PUSH2 0x4953 JUMPI PUSH2 0x4952 PUSH2 0x4501 JUMP JUMPDEST JUMPDEST PUSH2 0x495F DUP5 DUP3 DUP6 ADD PUSH2 0x48F1 JUMP JUMPDEST SWAP2 POP POP SWAP3 SWAP2 POP POP JUMP JUMPDEST PUSH2 0x4971 DUP2 PUSH2 0x4673 JUMP JUMPDEST DUP3 MSTORE POP POP JUMP JUMPDEST PUSH1 0x0 PUSH1 0x20 DUP3 ADD SWAP1 POP PUSH2 0x498C PUSH1 0x0 DUP4 ADD DUP5 PUSH2 0x4968 JUMP JUMPDEST SWAP3 SWAP2 POP POP JUMP JUMPDEST PUSH1 0x0 PUSH1 0x20 DUP3 DUP5 SUB SLT ISZERO PUSH2 0x49A8 JUMPI PUSH2 0x49A7 PUSH2 0x44FC JUMP JUMPDEST JUMPDEST PUSH1 0x0 PUSH2 0x49B6 DUP5 DUP3 DUP6 ADD PUSH2 0x4749 JUMP JUMPDEST SWAP2 POP POP SWAP3 SWAP2 POP POP JUMP JUMPDEST PUSH1 0x0 PUSH13 0xFFFFFFFFFFFFFFFFFFFFFFFFFF DUP3 AND SWAP1 POP SWAP2 SWAP1 POP JUMP JUMPDEST PUSH2 0x49E1 DUP2 PUSH2 0x49BF JUMP JUMPDEST DUP3 MSTORE POP POP JUMP JUMPDEST PUSH1 0x0 PUSH4 0xFFFFFFFF DUP3 AND SWAP1 POP SWAP2 SWAP1 POP JUMP JUMPDEST PUSH2 0x4A00 DUP2 PUSH2 0x49E7 JUMP JUMPDEST DUP3 MSTORE POP POP JUMP JUMPDEST PUSH1 0x0 PUSH8 0xFFFFFFFFFFFFFFFF DUP3 AND SWAP1 POP SWAP2 SWAP1 POP JUMP JUMPDEST PUSH2 0x4A23 DUP2 PUSH2 0x4A06 JUMP JUMPDEST DUP3 MSTORE POP POP JUMP JUMPDEST PUSH1 0x0 PUSH1 0xC0 DUP3 ADD SWAP1 POP PUSH2 0x4A3E PUSH1 0x0 DUP4 ADD DUP10 PUSH2 0x49D8 JUMP JUMPDEST PUSH2 0x4A4B PUSH1 0x20 DUP4 ADD DUP9 PUSH2 0x49F7 JUMP JUMPDEST PUSH2 0x4A58 PUSH1 0x40 DUP4 ADD DUP8 PUSH2 0x4A1A JUMP JUMPDEST PUSH2 0x4A65 PUSH1 0x60 DUP4 ADD DUP7 PUSH2 0x4A1A JUMP JUMPDEST PUSH2 0x4A72 PUSH1 0x80 DUP4 ADD DUP6 PUSH2 0x4A1A JUMP JUMPDEST PUSH2 0x4A7F PUSH1 0xA0 DUP4 ADD DUP5 PUSH2 0x4A1A JUMP JUMPDEST SWAP8 SWAP7 POP POP POP POP POP POP POP JUMP JUMPDEST PUSH1 0x0 DUP1 PUSH1 0x0 PUSH1 0x60 DUP5 DUP7 SUB SLT ISZERO PUSH2 0x4AA3 JUMPI PUSH2 0x4AA2 PUSH2 0x44FC JUMP JUMPDEST JUMPDEST PUSH1 0x0 PUSH2 0x4AB1 DUP7 DUP3 DUP8 ADD PUSH2 0x4749 JUMP JUMPDEST SWAP4 POP POP PUSH1 0x20 PUSH2 0x4AC2 DUP7 DUP3 DUP8 ADD PUSH2 0x4749 JUMP JUMPDEST SWAP3 POP POP PUSH1 0x40 PUSH2 0x4AD3 DUP7 DUP3 DUP8 ADD PUSH2 0x4694 JUMP JUMPDEST SWAP2 POP POP SWAP3 POP SWAP3 POP SWAP3 JUMP JUMPDEST PUSH1 0x0 DUP1 REVERT JUMPDEST PUSH1 0x0 DUP1 DUP4 PUSH1 0x1F DUP5 ADD SLT PUSH2 0x4AF8 JUMPI PUSH2 0x4AF7 PUSH2 0x479E JUMP JUMPDEST JUMPDEST DUP3 CALLDATALOAD SWAP1 POP PUSH8 0xFFFFFFFFFFFFFFFF DUP2 GT ISZERO PUSH2 0x4B15 JUMPI PUSH2 0x4B14 PUSH2 0x4ADD JUMP JUMPDEST JUMPDEST PUSH1 0x20 DUP4 ADD SWAP2 POP DUP4 PUSH1 0x20 DUP3 MUL DUP4 ADD GT ISZERO PUSH2 0x4B31 JUMPI PUSH2 0x4B30 PUSH2 0x484A JUMP JUMPDEST JUMPDEST SWAP3 POP SWAP3 SWAP1 POP JUMP JUMPDEST PUSH1 0x0 DUP1 PUSH1 0x0 DUP1 PUSH1 0x0 PUSH1 0x80 DUP7 DUP9 SUB SLT ISZERO PUSH2 0x4B54 JUMPI PUSH2 0x4B53 PUSH2 0x44FC JUMP JUMPDEST JUMPDEST PUSH1 0x0 PUSH2 0x4B62 DUP9 DUP3 DUP10 ADD PUSH2 0x4694 JUMP JUMPDEST SWAP6 POP POP PUSH1 0x20 PUSH2 0x4B73 DUP9 DUP3 DUP10 ADD PUSH2 0x4694 JUMP JUMPDEST SWAP5 POP POP PUSH1 0x40 PUSH2 0x4B84 DUP9 DUP3 DUP10 ADD PUSH2 0x4694 JUMP JUMPDEST SWAP4 POP POP PUSH1 0x60 DUP7 ADD CALLDATALOAD PUSH8 0xFFFFFFFFFFFFFFFF DUP2 GT ISZERO PUSH2 0x4BA5 JUMPI PUSH2 0x4BA4 PUSH2 0x4501 JUMP JUMPDEST JUMPDEST PUSH2 0x4BB1 DUP9 DUP3 DUP10 ADD PUSH2 0x4AE2 JUMP JUMPDEST SWAP3 POP SWAP3 POP POP SWAP3 SWAP6 POP SWAP3 SWAP6 SWAP1 SWAP4 POP JUMP JUMPDEST PUSH1 0x0 DUP1 PUSH1 0x40 DUP4 DUP6 SUB SLT ISZERO PUSH2 0x4BD7 JUMPI PUSH2 0x4BD6 PUSH2 0x44FC JUMP JUMPDEST JUMPDEST PUSH1 0x0 PUSH2 0x4BE5 DUP6 DUP3 DUP7 ADD PUSH2 0x4694 JUMP JUMPDEST SWAP3 POP POP PUSH1 0x20 PUSH2 0x4BF6 DUP6 DUP3 DUP7 ADD PUSH2 0x4694 JUMP JUMPDEST SWAP2 POP POP SWAP3 POP SWAP3 SWAP1 POP JUMP JUMPDEST PUSH1 0x0 PUSH1 0x40 DUP3 ADD SWAP1 POP PUSH2 0x4C15 PUSH1 0x0 DUP4 ADD DUP6 PUSH2 0x4708 JUMP JUMPDEST PUSH2 0x4C22 PUSH1 0x20 DUP4 ADD DUP5 PUSH2 0x4968 JUMP JUMPDEST SWAP4 SWAP3 POP POP POP JUMP JUMPDEST PUSH2 0x4C32 DUP2 PUSH2 0x484F JUMP JUMPDEST DUP3 MSTORE POP POP JUMP JUMPDEST PUSH1 0x0 PUSH1 0x20 DUP3 ADD SWAP1 POP PUSH2 0x4C4D PUSH1 0x0 DUP4 ADD DUP5 PUSH2 0x4C29 JUMP JUMPDEST SWAP3 SWAP2 POP POP JUMP JUMPDEST PUSH1 0x0 PUSH2 0xFFFF DUP3 AND SWAP1 POP SWAP2 SWAP1 POP JUMP JUMPDEST PUSH2 0x4C6A DUP2 PUSH2 0x4C53 JUMP JUMPDEST DUP2 EQ PUSH2 0x4C75 JUMPI PUSH1 0x0 DUP1 REVERT JUMPDEST POP JUMP JUMPDEST PUSH1 0x0 DUP2 CALLDATALOAD SWAP1 POP PUSH2 0x4C87 DUP2 PUSH2 0x4C61 JUMP JUMPDEST SWAP3 SWAP2 POP POP JUMP JUMPDEST PUSH1 0x0 PUSH1 0x20 DUP3 DUP5 SUB SLT ISZERO PUSH2 0x4CA3 JUMPI PUSH2 0x4CA2 PUSH2 0x44FC JUMP JUMPDEST JUMPDEST PUSH1 0x0 PUSH2 0x4CB1 DUP5 DUP3 DUP6 ADD PUSH2 0x4C78 JUMP JUMPDEST SWAP2 POP POP SWAP3 SWAP2 POP POP JUMP JUMPDEST PUSH1 0x0 PUSH1 0x20 DUP3 ADD SWAP1 POP PUSH2 0x4CCF PUSH1 0x0 DUP4 ADD DUP5 PUSH2 0x49F7 JUMP JUMPDEST SWAP3 SWAP2 POP POP JUMP JUMPDEST PUSH1 0x0 DUP2 SWAP1 POP SWAP2 SWAP1 POP JUMP JUMPDEST PUSH1 0x0 PUSH2 0x4CFA PUSH2 0x4CF5 PUSH2 0x4CF0 DUP5 PUSH2 0x46D6 JUMP JUMPDEST PUSH2 0x4CD5 JUMP JUMPDEST PUSH2 0x46D6 JUMP JUMPDEST SWAP1 POP SWAP2 SWAP1 POP JUMP JUMPDEST PUSH1 0x0 PUSH2 0x4D0C DUP3 PUSH2 0x4CDF JUMP JUMPDEST SWAP1 POP SWAP2 SWAP1 POP JUMP JUMPDEST PUSH1 0x0 PUSH2 0x4D1E DUP3 PUSH2 0x4D01 JUMP JUMPDEST SWAP1 POP SWAP2 SWAP1 POP JUMP JUMPDEST PUSH2 0x4D2E DUP2 PUSH2 0x4D13 JUMP JUMPDEST DUP3 MSTORE POP POP JUMP JUMPDEST PUSH1 0x0 PUSH1 0x20 DUP3 ADD SWAP1 POP PUSH2 0x4D49 PUSH1 0x0 DUP4 ADD DUP5 PUSH2 0x4D25 JUMP JUMPDEST SWAP3 SWAP2 POP POP JUMP JUMPDEST PUSH1 0x0 PUSH2 0x4D5A DUP3 PUSH2 0x4D01 JUMP JUMPDEST SWAP1 POP SWAP2 SWAP1 POP JUMP JUMPDEST PUSH2 0x4D6A DUP2 PUSH2 0x4D4F JUMP JUMPDEST DUP3 MSTORE POP POP JUMP JUMPDEST PUSH1 0x0 PUSH1 0x20 DUP3 ADD SWAP1 POP PUSH2 0x4D85 PUSH1 0x0 DUP4 ADD DUP5 PUSH2 0x4D61 JUMP JUMPDEST SWAP3 SWAP2 POP POP JUMP JUMPDEST PUSH1 0x0 DUP1 DUP4 PUSH1 0x1F DUP5 ADD SLT PUSH2 0x4DA1 JUMPI PUSH2 0x4DA0 PUSH2 0x479E JUMP JUMPDEST JUMPDEST DUP3 CALLDATALOAD SWAP1 POP PUSH8 0xFFFFFFFFFFFFFFFF DUP2 GT ISZERO PUSH2 0x4DBE JUMPI PUSH2 0x4DBD PUSH2 0x4ADD JUMP JUMPDEST JUMPDEST PUSH1 0x20 DUP4 ADD SWAP2 POP DUP4 PUSH1 0x1 DUP3 MUL DUP4 ADD GT ISZERO PUSH2 0x4DDA JUMPI PUSH2 0x4DD9 PUSH2 0x484A JUMP JUMPDEST JUMPDEST SWAP3 POP SWAP3 SWAP1 POP JUMP JUMPDEST PUSH1 0x0 DUP1 PUSH1 0x20 DUP4 DUP6 SUB SLT ISZERO PUSH2 0x4DF8 JUMPI PUSH2 0x4DF7 PUSH2 0x44FC JUMP JUMPDEST JUMPDEST PUSH1 0x0 DUP4 ADD CALLDATALOAD PUSH8 0xFFFFFFFFFFFFFFFF DUP2 GT ISZERO PUSH2 0x4E16 JUMPI PUSH2 0x4E15 PUSH2 0x4501 JUMP JUMPDEST JUMPDEST PUSH2 0x4E22 DUP6 DUP3 DUP7 ADD PUSH2 0x4D8B JUMP JUMPDEST SWAP3 POP SWAP3 POP POP SWAP3 POP SWAP3 SWAP1 POP JUMP JUMPDEST PUSH1 0x0 DUP1 REVERT JUMPDEST PUSH1 0x0 PUSH8 0xFFFFFFFFFFFFFFFF DUP3 GT ISZERO PUSH2 0x4E4E JUMPI PUSH2 0x4E4D PUSH2 0x47A3 JUMP JUMPDEST JUMPDEST PUSH2 0x4E57 DUP3 PUSH2 0x4607 JUMP JUMPDEST SWAP1 POP PUSH1 0x20 DUP2 ADD SWAP1 POP SWAP2 SWAP1 POP JUMP JUMPDEST DUP3 DUP2 DUP4 CALLDATACOPY PUSH1 0x0 DUP4 DUP4 ADD MSTORE POP POP POP JUMP JUMPDEST PUSH1 0x0 PUSH2 0x4E86 PUSH2 0x4E81 DUP5 PUSH2 0x4E33 JUMP JUMPDEST PUSH2 0x4803 JUMP JUMPDEST SWAP1 POP DUP3 DUP2 MSTORE PUSH1 0x20 DUP2 ADD DUP5 DUP5 DUP5 ADD GT ISZERO PUSH2 0x4EA2 JUMPI PUSH2 0x4EA1 PUSH2 0x4E2E JUMP JUMPDEST JUMPDEST PUSH2 0x4EAD DUP5 DUP3 DUP6 PUSH2 0x4E64 JUMP JUMPDEST POP SWAP4 SWAP3 POP POP POP JUMP JUMPDEST PUSH1 0x0 DUP3 PUSH1 0x1F DUP4 ADD SLT PUSH2 0x4ECA JUMPI PUSH2 0x4EC9 PUSH2 0x479E JUMP JUMPDEST JUMPDEST DUP2 CALLDATALOAD PUSH2 0x4EDA DUP5 DUP3 PUSH1 0x20 DUP7 ADD PUSH2 0x4E73 JUMP JUMPDEST SWAP2 POP POP SWAP3 SWAP2 POP POP JUMP JUMPDEST PUSH1 0x0 PUSH1 0x20 DUP3 DUP5 SUB SLT ISZERO PUSH2 0x4EF9 JUMPI PUSH2 0x4EF8 PUSH2 0x44FC JUMP JUMPDEST JUMPDEST PUSH1 0x0 DUP3 ADD CALLDATALOAD PUSH8 0xFFFFFFFFFFFFFFFF DUP2 GT ISZERO PUSH2 0x4F17 JUMPI PUSH2 0x4F16 PUSH2 0x4501 JUMP JUMPDEST JUMPDEST PUSH2 0x4F23 DUP5 DUP3 DUP6 ADD PUSH2 0x4EB5 JUMP JUMPDEST SWAP2 POP POP SWAP3 SWAP2 POP POP JUMP JUMPDEST PUSH1 0x0 DUP2 MLOAD SWAP1 POP SWAP2 SWAP1 POP JUMP JUMPDEST PUSH1 0x0 DUP3 DUP3 MSTORE PUSH1 0x20 DUP3 ADD SWAP1 POP SWAP3 SWAP2 POP POP JUMP JUMPDEST PUSH1 0x0 DUP2 SWAP1 POP PUSH1 0x20 DUP3 ADD SWAP1 POP SWAP2 SWAP1 POP JUMP JUMPDEST PUSH2 0x4F61 DUP2 PUSH2 0x484F JUMP JUMPDEST DUP3 MSTORE POP POP JUMP JUMPDEST PUSH1 0x0 PUSH2 0x4F73 DUP4 DUP4 PUSH2 0x4F58 JUMP JUMPDEST PUSH1 0x20 DUP4 ADD SWAP1 POP SWAP3 SWAP2 POP POP JUMP JUMPDEST PUSH1 0x0 PUSH1 0x20 DUP3 ADD SWAP1 POP SWAP2 SWAP1 POP JUMP JUMPDEST PUSH1 0x0 PUSH2 0x4F97 DUP3 PUSH2 0x4F2C JUMP JUMPDEST PUSH2 0x4FA1 DUP2 DUP6 PUSH2 0x4F37 JUMP JUMPDEST SWAP4 POP PUSH2 0x4FAC DUP4 PUSH2 0x4F48 JUMP JUMPDEST DUP1 PUSH1 0x0 JUMPDEST DUP4 DUP2 LT ISZERO PUSH2 0x4FDD JUMPI DUP2 MLOAD PUSH2 0x4FC4 DUP9 DUP3 PUSH2 0x4F67 JUMP JUMPDEST SWAP8 POP PUSH2 0x4FCF DUP4 PUSH2 0x4F7F JUMP JUMPDEST SWAP3 POP POP PUSH1 0x1 DUP2 ADD SWAP1 POP PUSH2 0x4FB0 JUMP JUMPDEST POP DUP6 SWAP4 POP POP POP POP SWAP3 SWAP2 POP POP JUMP JUMPDEST PUSH1 0x0 PUSH1 0x20 DUP3 ADD SWAP1 POP DUP2 DUP2 SUB PUSH1 0x0 DUP4 ADD MSTORE PUSH2 0x5004 DUP2 DUP5 PUSH2 0x4F8C JUMP JUMPDEST SWAP1 POP SWAP3 SWAP2 POP POP JUMP JUMPDEST PUSH1 0x0 DUP1 DUP4 PUSH1 0x1F DUP5 ADD SLT PUSH2 0x5022 JUMPI PUSH2 0x5021 PUSH2 0x479E JUMP JUMPDEST JUMPDEST DUP3 CALLDATALOAD SWAP1 POP PUSH8 0xFFFFFFFFFFFFFFFF DUP2 GT ISZERO PUSH2 0x503F JUMPI PUSH2 0x503E PUSH2 0x4ADD JUMP JUMPDEST JUMPDEST PUSH1 0x20 DUP4 ADD SWAP2 POP DUP4 PUSH1 0x20 DUP3 MUL DUP4 ADD GT ISZERO PUSH2 0x505B JUMPI PUSH2 0x505A PUSH2 0x484A JUMP JUMPDEST JUMPDEST SWAP3 POP SWAP3 SWAP1 POP JUMP JUMPDEST PUSH1 0x0 DUP1 PUSH1 0x0 PUSH1 0x40 DUP5 DUP7 SUB SLT ISZERO PUSH2 0x507B JUMPI PUSH2 0x507A PUSH2 0x44FC JUMP JUMPDEST JUMPDEST PUSH1 0x0 DUP5 ADD CALLDATALOAD PUSH8 0xFFFFFFFFFFFFFFFF DUP2 GT ISZERO PUSH2 0x5099 JUMPI PUSH2 0x5098 PUSH2 0x4501 JUMP JUMPDEST JUMPDEST PUSH2 0x50A5 DUP7 DUP3 DUP8 ADD PUSH2 0x500C JUMP JUMPDEST SWAP4 POP SWAP4 POP POP PUSH1 0x20 PUSH2 0x50B8 DUP7 DUP3 DUP8 ADD PUSH2 0x4694 JUMP JUMPDEST SWAP2 POP POP SWAP3 POP SWAP3 POP SWAP3 JUMP JUMPDEST PUSH2 0x50CB DUP2 PUSH2 0x4C53 JUMP JUMPDEST DUP3 MSTORE POP POP JUMP JUMPDEST PUSH1 0x0 PUSH2 0x50DC DUP3 PUSH2 0x46D6 JUMP JUMPDEST SWAP1 POP SWAP2 SWAP1 POP JUMP JUMPDEST PUSH2 0x50EC DUP2 PUSH2 0x50D1 JUMP JUMPDEST DUP3 MSTORE POP POP JUMP JUMPDEST PUSH1 0x0 PUSH1 0x60 DUP3 ADD SWAP1 POP PUSH2 0x5107 PUSH1 0x0 DUP4 ADD DUP7 PUSH2 0x4A1A JUMP JUMPDEST PUSH2 0x5114 PUSH1 0x20 DUP4 ADD DUP6 PUSH2 0x50C2 JUMP JUMPDEST PUSH2 0x5121 PUSH1 0x40 DUP4 ADD DUP5 PUSH2 0x50E3 JUMP JUMPDEST SWAP5 SWAP4 POP POP POP POP JUMP JUMPDEST PUSH2 0x5132 DUP2 PUSH2 0x458B JUMP JUMPDEST DUP2 EQ PUSH2 0x513D JUMPI PUSH1 0x0 DUP1 REVERT JUMPDEST POP JUMP JUMPDEST PUSH1 0x0 DUP2 CALLDATALOAD SWAP1 POP PUSH2 0x514F DUP2 PUSH2 0x5129 JUMP JUMPDEST SWAP3 SWAP2 POP POP JUMP JUMPDEST PUSH1 0x0 DUP1 PUSH1 0x40 DUP4 DUP6 SUB SLT ISZERO PUSH2 0x516C JUMPI PUSH2 0x516B PUSH2 0x44FC JUMP JUMPDEST JUMPDEST PUSH1 0x0 PUSH2 0x517A DUP6 DUP3 DUP7 ADD PUSH2 0x4749 JUMP JUMPDEST SWAP3 POP POP PUSH1 0x20 PUSH2 0x518B DUP6 DUP3 DUP7 ADD PUSH2 0x5140 JUMP JUMPDEST SWAP2 POP POP SWAP3 POP SWAP3 SWAP1 POP JUMP JUMPDEST PUSH1 0x0 PUSH1 0x20 DUP3 DUP5 SUB SLT ISZERO PUSH2 0x51AB JUMPI PUSH2 0x51AA PUSH2 0x44FC JUMP JUMPDEST JUMPDEST PUSH1 0x0 PUSH2 0x51B9 DUP5 DUP3 DUP6 ADD PUSH2 0x5140 JUMP JUMPDEST SWAP2 POP POP SWAP3 SWAP2 POP POP JUMP JUMPDEST PUSH1 0x0 PUSH8 0xFFFFFFFFFFFFFFFF DUP3 GT ISZERO PUSH2 0x51DD JUMPI PUSH2 0x51DC PUSH2 0x47A3 JUMP JUMPDEST JUMPDEST PUSH2 0x51E6 DUP3 PUSH2 0x4607 JUMP JUMPDEST SWAP1 POP PUSH1 0x20 DUP2 ADD SWAP1 POP SWAP2 SWAP1 POP JUMP JUMPDEST PUSH1 0x0 PUSH2 0x5206 PUSH2 0x5201 DUP5 PUSH2 0x51C2 JUMP JUMPDEST PUSH2 0x4803 JUMP JUMPDEST SWAP1 POP DUP3 DUP2 MSTORE PUSH1 0x20 DUP2 ADD DUP5 DUP5 DUP5 ADD GT ISZERO PUSH2 0x5222 JUMPI PUSH2 0x5221 PUSH2 0x4E2E JUMP JUMPDEST JUMPDEST PUSH2 0x522D DUP5 DUP3 DUP6 PUSH2 0x4E64 JUMP JUMPDEST POP SWAP4 SWAP3 POP POP POP JUMP JUMPDEST PUSH1 0x0 DUP3 PUSH1 0x1F DUP4 ADD SLT PUSH2 0x524A JUMPI PUSH2 0x5249 PUSH2 0x479E JUMP JUMPDEST JUMPDEST DUP2 CALLDATALOAD PUSH2 0x525A DUP5 DUP3 PUSH1 0x20 DUP7 ADD PUSH2 0x51F3 JUMP JUMPDEST SWAP2 POP POP SWAP3 SWAP2 POP POP JUMP JUMPDEST PUSH1 0x0 DUP1 PUSH1 0x0 DUP1 PUSH1 0x80 DUP6 DUP8 SUB SLT ISZERO PUSH2 0x527D JUMPI PUSH2 0x527C PUSH2 0x44FC JUMP JUMPDEST JUMPDEST PUSH1 0x0 PUSH2 0x528B DUP8 DUP3 DUP9 ADD PUSH2 0x4749 JUMP JUMPDEST SWAP5 POP POP PUSH1 0x20 PUSH2 0x529C DUP8 DUP3 DUP9 ADD PUSH2 0x4749 JUMP JUMPDEST SWAP4 POP POP PUSH1 0x40 PUSH2 0x52AD DUP8 DUP3 DUP9 ADD PUSH2 0x4694 JUMP JUMPDEST SWAP3 POP POP PUSH1 0x60 DUP6 ADD CALLDATALOAD PUSH8 0xFFFFFFFFFFFFFFFF DUP2 GT ISZERO PUSH2 0x52CE JUMPI PUSH2 0x52CD PUSH2 0x4501 JUMP JUMPDEST JUMPDEST PUSH2 0x52DA DUP8 DUP3 DUP9 ADD PUSH2 0x5235 JUMP JUMPDEST SWAP2 POP POP SWAP3 SWAP6 SWAP2 SWAP5 POP SWAP3 POP JUMP JUMPDEST PUSH1 0x0 PUSH1 0x20 DUP3 ADD SWAP1 POP PUSH2 0x52FB PUSH1 0x0 DUP4 ADD DUP5 PUSH2 0x50C2 JUMP JUMPDEST SWAP3 SWAP2 POP POP JUMP JUMPDEST PUSH1 0x0 PUSH8 0xFFFFFFFFFFFFFFFF DUP3 GT ISZERO PUSH2 0x531C JUMPI PUSH2 0x531B PUSH2 0x47A3 JUMP JUMPDEST JUMPDEST PUSH1 0x20 DUP3 MUL SWAP1 POP PUSH1 0x20 DUP2 ADD SWAP1 POP SWAP2 SWAP1 POP JUMP JUMPDEST PUSH1 0x0 DUP1 REVERT JUMPDEST PUSH1 0x0 DUP1 REVERT JUMPDEST PUSH1 0x0 PUSH8 0xFFFFFFFFFFFFFFFF DUP3 GT ISZERO PUSH2 0x5352 JUMPI PUSH2 0x5351 PUSH2 0x47A3 JUMP JUMPDEST JUMPDEST PUSH1 0x20 DUP3 MUL SWAP1 POP PUSH1 0x20 DUP2 ADD SWAP1 POP SWAP2 SWAP1 POP JUMP JUMPDEST PUSH1 0x0 PUSH2 0x5376 PUSH2 0x5371 DUP5 PUSH2 0x5337 JUMP JUMPDEST PUSH2 0x4803 JUMP JUMPDEST SWAP1 POP DUP1 DUP4 DUP3 MSTORE PUSH1 0x20 DUP3 ADD SWAP1 POP PUSH1 0x20 DUP5 MUL DUP4 ADD DUP6 DUP2 GT ISZERO PUSH2 0x5399 JUMPI PUSH2 0x5398 PUSH2 0x484A JUMP JUMPDEST JUMPDEST DUP4 JUMPDEST DUP2 DUP2 LT ISZERO PUSH2 0x53C2 JUMPI DUP1 PUSH2 0x53AE DUP9 DUP3 PUSH2 0x4694 JUMP JUMPDEST DUP5 MSTORE PUSH1 0x20 DUP5 ADD SWAP4 POP POP PUSH1 0x20 DUP2 ADD SWAP1 POP PUSH2 0x539B JUMP JUMPDEST POP POP POP SWAP4 SWAP3 POP POP POP JUMP JUMPDEST PUSH1 0x0 DUP3 PUSH1 0x1F DUP4 ADD SLT PUSH2 0x53E1 JUMPI PUSH2 0x53E0 PUSH2 0x479E JUMP JUMPDEST JUMPDEST DUP2 CALLDATALOAD PUSH2 0x53F1 DUP5 DUP3 PUSH1 0x20 DUP7 ADD PUSH2 0x5363 JUMP JUMPDEST SWAP2 POP POP SWAP3 SWAP2 POP POP JUMP JUMPDEST PUSH1 0x0 PUSH1 0x40 DUP3 DUP5 SUB SLT ISZERO PUSH2 0x5410 JUMPI PUSH2 0x540F PUSH2 0x532D JUMP JUMPDEST JUMPDEST PUSH2 0x541A PUSH1 0x40 PUSH2 0x4803 JUMP JUMPDEST SWAP1 POP PUSH1 0x0 PUSH2 0x542A DUP5 DUP3 DUP6 ADD PUSH2 0x4749 JUMP JUMPDEST PUSH1 0x0 DUP4 ADD MSTORE POP PUSH1 0x20 DUP3 ADD CALLDATALOAD PUSH8 0xFFFFFFFFFFFFFFFF DUP2 GT ISZERO PUSH2 0x544E JUMPI PUSH2 0x544D PUSH2 0x5332 JUMP JUMPDEST JUMPDEST PUSH2 0x545A DUP5 DUP3 DUP6 ADD PUSH2 0x53CC JUMP JUMPDEST PUSH1 0x20 DUP4 ADD MSTORE POP SWAP3 SWAP2 POP POP JUMP JUMPDEST PUSH1 0x0 PUSH2 0x5479 PUSH2 0x5474 DUP5 PUSH2 0x5301 JUMP JUMPDEST PUSH2 0x4803 JUMP JUMPDEST SWAP1 POP DUP1 DUP4 DUP3 MSTORE PUSH1 0x20 DUP3 ADD SWAP1 POP PUSH1 0x20 DUP5 MUL DUP4 ADD DUP6 DUP2 GT ISZERO PUSH2 0x549C JUMPI PUSH2 0x549B PUSH2 0x484A JUMP JUMPDEST JUMPDEST DUP4 JUMPDEST DUP2 DUP2 LT ISZERO PUSH2 0x54E3 JUMPI DUP1 CALLDATALOAD PUSH8 0xFFFFFFFFFFFFFFFF DUP2 GT ISZERO PUSH2 0x54C1 JUMPI PUSH2 0x54C0 PUSH2 0x479E JUMP JUMPDEST JUMPDEST DUP1 DUP7 ADD PUSH2 0x54CE DUP10 DUP3 PUSH2 0x53FA JUMP JUMPDEST DUP6 MSTORE PUSH1 0x20 DUP6 ADD SWAP5 POP POP POP PUSH1 0x20 DUP2 ADD SWAP1 POP PUSH2 0x549E JUMP JUMPDEST POP POP POP SWAP4 SWAP3 POP POP POP JUMP JUMPDEST PUSH1 0x0 DUP3 PUSH1 0x1F DUP4 ADD SLT PUSH2 0x5502 JUMPI PUSH2 0x5501 PUSH2 0x479E JUMP JUMPDEST JUMPDEST DUP2 CALLDATALOAD PUSH2 0x5512 DUP5 DUP3 PUSH1 0x20 DUP7 ADD PUSH2 0x5466 JUMP JUMPDEST SWAP2 POP POP SWAP3 SWAP2 POP POP JUMP JUMPDEST PUSH1 0x0 PUSH1 0x20 DUP3 DUP5 SUB SLT ISZERO PUSH2 0x5531 JUMPI PUSH2 0x5530 PUSH2 0x44FC JUMP JUMPDEST JUMPDEST PUSH1 0x0 DUP3 ADD CALLDATALOAD PUSH8 0xFFFFFFFFFFFFFFFF DUP2 GT ISZERO PUSH2 0x554F JUMPI PUSH2 0x554E PUSH2 0x4501 JUMP JUMPDEST JUMPDEST PUSH2 0x555B DUP5 DUP3 DUP6 ADD PUSH2 0x54ED JUMP JUMPDEST SWAP2 POP POP SWAP3 SWAP2 POP POP JUMP JUMPDEST PUSH1 0x0 PUSH1 0x20 DUP3 ADD SWAP1 POP PUSH2 0x5579 PUSH1 0x0 DUP4 ADD DUP5 PUSH2 0x4A1A JUMP JUMPDEST SWAP3 SWAP2 POP POP JUMP JUMPDEST PUSH2 0x5588 DUP2 PUSH2 0x49BF JUMP JUMPDEST DUP2 EQ PUSH2 0x5593 JUMPI PUSH1 0x0 DUP1 REVERT JUMPDEST POP JUMP JUMPDEST PUSH1 0x0 DUP2 CALLDATALOAD SWAP1 POP PUSH2 0x55A5 DUP2 PUSH2 0x557F JUMP JUMPDEST SWAP3 SWAP2 POP POP JUMP JUMPDEST PUSH2 0x55B4 DUP2 PUSH2 0x49E7 JUMP JUMPDEST DUP2 EQ PUSH2 0x55BF JUMPI PUSH1 0x0 DUP1 REVERT JUMPDEST POP JUMP JUMPDEST PUSH1 0x0 DUP2 CALLDATALOAD SWAP1 POP PUSH2 0x55D1 DUP2 PUSH2 0x55AB JUMP JUMPDEST SWAP3 SWAP2 POP POP JUMP JUMPDEST PUSH2 0x55E0 DUP2 PUSH2 0x4A06 JUMP JUMPDEST DUP2 EQ PUSH2 0x55EB JUMPI PUSH1 0x0 DUP1 REVERT JUMPDEST POP JUMP JUMPDEST PUSH1 0x0 DUP2 CALLDATALOAD SWAP1 POP PUSH2 0x55FD DUP2 PUSH2 0x55D7 JUMP JUMPDEST SWAP3 SWAP2 POP POP JUMP JUMPDEST PUSH1 0x0 PUSH1 0xC0 DUP3 DUP5 SUB SLT ISZERO PUSH2 0x5619 JUMPI PUSH2 0x5618 PUSH2 0x532D JUMP JUMPDEST JUMPDEST PUSH2 0x5623 PUSH1 0xC0 PUSH2 0x4803 JUMP JUMPDEST SWAP1 POP PUSH1 0x0 PUSH2 0x5633 DUP5 DUP3 DUP6 ADD PUSH2 0x5596 JUMP JUMPDEST PUSH1 0x0 DUP4 ADD MSTORE POP PUSH1 0x20 PUSH2 0x5647 DUP5 DUP3 DUP6 ADD PUSH2 0x55C2 JUMP JUMPDEST PUSH1 0x20 DUP4 ADD MSTORE POP PUSH1 0x40 PUSH2 0x565B DUP5 DUP3 DUP6 ADD PUSH2 0x55EE JUMP JUMPDEST PUSH1 0x40 DUP4 ADD MSTORE POP PUSH1 0x60 PUSH2 0x566F DUP5 DUP3 DUP6 ADD PUSH2 0x55EE JUMP JUMPDEST PUSH1 0x60 DUP4 ADD MSTORE POP PUSH1 0x80 PUSH2 0x5683 DUP5 DUP3 DUP6 ADD PUSH2 0x55EE JUMP JUMPDEST PUSH1 0x80 DUP4 ADD MSTORE POP PUSH1 0xA0 PUSH2 0x5697 DUP5 DUP3 DUP6 ADD PUSH2 0x55EE JUMP JUMPDEST PUSH1 0xA0 DUP4 ADD MSTORE POP SWAP3 SWAP2 POP POP JUMP JUMPDEST PUSH1 0x0 PUSH2 0x56AE DUP3 PUSH2 0x46F6 JUMP JUMPDEST SWAP1 POP SWAP2 SWAP1 POP JUMP JUMPDEST PUSH2 0x56BE DUP2 PUSH2 0x56A3 JUMP JUMPDEST DUP2 EQ PUSH2 0x56C9 JUMPI PUSH1 0x0 DUP1 REVERT JUMPDEST POP JUMP JUMPDEST PUSH1 0x0 DUP2 CALLDATALOAD SWAP1 POP PUSH2 0x56DB DUP2 PUSH2 0x56B5 JUMP JUMPDEST SWAP3 SWAP2 POP POP JUMP JUMPDEST PUSH1 0x0 DUP1 PUSH1 0x0 DUP1 PUSH1 0x0 DUP1 PUSH1 0x0 DUP1 PUSH1 0x0 DUP1 PUSH2 0x1E0 DUP12 DUP14 SUB SLT ISZERO PUSH2 0x5705 JUMPI PUSH2 0x5704 PUSH2 0x44FC JUMP JUMPDEST JUMPDEST PUSH1 0x0 DUP12 ADD CALLDATALOAD PUSH8 0xFFFFFFFFFFFFFFFF DUP2 GT ISZERO PUSH2 0x5723 JUMPI PUSH2 0x5722 PUSH2 0x4501 JUMP JUMPDEST JUMPDEST PUSH2 0x572F DUP14 DUP3 DUP15 ADD PUSH2 0x4EB5 JUMP JUMPDEST SWAP11 POP POP PUSH1 0x20 DUP12 ADD CALLDATALOAD PUSH8 0xFFFFFFFFFFFFFFFF DUP2 GT ISZERO PUSH2 0x5750 JUMPI PUSH2 0x574F PUSH2 0x4501 JUMP JUMPDEST JUMPDEST PUSH2 0x575C DUP14 DUP3 DUP15 ADD PUSH2 0x4EB5 JUMP JUMPDEST SWAP10 POP POP PUSH1 0x40 DUP12 ADD CALLDATALOAD PUSH8 0xFFFFFFFFFFFFFFFF DUP2 GT ISZERO PUSH2 0x577D JUMPI PUSH2 0x577C PUSH2 0x4501 JUMP JUMPDEST JUMPDEST PUSH2 0x5789 DUP14 DUP3 DUP15 ADD PUSH2 0x4EB5 JUMP JUMPDEST SWAP9 POP POP PUSH1 0x60 DUP12 ADD CALLDATALOAD PUSH8 0xFFFFFFFFFFFFFFFF DUP2 GT ISZERO PUSH2 0x57AA JUMPI PUSH2 0x57A9 PUSH2 0x4501 JUMP JUMPDEST JUMPDEST PUSH2 0x57B6 DUP14 DUP3 DUP15 ADD PUSH2 0x4EB5 JUMP JUMPDEST SWAP8 POP POP PUSH1 0x80 PUSH2 0x57C7 DUP14 DUP3 DUP15 ADD PUSH2 0x4749 JUMP JUMPDEST SWAP7 POP POP PUSH1 0xA0 PUSH2 0x57D8 DUP14 DUP3 DUP15 ADD PUSH2 0x4C78 JUMP JUMPDEST SWAP6 POP POP PUSH1 0xC0 PUSH2 0x57E9 DUP14 DUP3 DUP15 ADD PUSH2 0x5603 JUMP JUMPDEST SWAP5 POP POP PUSH2 0x180 PUSH2 0x57FB DUP14 DUP3 DUP15 ADD PUSH2 0x55C2 JUMP JUMPDEST SWAP4 POP POP PUSH2 0x1A0 PUSH2 0x580D DUP14 DUP3 DUP15 ADD PUSH2 0x4873 JUMP JUMPDEST SWAP3 POP POP PUSH2 0x1C0 PUSH2 0x581F DUP14 DUP3 DUP15 ADD PUSH2 0x56CC JUMP JUMPDEST SWAP2 POP POP SWAP3 SWAP6 SWAP9 SWAP12 SWAP2 SWAP5 SWAP8 SWAP11 POP SWAP3 SWAP6 SWAP9 POP JUMP JUMPDEST PUSH1 0x0 DUP1 PUSH1 0x40 DUP4 DUP6 SUB SLT ISZERO PUSH2 0x5848 JUMPI PUSH2 0x5847 PUSH2 0x44FC JUMP JUMPDEST JUMPDEST PUSH1 0x0 PUSH2 0x5856 DUP6 DUP3 DUP7 ADD PUSH2 0x4749 JUMP JUMPDEST SWAP3 POP POP PUSH1 0x20 PUSH2 0x5867 DUP6 DUP3 DUP7 ADD PUSH2 0x4749 JUMP JUMPDEST SWAP2 POP POP SWAP3 POP SWAP3 SWAP1 POP JUMP JUMPDEST PUSH1 0x0 DUP2 SWAP1 POP SWAP2 SWAP1 POP JUMP JUMPDEST PUSH2 0x5884 DUP2 PUSH2 0x5871 JUMP JUMPDEST DUP2 EQ PUSH2 0x588F JUMPI PUSH1 0x0 DUP1 REVERT JUMPDEST POP JUMP JUMPDEST PUSH1 0x0 DUP2 CALLDATALOAD SWAP1 POP PUSH2 0x58A1 DUP2 PUSH2 0x587B JUMP JUMPDEST SWAP3 SWAP2 POP POP JUMP JUMPDEST PUSH1 0x0 DUP1 PUSH1 0x0 DUP1 PUSH1 0x0 DUP1 PUSH1 0x0 PUSH1 0xE0 DUP9 DUP11 SUB SLT ISZERO PUSH2 0x58C6 JUMPI PUSH2 0x58C5 PUSH2 0x44FC JUMP JUMPDEST JUMPDEST PUSH1 0x0 PUSH2 0x58D4 DUP11 DUP3 DUP12 ADD PUSH2 0x5596 JUMP JUMPDEST SWAP8 POP POP PUSH1 0x20 PUSH2 0x58E5 DUP11 DUP3 DUP12 ADD PUSH2 0x55C2 JUMP JUMPDEST SWAP7 POP POP PUSH1 0x40 PUSH2 0x58F6 DUP11 DUP3 DUP12 ADD PUSH2 0x55EE JUMP JUMPDEST SWAP6 POP POP PUSH1 0x60 PUSH2 0x5907 DUP11 DUP3 DUP12 ADD PUSH2 0x55EE JUMP JUMPDEST SWAP5 POP POP PUSH1 0x80 PUSH2 0x5918 DUP11 DUP3 DUP12 ADD PUSH2 0x55EE JUMP JUMPDEST SWAP4 POP POP PUSH1 0xA0 PUSH2 0x5929 DUP11 DUP3 DUP12 ADD PUSH2 0x55EE JUMP JUMPDEST SWAP3 POP POP PUSH1 0xC0 PUSH2 0x593A DUP11 DUP3 DUP12 ADD PUSH2 0x5892 JUMP JUMPDEST SWAP2 POP POP SWAP3 SWAP6 SWAP9 SWAP2 SWAP5 SWAP8 POP SWAP3 SWAP6 POP JUMP JUMPDEST PUSH32 0x4E487B7100000000000000000000000000000000000000000000000000000000 PUSH1 0x0 MSTORE PUSH1 0x22 PUSH1 0x4 MSTORE PUSH1 0x24 PUSH1 0x0 REVERT JUMPDEST PUSH1 0x0 PUSH1 0x2 DUP3 DIV SWAP1 POP PUSH1 0x1 DUP3 AND DUP1 PUSH2 0x5990 JUMPI PUSH1 0x7F DUP3 AND SWAP2 POP JUMPDEST PUSH1 0x20 DUP3 LT DUP2 SUB PUSH2 0x59A3 JUMPI PUSH2 0x59A2 PUSH2 0x5949 JUMP JUMPDEST JUMPDEST POP SWAP2 SWAP1 POP JUMP JUMPDEST PUSH32 0x4E487B7100000000000000000000000000000000000000000000000000000000 PUSH1 0x0 MSTORE PUSH1 0x11 PUSH1 0x4 MSTORE PUSH1 0x24 PUSH1 0x0 REVERT JUMPDEST PUSH1 0x0 PUSH2 0x59E3 DUP3 PUSH2 0x4673 JUMP JUMPDEST SWAP2 POP PUSH2 0x59EE DUP4 PUSH2 0x4673 JUMP JUMPDEST SWAP3 POP DUP3 DUP3 MUL PUSH2 0x59FC DUP2 PUSH2 0x4673 JUMP JUMPDEST SWAP2 POP DUP3 DUP3 DIV DUP5 EQ DUP4 ISZERO OR PUSH2 0x5A13 JUMPI PUSH2 0x5A12 PUSH2 0x59A9 JUMP JUMPDEST JUMPDEST POP SWAP3 SWAP2 POP POP JUMP JUMPDEST PUSH1 0x0 PUSH2 0x5A25 DUP3 PUSH2 0x4673 JUMP JUMPDEST SWAP2 POP PUSH2 0x5A30 DUP4 PUSH2 0x4673 JUMP JUMPDEST SWAP3 POP DUP3 DUP3 ADD SWAP1 POP DUP1 DUP3 GT ISZERO PUSH2 0x5A48 JUMPI PUSH2 0x5A47 PUSH2 0x59A9 JUMP JUMPDEST JUMPDEST SWAP3 SWAP2 POP POP JUMP JUMPDEST PUSH1 0x0 PUSH2 0x5A59 DUP3 PUSH2 0x4673 JUMP JUMPDEST SWAP2 POP PUSH2 0x5A64 DUP4 PUSH2 0x4673 JUMP JUMPDEST SWAP3 POP DUP3 DUP3 SUB SWAP1 POP DUP2 DUP2 GT ISZERO PUSH2 0x5A7C JUMPI PUSH2 0x5A7B PUSH2 0x59A9 JUMP JUMPDEST JUMPDEST SWAP3 SWAP2 POP POP JUMP JUMPDEST PUSH1 0x0 PUSH1 0x60 DUP3 ADD SWAP1 POP PUSH2 0x5A97 PUSH1 0x0 DUP4 ADD DUP7 PUSH2 0x4708 JUMP JUMPDEST PUSH2 0x5AA4 PUSH1 0x20 DUP4 ADD DUP6 PUSH2 0x4968 JUMP JUMPDEST PUSH2 0x5AB1 PUSH1 0x40 DUP4 ADD DUP5 PUSH2 0x4968 JUMP JUMPDEST SWAP5 SWAP4 POP POP POP POP JUMP JUMPDEST PUSH32 0x5265656E7472616E637947756172643A207265656E7472616E742063616C6C00 PUSH1 0x0 DUP3 ADD MSTORE POP JUMP JUMPDEST PUSH1 0x0 PUSH2 0x5AEF PUSH1 0x1F DUP4 PUSH2 0x45CC JUMP JUMPDEST SWAP2 POP PUSH2 0x5AFA DUP3 PUSH2 0x5AB9 JUMP JUMPDEST PUSH1 0x20 DUP3 ADD SWAP1 POP SWAP2 SWAP1 POP JUMP JUMPDEST PUSH1 0x0 PUSH1 0x20 DUP3 ADD SWAP1 POP DUP2 DUP2 SUB PUSH1 0x0 DUP4 ADD MSTORE PUSH2 0x5B1E DUP2 PUSH2 0x5AE2 JUMP JUMPDEST SWAP1 POP SWAP2 SWAP1 POP JUMP JUMPDEST PUSH32 0x4E487B7100000000000000000000000000000000000000000000000000000000 PUSH1 0x0 MSTORE PUSH1 0x12 PUSH1 0x4 MSTORE PUSH1 0x24 PUSH1 0x0 REVERT JUMPDEST PUSH1 0x0 PUSH2 0x5B5F DUP3 PUSH2 0x4673 JUMP JUMPDEST SWAP2 POP PUSH2 0x5B6A DUP4 PUSH2 0x4673 JUMP JUMPDEST SWAP3 POP DUP3 PUSH2 0x5B7A JUMPI PUSH2 0x5B79 PUSH2 0x5B25 JUMP JUMPDEST JUMPDEST DUP3 DUP3 DIV SWAP1 POP SWAP3 SWAP2 POP POP JUMP JUMPDEST PUSH1 0x0 DUP3 SWAP1 POP SWAP3 SWAP2 POP POP JUMP JUMPDEST PUSH1 0x0 DUP2 SWAP1 POP DUP2 PUSH1 0x0 MSTORE PUSH1 0x20 PUSH1 0x0 KECCAK256 SWAP1 POP SWAP2 SWAP1 POP JUMP JUMPDEST PUSH1 0x0 PUSH1 0x20 PUSH1 0x1F DUP4 ADD DIV SWAP1 POP SWAP2 SWAP1 POP JUMP JUMPDEST PUSH1 0x0 DUP3 DUP3 SHL SWAP1 POP SWAP3 SWAP2 POP POP JUMP JUMPDEST PUSH1 0x0 PUSH1 0x8 DUP4 MUL PUSH2 0x5BF2 PUSH32 0xFFFFFFFFFFFFFFFFFFFFFFFFFFFFFFFFFFFFFFFFFFFFFFFFFFFFFFFFFFFFFFFF DUP3 PUSH2 0x5BB5 JUMP JUMPDEST PUSH2 0x5BFC DUP7 DUP4 PUSH2 0x5BB5 JUMP JUMPDEST SWAP6 POP DUP1 NOT DUP5 AND SWAP4 POP DUP1 DUP7 AND DUP5 OR SWAP3 POP POP POP SWAP4 SWAP3 POP POP POP JUMP JUMPDEST PUSH1 0x0 PUSH2 0x5C2F PUSH2 0x5C2A PUSH2 0x5C25 DUP5 PUSH2 0x4673 JUMP JUMPDEST PUSH2 0x4CD5 JUMP JUMPDEST PUSH2 0x4673 JUMP JUMPDEST SWAP1 POP SWAP2 SWAP1 POP JUMP JUMPDEST PUSH1 0x0 DUP2 SWAP1 POP SWAP2 SWAP1 POP JUMP JUMPDEST PUSH2 0x5C49 DUP4 PUSH2 0x5C14 JUMP JUMPDEST PUSH2 0x5C5D PUSH2 0x5C55 DUP3 PUSH2 0x5C36 JUMP JUMPDEST DUP5 DUP5 SLOAD PUSH2 0x5BC2 JUMP JUMPDEST DUP3 SSTORE POP POP POP POP JUMP JUMPDEST PUSH1 0x0 SWAP1 JUMP JUMPDEST PUSH2 0x5C72 PUSH2 0x5C65 JUMP JUMPDEST PUSH2 0x5C7D DUP2 DUP5 DUP5 PUSH2 0x5C40 JUMP JUMPDEST POP POP POP JUMP JUMPDEST JUMPDEST DUP2 DUP2 LT ISZERO PUSH2 0x5CA1 JUMPI PUSH2 0x5C96 PUSH1 0x0 DUP3 PUSH2 0x5C6A JUMP JUMPDEST PUSH1 0x1 DUP2 ADD SWAP1 POP PUSH2 0x5C83 JUMP JUMPDEST POP POP JUMP JUMPDEST PUSH1 0x1F DUP3 GT ISZERO PUSH2 0x5CE6 JUMPI PUSH2 0x5CB7 DUP2 PUSH2 0x5B90 JUMP JUMPDEST PUSH2 0x5CC0 DUP5 PUSH2 0x5BA5 JUMP JUMPDEST DUP2 ADD PUSH1 0x20 DUP6 LT ISZERO PUSH2 0x5CCF JUMPI DUP2 SWAP1 POP JUMPDEST PUSH2 0x5CE3 PUSH2 0x5CDB DUP6 PUSH2 0x5BA5 JUMP JUMPDEST DUP4 ADD DUP3 PUSH2 0x5C82 JUMP JUMPDEST POP POP JUMPDEST POP POP POP JUMP JUMPDEST PUSH1 0x0 DUP3 DUP3 SHR SWAP1 POP SWAP3 SWAP2 POP POP JUMP JUMPDEST PUSH1 0x0 PUSH2 0x5D09 PUSH1 0x0 NOT DUP5 PUSH1 0x8 MUL PUSH2 0x5CEB JUMP JUMPDEST NOT DUP1 DUP4 AND SWAP2 POP POP SWAP3 SWAP2 POP POP JUMP JUMPDEST PUSH1 0x0 PUSH2 0x5D22 DUP4 DUP4 PUSH2 0x5CF8 JUMP JUMPDEST SWAP2 POP DUP3 PUSH1 0x2 MUL DUP3 OR SWAP1 POP SWAP3 SWAP2 POP POP JUMP JUMPDEST PUSH2 0x5D3C DUP4 DUP4 PUSH2 0x5B85 JUMP JUMPDEST PUSH8 0xFFFFFFFFFFFFFFFF DUP2 GT ISZERO PUSH2 0x5D55 JUMPI PUSH2 0x5D54 PUSH2 0x47A3 JUMP JUMPDEST JUMPDEST PUSH2 0x5D5F DUP3 SLOAD PUSH2 0x5978 JUMP JUMPDEST PUSH2 0x5D6A DUP3 DUP3 DUP6 PUSH2 0x5CA5 JUMP JUMPDEST PUSH1 0x0 PUSH1 0x1F DUP4 GT PUSH1 0x1 DUP2 EQ PUSH2 0x5D99 JUMPI PUSH1 0x0 DUP5 ISZERO PUSH2 0x5D87 JUMPI DUP3 DUP8 ADD CALLDATALOAD SWAP1 POP JUMPDEST PUSH2 0x5D91 DUP6 DUP3 PUSH2 0x5D16 JUMP JUMPDEST DUP7 SSTORE POP PUSH2 0x5DF9 JUMP JUMPDEST PUSH1 0x1F NOT DUP5 AND PUSH2 0x5DA7 DUP7 PUSH2 0x5B90 JUMP JUMPDEST PUSH1 0x0 JUMPDEST DUP3 DUP2 LT ISZERO PUSH2 0x5DCF JUMPI DUP5 DUP10 ADD CALLDATALOAD DUP3 SSTORE PUSH1 0x1 DUP3 ADD SWAP2 POP PUSH1 0x20 DUP6 ADD SWAP5 POP PUSH1 0x20 DUP2 ADD SWAP1 POP PUSH2 0x5DAA JUMP JUMPDEST DUP7 DUP4 LT ISZERO PUSH2 0x5DEC JUMPI DUP5 DUP10 ADD CALLDATALOAD PUSH2 0x5DE8 PUSH1 0x1F DUP10 AND DUP3 PUSH2 0x5CF8 JUMP JUMPDEST DUP4 SSTORE POP JUMPDEST PUSH1 0x1 PUSH1 0x2 DUP9 MUL ADD DUP9 SSTORE POP POP POP JUMPDEST POP POP POP POP POP POP POP JUMP JUMPDEST PUSH1 0x0 PUSH2 0x5E0E DUP4 DUP6 PUSH2 0x45CC JUMP JUMPDEST SWAP4 POP PUSH2 0x5E1B DUP4 DUP6 DUP5 PUSH2 0x4E64 JUMP JUMPDEST PUSH2 0x5E24 DUP4 PUSH2 0x4607 JUMP JUMPDEST DUP5 ADD SWAP1 POP SWAP4 SWAP3 POP POP POP JUMP JUMPDEST PUSH1 0x0 PUSH1 0x40 DUP3 ADD SWAP1 POP DUP2 DUP2 SUB PUSH1 0x0 DUP4 ADD MSTORE PUSH2 0x5E4A DUP2 DUP6 DUP8 PUSH2 0x5E02 JUMP JUMPDEST SWAP1 POP PUSH2 0x5E59 PUSH1 0x20 DUP4 ADD DUP5 PUSH2 0x4597 JUMP JUMPDEST SWAP5 SWAP4 POP POP POP POP JUMP JUMPDEST PUSH2 0x5E6A DUP3 PUSH2 0x45C1 JUMP JUMPDEST PUSH8 0xFFFFFFFFFFFFFFFF DUP2 GT ISZERO PUSH2 0x5E83 JUMPI PUSH2 0x5E82 PUSH2 0x47A3 JUMP JUMPDEST JUMPDEST PUSH2 0x5E8D DUP3 SLOAD PUSH2 0x5978 JUMP JUMPDEST PUSH2 0x5E98 DUP3 DUP3 DUP6 PUSH2 0x5CA5 JUMP JUMPDEST PUSH1 0x0 PUSH1 0x20 SWAP1 POP PUSH1 0x1F DUP4 GT PUSH1 0x1 DUP2 EQ PUSH2 0x5ECB JUMPI PUSH1 0x0 DUP5 ISZERO PUSH2 0x5EB9 JUMPI DUP3 DUP8 ADD MLOAD SWAP1 POP JUMPDEST PUSH2 0x5EC3 DUP6 DUP3 PUSH2 0x5D16 JUMP JUMPDEST DUP7 SSTORE POP PUSH2 0x5F2B JUMP JUMPDEST PUSH1 0x1F NOT DUP5 AND PUSH2 0x5ED9 DUP7 PUSH2 0x5B90 JUMP JUMPDEST PUSH1 0x0 JUMPDEST DUP3 DUP2 LT ISZERO PUSH2 0x5F01 JUMPI DUP5 DUP10 ADD MLOAD DUP3 SSTORE PUSH1 0x1 DUP3 ADD SWAP2 POP PUSH1 0x20 DUP6 ADD SWAP5 POP PUSH1 0x20 DUP2 ADD SWAP1 POP PUSH2 0x5EDC JUMP JUMPDEST DUP7 DUP4 LT ISZERO PUSH2 0x5F1E JUMPI DUP5 DUP10 ADD MLOAD PUSH2 0x5F1A PUSH1 0x1F DUP10 AND DUP3 PUSH2 0x5CF8 JUMP JUMPDEST DUP4 SSTORE POP JUMPDEST PUSH1 0x1 PUSH1 0x2 DUP9 MUL ADD DUP9 SSTORE POP POP POP JUMPDEST POP POP POP POP POP POP JUMP JUMPDEST PUSH1 0x0 DUP2 SWAP1 POP SWAP3 SWAP2 POP POP JUMP JUMPDEST PUSH1 0x0 PUSH2 0x5F49 DUP3 PUSH2 0x45C1 JUMP JUMPDEST PUSH2 0x5F53 DUP2 DUP6 PUSH2 0x5F33 JUMP JUMPDEST SWAP4 POP PUSH2 0x5F63 DUP2 DUP6 PUSH1 0x20 DUP7 ADD PUSH2 0x45DD JUMP JUMPDEST DUP1 DUP5 ADD SWAP2 POP POP SWAP3 SWAP2 POP POP JUMP JUMPDEST PUSH1 0x0 PUSH2 0x5F7B DUP3 DUP5 PUSH2 0x5F3E JUMP JUMPDEST SWAP2 POP DUP2 SWAP1 POP SWAP3 SWAP2 POP POP JUMP JUMPDEST PUSH1 0x0 PUSH1 0x40 DUP3 ADD SWAP1 POP DUP2 DUP2 SUB PUSH1 0x0 DUP4 ADD MSTORE PUSH2 0x5FA0 DUP2 DUP6 PUSH2 0x4618 JUMP JUMPDEST SWAP1 POP PUSH2 0x5FAF PUSH1 0x20 DUP4 ADD DUP5 PUSH2 0x4597 JUMP JUMPDEST SWAP4 SWAP3 POP POP POP JUMP JUMPDEST PUSH32 0x4E487B7100000000000000000000000000000000000000000000000000000000 PUSH1 0x0 MSTORE PUSH1 0x32 PUSH1 0x4 MSTORE PUSH1 0x24 PUSH1 0x0 REVERT JUMPDEST PUSH1 0x0 DUP3 DUP3 MSTORE PUSH1 0x20 DUP3 ADD SWAP1 POP SWAP3 SWAP2 POP POP JUMP JUMPDEST PUSH1 0x0 DUP2 SWAP1 POP SWAP2 SWAP1 POP JUMP JUMPDEST PUSH2 0x6009 DUP2 PUSH2 0x46F6 JUMP JUMPDEST DUP3 MSTORE POP POP JUMP JUMPDEST PUSH1 0x0 PUSH2 0x601B DUP4 DUP4 PUSH2 0x6000 JUMP JUMPDEST PUSH1 0x20 DUP4 ADD SWAP1 POP SWAP3 SWAP2 POP POP JUMP JUMPDEST PUSH1 0x0 PUSH2 0x6036 PUSH1 0x20 DUP5 ADD DUP5 PUSH2 0x4749 JUMP JUMPDEST SWAP1 POP SWAP3 SWAP2 POP POP JUMP JUMPDEST PUSH1 0x0 PUSH1 0x20 DUP3 ADD SWAP1 POP SWAP2 SWAP1 POP JUMP JUMPDEST PUSH1 0x0 PUSH2 0x6057 DUP4 DUP6 PUSH2 0x5FE5 JUMP JUMPDEST SWAP4 POP PUSH2 0x6062 DUP3 PUSH2 0x5FF6 JUMP JUMPDEST DUP1 PUSH1 0x0 JUMPDEST DUP6 DUP2 LT ISZERO PUSH2 0x609B JUMPI PUSH2 0x6078 DUP3 DUP5 PUSH2 0x6027 JUMP JUMPDEST PUSH2 0x6082 DUP9 DUP3 PUSH2 0x600F JUMP JUMPDEST SWAP8 POP PUSH2 0x608D DUP4 PUSH2 0x603E JUMP JUMPDEST SWAP3 POP POP PUSH1 0x1 DUP2 ADD SWAP1 POP PUSH2 0x6066 JUMP JUMPDEST POP DUP6 SWAP3 POP POP POP SWAP4 SWAP3 POP POP POP JUMP JUMPDEST PUSH1 0x0 PUSH1 0x60 DUP3 ADD SWAP1 POP DUP2 DUP2 SUB PUSH1 0x0 DUP4 ADD MSTORE PUSH2 0x60C3 DUP2 DUP7 DUP9 PUSH2 0x604B JUMP JUMPDEST SWAP1 POP PUSH2 0x60D2 PUSH1 0x20 DUP4 ADD DUP6 PUSH2 0x4968 JUMP JUMPDEST PUSH2 0x60DF PUSH1 0x40 DUP4 ADD DUP5 PUSH2 0x4968 JUMP JUMPDEST SWAP6 SWAP5 POP POP POP POP POP JUMP JUMPDEST PUSH1 0x0 PUSH2 0x60F4 DUP3 DUP6 PUSH2 0x5F3E JUMP JUMPDEST SWAP2 POP PUSH2 0x6100 DUP3 DUP5 PUSH2 0x5F3E JUMP JUMPDEST SWAP2 POP DUP2 SWAP1 POP SWAP4 SWAP3 POP POP POP JUMP JUMPDEST PUSH1 0x0 PUSH1 0x40 DUP3 ADD SWAP1 POP DUP2 DUP2 SUB PUSH1 0x0 DUP4 ADD MSTORE PUSH2 0x6126 DUP2 DUP6 PUSH2 0x4618 JUMP JUMPDEST SWAP1 POP DUP2 DUP2 SUB PUSH1 0x20 DUP4 ADD MSTORE PUSH2 0x613A DUP2 DUP5 PUSH2 0x4618 JUMP JUMPDEST SWAP1 POP SWAP4 SWAP3 POP POP POP JUMP JUMPDEST PUSH1 0x0 DUP2 MLOAD SWAP1 POP PUSH2 0x6152 DUP2 PUSH2 0x4732 JUMP JUMPDEST SWAP3 SWAP2 POP POP JUMP JUMPDEST PUSH1 0x0 PUSH1 0x20 DUP3 DUP5 SUB SLT ISZERO PUSH2 0x616E JUMPI PUSH2 0x616D PUSH2 0x44FC JUMP JUMPDEST JUMPDEST PUSH1 0x0 PUSH2 0x617C DUP5 DUP3 DUP6 ADD PUSH2 0x6143 JUMP JUMPDEST SWAP2 POP POP SWAP3 SWAP2 POP POP JUMP JUMPDEST PUSH1 0x0 PUSH16 0xFFFFFFFFFFFFFFFFFFFFFFFFFFFFFFFF DUP3 AND SWAP1 POP SWAP2 SWAP1 POP JUMP JUMPDEST PUSH2 0x61AA DUP2 PUSH2 0x6185 JUMP JUMPDEST DUP3 MSTORE POP POP JUMP JUMPDEST PUSH1 0x0 PUSH1 0x20 DUP3 ADD SWAP1 POP PUSH2 0x61C5 PUSH1 0x0 DUP4 ADD DUP5 PUSH2 0x61A1 JUMP JUMPDEST SWAP3 SWAP2 POP POP JUMP JUMPDEST PUSH2 0x61D4 DUP2 PUSH2 0x6185 JUMP JUMPDEST DUP2 EQ PUSH2 0x61DF JUMPI PUSH1 0x0 DUP1 REVERT JUMPDEST POP JUMP JUMPDEST PUSH1 0x0 DUP2 MLOAD SWAP1 POP PUSH2 0x61F1 DUP2 PUSH2 0x61CB JUMP JUMPDEST SWAP3 SWAP2 POP POP JUMP JUMPDEST PUSH1 0x0 PUSH1 0x20 DUP3 DUP5 SUB SLT ISZERO PUSH2 0x620D JUMPI PUSH2 0x620C PUSH2 0x44FC JUMP JUMPDEST JUMPDEST PUSH1 0x0 PUSH2 0x621B DUP5 DUP3 DUP6 ADD PUSH2 0x61E2 JUMP JUMPDEST SWAP2 POP POP SWAP3 SWAP2 POP POP JUMP JUMPDEST PUSH1 0x0 DUP2 SWAP1 POP SWAP3 SWAP2 POP POP JUMP JUMPDEST POP JUMP JUMPDEST PUSH1 0x0 PUSH2 0x623F PUSH1 0x0 DUP4 PUSH2 0x6224 JUMP JUMPDEST SWAP2 POP PUSH2 0x624A DUP3 PUSH2 0x622F JUMP JUMPDEST PUSH1 0x0 DUP3 ADD SWAP1 POP SWAP2 SWAP1 POP JUMP JUMPDEST PUSH1 0x0 PUSH2 0x6260 DUP3 PUSH2 0x6232 JUMP JUMPDEST SWAP2 POP DUP2 SWAP1 POP SWAP2 SWAP1 POP JUMP JUMPDEST PUSH1 0x0 PUSH1 0x60 DUP3 ADD SWAP1 POP PUSH2 0x627F PUSH1 0x0 DUP4 ADD DUP7 PUSH2 0x4968 JUMP JUMPDEST PUSH2 0x628C PUSH1 0x20 DUP4 ADD DUP6 PUSH2 0x4708 JUMP JUMPDEST PUSH2 0x6299 PUSH1 0x40 DUP4 ADD DUP5 PUSH2 0x4968 JUMP JUMPDEST SWAP5 SWAP4 POP POP POP POP JUMP JUMPDEST PUSH1 0x0 PUSH2 0x62AC DUP3 PUSH2 0x4673 JUMP JUMPDEST SWAP2 POP PUSH1 0x0 DUP3 SUB PUSH2 0x62BF JUMPI PUSH2 0x62BE PUSH2 0x59A9 JUMP JUMPDEST JUMPDEST PUSH1 0x1 DUP3 SUB SWAP1 POP SWAP2 SWAP1 POP JUMP JUMPDEST PUSH1 0x0 PUSH1 0x40 DUP3 ADD SWAP1 POP PUSH2 0x62DF PUSH1 0x0 DUP4 ADD DUP6 PUSH2 0x4708 JUMP JUMPDEST PUSH2 0x62EC PUSH1 0x20 DUP4 ADD DUP5 PUSH2 0x4708 JUMP JUMPDEST SWAP4 SWAP3 POP POP POP JUMP JUMPDEST PUSH1 0x0 DUP2 MLOAD SWAP1 POP PUSH2 0x6302 DUP2 PUSH2 0x5129 JUMP JUMPDEST SWAP3 SWAP2 POP POP JUMP JUMPDEST PUSH1 0x0 PUSH1 0x20 DUP3 DUP5 SUB SLT ISZERO PUSH2 0x631E JUMPI PUSH2 0x631D PUSH2 0x44FC JUMP JUMPDEST JUMPDEST PUSH1 0x0 PUSH2 0x632C DUP5 DUP3 DUP6 ADD PUSH2 0x62F3 JUMP JUMPDEST SWAP2 POP POP SWAP3 SWAP2 POP POP JUMP JUMPDEST PUSH1 0x0 DUP2 MLOAD SWAP1 POP SWAP2 SWAP1 POP JUMP JUMPDEST PUSH1 0x0 DUP3 DUP3 MSTORE PUSH1 0x20 DUP3 ADD SWAP1 POP SWAP3 SWAP2 POP POP JUMP JUMPDEST PUSH1 0x0 PUSH2 0x635C DUP3 PUSH2 0x6335 JUMP JUMPDEST PUSH2 0x6366 DUP2 DUP6 PUSH2 0x6340 JUMP JUMPDEST SWAP4 POP PUSH2 0x6376 DUP2 DUP6 PUSH1 0x20 DUP7 ADD PUSH2 0x45DD JUMP JUMPDEST PUSH2 0x637F DUP2 PUSH2 0x4607 JUMP JUMPDEST DUP5 ADD SWAP2 POP POP SWAP3 SWAP2 POP POP JUMP JUMPDEST PUSH1 0x0 PUSH1 0x80 DUP3 ADD SWAP1 POP PUSH2 0x639F PUSH1 0x0 DUP4 ADD DUP8 PUSH2 0x4708 JUMP JUMPDEST PUSH2 0x63AC PUSH1 0x20 DUP4 ADD DUP7 PUSH2 0x4708 JUMP JUMPDEST PUSH2 0x63B9 PUSH1 0x40 DUP4 ADD DUP6 PUSH2 0x4968 JUMP JUMPDEST DUP2 DUP2 SUB PUSH1 0x60 DUP4 ADD MSTORE PUSH2 0x63CB DUP2 DUP5 PUSH2 0x6351 JUMP JUMPDEST SWAP1 POP SWAP6 SWAP5 POP POP POP POP POP JUMP JUMPDEST PUSH1 0x0 DUP2 MLOAD SWAP1 POP PUSH2 0x63E5 DUP2 PUSH2 0x4532 JUMP JUMPDEST SWAP3 SWAP2 POP POP JUMP JUMPDEST PUSH1 0x0 PUSH1 0x20 DUP3 DUP5 SUB SLT ISZERO PUSH2 0x6401 JUMPI PUSH2 0x6400 PUSH2 0x44FC JUMP JUMPDEST JUMPDEST PUSH1 0x0 PUSH2 0x640F DUP5 DUP3 DUP6 ADD PUSH2 0x63D6 JUMP JUMPDEST SWAP2 POP POP SWAP3 SWAP2 POP POP JUMP INVALID LOG2 PUSH5 0x6970667358 0x22 SLT KECCAK256 PUSH31 0x5BC4599C3A3DB330DE49FC9BFAF93045C04DB84BF8C6351F10D53EB50EBC5A PUSH5 0x736F6C6343 STOP ADDMOD SGT STOP CALLER "
		},
		"gasEstimates": {
			"creation": {
				"codeDepositCost": "5135600",
				"executionCost": "infinite",
				"totalCost": "infinite"
			},
			"external": {
				"ADDRESS_BATCH_MINT_LIMIT()": "462",
				"ADMIN_ROLE()": "419",
				"METADATA_IS_FROZEN_FLAG()": "469",
				"MINTER_ROLE()": "418",
				"MINT_RANDOMNESS_ENABLED_FLAG()": "490",
				"OPERATOR_FILTERING_ENABLED_FLAG()": "491",
				"OPERATOR_FILTER_REGISTRY()": "infinite",
				"REVEALED_FLAG()": "403",
				"_editionMaxMintable()": "2590",
				"_operatorFilteringEnabled()": "410",
				"_registerForOperatorFiltering()": "257",
				"adminMint(address,uint256)": "infinite",
				"airdropAdminMint(address[],uint256)": "infinite",
				"approve(address,uint256)": "infinite",
				"balanceOf(address)": "3091",
				"baseURI()": "infinite",
				"baseURIStorage()": "infinite",
				"cancelOwnershipHandover()": "6408",
				"completeOwnershipHandover(address)": "35617",
				"config()": "7270",
				"contractURI()": "infinite",
				"contractURIStorage()": "infinite",
				"editionMaxMintable()": "2584",
				"freezeMetadata()": "infinite",
				"getApproved(uint256)": "infinite",
				"grantRoles(address,uint256)": "28684",
				"hasAllRoles(address,uint256)": "3112",
				"hasAnyRole(address,uint256)": "3155",
				"initialize(string,string,string,string,address,uint16,(uint104,uint32,uint64,uint64,uint64,uint64),uint32,uint8,address)": "infinite",
				"isApprovedForAll(address,address)": "infinite",
				"isRevealed()": "2539",
				"mintConcluded()": "4912",
				"name()": "infinite",
				"nextTokenId()": "2594",
				"numberMinted(address)": "3086",
				"operatorFilteringEnabled()": "488",
				"ordinalsFromRoles(uint256)": "infinite",
				"owner()": "2680",
				"ownerOf(uint256)": "infinite",
				"ownershipHandoverExpiresAt(address)": "2940",
				"ownershipHandoverValidFor()": "454",
				"payAndMint(uint256)": "infinite",
				"payoutAddress()": "2648",
				"presaleMintsByAddress(address)": "2881",
				"purchasePresale(uint256,uint256,uint256,bytes32[])": "infinite",
				"renounceOwnership()": "11016",
				"renounceRoles(uint256)": "26389",
				"requestOwnershipHandover()": "23567",
				"reveal(string)": "infinite",
				"revokeRoles(address,uint256)": "28716",
				"rolesFromOrdinals(uint8[])": "infinite",
				"rolesOf(address)": "2964",
				"royaltyBPS()": "2654",
				"royaltyInfo(uint256,uint256)": "infinite",
				"safeBatchTransferPublic((address,uint256[])[])": "infinite",
				"safeTransferFrom(address,address,uint256)": "infinite",
				"safeTransferFrom(address,address,uint256,bytes)": "infinite",
				"salesConfig()": "infinite",
				"setApprovalForAll(address,bool)": "infinite",
				"setBaseURI(string)": "infinite",
				"setContractURI(string)": "infinite",
				"setOperatorFilteringEnabled(bool)": "infinite",
				"setOwner(address)": "30684",
				"setPayoutAddress(address)": "infinite",
				"setRoyalty(uint16)": "infinite",
				"setSaleConfiguration(uint104,uint32,uint64,uint64,uint64,uint64,bytes32)": "infinite",
				"supportsInterface(bytes4)": "1036",
				"symbol()": "infinite",
				"testFeeManager()": "infinite",
				"tokenURI(uint256)": "infinite",
				"totalMinted()": "2701",
				"totalSupply()": "infinite",
				"transferFrom(address,address,uint256)": "infinite",
				"transferOwnership(address)": "28469",
				"updatePreRevealContent(string)": "infinite",
				"withdrawETH()": "infinite"
			},
			"internal": {
				"_initializeNameAndSymbol(string memory,string memory)": "infinite",
				"_loadNameAndSymbol()": "infinite",
				"_presaleActive()": "4457",
				"_startTokenId()": "23",
				"safeBatchTransfer(struct ERC721TestDrop.batchTransferParams memory)": "infinite"
			}
		},
		"methodIdentifiers": {
			"ADDRESS_BATCH_MINT_LIMIT()": "6f38c330",
			"ADMIN_ROLE()": "75b238fc",
			"METADATA_IS_FROZEN_FLAG()": "2c02cb7e",
			"MINTER_ROLE()": "d5391393",
			"MINT_RANDOMNESS_ENABLED_FLAG()": "bbc17bc4",
			"OPERATOR_FILTERING_ENABLED_FLAG()": "5e6ae4ed",
			"OPERATOR_FILTER_REGISTRY()": "41f43434",
			"REVEALED_FLAG()": "c303734a",
			"_editionMaxMintable()": "e6c5a1ef",
			"_operatorFilteringEnabled()": "b040adf6",
			"_registerForOperatorFiltering()": "72dfb778",
			"adminMint(address,uint256)": "e58306f9",
			"airdropAdminMint(address[],uint256)": "778faeec",
			"approve(address,uint256)": "095ea7b3",
			"balanceOf(address)": "70a08231",
			"baseURI()": "6c0360eb",
			"baseURIStorage()": "c4e5db8f",
			"cancelOwnershipHandover()": "54d1f13d",
			"completeOwnershipHandover(address)": "f04e283e",
			"config()": "79502c55",
			"contractURI()": "e8a3d485",
			"contractURIStorage()": "0fd0733d",
			"editionMaxMintable()": "3ab9d139",
			"freezeMetadata()": "d111515d",
			"getApproved(uint256)": "081812fc",
			"grantRoles(address,uint256)": "1c10893f",
			"hasAllRoles(address,uint256)": "1cd64df4",
			"hasAnyRole(address,uint256)": "514e62fc",
			"initialize(string,string,string,string,address,uint16,(uint104,uint32,uint64,uint64,uint64,uint64),uint32,uint8,address)": "dfb725f7",
			"isApprovedForAll(address,address)": "e985e9c5",
			"isRevealed()": "54214f69",
			"mintConcluded()": "a6f32d43",
			"name()": "06fdde03",
			"nextTokenId()": "75794a3c",
			"numberMinted(address)": "dc33e681",
			"operatorFilteringEnabled()": "fb796e6c",
			"ordinalsFromRoles(uint256)": "7359e41f",
			"owner()": "8da5cb5b",
			"ownerOf(uint256)": "6352211e",
			"ownershipHandoverExpiresAt(address)": "fee81cf4",
			"ownershipHandoverValidFor()": "d7533f02",
			"payAndMint(uint256)": "1909159a",
			"payoutAddress()": "5b8d02d7",
			"presaleMintsByAddress(address)": "61fea768",
			"purchasePresale(uint256,uint256,uint256,bytes32[])": "25024a2b",
			"renounceOwnership()": "715018a6",
			"renounceRoles(uint256)": "183a4f6e",
			"requestOwnershipHandover()": "25692962",
			"reveal(string)": "4c261247",
			"revokeRoles(address,uint256)": "4a4ee7b1",
			"rolesFromOrdinals(uint8[])": "13a661ed",
			"rolesOf(address)": "2de94807",
			"royaltyBPS()": "b9c9d93a",
			"royaltyInfo(uint256,uint256)": "2a55205a",
			"safeBatchTransferPublic((address,uint256[])[])": "d05e8732",
			"safeTransferFrom(address,address,uint256)": "42842e0e",
			"safeTransferFrom(address,address,uint256,bytes)": "b88d4fde",
			"salesConfig()": "1d2c0b38",
			"setApprovalForAll(address,bool)": "a22cb465",
			"setBaseURI(string)": "55f804b3",
			"setContractURI(string)": "938e3d7b",
			"setOperatorFilteringEnabled(bool)": "b7c0b8e8",
			"setOwner(address)": "13af4035",
			"setPayoutAddress(address)": "33ea51a8",
			"setRoyalty(uint16)": "36e79a5a",
			"setSaleConfiguration(uint104,uint32,uint64,uint64,uint64,uint64,bytes32)": "ffdb7163",
			"supportsInterface(bytes4)": "01ffc9a7",
			"symbol()": "95d89b41",
			"testFeeManager()": "40197c14",
			"tokenURI(uint256)": "c87b56dd",
			"totalMinted()": "a2309ff8",
			"totalSupply()": "18160ddd",
			"transferFrom(address,address,uint256)": "23b872dd",
			"transferOwnership(address)": "f2fde38b",
			"updatePreRevealContent(string)": "72c7dbbe",
			"withdrawETH()": "e086e5ec"
		}
	},
	"abi": [
		{
			"inputs": [],
			"name": "ApprovalCallerNotOwnerNorApproved",
			"type": "error"
		},
		{
			"inputs": [],
			"name": "ApprovalQueryForNonexistentToken",
			"type": "error"
		},
		{
			"inputs": [],
			"name": "BalanceQueryForZeroAddress",
			"type": "error"
		},
		{
			"inputs": [],
			"name": "ExceedsAddressBatchMintLimit",
			"type": "error"
		},
		{
			"inputs": [
				{
					"internalType": "uint32",
					"name": "available",
					"type": "uint32"
				}
			],
			"name": "ExceedsEditionAvailableSupply",
			"type": "error"
		},
		{
			"inputs": [],
			"name": "InvalidPayoutAddress",
			"type": "error"
		},
		{
			"inputs": [],
			"name": "InvalidRoyaltyBPS",
			"type": "error"
		},
		{
			"inputs": [],
			"name": "MetadataIsFrozen",
			"type": "error"
		},
		{
			"inputs": [],
			"name": "MintERC2309QuantityExceedsLimit",
			"type": "error"
		},
		{
			"inputs": [],
			"name": "MintToZeroAddress",
			"type": "error"
		},
		{
			"inputs": [],
			"name": "MintZeroQuantity",
			"type": "error"
		},
		{
			"inputs": [],
			"name": "Mint_SoldOut",
			"type": "error"
		},
		{
			"inputs": [],
			"name": "NewOwnerIsZeroAddress",
			"type": "error"
		},
		{
			"inputs": [],
			"name": "NoAddressesToAirdrop",
			"type": "error"
		},
		{
			"inputs": [],
			"name": "NoHandoverRequest",
			"type": "error"
		},
		{
			"inputs": [
				{
					"internalType": "address",
					"name": "operator",
					"type": "address"
				}
			],
			"name": "OperatorNotAllowed",
			"type": "error"
		},
		{
			"inputs": [],
			"name": "OwnerQueryForNonexistentToken",
			"type": "error"
		},
		{
			"inputs": [],
			"name": "OwnershipNotInitializedForExtraData",
			"type": "error"
		},
		{
			"inputs": [],
			"name": "Presale_Inactive",
			"type": "error"
		},
		{
			"inputs": [],
			"name": "Presale_MerkleNotApproved",
			"type": "error"
		},
		{
			"inputs": [],
			"name": "Presale_TooManyForAddress",
			"type": "error"
		},
		{
			"inputs": [],
			"name": "Purchase_TooManyForAddress",
			"type": "error"
		},
		{
			"inputs": [
				{
					"internalType": "uint256",
					"name": "correctPrice",
					"type": "uint256"
				}
			],
			"name": "Purchase_WrongPrice",
			"type": "error"
		},
		{
			"inputs": [],
			"name": "Sale_Inactive",
			"type": "error"
		},
		{
			"inputs": [],
			"name": "TransferCallerNotOwnerNorApproved",
			"type": "error"
		},
		{
			"inputs": [],
			"name": "TransferFromIncorrectOwner",
			"type": "error"
		},
		{
			"inputs": [],
			"name": "TransferToNonERC721ReceiverImplementer",
			"type": "error"
		},
		{
			"inputs": [],
			"name": "TransferToZeroAddress",
			"type": "error"
		},
		{
			"inputs": [],
			"name": "URIQueryForNonexistentToken",
			"type": "error"
		},
		{
			"inputs": [],
			"name": "Unauthorized",
			"type": "error"
		},
		{
			"inputs": [],
			"name": "WithdrawFundsSendFailure",
			"type": "error"
		},
		{
			"anonymous": false,
			"inputs": [
				{
					"indexed": false,
					"internalType": "address[]",
					"name": "to",
					"type": "address[]"
				},
				{
					"indexed": false,
					"internalType": "uint256",
					"name": "quantity",
					"type": "uint256"
				},
				{
					"indexed": false,
					"internalType": "uint256",
					"name": "fromTokenId",
					"type": "uint256"
				}
			],
			"name": "Airdropped",
			"type": "event"
		},
		{
			"anonymous": false,
			"inputs": [
				{
					"indexed": true,
					"internalType": "address",
					"name": "owner",
					"type": "address"
				},
				{
					"indexed": true,
					"internalType": "address",
					"name": "approved",
					"type": "address"
				},
				{
					"indexed": true,
					"internalType": "uint256",
					"name": "tokenId",
					"type": "uint256"
				}
			],
			"name": "Approval",
			"type": "event"
		},
		{
			"anonymous": false,
			"inputs": [
				{
					"indexed": true,
					"internalType": "address",
					"name": "owner",
					"type": "address"
				},
				{
					"indexed": true,
					"internalType": "address",
					"name": "operator",
					"type": "address"
				},
				{
					"indexed": false,
					"internalType": "bool",
					"name": "approved",
					"type": "bool"
				}
			],
			"name": "ApprovalForAll",
			"type": "event"
		},
		{
			"anonymous": false,
			"inputs": [
				{
					"indexed": true,
					"internalType": "string",
					"name": "_baseURI",
					"type": "string"
				}
			],
			"name": "BaseURISet",
			"type": "event"
		},
		{
			"anonymous": false,
			"inputs": [
				{
					"indexed": true,
					"internalType": "uint256",
					"name": "fromTokenId",
					"type": "uint256"
				},
				{
					"indexed": false,
					"internalType": "uint256",
					"name": "toTokenId",
					"type": "uint256"
				},
				{
					"indexed": true,
					"internalType": "address",
					"name": "from",
					"type": "address"
				},
				{
					"indexed": true,
					"internalType": "address",
					"name": "to",
					"type": "address"
				}
			],
			"name": "ConsecutiveTransfer",
			"type": "event"
		},
		{
			"anonymous": false,
			"inputs": [
				{
					"indexed": true,
					"internalType": "string",
					"name": "_contractURI",
					"type": "string"
				}
			],
			"name": "ContractURISet",
			"type": "event"
		},
		{
			"anonymous": false,
			"inputs": [
				{
					"indexed": true,
					"internalType": "address",
					"name": "withdrawnBy",
					"type": "address"
				},
				{
					"indexed": true,
					"internalType": "address",
					"name": "withdrawnTo",
					"type": "address"
				},
				{
					"indexed": false,
					"internalType": "uint256",
					"name": "amount",
					"type": "uint256"
				},
				{
					"indexed": false,
					"internalType": "address",
					"name": "feeRecipient",
					"type": "address"
				},
				{
					"indexed": false,
					"internalType": "uint256",
					"name": "feeAmount",
					"type": "uint256"
				}
			],
			"name": "FundsWithdrawn",
			"type": "event"
		},
		{
			"anonymous": false,
			"inputs": [
				{
					"indexed": false,
					"internalType": "string",
					"name": "baseURI",
					"type": "string"
				},
				{
					"indexed": false,
					"internalType": "string",
					"name": "contractURI",
					"type": "string"
				}
			],
			"name": "MetadataFrozen",
			"type": "event"
		},
		{
			"anonymous": false,
			"inputs": [
				{
					"indexed": false,
					"internalType": "address",
					"name": "to",
					"type": "address"
				},
				{
					"indexed": false,
					"internalType": "uint256",
					"name": "quantity",
					"type": "uint256"
				},
				{
					"indexed": false,
					"internalType": "uint256",
					"name": "_firstMintedTokenId",
					"type": "uint256"
				}
			],
			"name": "Minted",
			"type": "event"
		},
		{
			"anonymous": false,
			"inputs": [
				{
					"indexed": false,
					"internalType": "bool",
					"name": "operatorFilteringEnabled_",
					"type": "bool"
				}
			],
			"name": "OperatorFilteringEnablededSet",
			"type": "event"
		},
		{
			"anonymous": false,
			"inputs": [
				{
					"indexed": true,
					"internalType": "address",
					"name": "pendingOwner",
					"type": "address"
				}
			],
			"name": "OwnershipHandoverCanceled",
			"type": "event"
		},
		{
			"anonymous": false,
			"inputs": [
				{
					"indexed": true,
					"internalType": "address",
					"name": "pendingOwner",
					"type": "address"
				}
			],
			"name": "OwnershipHandoverRequested",
			"type": "event"
		},
		{
			"anonymous": false,
			"inputs": [
				{
					"indexed": true,
					"internalType": "address",
					"name": "oldOwner",
					"type": "address"
				},
				{
					"indexed": true,
					"internalType": "address",
					"name": "newOwner",
					"type": "address"
				}
			],
			"name": "OwnershipTransferred",
			"type": "event"
		},
		{
			"anonymous": false,
			"inputs": [
				{
					"indexed": false,
					"internalType": "address",
					"name": "payoutAddress",
					"type": "address"
				}
			],
			"name": "PayoutAddressSet",
			"type": "event"
		},
		{
			"anonymous": false,
			"inputs": [
				{
					"indexed": true,
					"internalType": "address",
					"name": "user",
					"type": "address"
				},
				{
					"indexed": true,
					"internalType": "uint256",
					"name": "roles",
					"type": "uint256"
				}
			],
			"name": "RolesUpdated",
			"type": "event"
		},
		{
			"anonymous": false,
			"inputs": [
				{
					"indexed": false,
					"internalType": "uint16",
					"name": "bps",
					"type": "uint16"
				}
			],
			"name": "RoyaltySet",
			"type": "event"
		},
		{
			"anonymous": false,
			"inputs": [
				{
					"indexed": true,
					"internalType": "address",
					"name": "to",
					"type": "address"
				},
				{
					"indexed": true,
					"internalType": "uint256",
					"name": "quantity",
					"type": "uint256"
				},
				{
					"indexed": true,
					"internalType": "uint256",
					"name": "pricePerToken",
					"type": "uint256"
				},
				{
					"indexed": false,
					"internalType": "uint256",
					"name": "firstPurchasedTokenId",
					"type": "uint256"
				}
			],
			"name": "Sale",
			"type": "event"
		},
		{
			"anonymous": false,
			"inputs": [
				{
					"indexed": true,
					"internalType": "address",
					"name": "changedBy",
					"type": "address"
				}
			],
			"name": "SalesConfigChanged",
			"type": "event"
		},
		{
			"anonymous": false,
			"inputs": [
				{
					"indexed": true,
					"internalType": "address",
					"name": "from",
					"type": "address"
				},
				{
					"indexed": true,
					"internalType": "address",
					"name": "to",
					"type": "address"
				},
				{
					"indexed": true,
					"internalType": "uint256",
					"name": "tokenId",
					"type": "uint256"
				}
			],
			"name": "Transfer",
			"type": "event"
		},
		{
			"anonymous": false,
			"inputs": [
				{
					"indexed": false,
					"internalType": "string",
					"name": "baseURI",
					"type": "string"
				},
				{
					"indexed": false,
					"internalType": "bool",
					"name": "isRevealed",
					"type": "bool"
				}
			],
			"name": "URIUpdated",
			"type": "event"
		},
		{
			"inputs": [],
			"name": "ADDRESS_BATCH_MINT_LIMIT",
			"outputs": [
				{
					"internalType": "uint256",
					"name": "",
					"type": "uint256"
				}
			],
			"stateMutability": "view",
			"type": "function"
		},
		{
			"inputs": [],
			"name": "ADMIN_ROLE",
			"outputs": [
				{
					"internalType": "uint256",
					"name": "",
					"type": "uint256"
				}
			],
			"stateMutability": "view",
			"type": "function"
		},
		{
			"inputs": [],
			"name": "METADATA_IS_FROZEN_FLAG",
			"outputs": [
				{
					"internalType": "uint8",
					"name": "",
					"type": "uint8"
				}
			],
			"stateMutability": "view",
			"type": "function"
		},
		{
			"inputs": [],
			"name": "MINTER_ROLE",
			"outputs": [
				{
					"internalType": "uint256",
					"name": "",
					"type": "uint256"
				}
			],
			"stateMutability": "view",
			"type": "function"
		},
		{
			"inputs": [],
			"name": "MINT_RANDOMNESS_ENABLED_FLAG",
			"outputs": [
				{
					"internalType": "uint8",
					"name": "",
					"type": "uint8"
				}
			],
			"stateMutability": "view",
			"type": "function"
		},
		{
			"inputs": [],
			"name": "OPERATOR_FILTERING_ENABLED_FLAG",
			"outputs": [
				{
					"internalType": "uint8",
					"name": "",
					"type": "uint8"
				}
			],
			"stateMutability": "view",
			"type": "function"
		},
		{
			"inputs": [],
			"name": "OPERATOR_FILTER_REGISTRY",
			"outputs": [
				{
					"internalType": "contract IOperatorFilterRegistry",
					"name": "",
					"type": "address"
				}
			],
			"stateMutability": "view",
			"type": "function"
		},
		{
			"inputs": [],
			"name": "REVEALED_FLAG",
			"outputs": [
				{
					"internalType": "uint8",
					"name": "",
					"type": "uint8"
				}
			],
			"stateMutability": "view",
			"type": "function"
		},
		{
			"inputs": [],
			"name": "_editionMaxMintable",
			"outputs": [
				{
					"internalType": "uint32",
					"name": "",
					"type": "uint32"
				}
			],
			"stateMutability": "view",
			"type": "function"
		},
		{
			"inputs": [],
			"name": "_operatorFilteringEnabled",
			"outputs": [
				{
					"internalType": "bool",
					"name": "",
					"type": "bool"
				}
			],
			"stateMutability": "view",
			"type": "function"
		},
		{
			"inputs": [],
			"name": "_registerForOperatorFiltering",
			"outputs": [],
			"stateMutability": "view",
			"type": "function"
		},
		{
			"inputs": [
				{
					"internalType": "address",
					"name": "to",
					"type": "address"
				},
				{
					"internalType": "uint256",
					"name": "quantity",
					"type": "uint256"
				}
			],
			"name": "adminMint",
			"outputs": [
				{
					"internalType": "uint256",
					"name": "_firstMintedTokenId",
					"type": "uint256"
				}
			],
			"stateMutability": "payable",
			"type": "function"
		},
		{
			"inputs": [
				{
					"internalType": "address[]",
					"name": "_to",
					"type": "address[]"
				},
				{
					"internalType": "uint256",
					"name": "_quantity",
					"type": "uint256"
				}
			],
			"name": "airdropAdminMint",
			"outputs": [
				{
					"internalType": "uint256",
					"name": "_firstMintedTokenId",
					"type": "uint256"
				}
			],
			"stateMutability": "nonpayable",
			"type": "function"
		},
		{
			"inputs": [
				{
					"internalType": "address",
					"name": "operator",
					"type": "address"
				},
				{
					"internalType": "uint256",
					"name": "tokenId",
					"type": "uint256"
				}
			],
			"name": "approve",
			"outputs": [],
			"stateMutability": "payable",
			"type": "function"
		},
		{
			"inputs": [
				{
					"internalType": "address",
					"name": "owner",
					"type": "address"
				}
			],
			"name": "balanceOf",
			"outputs": [
				{
					"internalType": "uint256",
					"name": "",
					"type": "uint256"
				}
			],
			"stateMutability": "view",
			"type": "function"
		},
		{
			"inputs": [],
			"name": "baseURI",
			"outputs": [
				{
					"internalType": "string",
					"name": "",
					"type": "string"
				}
			],
			"stateMutability": "view",
			"type": "function"
		},
		{
			"inputs": [],
			"name": "baseURIStorage",
			"outputs": [
				{
					"internalType": "string",
					"name": "",
					"type": "string"
				}
			],
			"stateMutability": "view",
			"type": "function"
		},
		{
			"inputs": [],
			"name": "cancelOwnershipHandover",
			"outputs": [],
			"stateMutability": "payable",
			"type": "function"
		},
		{
			"inputs": [
				{
					"internalType": "address",
					"name": "pendingOwner",
					"type": "address"
				}
			],
			"name": "completeOwnershipHandover",
			"outputs": [],
			"stateMutability": "payable",
			"type": "function"
		},
		{
			"inputs": [],
			"name": "config",
			"outputs": [
				{
					"internalType": "uint64",
					"name": "editionSize",
					"type": "uint64"
				},
				{
					"internalType": "uint16",
					"name": "royaltyBPS",
					"type": "uint16"
				},
				{
					"internalType": "address payable",
					"name": "fundsRecipient",
					"type": "address"
				}
			],
			"stateMutability": "view",
			"type": "function"
		},
		{
			"inputs": [],
			"name": "contractURI",
			"outputs": [
				{
					"internalType": "string",
					"name": "",
					"type": "string"
				}
			],
			"stateMutability": "view",
			"type": "function"
		},
		{
			"inputs": [],
			"name": "contractURIStorage",
			"outputs": [
				{
					"internalType": "string",
					"name": "",
					"type": "string"
				}
			],
			"stateMutability": "view",
			"type": "function"
		},
		{
			"inputs": [],
			"name": "editionMaxMintable",
			"outputs": [
				{
					"internalType": "uint32",
					"name": "",
					"type": "uint32"
				}
			],
			"stateMutability": "view",
			"type": "function"
		},
		{
			"inputs": [],
			"name": "freezeMetadata",
			"outputs": [],
			"stateMutability": "nonpayable",
			"type": "function"
		},
		{
			"inputs": [
				{
					"internalType": "uint256",
					"name": "tokenId",
					"type": "uint256"
				}
			],
			"name": "getApproved",
			"outputs": [
				{
					"internalType": "address",
					"name": "",
					"type": "address"
				}
			],
			"stateMutability": "view",
			"type": "function"
		},
		{
			"inputs": [
				{
					"internalType": "address",
					"name": "user",
					"type": "address"
				},
				{
					"internalType": "uint256",
					"name": "roles",
					"type": "uint256"
				}
			],
			"name": "grantRoles",
			"outputs": [],
			"stateMutability": "payable",
			"type": "function"
		},
		{
			"inputs": [
				{
					"internalType": "address",
					"name": "user",
					"type": "address"
				},
				{
					"internalType": "uint256",
					"name": "roles",
					"type": "uint256"
				}
			],
			"name": "hasAllRoles",
			"outputs": [
				{
					"internalType": "bool",
					"name": "result",
					"type": "bool"
				}
			],
			"stateMutability": "view",
			"type": "function"
		},
		{
			"inputs": [
				{
					"internalType": "address",
					"name": "user",
					"type": "address"
				},
				{
					"internalType": "uint256",
					"name": "roles",
					"type": "uint256"
				}
			],
			"name": "hasAnyRole",
			"outputs": [
				{
					"internalType": "bool",
					"name": "result",
					"type": "bool"
				}
			],
			"stateMutability": "view",
			"type": "function"
		},
		{
			"inputs": [
				{
					"internalType": "string",
					"name": "name_",
					"type": "string"
				},
				{
					"internalType": "string",
					"name": "symbol_",
					"type": "string"
				},
				{
					"internalType": "string",
					"name": "baseURI_",
					"type": "string"
				},
				{
					"internalType": "string",
					"name": "contractURI_",
					"type": "string"
				},
				{
					"internalType": "address",
					"name": "payoutAddress_",
					"type": "address"
				},
				{
					"internalType": "uint16",
					"name": "royaltyBPS_",
					"type": "uint16"
				},
				{
					"components": [
						{
							"internalType": "uint104",
							"name": "publicSalePrice",
							"type": "uint104"
						},
						{
							"internalType": "uint32",
							"name": "maxSalePurchasePerAddress",
							"type": "uint32"
						},
						{
							"internalType": "uint64",
							"name": "publicSaleStart",
							"type": "uint64"
						},
						{
							"internalType": "uint64",
							"name": "publicSaleEnd",
							"type": "uint64"
						},
						{
							"internalType": "uint64",
							"name": "presaleStart",
							"type": "uint64"
						},
						{
							"internalType": "uint64",
							"name": "presaleEnd",
							"type": "uint64"
						}
					],
					"internalType": "struct IERC721TestDrop.SalesConfiguration",
					"name": "_salesconfig",
					"type": "tuple"
				},
				{
					"internalType": "uint32",
					"name": "editionMaxMintable_",
					"type": "uint32"
				},
				{
					"internalType": "uint8",
					"name": "flags_",
					"type": "uint8"
				},
				{
					"internalType": "contract ITestFeeManager",
					"name": "testFeeManager_",
					"type": "address"
				}
			],
			"name": "initialize",
			"outputs": [],
			"stateMutability": "nonpayable",
			"type": "function"
		},
		{
			"inputs": [
				{
					"internalType": "address",
					"name": "owner",
					"type": "address"
				},
				{
					"internalType": "address",
					"name": "operator",
					"type": "address"
				}
			],
			"name": "isApprovedForAll",
			"outputs": [
				{
					"internalType": "bool",
					"name": "",
					"type": "bool"
				}
			],
			"stateMutability": "view",
			"type": "function"
		},
		{
			"inputs": [],
			"name": "isRevealed",
			"outputs": [
				{
					"internalType": "bool",
					"name": "",
					"type": "bool"
				}
			],
			"stateMutability": "view",
			"type": "function"
		},
		{
			"inputs": [],
			"name": "mintConcluded",
			"outputs": [
				{
					"internalType": "bool",
					"name": "",
					"type": "bool"
				}
			],
			"stateMutability": "view",
			"type": "function"
		},
		{
			"inputs": [],
			"name": "name",
			"outputs": [
				{
					"internalType": "string",
					"name": "",
					"type": "string"
				}
			],
			"stateMutability": "view",
			"type": "function"
		},
		{
			"inputs": [],
			"name": "nextTokenId",
			"outputs": [
				{
					"internalType": "uint256",
					"name": "",
					"type": "uint256"
				}
			],
			"stateMutability": "view",
			"type": "function"
		},
		{
			"inputs": [
				{
					"internalType": "address",
					"name": "owner",
					"type": "address"
				}
			],
			"name": "numberMinted",
			"outputs": [
				{
					"internalType": "uint256",
					"name": "",
					"type": "uint256"
				}
			],
			"stateMutability": "view",
			"type": "function"
		},
		{
			"inputs": [],
			"name": "operatorFilteringEnabled",
			"outputs": [
				{
					"internalType": "bool",
					"name": "",
					"type": "bool"
				}
			],
			"stateMutability": "view",
			"type": "function"
		},
		{
			"inputs": [
				{
					"internalType": "uint256",
					"name": "roles",
					"type": "uint256"
				}
			],
			"name": "ordinalsFromRoles",
			"outputs": [
				{
					"internalType": "uint8[]",
					"name": "ordinals",
					"type": "uint8[]"
				}
			],
			"stateMutability": "pure",
			"type": "function"
		},
		{
			"inputs": [],
			"name": "owner",
			"outputs": [
				{
					"internalType": "address",
					"name": "",
					"type": "address"
				}
			],
			"stateMutability": "view",
			"type": "function"
		},
		{
			"inputs": [
				{
					"internalType": "uint256",
					"name": "tokenId",
					"type": "uint256"
				}
			],
			"name": "ownerOf",
			"outputs": [
				{
					"internalType": "address",
					"name": "",
					"type": "address"
				}
			],
			"stateMutability": "view",
			"type": "function"
		},
		{
			"inputs": [
				{
					"internalType": "address",
					"name": "pendingOwner",
					"type": "address"
				}
			],
			"name": "ownershipHandoverExpiresAt",
			"outputs": [
				{
					"internalType": "uint256",
					"name": "result",
					"type": "uint256"
				}
			],
			"stateMutability": "view",
			"type": "function"
		},
		{
			"inputs": [],
			"name": "ownershipHandoverValidFor",
			"outputs": [
				{
					"internalType": "uint64",
					"name": "",
					"type": "uint64"
				}
			],
			"stateMutability": "view",
			"type": "function"
		},
		{
			"inputs": [
				{
					"internalType": "uint256",
					"name": "quantity",
					"type": "uint256"
				}
			],
			"name": "payAndMint",
			"outputs": [
				{
					"internalType": "uint256",
					"name": "_firstMintedTokenId",
					"type": "uint256"
				}
			],
			"stateMutability": "payable",
			"type": "function"
		},
		{
			"inputs": [],
			"name": "payoutAddress",
			"outputs": [
				{
					"internalType": "address",
					"name": "",
					"type": "address"
				}
			],
			"stateMutability": "view",
			"type": "function"
		},
		{
			"inputs": [
				{
					"internalType": "address",
					"name": "",
					"type": "address"
				}
			],
			"name": "presaleMintsByAddress",
			"outputs": [
				{
					"internalType": "uint256",
					"name": "",
					"type": "uint256"
				}
			],
			"stateMutability": "view",
			"type": "function"
		},
		{
			"inputs": [
				{
					"internalType": "uint256",
					"name": "quantity",
					"type": "uint256"
				},
				{
					"internalType": "uint256",
					"name": "maxQuantity",
					"type": "uint256"
				},
				{
					"internalType": "uint256",
					"name": "pricePerToken",
					"type": "uint256"
				},
				{
					"internalType": "bytes32[]",
					"name": "merkleProof",
					"type": "bytes32[]"
				}
			],
			"name": "purchasePresale",
			"outputs": [
				{
					"internalType": "uint256",
					"name": "",
					"type": "uint256"
				}
			],
			"stateMutability": "payable",
			"type": "function"
		},
		{
			"inputs": [],
			"name": "renounceOwnership",
			"outputs": [],
			"stateMutability": "payable",
			"type": "function"
		},
		{
			"inputs": [
				{
					"internalType": "uint256",
					"name": "roles",
					"type": "uint256"
				}
			],
			"name": "renounceRoles",
			"outputs": [],
			"stateMutability": "payable",
			"type": "function"
		},
		{
			"inputs": [],
			"name": "requestOwnershipHandover",
			"outputs": [],
			"stateMutability": "payable",
			"type": "function"
		},
		{
			"inputs": [
				{
					"internalType": "string",
					"name": "baseURI_",
					"type": "string"
				}
			],
			"name": "reveal",
			"outputs": [],
			"stateMutability": "nonpayable",
			"type": "function"
		},
		{
			"inputs": [
				{
					"internalType": "address",
					"name": "user",
					"type": "address"
				},
				{
					"internalType": "uint256",
					"name": "roles",
					"type": "uint256"
				}
			],
			"name": "revokeRoles",
			"outputs": [],
			"stateMutability": "payable",
			"type": "function"
		},
		{
			"inputs": [
				{
					"internalType": "uint8[]",
					"name": "ordinals",
					"type": "uint8[]"
				}
			],
			"name": "rolesFromOrdinals",
			"outputs": [
				{
					"internalType": "uint256",
					"name": "roles",
					"type": "uint256"
				}
			],
			"stateMutability": "pure",
			"type": "function"
		},
		{
			"inputs": [
				{
					"internalType": "address",
					"name": "user",
					"type": "address"
				}
			],
			"name": "rolesOf",
			"outputs": [
				{
					"internalType": "uint256",
					"name": "roles",
					"type": "uint256"
				}
			],
			"stateMutability": "view",
			"type": "function"
		},
		{
			"inputs": [],
			"name": "royaltyBPS",
			"outputs": [
				{
					"internalType": "uint16",
					"name": "",
					"type": "uint16"
				}
			],
			"stateMutability": "view",
			"type": "function"
		},
		{
			"inputs": [
				{
					"internalType": "uint256",
					"name": "",
					"type": "uint256"
				},
				{
					"internalType": "uint256",
					"name": "salePrice",
					"type": "uint256"
				}
			],
			"name": "royaltyInfo",
			"outputs": [
				{
					"internalType": "address",
					"name": "fundingRecipient_",
					"type": "address"
				},
				{
					"internalType": "uint256",
					"name": "royaltyAmount",
					"type": "uint256"
				}
			],
			"stateMutability": "view",
			"type": "function"
		},
		{
			"inputs": [
				{
					"components": [
						{
							"internalType": "address",
							"name": "recipient",
							"type": "address"
						},
						{
							"internalType": "uint256[]",
							"name": "tokenIds",
							"type": "uint256[]"
						}
					],
					"internalType": "struct ERC721TestDrop.batchTransferParams[]",
					"name": "params",
					"type": "tuple[]"
				}
			],
			"name": "safeBatchTransferPublic",
			"outputs": [],
			"stateMutability": "nonpayable",
			"type": "function"
		},
		{
			"inputs": [
				{
					"internalType": "address",
					"name": "from",
					"type": "address"
				},
				{
					"internalType": "address",
					"name": "to",
					"type": "address"
				},
				{
					"internalType": "uint256",
					"name": "tokenId",
					"type": "uint256"
				}
			],
			"name": "safeTransferFrom",
			"outputs": [],
			"stateMutability": "payable",
			"type": "function"
		},
		{
			"inputs": [
				{
					"internalType": "address",
					"name": "from",
					"type": "address"
				},
				{
					"internalType": "address",
					"name": "to",
					"type": "address"
				},
				{
					"internalType": "uint256",
					"name": "tokenId",
					"type": "uint256"
				},
				{
					"internalType": "bytes",
					"name": "data",
					"type": "bytes"
				}
			],
			"name": "safeTransferFrom",
			"outputs": [],
			"stateMutability": "payable",
			"type": "function"
		},
		{
			"inputs": [],
			"name": "salesConfig",
			"outputs": [
				{
					"internalType": "uint104",
					"name": "publicSalePrice",
					"type": "uint104"
				},
				{
					"internalType": "uint32",
					"name": "maxSalePurchasePerAddress",
					"type": "uint32"
				},
				{
					"internalType": "uint64",
					"name": "publicSaleStart",
					"type": "uint64"
				},
				{
					"internalType": "uint64",
					"name": "publicSaleEnd",
					"type": "uint64"
				},
				{
					"internalType": "uint64",
					"name": "presaleStart",
					"type": "uint64"
				},
				{
					"internalType": "uint64",
					"name": "presaleEnd",
					"type": "uint64"
				}
			],
			"stateMutability": "view",
			"type": "function"
		},
		{
			"inputs": [
				{
					"internalType": "address",
					"name": "operator",
					"type": "address"
				},
				{
					"internalType": "bool",
					"name": "approved",
					"type": "bool"
				}
			],
			"name": "setApprovalForAll",
			"outputs": [],
			"stateMutability": "nonpayable",
			"type": "function"
		},
		{
			"inputs": [
				{
					"internalType": "string",
					"name": "contractURI_",
					"type": "string"
				}
			],
			"name": "setBaseURI",
			"outputs": [],
			"stateMutability": "nonpayable",
			"type": "function"
		},
		{
			"inputs": [
				{
					"internalType": "string",
					"name": "contractURI_",
					"type": "string"
				}
			],
			"name": "setContractURI",
			"outputs": [],
			"stateMutability": "nonpayable",
			"type": "function"
		},
		{
			"inputs": [
				{
					"internalType": "bool",
					"name": "operatorFilteringEnabled_",
					"type": "bool"
				}
			],
			"name": "setOperatorFilteringEnabled",
			"outputs": [],
			"stateMutability": "nonpayable",
			"type": "function"
		},
		{
			"inputs": [
				{
					"internalType": "address",
					"name": "newOwner",
					"type": "address"
				}
			],
			"name": "setOwner",
			"outputs": [],
			"stateMutability": "nonpayable",
			"type": "function"
		},
		{
			"inputs": [
				{
					"internalType": "address",
					"name": "_payoutAddress",
					"type": "address"
				}
			],
			"name": "setPayoutAddress",
			"outputs": [],
			"stateMutability": "nonpayable",
			"type": "function"
		},
		{
			"inputs": [
				{
					"internalType": "uint16",
					"name": "royaltyBPS_",
					"type": "uint16"
				}
			],
			"name": "setRoyalty",
			"outputs": [],
			"stateMutability": "nonpayable",
			"type": "function"
		},
		{
			"inputs": [
				{
					"internalType": "uint104",
					"name": "publicSalePrice",
					"type": "uint104"
				},
				{
					"internalType": "uint32",
					"name": "maxSalePurchasePerAddress",
					"type": "uint32"
				},
				{
					"internalType": "uint64",
					"name": "publicSaleStart",
					"type": "uint64"
				},
				{
					"internalType": "uint64",
					"name": "publicSaleEnd",
					"type": "uint64"
				},
				{
					"internalType": "uint64",
					"name": "presaleStart",
					"type": "uint64"
				},
				{
					"internalType": "uint64",
					"name": "presaleEnd",
					"type": "uint64"
				},
				{
					"internalType": "bytes32",
					"name": "presaleMerkleRoot",
					"type": "bytes32"
				}
			],
			"name": "setSaleConfiguration",
			"outputs": [],
			"stateMutability": "nonpayable",
			"type": "function"
		},
		{
			"inputs": [
				{
					"internalType": "bytes4",
					"name": "interfaceId",
					"type": "bytes4"
				}
			],
			"name": "supportsInterface",
			"outputs": [
				{
					"internalType": "bool",
					"name": "",
					"type": "bool"
				}
			],
			"stateMutability": "view",
			"type": "function"
		},
		{
			"inputs": [],
			"name": "symbol",
			"outputs": [
				{
					"internalType": "string",
					"name": "",
					"type": "string"
				}
			],
			"stateMutability": "view",
			"type": "function"
		},
		{
			"inputs": [],
			"name": "testFeeManager",
			"outputs": [
				{
					"internalType": "contract ITestFeeManager",
					"name": "",
					"type": "address"
				}
			],
			"stateMutability": "view",
			"type": "function"
		},
		{
			"inputs": [
				{
					"internalType": "uint256",
					"name": "tokenId",
					"type": "uint256"
				}
			],
			"name": "tokenURI",
			"outputs": [
				{
					"internalType": "string",
					"name": "",
					"type": "string"
				}
			],
			"stateMutability": "view",
			"type": "function"
		},
		{
			"inputs": [],
			"name": "totalMinted",
			"outputs": [
				{
					"internalType": "uint256",
					"name": "",
					"type": "uint256"
				}
			],
			"stateMutability": "view",
			"type": "function"
		},
		{
			"inputs": [],
			"name": "totalSupply",
			"outputs": [
				{
					"internalType": "uint256",
					"name": "",
					"type": "uint256"
				}
			],
			"stateMutability": "view",
			"type": "function"
		},
		{
			"inputs": [
				{
					"internalType": "address",
					"name": "from",
					"type": "address"
				},
				{
					"internalType": "address",
					"name": "to",
					"type": "address"
				},
				{
					"internalType": "uint256",
					"name": "tokenId",
					"type": "uint256"
				}
			],
			"name": "transferFrom",
			"outputs": [],
			"stateMutability": "payable",
			"type": "function"
		},
		{
			"inputs": [
				{
					"internalType": "address",
					"name": "newOwner",
					"type": "address"
				}
			],
			"name": "transferOwnership",
			"outputs": [],
			"stateMutability": "payable",
			"type": "function"
		},
		{
			"inputs": [
				{
					"internalType": "string",
					"name": "baseURI_",
					"type": "string"
				}
			],
			"name": "updatePreRevealContent",
			"outputs": [],
			"stateMutability": "nonpayable",
			"type": "function"
		},
		{
			"inputs": [],
			"name": "withdrawETH",
			"outputs": [],
			"stateMutability": "nonpayable",
			"type": "function"
		}
	]
}