{
	"data": {
		"bytecode": {
			"linkReferences": {},
			"object": "60806040523480156200001157600080fd5b50739bac461cebecdaf3ef01dbc72e6e2139996b8a6a60018060008190555060006daaeb6d7670e522a718067333cd4e73ffffffffffffffffffffffffffffffffffffffff163b111562000225578015620000eb576daaeb6d7670e522a718067333cd4e73ffffffffffffffffffffffffffffffffffffffff16637d3e3dbe30846040518363ffffffff1660e01b8152600401620000b192919062000272565b600060405180830381600087803b158015620000cc57600080fd5b505af1158015620000e1573d6000803e3d6000fd5b5050505062000224565b600073ffffffffffffffffffffffffffffffffffffffff168273ffffffffffffffffffffffffffffffffffffffff1614620001a5576daaeb6d7670e522a718067333cd4e73ffffffffffffffffffffffffffffffffffffffff1663a0af290330846040518363ffffffff1660e01b81526004016200016b92919062000272565b600060405180830381600087803b1580156200018657600080fd5b505af11580156200019b573d6000803e3d6000fd5b5050505062000223565b6daaeb6d7670e522a718067333cd4e73ffffffffffffffffffffffffffffffffffffffff16634420e486306040518263ffffffff1660e01b8152600401620001ee91906200029f565b600060405180830381600087803b1580156200020957600080fd5b505af11580156200021e573d6000803e3d6000fd5b505050505b5b5b5050620002bc565b600073ffffffffffffffffffffffffffffffffffffffff82169050919050565b60006200025a826200022d565b9050919050565b6200026c816200024d565b82525050565b600060408201905062000289600083018562000261565b62000298602083018462000261565b9392505050565b6000602082019050620002b6600083018462000261565b92915050565b61669480620002cc6000396000f3fe6080604052600436106104525760003560e01c806370a082311161023f578063bbc17bc411610139578063e086e5ec116100b6578063f04e283e1161007a578063f04e283e14611089578063f2fde38b146110a5578063fb796e6c146110c1578063fee81cf4146110ec578063ffdb71631461112957610452565b8063e086e5ec14610faf578063e58306f914610fc6578063e6c5a1ef14610ff6578063e8a3d48514611021578063e985e9c51461104c57610452565b8063d111515d116100fd578063d111515d14610edc578063d539139314610ef3578063d7533f0214610f1e578063dc33e68114610f49578063de4effbd14610f8657610452565b8063bbc17bc414610df5578063c303734a14610e20578063c4e5db8f14610e4b578063c87b56dd14610e76578063d05e873214610eb357610452565b80638da5cb5b116101c7578063a6f32d431161018b578063a6f32d4314610d2f578063b040adf614610d5a578063b7c0b8e814610d85578063b88d4fde14610dae578063b9c9d93a14610dca57610452565b80638da5cb5b14610c5c578063938e3d7b14610c8757806395d89b4114610cb0578063a22cb46514610cdb578063a2309ff814610d0457610452565b80637359e41f1161020e5780637359e41f14610b5f57806375794a3c14610b9c57806375b238fc14610bc7578063778faeec14610bf257806379502c5514610c2f57610452565b806370a0823114610ad8578063715018a614610b1557806372c7dbbe14610b1f57806372dfb77814610b4857610452565b806333ea51a81161035057806354214f69116102d85780635e6ae4ed1161029c5780635e6ae4ed146109dd57806361fea76814610a085780636352211e14610a455780636c0360eb14610a825780636f38c33014610aad57610452565b806354214f691461091757806354d1f13d1461094257806355f804b31461094c5780635b84a1ed146109755780635b8d02d7146109b257610452565b806341f434341161031f57806341f434341461084e57806342842e0e146108795780634a4ee7b1146108955780634c261247146108b1578063514e62fc146108da57610452565b806333ea51a8146107a657806336e79a5a146107cf5780633ab9d139146107f857806340197c141461082357610452565b80631909159a116103de57806325024a2b116103a257806325024a2b146106c657806325692962146106f65780632a55205a146107005780632c02cb7e1461073e5780632de948071461076957610452565b80631909159a146105f05780631c10893f146106205780631cd64df41461063c5780631d2c0b381461067957806323b872dd146106aa57610452565b80630fd0733d116104255780630fd0733d1461051857806313a661ed1461054357806313af40351461058057806318160ddd146105a9578063183a4f6e146105d457610452565b806301ffc9a71461045757806306fdde0314610494578063081812fc146104bf578063095ea7b3146104fc575b600080fd5b34801561046357600080fd5b5061047e6004803603810190610479919061472b565b611152565b60405161048b9190614773565b60405180910390f35b3480156104a057600080fd5b506104a96112b9565b6040516104b6919061481e565b60405180910390f35b3480156104cb57600080fd5b506104e660048036038101906104e19190614876565b6112cf565b6040516104f391906148e4565b60405180910390f35b6105166004803603810190610511919061492b565b611336565b005b34801561052457600080fd5b5061052d61134f565b60405161053a919061481e565b60405180910390f35b34801561054f57600080fd5b5061056a60048036038101906105659190614aec565b6113dd565b6040516105779190614b44565b60405180910390f35b34801561058c57600080fd5b506105a760048036038101906105a29190614b5f565b611407565b005b3480156105b557600080fd5b506105be61141f565b6040516105cb9190614b44565b60405180910390f35b6105ee60048036038101906105e99190614876565b611448565b005b61060a60048036038101906106059190614876565b611455565b6040516106179190614b44565b60405180910390f35b61063a6004803603810190610635919061492b565b6116bf565b005b34801561064857600080fd5b50610663600480360381019061065e919061492b565b6116d5565b6040516106709190614773565b60405180910390f35b34801561068557600080fd5b5061068e6116f5565b6040516106a19796959493929190614c0f565b60405180910390f35b6106c460048036038101906106bf9190614c7e565b61179e565b005b6106e060048036038101906106db9190614d2c565b6117ed565b6040516106ed9190614b44565b60405180910390f35b6106fe611b3f565b005b34801561070c57600080fd5b5061072760048036038101906107229190614db4565b611b93565b604051610735929190614df4565b60405180910390f35b34801561074a57600080fd5b50610753611bf5565b6040516107609190614e2c565b60405180910390f35b34801561077557600080fd5b50610790600480360381019061078b9190614b5f565b611bfa565b60405161079d9190614b44565b60405180910390f35b3480156107b257600080fd5b506107cd60048036038101906107c89190614b5f565b611c15565b005b3480156107db57600080fd5b506107f660048036038101906107f19190614e81565b611d24565b005b34801561080457600080fd5b5061080d611dcd565b60405161081a9190614eae565b60405180910390f35b34801561082f57600080fd5b50610838611de3565b6040516108459190614f28565b60405180910390f35b34801561085a57600080fd5b50610863611e09565b6040516108709190614f64565b60405180910390f35b610893600480360381019061088e9190614c7e565b611e1b565b005b6108af60048036038101906108aa919061492b565b611e6a565b005b3480156108bd57600080fd5b506108d860048036038101906108d39190614fd5565b611e80565b005b3480156108e657600080fd5b5061090160048036038101906108fc919061492b565b611f13565b60405161090e9190614773565b60405180910390f35b34801561092357600080fd5b5061092c611f33565b6040516109399190614773565b60405180910390f35b61094a611f46565b005b34801561095857600080fd5b50610973600480360381019061096e91906150d7565b611f82565b005b34801561098157600080fd5b5061099c600480360381019061099791906150d7565b612032565b6040516109a9919061481e565b60405180910390f35b3480156109be57600080fd5b506109c761203c565b6040516109d491906148e4565b60405180910390f35b3480156109e957600080fd5b506109f2612062565b6040516109ff9190614e2c565b60405180910390f35b348015610a1457600080fd5b50610a2f6004803603810190610a2a9190614b5f565b612067565b604051610a3c9190614b44565b60405180910390f35b348015610a5157600080fd5b50610a6c6004803603810190610a679190614876565b61207f565b604051610a7991906148e4565b60405180910390f35b348015610a8e57600080fd5b50610a97612091565b604051610aa4919061481e565b60405180910390f35b348015610ab957600080fd5b50610ac2612123565b604051610acf9190614b44565b60405180910390f35b348015610ae457600080fd5b50610aff6004803603810190610afa9190614b5f565b612128565b604051610b0c9190614b44565b60405180910390f35b610b1d6121c8565b005b348015610b2b57600080fd5b50610b466004803603810190610b4191906150d7565b6121dc565b005b348015610b5457600080fd5b50610b5d61224f565b005b348015610b6b57600080fd5b50610b866004803603810190610b819190614876565b612251565b604051610b9391906151de565b60405180910390f35b348015610ba857600080fd5b50610bb161229d565b604051610bbe9190614b44565b60405180910390f35b348015610bd357600080fd5b50610bdc6122ac565b604051610be99190614b44565b60405180910390f35b348015610bfe57600080fd5b50610c196004803603810190610c149190615256565b6122b1565b604051610c269190614b44565b60405180910390f35b348015610c3b57600080fd5b50610c4461239a565b604051610c53939291906152e6565b60405180910390f35b348015610c6857600080fd5b50610c716123f4565b604051610c7e91906148e4565b60405180910390f35b348015610c9357600080fd5b50610cae6004803603810190610ca991906150d7565b612403565b005b348015610cbc57600080fd5b50610cc56124b3565b604051610cd2919061481e565b60405180910390f35b348015610ce757600080fd5b50610d026004803603810190610cfd9190615349565b6124c9565b005b348015610d1057600080fd5b50610d196124e2565b604051610d269190614b44565b60405180910390f35b348015610d3b57600080fd5b50610d446124f1565b604051610d519190614773565b60405180910390f35b348015610d6657600080fd5b50610d6f61250f565b604051610d7c9190614773565b60405180910390f35b348015610d9157600080fd5b50610dac6004803603810190610da79190615389565b612518565b005b610dc86004803603810190610dc39190615457565b6125ae565b005b348015610dd657600080fd5b50610ddf6125ff565b604051610dec91906154da565b60405180910390f35b348015610e0157600080fd5b50610e0a612613565b604051610e179190614e2c565b60405180910390f35b348015610e2c57600080fd5b50610e35612618565b604051610e429190614e2c565b60405180910390f35b348015610e5757600080fd5b50610e6061261d565b604051610e6d919061481e565b60405180910390f35b348015610e8257600080fd5b50610e9d6004803603810190610e989190614876565b6126ab565b604051610eaa919061481e565b60405180910390f35b348015610ebf57600080fd5b50610eda6004803603810190610ed5919061570f565b612749565b005b348015610ee857600080fd5b50610ef1612799565b005b348015610eff57600080fd5b50610f0861286b565b604051610f159190614b44565b60405180910390f35b348015610f2a57600080fd5b50610f33612870565b604051610f409190615758565b60405180910390f35b348015610f5557600080fd5b50610f706004803603810190610f6b9190614b5f565b61287b565b604051610f7d9190614b44565b60405180910390f35b348015610f9257600080fd5b50610fad6004803603810190610fa89190615915565b61288d565b005b348015610fbb57600080fd5b50610fc4612bee565b005b610fe06004803603810190610fdb919061492b565b612fad565b604051610fed9190614b44565b60405180910390f35b34801561100257600080fd5b5061100b613080565b6040516110189190614eae565b60405180910390f35b34801561102d57600080fd5b5061103661309a565b604051611043919061481e565b60405180910390f35b34801561105857600080fd5b50611073600480360381019061106e9190615a65565b61312c565b6040516110809190614773565b60405180910390f35b6110a3600480360381019061109e9190614b5f565b6131c9565b005b6110bf60048036038101906110ba9190614b5f565b61320a565b005b3480156110cd57600080fd5b506110d6613234565b6040516110e39190614773565b60405180910390f35b3480156110f857600080fd5b50611113600480360381019061110e9190614b5f565b613243565b6040516111209190614b44565b60405180910390f35b34801561113557600080fd5b50611150600480360381019061114b9190615aa5565b61325e565b005b600063e1b3426d60e01b7bffffffffffffffffffffffffffffffffffffffffffffffffffffffff1916827bffffffffffffffffffffffffffffffffffffffffffffffffffffffff1916148061120457507fe1b3426d000000000000000000000000000000000000000000000000000000007bffffffffffffffffffffffffffffffffffffffffffffffffffffffff1916827bffffffffffffffffffffffffffffffffffffffffffffffffffffffff1916145b806112145750611213826133ca565b5b806112635750632a55205a60e01b7bffffffffffffffffffffffffffffffffffffffffffffffffffffffff1916827bffffffffffffffffffffffffffffffffffffffffffffffffffffffff1916145b806112b257506301ffc9a760e01b7bffffffffffffffffffffffffffffffffffffffffffffffffffffffff1916827bffffffffffffffffffffffffffffffffffffffffffffffffffffffff1916145b9050919050565b606060006112c561345c565b5090508091505090565b60006112da826135b8565b6112ef576112ee63cf4700e460e01b613643565b5b6112f761364d565b600601600083815260200190815260200160002060000160009054906101000a900473ffffffffffffffffffffffffffffffffffffffff169050919050565b816113408161367a565b61134a8383613777565b505050565b6004805461135c90615b76565b80601f016020809104026020016040519081016040528092919081815260200182805461138890615b76565b80156113d55780601f106113aa576101008083540402835291602001916113d5565b820191906000526020600020905b8154815290600101906020018083116113b857829003601f168201915b505050505081565b6000815160051b5b801561140157816001828501511b1791506020810390506113e5565b50919050565b600161141281613787565b61141b826137be565b5050565b60006114296137fc565b61143161364d565b6001015461143d61364d565b600001540303905090565b6114523382613805565b50565b60008160ff811115611493576040517f851cf82a00000000000000000000000000000000000000000000000000000000815260040160405180910390fd5b82600061149e6124e2565b905060006114aa613080565b63ffffffff1690508083830111156115005760008282039050806040517f4d5c803f0000000000000000000000000000000000000000000000000000000081526004016114f79190614eae565b60405180910390fd5b50506000600860000160009054906101000a90046cffffffffffffffffffffffffff166cffffffffffffffffffffffffff16905084816115409190615bd6565b341461158e5784816115529190615bd6565b6040517f6a1c179e0000000000000000000000000000000000000000000000000000000081526004016115859190614b44565b60405180910390fd5b60006008600001600d9054906101000a900463ffffffff1663ffffffff161415801561163157506008600001600d9054906101000a900463ffffffff1663ffffffff16600b60003373ffffffffffffffffffffffffffffffffffffffff1673ffffffffffffffffffffffffffffffffffffffff168152602001908152602001600020548661161b33613854565b6116259190615c18565b61162f9190615c4c565b115b15611668576040517f220ae94c00000000000000000000000000000000000000000000000000000000815260040160405180910390fd5b6116706138b4565b935061167c33866138c7565b7f25b428dfde728ccfaddad7e29e4ac23c24ed7fd1a6e3e3f91894a9a073f5dfff3386866040516116af93929190615c80565b60405180910390a1505050919050565b6116c7613a4f565b6116d18282613a6c565b5050565b6000638b78c6d8600c528260005281826020600c20541614905092915050565b60088060000160009054906101000a90046cffffffffffffffffffffffffff169080600001600d9054906101000a900463ffffffff16908060000160119054906101000a900467ffffffffffffffff16908060010160009054906101000a900467ffffffffffffffff16908060010160089054906101000a900467ffffffffffffffff16908060010160109054906101000a900467ffffffffffffffff16908060020154905087565b823373ffffffffffffffffffffffffffffffffffffffff168173ffffffffffffffffffffffffffffffffffffffff16146117dc576117db3361367a565b5b6117e7848484613ab7565b50505050565b6000600260005403611834576040517f08c379a000000000000000000000000000000000000000000000000000000000815260040161182b90615d03565b60405180910390fd5b60026000819055508560006118476124e2565b90506000611853613080565b63ffffffff1690508083830111156118a95760008282039050806040517f4d5c803f0000000000000000000000000000000000000000000000000000000081526004016118a09190614eae565b60405180910390fd5b50506118b3613dae565b6118e9576040517f95ed3c1a00000000000000000000000000000000000000000000000000000000815260040160405180910390fd5b611964848480806020026020016040519081016040528093929190818152602001838360200280828437600081840152601f19601f8201169050808301925050505050505060086002015433898960405160200161194993929190615c80565b60405160208183030381529060405280519060200120613e0a565b61199a576040517f85b70e5200000000000000000000000000000000000000000000000000000000815260040160405180910390fd5b86856119a69190615bd6565b34146119f45786856119b89190615bd6565b6040517f6a1c179e0000000000000000000000000000000000000000000000000000000081526004016119eb9190614b44565b60405180910390fd5b86600b60003373ffffffffffffffffffffffffffffffffffffffff1673ffffffffffffffffffffffffffffffffffffffff1681526020019081526020016000206000828254611a439190615c18565b9250508190555085600b60003373ffffffffffffffffffffffffffffffffffffffff1673ffffffffffffffffffffffffffffffffffffffff168152602001908152602001600020541115611ac3576040517fa7b32bb100000000000000000000000000000000000000000000000000000000815260040160405180910390fd5b611acd33886138c7565b6000611ad76138b4565b905085883373ffffffffffffffffffffffffffffffffffffffff167f4e26b0356a15833a75d497ecc40ebbb716b99466ed0dba9454f1fff451e25a9084604051611b219190614b44565b60405180910390a48092505050600160008190555095945050505050565b6000611b49612870565b67ffffffffffffffff164201905063389a75e1600c5233600052806020600c2055337fdbf36a107da19e49527a7176a1babf963b4b0ff8cde35ee35d6cd8f1f9ac7e1d600080a250565b600080600560009054906101000a900473ffffffffffffffffffffffffffffffffffffffff16915061271061ffff166006601d9054906101000a900461ffff1661ffff1684611be29190615bd6565b611bec9190615d52565b90509250929050565b600181565b6000638b78c6d8600c52816000526020600c20549050919050565b6001611c2081613e21565b600073ffffffffffffffffffffffffffffffffffffffff168273ffffffffffffffffffffffffffffffffffffffff1603611c86576040517fb942d92000000000000000000000000000000000000000000000000000000000815260040160405180910390fd5b81600560006101000a81548173ffffffffffffffffffffffffffffffffffffffff021916908373ffffffffffffffffffffffffffffffffffffffff1602179055507f8442bcb3c78bbc2d0a1a10dd2c2ba99ef8058b97c2843a976f7ca7edbfe9d3f1600560009054906101000a900473ffffffffffffffffffffffffffffffffffffffff16604051611d1891906148e4565b60405180910390a15050565b6001611d2f81613e21565b8161271061ffff168161ffff161115611d74576040517fca88643800000000000000000000000000000000000000000000000000000000815260040160405180910390fd5b826006601d6101000a81548161ffff021916908361ffff1602179055507f092d0aa94dc2b378c7fd77faaaf4cb3fd8336ae247cd486fb593726705772ac083604051611dc091906154da565b60405180910390a1505050565b600160009054906101000a900463ffffffff1681565b600660009054906101000a900473ffffffffffffffffffffffffffffffffffffffff1681565b6daaeb6d7670e522a718067333cd4e81565b823373ffffffffffffffffffffffffffffffffffffffff168173ffffffffffffffffffffffffffffffffffffffff1614611e5957611e583361367a565b5b611e64848484613e58565b50505050565b611e72613a4f565b611e7c8282613805565b5050565b6001611e8b81613e21565b600c60009054906101000a900460ff1615611ea557600080fd5b6001600c60006101000a81548160ff021916908315150217905550828260039182611ed1929190615f30565b507f518159e6371cd5b4c2aadcb329217344ee78b366cd3730e987f31878702401b683836001604051611f069392919061602d565b60405180910390a1505050565b6000638b78c6d8600c5282600052816020600c2054161515905092915050565b600c60009054906101000a900460ff1681565b63389a75e1600c523360005260006020600c2055337ffa7b8eab7da67f412cc9575ed43464468f9bfbae89d1675917346ca6d8fe3c92600080a2565b6001611f8d81613e21565b600060016006601f9054906101000a900460ff161660ff1614611fdc576040517fb087bbf300000000000000000000000000000000000000000000000000000000815260040160405180910390fd5b8160039081611feb919061605f565b5081604051611ffa919061616d565b60405180910390207ff9c7803e94e0d3c02900d8a90893a6d5e90dd04d32a4cfe825520f82bf9f32f660405160405180910390a25050565b6060819050919050565b600560009054906101000a900473ffffffffffffffffffffffffffffffffffffffff1681565b600481565b600b6020528060005260406000206000915090505481565b600061208a82613e78565b9050919050565b6060600380546120a090615b76565b80601f01602080910402602001604051908101604052809291908181526020018280546120cc90615b76565b80156121195780601f106120ee57610100808354040283529160200191612119565b820191906000526020600020905b8154815290600101906020018083116120fc57829003601f168201915b5050505050905090565b60ff81565b60008073ffffffffffffffffffffffffffffffffffffffff168273ffffffffffffffffffffffffffffffffffffffff160361216e5761216d638f4eb60460e01b613643565b5b67ffffffffffffffff61217f61364d565b60050160008473ffffffffffffffffffffffffffffffffffffffff1673ffffffffffffffffffffffffffffffffffffffff16815260200190815260200160002054169050919050565b6121d0613a4f565b6121da60006137be565b565b60016121e781613e21565b600c60009054906101000a900460ff161561220157600080fd5b8160039081612210919061605f565b507f518159e6371cd5b4c2aadcb329217344ee78b366cd3730e987f31878702401b6826000604051612243929190616184565b60405180910390a15050565b565b60606040519050602081016000835b600115612286578183526001811660051b8301925060018201915084821c905080612260575b5060208301820360051c8352816040525050919050565b60006122a76138b4565b905090565b600181565b600060016122be81613e21565b600085859050036122fb576040517fe10344d500000000000000000000000000000000000000000000000000000000815260040160405180910390fd5b6123036138b4565b9150600085859050905060005b8181146123535761234887878381811061232d5761232c6161b4565b5b90506020020160208101906123429190614b5f565b866138c7565b806001019050612310565b50507ffe9ac969bdc4dbb3461e515fb1f4b43a4bf6d21274b0c195082e75bcb586ead38585858560405161238a94939291906162a6565b60405180910390a1509392505050565b60078060000160009054906101000a900467ffffffffffffffff16908060000160089054906101000a900461ffff169080600001600a9054906101000a900473ffffffffffffffffffffffffffffffffffffffff16905083565b60006123fe613f7f565b905090565b600161240e81613e21565b600060016006601f9054906101000a900460ff161660ff161461245d576040517fb087bbf300000000000000000000000000000000000000000000000000000000815260040160405180910390fd5b816004908161246c919061605f565b508160405161247b919061616d565b60405180910390207faf497693a87db12ca89131a31edbb3db4bb5702dfb284e8ae7427d185f09112d60405160405180910390a25050565b606060006124bf61345c565b9150508091505090565b816124d38161367a565b6124dd8383613f8d565b505050565b60006124ec6140a1565b905090565b60006124fb613080565b63ffffffff166125096140a1565b14905090565b60006001905090565b600161252381613e21565b81151561252e613234565b1515146125735760046006601f8282829054906101000a900460ff161892506101000a81548160ff021916908360ff16021790555081156125725761257161224f565b5b5b7fdf13a96ac57161f0b62aae644560a12a80c1877faac821ee18874355ff1ab73b826040516125a29190614773565b60405180910390a15050565b833373ffffffffffffffffffffffffffffffffffffffff168173ffffffffffffffffffffffffffffffffffffffff16146125ec576125eb3361367a565b5b6125f8858585856140bd565b5050505050565b6006601d9054906101000a900461ffff1681565b600281565b600881565b6003805461262a90615b76565b80601f016020809104026020016040519081016040528092919081815260200182805461265690615b76565b80156126a35780601f10612678576101008083540402835291602001916126a3565b820191906000526020600020905b81548152906001019060200180831161268657829003601f168201915b505050505081565b60606126b6826135b8565b6126ec576040517fa14c4b5000000000000000000000000000000000000000000000000000000000815260040160405180910390fd5b60006126f6612091565b905060008151036127165760405180602001604052806000815250612741565b806127208461410f565b6040516020016127319291906162e6565b6040516020818303038152906040525b915050919050565b600161275481613e21565b60008251905060005b818110156127935761278884828151811061277b5761277a6161b4565b5b602002602001015161415f565b80600101905061275d565b50505050565b60016127a481613e21565b600060016006601f9054906101000a900460ff161660ff16146127f3576040517fb087bbf300000000000000000000000000000000000000000000000000000000815260040160405180910390fd5b60016006601f8282829054906101000a900460ff161792506101000a81548160ff021916908360ff1602179055507f3cd3338a64f0386bca46b40bd96e90a61be656a5183dc54b430d8626e133327361284a612091565b61285261309a565b60405161286092919061630a565b60405180910390a150565b600281565b60006202a300905090565b600061288682613854565b9050919050565b8461271061ffff168161ffff1611156128d2576040517fca88643800000000000000000000000000000000000000000000000000000000815260040160405180910390fd5b60006128dc6138b4565b14612913576040517f82b4290000000000000000000000000000000000000000000000000000000000815260040160405180910390fd5b600073ffffffffffffffffffffffffffffffffffffffff168773ffffffffffffffffffffffffffffffffffffffff1603612979576040517fb942d92000000000000000000000000000000000000000000000000000000000815260040160405180910390fd5b6129838b8b6141be565b61298b6137fc565b61299361364d565b600001819055506129a33361421b565b88600390816129b2919061605f565b5087600490816129c2919061605f565b5086600560006101000a81548173ffffffffffffffffffffffffffffffffffffffff021916908373ffffffffffffffffffffffffffffffffffffffff16021790555084600860008201518160000160006101000a8154816cffffffffffffffffffffffffff02191690836cffffffffffffffffffffffffff160217905550602082015181600001600d6101000a81548163ffffffff021916908363ffffffff16021790555060408201518160000160116101000a81548167ffffffffffffffff021916908367ffffffffffffffff16021790555060608201518160010160006101000a81548167ffffffffffffffff021916908367ffffffffffffffff16021790555060808201518160010160086101000a81548167ffffffffffffffff021916908367ffffffffffffffff16021790555060a08201518160010160106101000a81548167ffffffffffffffff021916908367ffffffffffffffff16021790555060c08201518160020155905050826006601f6101000a81548160ff021916908360ff160217905550856006601d6101000a81548161ffff021916908361ffff16021790555081600660006101000a81548173ffffffffffffffffffffffffffffffffffffffff021916908373ffffffffffffffffffffffffffffffffffffffff16021790555083600160006101000a81548163ffffffff021916908363ffffffff16021790555060006004841660ff1614612be157612be061224f565b5b5050505050505050505050565b600260005403612c33576040517f08c379a0000000000000000000000000000000000000000000000000000000008152600401612c2a90615d03565b60405180910390fd5b600260008190555060004790506000600660009054906101000a900473ffffffffffffffffffffffffffffffffffffffff1673ffffffffffffffffffffffffffffffffffffffff1663e714942d6040518163ffffffff1660e01b8152600401602060405180830381865afa158015612caf573d6000803e3d6000fd5b505050506040513d601f19601f82011682018060405250810190612cd39190616356565b90506000600660009054906101000a900473ffffffffffffffffffffffffffffffffffffffff1673ffffffffffffffffffffffffffffffffffffffff16630d411b21846040518263ffffffff1660e01b8152600401612d3291906163ae565b602060405180830381865afa158015612d4f573d6000803e3d6000fd5b505050506040513d601f19601f82011682018060405250810190612d7391906163f5565b6fffffffffffffffffffffffffffffffff1690506000811115612e495760008273ffffffffffffffffffffffffffffffffffffffff16826203345090604051612dbb90616453565b600060405180830381858888f193505050503d8060008114612df9576040519150601f19603f3d011682016040523d82523d6000602084013e612dfe565b606091505b5050905080612e39576040517fd3c0b1f400000000000000000000000000000000000000000000000000000000815260040160405180910390fd5b8184612e459190615c4c565b9350505b6000600560009054906101000a900473ffffffffffffffffffffffffffffffffffffffff1673ffffffffffffffffffffffffffffffffffffffff16846203345090604051612e9690616453565b600060405180830381858888f193505050503d8060008114612ed4576040519150601f19603f3d011682016040523d82523d6000602084013e612ed9565b606091505b5050905080612f14576040517fd3c0b1f400000000000000000000000000000000000000000000000000000000815260040160405180910390fd5b600560009054906101000a900473ffffffffffffffffffffffffffffffffffffffff1673ffffffffffffffffffffffffffffffffffffffff163373ffffffffffffffffffffffffffffffffffffffff167f8a95554e4c9dcaaf33f247387f2ee77390780487d3365e3a804788791a1df500868686604051612f9793929190616468565b60405180910390a3505050506001600081905550565b60006001612fba81613e21565b826000612fc56124e2565b90506000612fd1613080565b63ffffffff1690508083830111156130275760008282039050806040517f4d5c803f00000000000000000000000000000000000000000000000000000000815260040161301e9190614eae565b60405180910390fd5b50506130316138b4565b925061303d85856138c7565b7f25b428dfde728ccfaddad7e29e4ac23c24ed7fd1a6e3e3f91894a9a073f5dfff85858560405161307093929190615c80565b60405180910390a1505092915050565b6000600160009054906101000a900463ffffffff16905090565b6060600480546130a990615b76565b80601f01602080910402602001604051908101604052809291908181526020018280546130d590615b76565b80156131225780601f106130f757610100808354040283529160200191613122565b820191906000526020600020905b81548152906001019060200180831161310557829003601f168201915b5050505050905090565b600061313661364d565b60070160008473ffffffffffffffffffffffffffffffffffffffff1673ffffffffffffffffffffffffffffffffffffffff16815260200190815260200160002060008373ffffffffffffffffffffffffffffffffffffffff1673ffffffffffffffffffffffffffffffffffffffff16815260200190815260200160002060009054906101000a900460ff16905092915050565b6131d1613a4f565b63389a75e1600c52806000526020600c2080544211156131f957636f5e88186000526004601cfd5b6000815550613207816137be565b50565b613212613a4f565b8060601b61322857637448fbae6000526004601cfd5b613231816137be565b50565b600061323e61250f565b905090565b600063389a75e1600c52816000526020600c20549050919050565b600161326981613e21565b87600860000160006101000a8154816cffffffffffffffffffffffffff02191690836cffffffffffffffffffffffffff160217905550866008600001600d6101000a81548163ffffffff021916908363ffffffff16021790555085600860000160116101000a81548167ffffffffffffffff021916908367ffffffffffffffff16021790555084600860010160006101000a81548167ffffffffffffffff021916908367ffffffffffffffff16021790555083600860010160086101000a81548167ffffffffffffffff021916908367ffffffffffffffff16021790555082600860010160106101000a81548167ffffffffffffffff021916908367ffffffffffffffff160217905550816008600201819055503373ffffffffffffffffffffffffffffffffffffffff167fc1ff5e4744ac8dd2b8027a10e3723b165975297501c71c4e7dcb8796d96375db60405160405180910390a25050505050505050565b60006301ffc9a760e01b827bffffffffffffffffffffffffffffffffffffffffffffffffffffffff1916148061342557506380ac58cd60e01b827bffffffffffffffffffffffffffffffffffffffffffffffffffffffff1916145b806134555750635b5e139f60e01b827bffffffffffffffffffffffffffffffffffffffffffffffffffffffff1916145b9050919050565b606080600060025490506000801b81146134865761347981614257565b80935081945050506135b3565b61348e61364d565b600201805461349c90615b76565b80601f01602080910402602001604051908101604052809291908181526020018280546134c890615b76565b80156135155780601f106134ea57610100808354040283529160200191613515565b820191906000526020600020905b8154815290600101906020018083116134f857829003601f168201915b5050505050925061352461364d565b600301805461353290615b76565b80601f016020809104026020016040519081016040528092919081815260200182805461355e90615b76565b80156135ab5780601f10613580576101008083540402835291602001916135ab565b820191906000526020600020905b81548152906001019060200180831161358e57829003601f168201915b505050505091505b509091565b6000816135c36137fc565b1161363e576135d061364d565b6000015482101561363d5760005b60006135e861364d565b60040160008581526020019081526020016000205491508103613616578261360f9061649f565b92506135de565b60007c01000000000000000000000000000000000000000000000000000000008216149150505b5b919050565b8060005260046000fd5b6000807f2569078dfb4b0305704d3008e7403993ae9601b85f7ae5e742de3de8f8011c4090508091505090565b60006daaeb6d7670e522a718067333cd4e73ffffffffffffffffffffffffffffffffffffffff163b1115613774576daaeb6d7670e522a718067333cd4e73ffffffffffffffffffffffffffffffffffffffff1663c617113430836040518363ffffffff1660e01b81526004016136f19291906164c8565b602060405180830381865afa15801561370e573d6000803e3d6000fd5b505050506040513d601f19601f820116820180604052508101906137329190616506565b61377357806040517fede71dcc00000000000000000000000000000000000000000000000000000000815260040161376a91906148e4565b60405180910390fd5b5b50565b613783828260016142a0565b5050565b638b78c6d8195433146137bb57638b78c6d8600c5233600052806020600c2054166137ba576382b429006000526004601cfd5b5b50565b638b78c6d8198160601b60601c91508181547f8be0079c531659141344cd1fd0a4f28419497f9722a3daafe3b4186f6b6457e0600080a38181555050565b60006001905090565b638b78c6d8600c52816000526020600c2080548281168118925082825582600c5160601c7f715ad5ce61fc9595c7b415289d59cf203f23a94fa06f04af7e489a0a76e1fe26600080a350505050565b600067ffffffffffffffff604061386961364d565b60050160008573ffffffffffffffffffffffffffffffffffffffff1673ffffffffffffffffffffffffffffffffffffffff16815260200190815260200160002054901c169050919050565b60006138be61364d565b60000154905090565b60006138d161364d565b600001549050600082036138f0576138ef63b562e8dd60e01b613643565b5b6138fd60008483856143d8565b61391d8361390e60008660006143de565b61391785614406565b17614416565b61392561364d565b600401600083815260200190815260200160002081905550600160406001901b17820261395061364d565b60050160008573ffffffffffffffffffffffffffffffffffffffff1673ffffffffffffffffffffffffffffffffffffffff16815260200190815260200160002060008282540192505081905550600073ffffffffffffffffffffffffffffffffffffffff8473ffffffffffffffffffffffffffffffffffffffff16169050600081036139e7576139e6632e07630060e01b613643565b5b6000838301905060008390505b808360007fddf252ad1be2c89b69c2b068fc378daa952ba7f163c4a11628f55a4df523b3ef600080a48181600101915081036139f45781613a3361364d565b60000181905550505050613a4a6000848385614441565b505050565b638b78c6d819543314613a6a576382b429006000526004601cfd5b565b638b78c6d8600c52816000526020600c2081815417915081815581600c5160601c7f715ad5ce61fc9595c7b415289d59cf203f23a94fa06f04af7e489a0a76e1fe26600080a3505050565b6000613ac282613e78565b905073ffffffffffffffffffffffffffffffffffffffff8473ffffffffffffffffffffffffffffffffffffffff161693508373ffffffffffffffffffffffffffffffffffffffff168173ffffffffffffffffffffffffffffffffffffffff1614613b3757613b3663a114810060e01b613643565b5b600080613b4384614447565b91509150613b598187613b54614477565b61447f565b613b8457613b6e86613b69614477565b61312c565b613b8357613b826359c896be60e01b613643565b5b5b613b9186868660016143d8565b8015613b9c57600082555b613ba461364d565b60050160008773ffffffffffffffffffffffffffffffffffffffff1673ffffffffffffffffffffffffffffffffffffffff168152602001908152602001600020600081546001900391905081905550613bfb61364d565b60050160008673ffffffffffffffffffffffffffffffffffffffff1673ffffffffffffffffffffffffffffffffffffffff1681526020019081526020016000206000815460010191905081905550613c7c85613c588888876143de565b7c020000000000000000000000000000000000000000000000000000000017614416565b613c8461364d565b60040160008681526020019081526020016000208190555060007c0200000000000000000000000000000000000000000000000000000000841603613d265760006001850190506000613cd561364d565b60040160008381526020019081526020016000205403613d2457613cf761364d565b600001548114613d235783613d0a61364d565b6004016000838152602001908152602001600020819055505b5b505b600073ffffffffffffffffffffffffffffffffffffffff8673ffffffffffffffffffffffffffffffffffffffff161690508481887fddf252ad1be2c89b69c2b068fc378daa952ba7f163c4a11628f55a4df523b3ef600080a460008103613d9857613d9763ea553b3460e01b613643565b5b613da58787876001614441565b50505050505050565b600042600860010160089054906101000a900467ffffffffffffffff1667ffffffffffffffff1611158015613e05575042600860010160109054906101000a900467ffffffffffffffff1667ffffffffffffffff16115b905090565b600082613e1785846144c3565b1490509392505050565b638b78c6d8600c5233600052806020600c205416613e5557638b78c6d819543314613e54576382b429006000526004601cfd5b5b50565b613e73838383604051806020016040528060008152506125ae565b505050565b600081613e836137fc565b11613f6957613e9061364d565b600401600083815260200190815260200160002054905060008103613f4057613eb761364d565b600001548210613ed257613ed163df2d9b4260e01b613643565b5b5b613edb61364d565b6004016000836001900393508381526020019081526020016000205490506000810315613f3b5760007c010000000000000000000000000000000000000000000000000000000082160315613f7a57613f3a63df2d9b4260e01b613643565b5b613ed3565b60007c010000000000000000000000000000000000000000000000000000000082160315613f7a575b613f7963df2d9b4260e01b613643565b5b919050565b6000638b78c6d81954905090565b80613f9661364d565b6007016000613fa3614477565b73ffffffffffffffffffffffffffffffffffffffff1673ffffffffffffffffffffffffffffffffffffffff16815260200190815260200160002060008473ffffffffffffffffffffffffffffffffffffffff1673ffffffffffffffffffffffffffffffffffffffff16815260200190815260200160002060006101000a81548160ff0219169083151502179055508173ffffffffffffffffffffffffffffffffffffffff16614050614477565b73ffffffffffffffffffffffffffffffffffffffff167f17307eab39ab6107e8899845ad3d59bd9653f200f220920489ca2b5937696c31836040516140959190614773565b60405180910390a35050565b60006140ab6137fc565b6140b361364d565b6000015403905090565b6140c884848461179e565b60008373ffffffffffffffffffffffffffffffffffffffff163b14614109576140f384848484614519565b6141085761410763d1a57ed660e01b613643565b5b5b50505050565b606060a060405101806040526020810391506000825281835b60011561414a57600184039350600a81066030018453600a8104905080614128575b50828103602084039350808452505050919050565b6000816020015151905060005b818110156141b95760008360200151828151811061418d5761418c6161b4565b5b602002602001015190506141ad6141a26123f4565b856000015183611e1b565b8160010191505061416c565b505050565b60006141ca8383614648565b90506000801b810361420e57826141df61364d565b60020190816141ee919061605f565b50816141f861364d565b6003019081614207919061605f565b5050614217565b80600281905550505b5050565b8060601b60601c905080638b78c6d819558060007f8be0079c531659141344cd1fd0a4f28419497f9722a3daafe3b4186f6b6457e0600080a350565b606080604051915060408201905060408101604052600082526000815282601f8301528151602083010151601f8201526000825160208401015260008151602083010152915091565b60006142ab8361207f565b90508180156142ed57508073ffffffffffffffffffffffffffffffffffffffff166142d4614477565b73ffffffffffffffffffffffffffffffffffffffff1614155b1561431957614303816142fe614477565b61312c565b6143185761431763cfb3b94260e01b613643565b5b5b8361432261364d565b600601600085815260200190815260200160002060000160006101000a81548173ffffffffffffffffffffffffffffffffffffffff021916908373ffffffffffffffffffffffffffffffffffffffff160217905550828473ffffffffffffffffffffffffffffffffffffffff168273ffffffffffffffffffffffffffffffffffffffff167f8c5be1e5ebec7d5bd14f71427d1e84f3dd0314c0f7b2291e5b200ac8c7c3b92560405160405180910390a450505050565b50505050565b60008060e883901c905060e86143f5868684614674565b62ffffff16901b9150509392505050565b60006001821460e11b9050919050565b600073ffffffffffffffffffffffffffffffffffffffff83169250814260a01b178317905092915050565b50505050565b600080600061445461364d565b600601600085815260200190815260200160002090508092508254915050915091565b600033905090565b600073ffffffffffffffffffffffffffffffffffffffff8316925073ffffffffffffffffffffffffffffffffffffffff821691508382148383141790509392505050565b60008082905060005b845181101561450e576144f9828683815181106144ec576144eb6161b4565b5b602002602001015161467d565b9150808061450690616533565b9150506144cc565b508091505092915050565b60008373ffffffffffffffffffffffffffffffffffffffff1663150b7a0261453f614477565b8786866040518563ffffffff1660e01b815260040161456194939291906165d0565b6020604051808303816000875af192505050801561459d57506040513d601f19601f8201168201806040525081019061459a9190616631565b60015b6145f5573d80600081146145cd576040519150601f19603f3d011682016040523d82523d6000602084013e6145d2565b606091505b5060008151036145ed576145ec63d1a57ed660e01b613643565b5b805181602001fd5b63150b7a0260e01b7bffffffffffffffffffffffffffffffffffffffffffffffffffffffff1916817bffffffffffffffffffffffffffffffffffffffffffffffffffffffff191614915050949350505050565b60008251601e600184518301031081601e850103518286015183601f0360031b1b170291505092915050565b60009392505050565b60008183106146955761469082846146a8565b6146a0565b61469f83836146a8565b5b905092915050565b600082600052816020526040600020905092915050565b6000604051905090565b600080fd5b600080fd5b60007fffffffff0000000000000000000000000000000000000000000000000000000082169050919050565b614708816146d3565b811461471357600080fd5b50565b600081359050614725816146ff565b92915050565b600060208284031215614741576147406146c9565b5b600061474f84828501614716565b91505092915050565b60008115159050919050565b61476d81614758565b82525050565b60006020820190506147886000830184614764565b92915050565b600081519050919050565b600082825260208201905092915050565b60005b838110156147c85780820151818401526020810190506147ad565b60008484015250505050565b6000601f19601f8301169050919050565b60006147f08261478e565b6147fa8185614799565b935061480a8185602086016147aa565b614813816147d4565b840191505092915050565b6000602082019050818103600083015261483881846147e5565b905092915050565b6000819050919050565b61485381614840565b811461485e57600080fd5b50565b6000813590506148708161484a565b92915050565b60006020828403121561488c5761488b6146c9565b5b600061489a84828501614861565b91505092915050565b600073ffffffffffffffffffffffffffffffffffffffff82169050919050565b60006148ce826148a3565b9050919050565b6148de816148c3565b82525050565b60006020820190506148f960008301846148d5565b92915050565b614908816148c3565b811461491357600080fd5b50565b600081359050614925816148ff565b92915050565b60008060408385031215614942576149416146c9565b5b600061495085828601614916565b925050602061496185828601614861565b9150509250929050565b600080fd5b7f4e487b7100000000000000000000000000000000000000000000000000000000600052604160045260246000fd5b6149a8826147d4565b810181811067ffffffffffffffff821117156149c7576149c6614970565b5b80604052505050565b60006149da6146bf565b90506149e6828261499f565b919050565b600067ffffffffffffffff821115614a0657614a05614970565b5b602082029050602081019050919050565b600080fd5b600060ff82169050919050565b614a3281614a1c565b8114614a3d57600080fd5b50565b600081359050614a4f81614a29565b92915050565b6000614a68614a63846149eb565b6149d0565b90508083825260208201905060208402830185811115614a8b57614a8a614a17565b5b835b81811015614ab45780614aa08882614a40565b845260208401935050602081019050614a8d565b5050509392505050565b600082601f830112614ad357614ad261496b565b5b8135614ae3848260208601614a55565b91505092915050565b600060208284031215614b0257614b016146c9565b5b600082013567ffffffffffffffff811115614b2057614b1f6146ce565b5b614b2c84828501614abe565b91505092915050565b614b3e81614840565b82525050565b6000602082019050614b596000830184614b35565b92915050565b600060208284031215614b7557614b746146c9565b5b6000614b8384828501614916565b91505092915050565b60006cffffffffffffffffffffffffff82169050919050565b614bae81614b8c565b82525050565b600063ffffffff82169050919050565b614bcd81614bb4565b82525050565b600067ffffffffffffffff82169050919050565b614bf081614bd3565b82525050565b6000819050919050565b614c0981614bf6565b82525050565b600060e082019050614c24600083018a614ba5565b614c316020830189614bc4565b614c3e6040830188614be7565b614c4b6060830187614be7565b614c586080830186614be7565b614c6560a0830185614be7565b614c7260c0830184614c00565b98975050505050505050565b600080600060608486031215614c9757614c966146c9565b5b6000614ca586828701614916565b9350506020614cb686828701614916565b9250506040614cc786828701614861565b9150509250925092565b600080fd5b60008083601f840112614cec57614ceb61496b565b5b8235905067ffffffffffffffff811115614d0957614d08614cd1565b5b602083019150836020820283011115614d2557614d24614a17565b5b9250929050565b600080600080600060808688031215614d4857614d476146c9565b5b6000614d5688828901614861565b9550506020614d6788828901614861565b9450506040614d7888828901614861565b935050606086013567ffffffffffffffff811115614d9957614d986146ce565b5b614da588828901614cd6565b92509250509295509295909350565b60008060408385031215614dcb57614dca6146c9565b5b6000614dd985828601614861565b9250506020614dea85828601614861565b9150509250929050565b6000604082019050614e0960008301856148d5565b614e166020830184614b35565b9392505050565b614e2681614a1c565b82525050565b6000602082019050614e416000830184614e1d565b92915050565b600061ffff82169050919050565b614e5e81614e47565b8114614e6957600080fd5b50565b600081359050614e7b81614e55565b92915050565b600060208284031215614e9757614e966146c9565b5b6000614ea584828501614e6c565b91505092915050565b6000602082019050614ec36000830184614bc4565b92915050565b6000819050919050565b6000614eee614ee9614ee4846148a3565b614ec9565b6148a3565b9050919050565b6000614f0082614ed3565b9050919050565b6000614f1282614ef5565b9050919050565b614f2281614f07565b82525050565b6000602082019050614f3d6000830184614f19565b92915050565b6000614f4e82614ef5565b9050919050565b614f5e81614f43565b82525050565b6000602082019050614f796000830184614f55565b92915050565b60008083601f840112614f9557614f9461496b565b5b8235905067ffffffffffffffff811115614fb257614fb1614cd1565b5b602083019150836001820283011115614fce57614fcd614a17565b5b9250929050565b60008060208385031215614fec57614feb6146c9565b5b600083013567ffffffffffffffff81111561500a576150096146ce565b5b61501685828601614f7f565b92509250509250929050565b600080fd5b600067ffffffffffffffff82111561504257615041614970565b5b61504b826147d4565b9050602081019050919050565b82818337600083830152505050565b600061507a61507584615027565b6149d0565b90508281526020810184848401111561509657615095615022565b5b6150a1848285615058565b509392505050565b600082601f8301126150be576150bd61496b565b5b81356150ce848260208601615067565b91505092915050565b6000602082840312156150ed576150ec6146c9565b5b600082013567ffffffffffffffff81111561510b5761510a6146ce565b5b615117848285016150a9565b91505092915050565b600081519050919050565b600082825260208201905092915050565b6000819050602082019050919050565b61515581614a1c565b82525050565b6000615167838361514c565b60208301905092915050565b6000602082019050919050565b600061518b82615120565b615195818561512b565b93506151a08361513c565b8060005b838110156151d15781516151b8888261515b565b97506151c383615173565b9250506001810190506151a4565b5085935050505092915050565b600060208201905081810360008301526151f88184615180565b905092915050565b60008083601f8401126152165761521561496b565b5b8235905067ffffffffffffffff81111561523357615232614cd1565b5b60208301915083602082028301111561524f5761524e614a17565b5b9250929050565b60008060006040848603121561526f5761526e6146c9565b5b600084013567ffffffffffffffff81111561528d5761528c6146ce565b5b61529986828701615200565b935093505060206152ac86828701614861565b9150509250925092565b6152bf81614e47565b82525050565b60006152d0826148a3565b9050919050565b6152e0816152c5565b82525050565b60006060820190506152fb6000830186614be7565b61530860208301856152b6565b61531560408301846152d7565b949350505050565b61532681614758565b811461533157600080fd5b50565b6000813590506153438161531d565b92915050565b600080604083850312156153605761535f6146c9565b5b600061536e85828601614916565b925050602061537f85828601615334565b9150509250929050565b60006020828403121561539f5761539e6146c9565b5b60006153ad84828501615334565b91505092915050565b600067ffffffffffffffff8211156153d1576153d0614970565b5b6153da826147d4565b9050602081019050919050565b60006153fa6153f5846153b6565b6149d0565b90508281526020810184848401111561541657615415615022565b5b615421848285615058565b509392505050565b600082601f83011261543e5761543d61496b565b5b813561544e8482602086016153e7565b91505092915050565b60008060008060808587031215615471576154706146c9565b5b600061547f87828801614916565b945050602061549087828801614916565b93505060406154a187828801614861565b925050606085013567ffffffffffffffff8111156154c2576154c16146ce565b5b6154ce87828801615429565b91505092959194509250565b60006020820190506154ef60008301846152b6565b92915050565b600067ffffffffffffffff8211156155105761550f614970565b5b602082029050602081019050919050565b600080fd5b600080fd5b600067ffffffffffffffff82111561554657615545614970565b5b602082029050602081019050919050565b600061556a6155658461552b565b6149d0565b9050808382526020820190506020840283018581111561558d5761558c614a17565b5b835b818110156155b657806155a28882614861565b84526020840193505060208101905061558f565b5050509392505050565b600082601f8301126155d5576155d461496b565b5b81356155e5848260208601615557565b91505092915050565b60006040828403121561560457615603615521565b5b61560e60406149d0565b9050600061561e84828501614916565b600083015250602082013567ffffffffffffffff81111561564257615641615526565b5b61564e848285016155c0565b60208301525092915050565b600061566d615668846154f5565b6149d0565b905080838252602082019050602084028301858111156156905761568f614a17565b5b835b818110156156d757803567ffffffffffffffff8111156156b5576156b461496b565b5b8086016156c289826155ee565b85526020850194505050602081019050615692565b5050509392505050565b600082601f8301126156f6576156f561496b565b5b813561570684826020860161565a565b91505092915050565b600060208284031215615725576157246146c9565b5b600082013567ffffffffffffffff811115615743576157426146ce565b5b61574f848285016156e1565b91505092915050565b600060208201905061576d6000830184614be7565b92915050565b61577c81614b8c565b811461578757600080fd5b50565b60008135905061579981615773565b92915050565b6157a881614bb4565b81146157b357600080fd5b50565b6000813590506157c58161579f565b92915050565b6157d481614bd3565b81146157df57600080fd5b50565b6000813590506157f1816157cb565b92915050565b61580081614bf6565b811461580b57600080fd5b50565b60008135905061581d816157f7565b92915050565b600060e0828403121561583957615838615521565b5b61584360e06149d0565b905060006158538482850161578a565b6000830152506020615867848285016157b6565b602083015250604061587b848285016157e2565b604083015250606061588f848285016157e2565b60608301525060806158a3848285016157e2565b60808301525060a06158b7848285016157e2565b60a08301525060c06158cb8482850161580e565b60c08301525092915050565b60006158e2826148c3565b9050919050565b6158f2816158d7565b81146158fd57600080fd5b50565b60008135905061590f816158e9565b92915050565b6000806000806000806000806000806102008b8d031215615939576159386146c9565b5b60008b013567ffffffffffffffff811115615957576159566146ce565b5b6159638d828e016150a9565b9a505060208b013567ffffffffffffffff811115615984576159836146ce565b5b6159908d828e016150a9565b99505060408b013567ffffffffffffffff8111156159b1576159b06146ce565b5b6159bd8d828e016150a9565b98505060608b013567ffffffffffffffff8111156159de576159dd6146ce565b5b6159ea8d828e016150a9565b97505060806159fb8d828e01614916565b96505060a0615a0c8d828e01614e6c565b95505060c0615a1d8d828e01615823565b9450506101a0615a2f8d828e016157b6565b9350506101c0615a418d828e01614a40565b9250506101e0615a538d828e01615900565b9150509295989b9194979a5092959850565b60008060408385031215615a7c57615a7b6146c9565b5b6000615a8a85828601614916565b9250506020615a9b85828601614916565b9150509250929050565b600080600080600080600060e0888a031215615ac457615ac36146c9565b5b6000615ad28a828b0161578a565b9750506020615ae38a828b016157b6565b9650506040615af48a828b016157e2565b9550506060615b058a828b016157e2565b9450506080615b168a828b016157e2565b93505060a0615b278a828b016157e2565b92505060c0615b388a828b0161580e565b91505092959891949750929550565b7f4e487b7100000000000000000000000000000000000000000000000000000000600052602260045260246000fd5b60006002820490506001821680615b8e57607f821691505b602082108103615ba157615ba0615b47565b5b50919050565b7f4e487b7100000000000000000000000000000000000000000000000000000000600052601160045260246000fd5b6000615be182614840565b9150615bec83614840565b9250828202615bfa81614840565b91508282048414831517615c1157615c10615ba7565b5b5092915050565b6000615c2382614840565b9150615c2e83614840565b9250828201905080821115615c4657615c45615ba7565b5b92915050565b6000615c5782614840565b9150615c6283614840565b9250828203905081811115615c7a57615c79615ba7565b5b92915050565b6000606082019050615c9560008301866148d5565b615ca26020830185614b35565b615caf6040830184614b35565b949350505050565b7f5265656e7472616e637947756172643a207265656e7472616e742063616c6c00600082015250565b6000615ced601f83614799565b9150615cf882615cb7565b602082019050919050565b60006020820190508181036000830152615d1c81615ce0565b9050919050565b7f4e487b7100000000000000000000000000000000000000000000000000000000600052601260045260246000fd5b6000615d5d82614840565b9150615d6883614840565b925082615d7857615d77615d23565b5b828204905092915050565b600082905092915050565b60008190508160005260206000209050919050565b60006020601f8301049050919050565b600082821b905092915050565b600060088302615df07fffffffffffffffffffffffffffffffffffffffffffffffffffffffffffffffff82615db3565b615dfa8683615db3565b95508019841693508086168417925050509392505050565b6000615e2d615e28615e2384614840565b614ec9565b614840565b9050919050565b6000819050919050565b615e4783615e12565b615e5b615e5382615e34565b848454615dc0565b825550505050565b600090565b615e70615e63565b615e7b818484615e3e565b505050565b5b81811015615e9f57615e94600082615e68565b600181019050615e81565b5050565b601f821115615ee457615eb581615d8e565b615ebe84615da3565b81016020851015615ecd578190505b615ee1615ed985615da3565b830182615e80565b50505b505050565b600082821c905092915050565b6000615f0760001984600802615ee9565b1980831691505092915050565b6000615f208383615ef6565b9150826002028217905092915050565b615f3a8383615d83565b67ffffffffffffffff811115615f5357615f52614970565b5b615f5d8254615b76565b615f68828285615ea3565b6000601f831160018114615f975760008415615f85578287013590505b615f8f8582615f14565b865550615ff7565b601f198416615fa586615d8e565b60005b82811015615fcd57848901358255600182019150602085019450602081019050615fa8565b86831015615fea5784890135615fe6601f891682615ef6565b8355505b6001600288020188555050505b50505050505050565b600061600c8385614799565b9350616019838584615058565b616022836147d4565b840190509392505050565b60006040820190508181036000830152616048818587616000565b90506160576020830184614764565b949350505050565b6160688261478e565b67ffffffffffffffff81111561608157616080614970565b5b61608b8254615b76565b616096828285615ea3565b600060209050601f8311600181146160c957600084156160b7578287015190505b6160c18582615f14565b865550616129565b601f1984166160d786615d8e565b60005b828110156160ff578489015182556001820191506020850194506020810190506160da565b8683101561611c5784890151616118601f891682615ef6565b8355505b6001600288020188555050505b505050505050565b600081905092915050565b60006161478261478e565b6161518185616131565b93506161618185602086016147aa565b80840191505092915050565b6000616179828461613c565b915081905092915050565b6000604082019050818103600083015261619e81856147e5565b90506161ad6020830184614764565b9392505050565b7f4e487b7100000000000000000000000000000000000000000000000000000000600052603260045260246000fd5b600082825260208201905092915050565b6000819050919050565b616207816148c3565b82525050565b600061621983836161fe565b60208301905092915050565b60006162346020840184614916565b905092915050565b6000602082019050919050565b600061625583856161e3565b9350616260826161f4565b8060005b85811015616299576162768284616225565b616280888261620d565b975061628b8361623c565b925050600181019050616264565b5085925050509392505050565b600060608201905081810360008301526162c1818688616249565b90506162d06020830185614b35565b6162dd6040830184614b35565b95945050505050565b60006162f2828561613c565b91506162fe828461613c565b91508190509392505050565b6000604082019050818103600083015261632481856147e5565b9050818103602083015261633881846147e5565b90509392505050565b600081519050616350816148ff565b92915050565b60006020828403121561636c5761636b6146c9565b5b600061637a84828501616341565b91505092915050565b60006fffffffffffffffffffffffffffffffff82169050919050565b6163a881616383565b82525050565b60006020820190506163c3600083018461639f565b92915050565b6163d281616383565b81146163dd57600080fd5b50565b6000815190506163ef816163c9565b92915050565b60006020828403121561640b5761640a6146c9565b5b6000616419848285016163e0565b91505092915050565b600081905092915050565b50565b600061643d600083616422565b91506164488261642d565b600082019050919050565b600061645e82616430565b9150819050919050565b600060608201905061647d6000830186614b35565b61648a60208301856148d5565b6164976040830184614b35565b949350505050565b60006164aa82614840565b9150600082036164bd576164bc615ba7565b5b600182039050919050565b60006040820190506164dd60008301856148d5565b6164ea60208301846148d5565b9392505050565b6000815190506165008161531d565b92915050565b60006020828403121561651c5761651b6146c9565b5b600061652a848285016164f1565b91505092915050565b600061653e82614840565b91507fffffffffffffffffffffffffffffffffffffffffffffffffffffffffffffffff82036165705761656f615ba7565b5b600182019050919050565b600081519050919050565b600082825260208201905092915050565b60006165a28261657b565b6165ac8185616586565b93506165bc8185602086016147aa565b6165c5816147d4565b840191505092915050565b60006080820190506165e560008301876148d5565b6165f260208301866148d5565b6165ff6040830185614b35565b81810360608301526166118184616597565b905095945050505050565b60008151905061662b816146ff565b92915050565b600060208284031215616647576166466146c9565b5b60006166558482850161661c565b9150509291505056fea2646970667358221220b90fc48b4fd5cfa79b156029b1b7e7a6f61e7c8290985f621be29ba26f5812cd64736f6c63430008120033",
			"opcodes": "PUSH1 0x80 PUSH1 0x40 MSTORE CALLVALUE DUP1 ISZERO PUSH3 0x11 JUMPI PUSH1 0x0 DUP1 REVERT JUMPDEST POP PUSH20 0x9BAC461CEBECDAF3EF01DBC72E6E2139996B8A6A PUSH1 0x1 DUP1 PUSH1 0x0 DUP2 SWAP1 SSTORE POP PUSH1 0x0 PUSH14 0xAAEB6D7670E522A718067333CD4E PUSH20 0xFFFFFFFFFFFFFFFFFFFFFFFFFFFFFFFFFFFFFFFF AND EXTCODESIZE GT ISZERO PUSH3 0x225 JUMPI DUP1 ISZERO PUSH3 0xEB JUMPI PUSH14 0xAAEB6D7670E522A718067333CD4E PUSH20 0xFFFFFFFFFFFFFFFFFFFFFFFFFFFFFFFFFFFFFFFF AND PUSH4 0x7D3E3DBE ADDRESS DUP5 PUSH1 0x40 MLOAD DUP4 PUSH4 0xFFFFFFFF AND PUSH1 0xE0 SHL DUP2 MSTORE PUSH1 0x4 ADD PUSH3 0xB1 SWAP3 SWAP2 SWAP1 PUSH3 0x272 JUMP JUMPDEST PUSH1 0x0 PUSH1 0x40 MLOAD DUP1 DUP4 SUB DUP2 PUSH1 0x0 DUP8 DUP1 EXTCODESIZE ISZERO DUP1 ISZERO PUSH3 0xCC JUMPI PUSH1 0x0 DUP1 REVERT JUMPDEST POP GAS CALL ISZERO DUP1 ISZERO PUSH3 0xE1 JUMPI RETURNDATASIZE PUSH1 0x0 DUP1 RETURNDATACOPY RETURNDATASIZE PUSH1 0x0 REVERT JUMPDEST POP POP POP POP PUSH3 0x224 JUMP JUMPDEST PUSH1 0x0 PUSH20 0xFFFFFFFFFFFFFFFFFFFFFFFFFFFFFFFFFFFFFFFF AND DUP3 PUSH20 0xFFFFFFFFFFFFFFFFFFFFFFFFFFFFFFFFFFFFFFFF AND EQ PUSH3 0x1A5 JUMPI PUSH14 0xAAEB6D7670E522A718067333CD4E PUSH20 0xFFFFFFFFFFFFFFFFFFFFFFFFFFFFFFFFFFFFFFFF AND PUSH4 0xA0AF2903 ADDRESS DUP5 PUSH1 0x40 MLOAD DUP4 PUSH4 0xFFFFFFFF AND PUSH1 0xE0 SHL DUP2 MSTORE PUSH1 0x4 ADD PUSH3 0x16B SWAP3 SWAP2 SWAP1 PUSH3 0x272 JUMP JUMPDEST PUSH1 0x0 PUSH1 0x40 MLOAD DUP1 DUP4 SUB DUP2 PUSH1 0x0 DUP8 DUP1 EXTCODESIZE ISZERO DUP1 ISZERO PUSH3 0x186 JUMPI PUSH1 0x0 DUP1 REVERT JUMPDEST POP GAS CALL ISZERO DUP1 ISZERO PUSH3 0x19B JUMPI RETURNDATASIZE PUSH1 0x0 DUP1 RETURNDATACOPY RETURNDATASIZE PUSH1 0x0 REVERT JUMPDEST POP POP POP POP PUSH3 0x223 JUMP JUMPDEST PUSH14 0xAAEB6D7670E522A718067333CD4E PUSH20 0xFFFFFFFFFFFFFFFFFFFFFFFFFFFFFFFFFFFFFFFF AND PUSH4 0x4420E486 ADDRESS PUSH1 0x40 MLOAD DUP3 PUSH4 0xFFFFFFFF AND PUSH1 0xE0 SHL DUP2 MSTORE PUSH1 0x4 ADD PUSH3 0x1EE SWAP2 SWAP1 PUSH3 0x29F JUMP JUMPDEST PUSH1 0x0 PUSH1 0x40 MLOAD DUP1 DUP4 SUB DUP2 PUSH1 0x0 DUP8 DUP1 EXTCODESIZE ISZERO DUP1 ISZERO PUSH3 0x209 JUMPI PUSH1 0x0 DUP1 REVERT JUMPDEST POP GAS CALL ISZERO DUP1 ISZERO PUSH3 0x21E JUMPI RETURNDATASIZE PUSH1 0x0 DUP1 RETURNDATACOPY RETURNDATASIZE PUSH1 0x0 REVERT JUMPDEST POP POP POP POP JUMPDEST JUMPDEST JUMPDEST POP POP PUSH3 0x2BC JUMP JUMPDEST PUSH1 0x0 PUSH20 0xFFFFFFFFFFFFFFFFFFFFFFFFFFFFFFFFFFFFFFFF DUP3 AND SWAP1 POP SWAP2 SWAP1 POP JUMP JUMPDEST PUSH1 0x0 PUSH3 0x25A DUP3 PUSH3 0x22D JUMP JUMPDEST SWAP1 POP SWAP2 SWAP1 POP JUMP JUMPDEST PUSH3 0x26C DUP2 PUSH3 0x24D JUMP JUMPDEST DUP3 MSTORE POP POP JUMP JUMPDEST PUSH1 0x0 PUSH1 0x40 DUP3 ADD SWAP1 POP PUSH3 0x289 PUSH1 0x0 DUP4 ADD DUP6 PUSH3 0x261 JUMP JUMPDEST PUSH3 0x298 PUSH1 0x20 DUP4 ADD DUP5 PUSH3 0x261 JUMP JUMPDEST SWAP4 SWAP3 POP POP POP JUMP JUMPDEST PUSH1 0x0 PUSH1 0x20 DUP3 ADD SWAP1 POP PUSH3 0x2B6 PUSH1 0x0 DUP4 ADD DUP5 PUSH3 0x261 JUMP JUMPDEST SWAP3 SWAP2 POP POP JUMP JUMPDEST PUSH2 0x6694 DUP1 PUSH3 0x2CC PUSH1 0x0 CODECOPY PUSH1 0x0 RETURN INVALID PUSH1 0x80 PUSH1 0x40 MSTORE PUSH1 0x4 CALLDATASIZE LT PUSH2 0x452 JUMPI PUSH1 0x0 CALLDATALOAD PUSH1 0xE0 SHR DUP1 PUSH4 0x70A08231 GT PUSH2 0x23F JUMPI DUP1 PUSH4 0xBBC17BC4 GT PUSH2 0x139 JUMPI DUP1 PUSH4 0xE086E5EC GT PUSH2 0xB6 JUMPI DUP1 PUSH4 0xF04E283E GT PUSH2 0x7A JUMPI DUP1 PUSH4 0xF04E283E EQ PUSH2 0x1089 JUMPI DUP1 PUSH4 0xF2FDE38B EQ PUSH2 0x10A5 JUMPI DUP1 PUSH4 0xFB796E6C EQ PUSH2 0x10C1 JUMPI DUP1 PUSH4 0xFEE81CF4 EQ PUSH2 0x10EC JUMPI DUP1 PUSH4 0xFFDB7163 EQ PUSH2 0x1129 JUMPI PUSH2 0x452 JUMP JUMPDEST DUP1 PUSH4 0xE086E5EC EQ PUSH2 0xFAF JUMPI DUP1 PUSH4 0xE58306F9 EQ PUSH2 0xFC6 JUMPI DUP1 PUSH4 0xE6C5A1EF EQ PUSH2 0xFF6 JUMPI DUP1 PUSH4 0xE8A3D485 EQ PUSH2 0x1021 JUMPI DUP1 PUSH4 0xE985E9C5 EQ PUSH2 0x104C JUMPI PUSH2 0x452 JUMP JUMPDEST DUP1 PUSH4 0xD111515D GT PUSH2 0xFD JUMPI DUP1 PUSH4 0xD111515D EQ PUSH2 0xEDC JUMPI DUP1 PUSH4 0xD5391393 EQ PUSH2 0xEF3 JUMPI DUP1 PUSH4 0xD7533F02 EQ PUSH2 0xF1E JUMPI DUP1 PUSH4 0xDC33E681 EQ PUSH2 0xF49 JUMPI DUP1 PUSH4 0xDE4EFFBD EQ PUSH2 0xF86 JUMPI PUSH2 0x452 JUMP JUMPDEST DUP1 PUSH4 0xBBC17BC4 EQ PUSH2 0xDF5 JUMPI DUP1 PUSH4 0xC303734A EQ PUSH2 0xE20 JUMPI DUP1 PUSH4 0xC4E5DB8F EQ PUSH2 0xE4B JUMPI DUP1 PUSH4 0xC87B56DD EQ PUSH2 0xE76 JUMPI DUP1 PUSH4 0xD05E8732 EQ PUSH2 0xEB3 JUMPI PUSH2 0x452 JUMP JUMPDEST DUP1 PUSH4 0x8DA5CB5B GT PUSH2 0x1C7 JUMPI DUP1 PUSH4 0xA6F32D43 GT PUSH2 0x18B JUMPI DUP1 PUSH4 0xA6F32D43 EQ PUSH2 0xD2F JUMPI DUP1 PUSH4 0xB040ADF6 EQ PUSH2 0xD5A JUMPI DUP1 PUSH4 0xB7C0B8E8 EQ PUSH2 0xD85 JUMPI DUP1 PUSH4 0xB88D4FDE EQ PUSH2 0xDAE JUMPI DUP1 PUSH4 0xB9C9D93A EQ PUSH2 0xDCA JUMPI PUSH2 0x452 JUMP JUMPDEST DUP1 PUSH4 0x8DA5CB5B EQ PUSH2 0xC5C JUMPI DUP1 PUSH4 0x938E3D7B EQ PUSH2 0xC87 JUMPI DUP1 PUSH4 0x95D89B41 EQ PUSH2 0xCB0 JUMPI DUP1 PUSH4 0xA22CB465 EQ PUSH2 0xCDB JUMPI DUP1 PUSH4 0xA2309FF8 EQ PUSH2 0xD04 JUMPI PUSH2 0x452 JUMP JUMPDEST DUP1 PUSH4 0x7359E41F GT PUSH2 0x20E JUMPI DUP1 PUSH4 0x7359E41F EQ PUSH2 0xB5F JUMPI DUP1 PUSH4 0x75794A3C EQ PUSH2 0xB9C JUMPI DUP1 PUSH4 0x75B238FC EQ PUSH2 0xBC7 JUMPI DUP1 PUSH4 0x778FAEEC EQ PUSH2 0xBF2 JUMPI DUP1 PUSH4 0x79502C55 EQ PUSH2 0xC2F JUMPI PUSH2 0x452 JUMP JUMPDEST DUP1 PUSH4 0x70A08231 EQ PUSH2 0xAD8 JUMPI DUP1 PUSH4 0x715018A6 EQ PUSH2 0xB15 JUMPI DUP1 PUSH4 0x72C7DBBE EQ PUSH2 0xB1F JUMPI DUP1 PUSH4 0x72DFB778 EQ PUSH2 0xB48 JUMPI PUSH2 0x452 JUMP JUMPDEST DUP1 PUSH4 0x33EA51A8 GT PUSH2 0x350 JUMPI DUP1 PUSH4 0x54214F69 GT PUSH2 0x2D8 JUMPI DUP1 PUSH4 0x5E6AE4ED GT PUSH2 0x29C JUMPI DUP1 PUSH4 0x5E6AE4ED EQ PUSH2 0x9DD JUMPI DUP1 PUSH4 0x61FEA768 EQ PUSH2 0xA08 JUMPI DUP1 PUSH4 0x6352211E EQ PUSH2 0xA45 JUMPI DUP1 PUSH4 0x6C0360EB EQ PUSH2 0xA82 JUMPI DUP1 PUSH4 0x6F38C330 EQ PUSH2 0xAAD JUMPI PUSH2 0x452 JUMP JUMPDEST DUP1 PUSH4 0x54214F69 EQ PUSH2 0x917 JUMPI DUP1 PUSH4 0x54D1F13D EQ PUSH2 0x942 JUMPI DUP1 PUSH4 0x55F804B3 EQ PUSH2 0x94C JUMPI DUP1 PUSH4 0x5B84A1ED EQ PUSH2 0x975 JUMPI DUP1 PUSH4 0x5B8D02D7 EQ PUSH2 0x9B2 JUMPI PUSH2 0x452 JUMP JUMPDEST DUP1 PUSH4 0x41F43434 GT PUSH2 0x31F JUMPI DUP1 PUSH4 0x41F43434 EQ PUSH2 0x84E JUMPI DUP1 PUSH4 0x42842E0E EQ PUSH2 0x879 JUMPI DUP1 PUSH4 0x4A4EE7B1 EQ PUSH2 0x895 JUMPI DUP1 PUSH4 0x4C261247 EQ PUSH2 0x8B1 JUMPI DUP1 PUSH4 0x514E62FC EQ PUSH2 0x8DA JUMPI PUSH2 0x452 JUMP JUMPDEST DUP1 PUSH4 0x33EA51A8 EQ PUSH2 0x7A6 JUMPI DUP1 PUSH4 0x36E79A5A EQ PUSH2 0x7CF JUMPI DUP1 PUSH4 0x3AB9D139 EQ PUSH2 0x7F8 JUMPI DUP1 PUSH4 0x40197C14 EQ PUSH2 0x823 JUMPI PUSH2 0x452 JUMP JUMPDEST DUP1 PUSH4 0x1909159A GT PUSH2 0x3DE JUMPI DUP1 PUSH4 0x25024A2B GT PUSH2 0x3A2 JUMPI DUP1 PUSH4 0x25024A2B EQ PUSH2 0x6C6 JUMPI DUP1 PUSH4 0x25692962 EQ PUSH2 0x6F6 JUMPI DUP1 PUSH4 0x2A55205A EQ PUSH2 0x700 JUMPI DUP1 PUSH4 0x2C02CB7E EQ PUSH2 0x73E JUMPI DUP1 PUSH4 0x2DE94807 EQ PUSH2 0x769 JUMPI PUSH2 0x452 JUMP JUMPDEST DUP1 PUSH4 0x1909159A EQ PUSH2 0x5F0 JUMPI DUP1 PUSH4 0x1C10893F EQ PUSH2 0x620 JUMPI DUP1 PUSH4 0x1CD64DF4 EQ PUSH2 0x63C JUMPI DUP1 PUSH4 0x1D2C0B38 EQ PUSH2 0x679 JUMPI DUP1 PUSH4 0x23B872DD EQ PUSH2 0x6AA JUMPI PUSH2 0x452 JUMP JUMPDEST DUP1 PUSH4 0xFD0733D GT PUSH2 0x425 JUMPI DUP1 PUSH4 0xFD0733D EQ PUSH2 0x518 JUMPI DUP1 PUSH4 0x13A661ED EQ PUSH2 0x543 JUMPI DUP1 PUSH4 0x13AF4035 EQ PUSH2 0x580 JUMPI DUP1 PUSH4 0x18160DDD EQ PUSH2 0x5A9 JUMPI DUP1 PUSH4 0x183A4F6E EQ PUSH2 0x5D4 JUMPI PUSH2 0x452 JUMP JUMPDEST DUP1 PUSH4 0x1FFC9A7 EQ PUSH2 0x457 JUMPI DUP1 PUSH4 0x6FDDE03 EQ PUSH2 0x494 JUMPI DUP1 PUSH4 0x81812FC EQ PUSH2 0x4BF JUMPI DUP1 PUSH4 0x95EA7B3 EQ PUSH2 0x4FC JUMPI JUMPDEST PUSH1 0x0 DUP1 REVERT JUMPDEST CALLVALUE DUP1 ISZERO PUSH2 0x463 JUMPI PUSH1 0x0 DUP1 REVERT JUMPDEST POP PUSH2 0x47E PUSH1 0x4 DUP1 CALLDATASIZE SUB DUP2 ADD SWAP1 PUSH2 0x479 SWAP2 SWAP1 PUSH2 0x472B JUMP JUMPDEST PUSH2 0x1152 JUMP JUMPDEST PUSH1 0x40 MLOAD PUSH2 0x48B SWAP2 SWAP1 PUSH2 0x4773 JUMP JUMPDEST PUSH1 0x40 MLOAD DUP1 SWAP2 SUB SWAP1 RETURN JUMPDEST CALLVALUE DUP1 ISZERO PUSH2 0x4A0 JUMPI PUSH1 0x0 DUP1 REVERT JUMPDEST POP PUSH2 0x4A9 PUSH2 0x12B9 JUMP JUMPDEST PUSH1 0x40 MLOAD PUSH2 0x4B6 SWAP2 SWAP1 PUSH2 0x481E JUMP JUMPDEST PUSH1 0x40 MLOAD DUP1 SWAP2 SUB SWAP1 RETURN JUMPDEST CALLVALUE DUP1 ISZERO PUSH2 0x4CB JUMPI PUSH1 0x0 DUP1 REVERT JUMPDEST POP PUSH2 0x4E6 PUSH1 0x4 DUP1 CALLDATASIZE SUB DUP2 ADD SWAP1 PUSH2 0x4E1 SWAP2 SWAP1 PUSH2 0x4876 JUMP JUMPDEST PUSH2 0x12CF JUMP JUMPDEST PUSH1 0x40 MLOAD PUSH2 0x4F3 SWAP2 SWAP1 PUSH2 0x48E4 JUMP JUMPDEST PUSH1 0x40 MLOAD DUP1 SWAP2 SUB SWAP1 RETURN JUMPDEST PUSH2 0x516 PUSH1 0x4 DUP1 CALLDATASIZE SUB DUP2 ADD SWAP1 PUSH2 0x511 SWAP2 SWAP1 PUSH2 0x492B JUMP JUMPDEST PUSH2 0x1336 JUMP JUMPDEST STOP JUMPDEST CALLVALUE DUP1 ISZERO PUSH2 0x524 JUMPI PUSH1 0x0 DUP1 REVERT JUMPDEST POP PUSH2 0x52D PUSH2 0x134F JUMP JUMPDEST PUSH1 0x40 MLOAD PUSH2 0x53A SWAP2 SWAP1 PUSH2 0x481E JUMP JUMPDEST PUSH1 0x40 MLOAD DUP1 SWAP2 SUB SWAP1 RETURN JUMPDEST CALLVALUE DUP1 ISZERO PUSH2 0x54F JUMPI PUSH1 0x0 DUP1 REVERT JUMPDEST POP PUSH2 0x56A PUSH1 0x4 DUP1 CALLDATASIZE SUB DUP2 ADD SWAP1 PUSH2 0x565 SWAP2 SWAP1 PUSH2 0x4AEC JUMP JUMPDEST PUSH2 0x13DD JUMP JUMPDEST PUSH1 0x40 MLOAD PUSH2 0x577 SWAP2 SWAP1 PUSH2 0x4B44 JUMP JUMPDEST PUSH1 0x40 MLOAD DUP1 SWAP2 SUB SWAP1 RETURN JUMPDEST CALLVALUE DUP1 ISZERO PUSH2 0x58C JUMPI PUSH1 0x0 DUP1 REVERT JUMPDEST POP PUSH2 0x5A7 PUSH1 0x4 DUP1 CALLDATASIZE SUB DUP2 ADD SWAP1 PUSH2 0x5A2 SWAP2 SWAP1 PUSH2 0x4B5F JUMP JUMPDEST PUSH2 0x1407 JUMP JUMPDEST STOP JUMPDEST CALLVALUE DUP1 ISZERO PUSH2 0x5B5 JUMPI PUSH1 0x0 DUP1 REVERT JUMPDEST POP PUSH2 0x5BE PUSH2 0x141F JUMP JUMPDEST PUSH1 0x40 MLOAD PUSH2 0x5CB SWAP2 SWAP1 PUSH2 0x4B44 JUMP JUMPDEST PUSH1 0x40 MLOAD DUP1 SWAP2 SUB SWAP1 RETURN JUMPDEST PUSH2 0x5EE PUSH1 0x4 DUP1 CALLDATASIZE SUB DUP2 ADD SWAP1 PUSH2 0x5E9 SWAP2 SWAP1 PUSH2 0x4876 JUMP JUMPDEST PUSH2 0x1448 JUMP JUMPDEST STOP JUMPDEST PUSH2 0x60A PUSH1 0x4 DUP1 CALLDATASIZE SUB DUP2 ADD SWAP1 PUSH2 0x605 SWAP2 SWAP1 PUSH2 0x4876 JUMP JUMPDEST PUSH2 0x1455 JUMP JUMPDEST PUSH1 0x40 MLOAD PUSH2 0x617 SWAP2 SWAP1 PUSH2 0x4B44 JUMP JUMPDEST PUSH1 0x40 MLOAD DUP1 SWAP2 SUB SWAP1 RETURN JUMPDEST PUSH2 0x63A PUSH1 0x4 DUP1 CALLDATASIZE SUB DUP2 ADD SWAP1 PUSH2 0x635 SWAP2 SWAP1 PUSH2 0x492B JUMP JUMPDEST PUSH2 0x16BF JUMP JUMPDEST STOP JUMPDEST CALLVALUE DUP1 ISZERO PUSH2 0x648 JUMPI PUSH1 0x0 DUP1 REVERT JUMPDEST POP PUSH2 0x663 PUSH1 0x4 DUP1 CALLDATASIZE SUB DUP2 ADD SWAP1 PUSH2 0x65E SWAP2 SWAP1 PUSH2 0x492B JUMP JUMPDEST PUSH2 0x16D5 JUMP JUMPDEST PUSH1 0x40 MLOAD PUSH2 0x670 SWAP2 SWAP1 PUSH2 0x4773 JUMP JUMPDEST PUSH1 0x40 MLOAD DUP1 SWAP2 SUB SWAP1 RETURN JUMPDEST CALLVALUE DUP1 ISZERO PUSH2 0x685 JUMPI PUSH1 0x0 DUP1 REVERT JUMPDEST POP PUSH2 0x68E PUSH2 0x16F5 JUMP JUMPDEST PUSH1 0x40 MLOAD PUSH2 0x6A1 SWAP8 SWAP7 SWAP6 SWAP5 SWAP4 SWAP3 SWAP2 SWAP1 PUSH2 0x4C0F JUMP JUMPDEST PUSH1 0x40 MLOAD DUP1 SWAP2 SUB SWAP1 RETURN JUMPDEST PUSH2 0x6C4 PUSH1 0x4 DUP1 CALLDATASIZE SUB DUP2 ADD SWAP1 PUSH2 0x6BF SWAP2 SWAP1 PUSH2 0x4C7E JUMP JUMPDEST PUSH2 0x179E JUMP JUMPDEST STOP JUMPDEST PUSH2 0x6E0 PUSH1 0x4 DUP1 CALLDATASIZE SUB DUP2 ADD SWAP1 PUSH2 0x6DB SWAP2 SWAP1 PUSH2 0x4D2C JUMP JUMPDEST PUSH2 0x17ED JUMP JUMPDEST PUSH1 0x40 MLOAD PUSH2 0x6ED SWAP2 SWAP1 PUSH2 0x4B44 JUMP JUMPDEST PUSH1 0x40 MLOAD DUP1 SWAP2 SUB SWAP1 RETURN JUMPDEST PUSH2 0x6FE PUSH2 0x1B3F JUMP JUMPDEST STOP JUMPDEST CALLVALUE DUP1 ISZERO PUSH2 0x70C JUMPI PUSH1 0x0 DUP1 REVERT JUMPDEST POP PUSH2 0x727 PUSH1 0x4 DUP1 CALLDATASIZE SUB DUP2 ADD SWAP1 PUSH2 0x722 SWAP2 SWAP1 PUSH2 0x4DB4 JUMP JUMPDEST PUSH2 0x1B93 JUMP JUMPDEST PUSH1 0x40 MLOAD PUSH2 0x735 SWAP3 SWAP2 SWAP1 PUSH2 0x4DF4 JUMP JUMPDEST PUSH1 0x40 MLOAD DUP1 SWAP2 SUB SWAP1 RETURN JUMPDEST CALLVALUE DUP1 ISZERO PUSH2 0x74A JUMPI PUSH1 0x0 DUP1 REVERT JUMPDEST POP PUSH2 0x753 PUSH2 0x1BF5 JUMP JUMPDEST PUSH1 0x40 MLOAD PUSH2 0x760 SWAP2 SWAP1 PUSH2 0x4E2C JUMP JUMPDEST PUSH1 0x40 MLOAD DUP1 SWAP2 SUB SWAP1 RETURN JUMPDEST CALLVALUE DUP1 ISZERO PUSH2 0x775 JUMPI PUSH1 0x0 DUP1 REVERT JUMPDEST POP PUSH2 0x790 PUSH1 0x4 DUP1 CALLDATASIZE SUB DUP2 ADD SWAP1 PUSH2 0x78B SWAP2 SWAP1 PUSH2 0x4B5F JUMP JUMPDEST PUSH2 0x1BFA JUMP JUMPDEST PUSH1 0x40 MLOAD PUSH2 0x79D SWAP2 SWAP1 PUSH2 0x4B44 JUMP JUMPDEST PUSH1 0x40 MLOAD DUP1 SWAP2 SUB SWAP1 RETURN JUMPDEST CALLVALUE DUP1 ISZERO PUSH2 0x7B2 JUMPI PUSH1 0x0 DUP1 REVERT JUMPDEST POP PUSH2 0x7CD PUSH1 0x4 DUP1 CALLDATASIZE SUB DUP2 ADD SWAP1 PUSH2 0x7C8 SWAP2 SWAP1 PUSH2 0x4B5F JUMP JUMPDEST PUSH2 0x1C15 JUMP JUMPDEST STOP JUMPDEST CALLVALUE DUP1 ISZERO PUSH2 0x7DB JUMPI PUSH1 0x0 DUP1 REVERT JUMPDEST POP PUSH2 0x7F6 PUSH1 0x4 DUP1 CALLDATASIZE SUB DUP2 ADD SWAP1 PUSH2 0x7F1 SWAP2 SWAP1 PUSH2 0x4E81 JUMP JUMPDEST PUSH2 0x1D24 JUMP JUMPDEST STOP JUMPDEST CALLVALUE DUP1 ISZERO PUSH2 0x804 JUMPI PUSH1 0x0 DUP1 REVERT JUMPDEST POP PUSH2 0x80D PUSH2 0x1DCD JUMP JUMPDEST PUSH1 0x40 MLOAD PUSH2 0x81A SWAP2 SWAP1 PUSH2 0x4EAE JUMP JUMPDEST PUSH1 0x40 MLOAD DUP1 SWAP2 SUB SWAP1 RETURN JUMPDEST CALLVALUE DUP1 ISZERO PUSH2 0x82F JUMPI PUSH1 0x0 DUP1 REVERT JUMPDEST POP PUSH2 0x838 PUSH2 0x1DE3 JUMP JUMPDEST PUSH1 0x40 MLOAD PUSH2 0x845 SWAP2 SWAP1 PUSH2 0x4F28 JUMP JUMPDEST PUSH1 0x40 MLOAD DUP1 SWAP2 SUB SWAP1 RETURN JUMPDEST CALLVALUE DUP1 ISZERO PUSH2 0x85A JUMPI PUSH1 0x0 DUP1 REVERT JUMPDEST POP PUSH2 0x863 PUSH2 0x1E09 JUMP JUMPDEST PUSH1 0x40 MLOAD PUSH2 0x870 SWAP2 SWAP1 PUSH2 0x4F64 JUMP JUMPDEST PUSH1 0x40 MLOAD DUP1 SWAP2 SUB SWAP1 RETURN JUMPDEST PUSH2 0x893 PUSH1 0x4 DUP1 CALLDATASIZE SUB DUP2 ADD SWAP1 PUSH2 0x88E SWAP2 SWAP1 PUSH2 0x4C7E JUMP JUMPDEST PUSH2 0x1E1B JUMP JUMPDEST STOP JUMPDEST PUSH2 0x8AF PUSH1 0x4 DUP1 CALLDATASIZE SUB DUP2 ADD SWAP1 PUSH2 0x8AA SWAP2 SWAP1 PUSH2 0x492B JUMP JUMPDEST PUSH2 0x1E6A JUMP JUMPDEST STOP JUMPDEST CALLVALUE DUP1 ISZERO PUSH2 0x8BD JUMPI PUSH1 0x0 DUP1 REVERT JUMPDEST POP PUSH2 0x8D8 PUSH1 0x4 DUP1 CALLDATASIZE SUB DUP2 ADD SWAP1 PUSH2 0x8D3 SWAP2 SWAP1 PUSH2 0x4FD5 JUMP JUMPDEST PUSH2 0x1E80 JUMP JUMPDEST STOP JUMPDEST CALLVALUE DUP1 ISZERO PUSH2 0x8E6 JUMPI PUSH1 0x0 DUP1 REVERT JUMPDEST POP PUSH2 0x901 PUSH1 0x4 DUP1 CALLDATASIZE SUB DUP2 ADD SWAP1 PUSH2 0x8FC SWAP2 SWAP1 PUSH2 0x492B JUMP JUMPDEST PUSH2 0x1F13 JUMP JUMPDEST PUSH1 0x40 MLOAD PUSH2 0x90E SWAP2 SWAP1 PUSH2 0x4773 JUMP JUMPDEST PUSH1 0x40 MLOAD DUP1 SWAP2 SUB SWAP1 RETURN JUMPDEST CALLVALUE DUP1 ISZERO PUSH2 0x923 JUMPI PUSH1 0x0 DUP1 REVERT JUMPDEST POP PUSH2 0x92C PUSH2 0x1F33 JUMP JUMPDEST PUSH1 0x40 MLOAD PUSH2 0x939 SWAP2 SWAP1 PUSH2 0x4773 JUMP JUMPDEST PUSH1 0x40 MLOAD DUP1 SWAP2 SUB SWAP1 RETURN JUMPDEST PUSH2 0x94A PUSH2 0x1F46 JUMP JUMPDEST STOP JUMPDEST CALLVALUE DUP1 ISZERO PUSH2 0x958 JUMPI PUSH1 0x0 DUP1 REVERT JUMPDEST POP PUSH2 0x973 PUSH1 0x4 DUP1 CALLDATASIZE SUB DUP2 ADD SWAP1 PUSH2 0x96E SWAP2 SWAP1 PUSH2 0x50D7 JUMP JUMPDEST PUSH2 0x1F82 JUMP JUMPDEST STOP JUMPDEST CALLVALUE DUP1 ISZERO PUSH2 0x981 JUMPI PUSH1 0x0 DUP1 REVERT JUMPDEST POP PUSH2 0x99C PUSH1 0x4 DUP1 CALLDATASIZE SUB DUP2 ADD SWAP1 PUSH2 0x997 SWAP2 SWAP1 PUSH2 0x50D7 JUMP JUMPDEST PUSH2 0x2032 JUMP JUMPDEST PUSH1 0x40 MLOAD PUSH2 0x9A9 SWAP2 SWAP1 PUSH2 0x481E JUMP JUMPDEST PUSH1 0x40 MLOAD DUP1 SWAP2 SUB SWAP1 RETURN JUMPDEST CALLVALUE DUP1 ISZERO PUSH2 0x9BE JUMPI PUSH1 0x0 DUP1 REVERT JUMPDEST POP PUSH2 0x9C7 PUSH2 0x203C JUMP JUMPDEST PUSH1 0x40 MLOAD PUSH2 0x9D4 SWAP2 SWAP1 PUSH2 0x48E4 JUMP JUMPDEST PUSH1 0x40 MLOAD DUP1 SWAP2 SUB SWAP1 RETURN JUMPDEST CALLVALUE DUP1 ISZERO PUSH2 0x9E9 JUMPI PUSH1 0x0 DUP1 REVERT JUMPDEST POP PUSH2 0x9F2 PUSH2 0x2062 JUMP JUMPDEST PUSH1 0x40 MLOAD PUSH2 0x9FF SWAP2 SWAP1 PUSH2 0x4E2C JUMP JUMPDEST PUSH1 0x40 MLOAD DUP1 SWAP2 SUB SWAP1 RETURN JUMPDEST CALLVALUE DUP1 ISZERO PUSH2 0xA14 JUMPI PUSH1 0x0 DUP1 REVERT JUMPDEST POP PUSH2 0xA2F PUSH1 0x4 DUP1 CALLDATASIZE SUB DUP2 ADD SWAP1 PUSH2 0xA2A SWAP2 SWAP1 PUSH2 0x4B5F JUMP JUMPDEST PUSH2 0x2067 JUMP JUMPDEST PUSH1 0x40 MLOAD PUSH2 0xA3C SWAP2 SWAP1 PUSH2 0x4B44 JUMP JUMPDEST PUSH1 0x40 MLOAD DUP1 SWAP2 SUB SWAP1 RETURN JUMPDEST CALLVALUE DUP1 ISZERO PUSH2 0xA51 JUMPI PUSH1 0x0 DUP1 REVERT JUMPDEST POP PUSH2 0xA6C PUSH1 0x4 DUP1 CALLDATASIZE SUB DUP2 ADD SWAP1 PUSH2 0xA67 SWAP2 SWAP1 PUSH2 0x4876 JUMP JUMPDEST PUSH2 0x207F JUMP JUMPDEST PUSH1 0x40 MLOAD PUSH2 0xA79 SWAP2 SWAP1 PUSH2 0x48E4 JUMP JUMPDEST PUSH1 0x40 MLOAD DUP1 SWAP2 SUB SWAP1 RETURN JUMPDEST CALLVALUE DUP1 ISZERO PUSH2 0xA8E JUMPI PUSH1 0x0 DUP1 REVERT JUMPDEST POP PUSH2 0xA97 PUSH2 0x2091 JUMP JUMPDEST PUSH1 0x40 MLOAD PUSH2 0xAA4 SWAP2 SWAP1 PUSH2 0x481E JUMP JUMPDEST PUSH1 0x40 MLOAD DUP1 SWAP2 SUB SWAP1 RETURN JUMPDEST CALLVALUE DUP1 ISZERO PUSH2 0xAB9 JUMPI PUSH1 0x0 DUP1 REVERT JUMPDEST POP PUSH2 0xAC2 PUSH2 0x2123 JUMP JUMPDEST PUSH1 0x40 MLOAD PUSH2 0xACF SWAP2 SWAP1 PUSH2 0x4B44 JUMP JUMPDEST PUSH1 0x40 MLOAD DUP1 SWAP2 SUB SWAP1 RETURN JUMPDEST CALLVALUE DUP1 ISZERO PUSH2 0xAE4 JUMPI PUSH1 0x0 DUP1 REVERT JUMPDEST POP PUSH2 0xAFF PUSH1 0x4 DUP1 CALLDATASIZE SUB DUP2 ADD SWAP1 PUSH2 0xAFA SWAP2 SWAP1 PUSH2 0x4B5F JUMP JUMPDEST PUSH2 0x2128 JUMP JUMPDEST PUSH1 0x40 MLOAD PUSH2 0xB0C SWAP2 SWAP1 PUSH2 0x4B44 JUMP JUMPDEST PUSH1 0x40 MLOAD DUP1 SWAP2 SUB SWAP1 RETURN JUMPDEST PUSH2 0xB1D PUSH2 0x21C8 JUMP JUMPDEST STOP JUMPDEST CALLVALUE DUP1 ISZERO PUSH2 0xB2B JUMPI PUSH1 0x0 DUP1 REVERT JUMPDEST POP PUSH2 0xB46 PUSH1 0x4 DUP1 CALLDATASIZE SUB DUP2 ADD SWAP1 PUSH2 0xB41 SWAP2 SWAP1 PUSH2 0x50D7 JUMP JUMPDEST PUSH2 0x21DC JUMP JUMPDEST STOP JUMPDEST CALLVALUE DUP1 ISZERO PUSH2 0xB54 JUMPI PUSH1 0x0 DUP1 REVERT JUMPDEST POP PUSH2 0xB5D PUSH2 0x224F JUMP JUMPDEST STOP JUMPDEST CALLVALUE DUP1 ISZERO PUSH2 0xB6B JUMPI PUSH1 0x0 DUP1 REVERT JUMPDEST POP PUSH2 0xB86 PUSH1 0x4 DUP1 CALLDATASIZE SUB DUP2 ADD SWAP1 PUSH2 0xB81 SWAP2 SWAP1 PUSH2 0x4876 JUMP JUMPDEST PUSH2 0x2251 JUMP JUMPDEST PUSH1 0x40 MLOAD PUSH2 0xB93 SWAP2 SWAP1 PUSH2 0x51DE JUMP JUMPDEST PUSH1 0x40 MLOAD DUP1 SWAP2 SUB SWAP1 RETURN JUMPDEST CALLVALUE DUP1 ISZERO PUSH2 0xBA8 JUMPI PUSH1 0x0 DUP1 REVERT JUMPDEST POP PUSH2 0xBB1 PUSH2 0x229D JUMP JUMPDEST PUSH1 0x40 MLOAD PUSH2 0xBBE SWAP2 SWAP1 PUSH2 0x4B44 JUMP JUMPDEST PUSH1 0x40 MLOAD DUP1 SWAP2 SUB SWAP1 RETURN JUMPDEST CALLVALUE DUP1 ISZERO PUSH2 0xBD3 JUMPI PUSH1 0x0 DUP1 REVERT JUMPDEST POP PUSH2 0xBDC PUSH2 0x22AC JUMP JUMPDEST PUSH1 0x40 MLOAD PUSH2 0xBE9 SWAP2 SWAP1 PUSH2 0x4B44 JUMP JUMPDEST PUSH1 0x40 MLOAD DUP1 SWAP2 SUB SWAP1 RETURN JUMPDEST CALLVALUE DUP1 ISZERO PUSH2 0xBFE JUMPI PUSH1 0x0 DUP1 REVERT JUMPDEST POP PUSH2 0xC19 PUSH1 0x4 DUP1 CALLDATASIZE SUB DUP2 ADD SWAP1 PUSH2 0xC14 SWAP2 SWAP1 PUSH2 0x5256 JUMP JUMPDEST PUSH2 0x22B1 JUMP JUMPDEST PUSH1 0x40 MLOAD PUSH2 0xC26 SWAP2 SWAP1 PUSH2 0x4B44 JUMP JUMPDEST PUSH1 0x40 MLOAD DUP1 SWAP2 SUB SWAP1 RETURN JUMPDEST CALLVALUE DUP1 ISZERO PUSH2 0xC3B JUMPI PUSH1 0x0 DUP1 REVERT JUMPDEST POP PUSH2 0xC44 PUSH2 0x239A JUMP JUMPDEST PUSH1 0x40 MLOAD PUSH2 0xC53 SWAP4 SWAP3 SWAP2 SWAP1 PUSH2 0x52E6 JUMP JUMPDEST PUSH1 0x40 MLOAD DUP1 SWAP2 SUB SWAP1 RETURN JUMPDEST CALLVALUE DUP1 ISZERO PUSH2 0xC68 JUMPI PUSH1 0x0 DUP1 REVERT JUMPDEST POP PUSH2 0xC71 PUSH2 0x23F4 JUMP JUMPDEST PUSH1 0x40 MLOAD PUSH2 0xC7E SWAP2 SWAP1 PUSH2 0x48E4 JUMP JUMPDEST PUSH1 0x40 MLOAD DUP1 SWAP2 SUB SWAP1 RETURN JUMPDEST CALLVALUE DUP1 ISZERO PUSH2 0xC93 JUMPI PUSH1 0x0 DUP1 REVERT JUMPDEST POP PUSH2 0xCAE PUSH1 0x4 DUP1 CALLDATASIZE SUB DUP2 ADD SWAP1 PUSH2 0xCA9 SWAP2 SWAP1 PUSH2 0x50D7 JUMP JUMPDEST PUSH2 0x2403 JUMP JUMPDEST STOP JUMPDEST CALLVALUE DUP1 ISZERO PUSH2 0xCBC JUMPI PUSH1 0x0 DUP1 REVERT JUMPDEST POP PUSH2 0xCC5 PUSH2 0x24B3 JUMP JUMPDEST PUSH1 0x40 MLOAD PUSH2 0xCD2 SWAP2 SWAP1 PUSH2 0x481E JUMP JUMPDEST PUSH1 0x40 MLOAD DUP1 SWAP2 SUB SWAP1 RETURN JUMPDEST CALLVALUE DUP1 ISZERO PUSH2 0xCE7 JUMPI PUSH1 0x0 DUP1 REVERT JUMPDEST POP PUSH2 0xD02 PUSH1 0x4 DUP1 CALLDATASIZE SUB DUP2 ADD SWAP1 PUSH2 0xCFD SWAP2 SWAP1 PUSH2 0x5349 JUMP JUMPDEST PUSH2 0x24C9 JUMP JUMPDEST STOP JUMPDEST CALLVALUE DUP1 ISZERO PUSH2 0xD10 JUMPI PUSH1 0x0 DUP1 REVERT JUMPDEST POP PUSH2 0xD19 PUSH2 0x24E2 JUMP JUMPDEST PUSH1 0x40 MLOAD PUSH2 0xD26 SWAP2 SWAP1 PUSH2 0x4B44 JUMP JUMPDEST PUSH1 0x40 MLOAD DUP1 SWAP2 SUB SWAP1 RETURN JUMPDEST CALLVALUE DUP1 ISZERO PUSH2 0xD3B JUMPI PUSH1 0x0 DUP1 REVERT JUMPDEST POP PUSH2 0xD44 PUSH2 0x24F1 JUMP JUMPDEST PUSH1 0x40 MLOAD PUSH2 0xD51 SWAP2 SWAP1 PUSH2 0x4773 JUMP JUMPDEST PUSH1 0x40 MLOAD DUP1 SWAP2 SUB SWAP1 RETURN JUMPDEST CALLVALUE DUP1 ISZERO PUSH2 0xD66 JUMPI PUSH1 0x0 DUP1 REVERT JUMPDEST POP PUSH2 0xD6F PUSH2 0x250F JUMP JUMPDEST PUSH1 0x40 MLOAD PUSH2 0xD7C SWAP2 SWAP1 PUSH2 0x4773 JUMP JUMPDEST PUSH1 0x40 MLOAD DUP1 SWAP2 SUB SWAP1 RETURN JUMPDEST CALLVALUE DUP1 ISZERO PUSH2 0xD91 JUMPI PUSH1 0x0 DUP1 REVERT JUMPDEST POP PUSH2 0xDAC PUSH1 0x4 DUP1 CALLDATASIZE SUB DUP2 ADD SWAP1 PUSH2 0xDA7 SWAP2 SWAP1 PUSH2 0x5389 JUMP JUMPDEST PUSH2 0x2518 JUMP JUMPDEST STOP JUMPDEST PUSH2 0xDC8 PUSH1 0x4 DUP1 CALLDATASIZE SUB DUP2 ADD SWAP1 PUSH2 0xDC3 SWAP2 SWAP1 PUSH2 0x5457 JUMP JUMPDEST PUSH2 0x25AE JUMP JUMPDEST STOP JUMPDEST CALLVALUE DUP1 ISZERO PUSH2 0xDD6 JUMPI PUSH1 0x0 DUP1 REVERT JUMPDEST POP PUSH2 0xDDF PUSH2 0x25FF JUMP JUMPDEST PUSH1 0x40 MLOAD PUSH2 0xDEC SWAP2 SWAP1 PUSH2 0x54DA JUMP JUMPDEST PUSH1 0x40 MLOAD DUP1 SWAP2 SUB SWAP1 RETURN JUMPDEST CALLVALUE DUP1 ISZERO PUSH2 0xE01 JUMPI PUSH1 0x0 DUP1 REVERT JUMPDEST POP PUSH2 0xE0A PUSH2 0x2613 JUMP JUMPDEST PUSH1 0x40 MLOAD PUSH2 0xE17 SWAP2 SWAP1 PUSH2 0x4E2C JUMP JUMPDEST PUSH1 0x40 MLOAD DUP1 SWAP2 SUB SWAP1 RETURN JUMPDEST CALLVALUE DUP1 ISZERO PUSH2 0xE2C JUMPI PUSH1 0x0 DUP1 REVERT JUMPDEST POP PUSH2 0xE35 PUSH2 0x2618 JUMP JUMPDEST PUSH1 0x40 MLOAD PUSH2 0xE42 SWAP2 SWAP1 PUSH2 0x4E2C JUMP JUMPDEST PUSH1 0x40 MLOAD DUP1 SWAP2 SUB SWAP1 RETURN JUMPDEST CALLVALUE DUP1 ISZERO PUSH2 0xE57 JUMPI PUSH1 0x0 DUP1 REVERT JUMPDEST POP PUSH2 0xE60 PUSH2 0x261D JUMP JUMPDEST PUSH1 0x40 MLOAD PUSH2 0xE6D SWAP2 SWAP1 PUSH2 0x481E JUMP JUMPDEST PUSH1 0x40 MLOAD DUP1 SWAP2 SUB SWAP1 RETURN JUMPDEST CALLVALUE DUP1 ISZERO PUSH2 0xE82 JUMPI PUSH1 0x0 DUP1 REVERT JUMPDEST POP PUSH2 0xE9D PUSH1 0x4 DUP1 CALLDATASIZE SUB DUP2 ADD SWAP1 PUSH2 0xE98 SWAP2 SWAP1 PUSH2 0x4876 JUMP JUMPDEST PUSH2 0x26AB JUMP JUMPDEST PUSH1 0x40 MLOAD PUSH2 0xEAA SWAP2 SWAP1 PUSH2 0x481E JUMP JUMPDEST PUSH1 0x40 MLOAD DUP1 SWAP2 SUB SWAP1 RETURN JUMPDEST CALLVALUE DUP1 ISZERO PUSH2 0xEBF JUMPI PUSH1 0x0 DUP1 REVERT JUMPDEST POP PUSH2 0xEDA PUSH1 0x4 DUP1 CALLDATASIZE SUB DUP2 ADD SWAP1 PUSH2 0xED5 SWAP2 SWAP1 PUSH2 0x570F JUMP JUMPDEST PUSH2 0x2749 JUMP JUMPDEST STOP JUMPDEST CALLVALUE DUP1 ISZERO PUSH2 0xEE8 JUMPI PUSH1 0x0 DUP1 REVERT JUMPDEST POP PUSH2 0xEF1 PUSH2 0x2799 JUMP JUMPDEST STOP JUMPDEST CALLVALUE DUP1 ISZERO PUSH2 0xEFF JUMPI PUSH1 0x0 DUP1 REVERT JUMPDEST POP PUSH2 0xF08 PUSH2 0x286B JUMP JUMPDEST PUSH1 0x40 MLOAD PUSH2 0xF15 SWAP2 SWAP1 PUSH2 0x4B44 JUMP JUMPDEST PUSH1 0x40 MLOAD DUP1 SWAP2 SUB SWAP1 RETURN JUMPDEST CALLVALUE DUP1 ISZERO PUSH2 0xF2A JUMPI PUSH1 0x0 DUP1 REVERT JUMPDEST POP PUSH2 0xF33 PUSH2 0x2870 JUMP JUMPDEST PUSH1 0x40 MLOAD PUSH2 0xF40 SWAP2 SWAP1 PUSH2 0x5758 JUMP JUMPDEST PUSH1 0x40 MLOAD DUP1 SWAP2 SUB SWAP1 RETURN JUMPDEST CALLVALUE DUP1 ISZERO PUSH2 0xF55 JUMPI PUSH1 0x0 DUP1 REVERT JUMPDEST POP PUSH2 0xF70 PUSH1 0x4 DUP1 CALLDATASIZE SUB DUP2 ADD SWAP1 PUSH2 0xF6B SWAP2 SWAP1 PUSH2 0x4B5F JUMP JUMPDEST PUSH2 0x287B JUMP JUMPDEST PUSH1 0x40 MLOAD PUSH2 0xF7D SWAP2 SWAP1 PUSH2 0x4B44 JUMP JUMPDEST PUSH1 0x40 MLOAD DUP1 SWAP2 SUB SWAP1 RETURN JUMPDEST CALLVALUE DUP1 ISZERO PUSH2 0xF92 JUMPI PUSH1 0x0 DUP1 REVERT JUMPDEST POP PUSH2 0xFAD PUSH1 0x4 DUP1 CALLDATASIZE SUB DUP2 ADD SWAP1 PUSH2 0xFA8 SWAP2 SWAP1 PUSH2 0x5915 JUMP JUMPDEST PUSH2 0x288D JUMP JUMPDEST STOP JUMPDEST CALLVALUE DUP1 ISZERO PUSH2 0xFBB JUMPI PUSH1 0x0 DUP1 REVERT JUMPDEST POP PUSH2 0xFC4 PUSH2 0x2BEE JUMP JUMPDEST STOP JUMPDEST PUSH2 0xFE0 PUSH1 0x4 DUP1 CALLDATASIZE SUB DUP2 ADD SWAP1 PUSH2 0xFDB SWAP2 SWAP1 PUSH2 0x492B JUMP JUMPDEST PUSH2 0x2FAD JUMP JUMPDEST PUSH1 0x40 MLOAD PUSH2 0xFED SWAP2 SWAP1 PUSH2 0x4B44 JUMP JUMPDEST PUSH1 0x40 MLOAD DUP1 SWAP2 SUB SWAP1 RETURN JUMPDEST CALLVALUE DUP1 ISZERO PUSH2 0x1002 JUMPI PUSH1 0x0 DUP1 REVERT JUMPDEST POP PUSH2 0x100B PUSH2 0x3080 JUMP JUMPDEST PUSH1 0x40 MLOAD PUSH2 0x1018 SWAP2 SWAP1 PUSH2 0x4EAE JUMP JUMPDEST PUSH1 0x40 MLOAD DUP1 SWAP2 SUB SWAP1 RETURN JUMPDEST CALLVALUE DUP1 ISZERO PUSH2 0x102D JUMPI PUSH1 0x0 DUP1 REVERT JUMPDEST POP PUSH2 0x1036 PUSH2 0x309A JUMP JUMPDEST PUSH1 0x40 MLOAD PUSH2 0x1043 SWAP2 SWAP1 PUSH2 0x481E JUMP JUMPDEST PUSH1 0x40 MLOAD DUP1 SWAP2 SUB SWAP1 RETURN JUMPDEST CALLVALUE DUP1 ISZERO PUSH2 0x1058 JUMPI PUSH1 0x0 DUP1 REVERT JUMPDEST POP PUSH2 0x1073 PUSH1 0x4 DUP1 CALLDATASIZE SUB DUP2 ADD SWAP1 PUSH2 0x106E SWAP2 SWAP1 PUSH2 0x5A65 JUMP JUMPDEST PUSH2 0x312C JUMP JUMPDEST PUSH1 0x40 MLOAD PUSH2 0x1080 SWAP2 SWAP1 PUSH2 0x4773 JUMP JUMPDEST PUSH1 0x40 MLOAD DUP1 SWAP2 SUB SWAP1 RETURN JUMPDEST PUSH2 0x10A3 PUSH1 0x4 DUP1 CALLDATASIZE SUB DUP2 ADD SWAP1 PUSH2 0x109E SWAP2 SWAP1 PUSH2 0x4B5F JUMP JUMPDEST PUSH2 0x31C9 JUMP JUMPDEST STOP JUMPDEST PUSH2 0x10BF PUSH1 0x4 DUP1 CALLDATASIZE SUB DUP2 ADD SWAP1 PUSH2 0x10BA SWAP2 SWAP1 PUSH2 0x4B5F JUMP JUMPDEST PUSH2 0x320A JUMP JUMPDEST STOP JUMPDEST CALLVALUE DUP1 ISZERO PUSH2 0x10CD JUMPI PUSH1 0x0 DUP1 REVERT JUMPDEST POP PUSH2 0x10D6 PUSH2 0x3234 JUMP JUMPDEST PUSH1 0x40 MLOAD PUSH2 0x10E3 SWAP2 SWAP1 PUSH2 0x4773 JUMP JUMPDEST PUSH1 0x40 MLOAD DUP1 SWAP2 SUB SWAP1 RETURN JUMPDEST CALLVALUE DUP1 ISZERO PUSH2 0x10F8 JUMPI PUSH1 0x0 DUP1 REVERT JUMPDEST POP PUSH2 0x1113 PUSH1 0x4 DUP1 CALLDATASIZE SUB DUP2 ADD SWAP1 PUSH2 0x110E SWAP2 SWAP1 PUSH2 0x4B5F JUMP JUMPDEST PUSH2 0x3243 JUMP JUMPDEST PUSH1 0x40 MLOAD PUSH2 0x1120 SWAP2 SWAP1 PUSH2 0x4B44 JUMP JUMPDEST PUSH1 0x40 MLOAD DUP1 SWAP2 SUB SWAP1 RETURN JUMPDEST CALLVALUE DUP1 ISZERO PUSH2 0x1135 JUMPI PUSH1 0x0 DUP1 REVERT JUMPDEST POP PUSH2 0x1150 PUSH1 0x4 DUP1 CALLDATASIZE SUB DUP2 ADD SWAP1 PUSH2 0x114B SWAP2 SWAP1 PUSH2 0x5AA5 JUMP JUMPDEST PUSH2 0x325E JUMP JUMPDEST STOP JUMPDEST PUSH1 0x0 PUSH4 0xE1B3426D PUSH1 0xE0 SHL PUSH28 0xFFFFFFFFFFFFFFFFFFFFFFFFFFFFFFFFFFFFFFFFFFFFFFFFFFFFFFFF NOT AND DUP3 PUSH28 0xFFFFFFFFFFFFFFFFFFFFFFFFFFFFFFFFFFFFFFFFFFFFFFFFFFFFFFFF NOT AND EQ DUP1 PUSH2 0x1204 JUMPI POP PUSH32 0xE1B3426D00000000000000000000000000000000000000000000000000000000 PUSH28 0xFFFFFFFFFFFFFFFFFFFFFFFFFFFFFFFFFFFFFFFFFFFFFFFFFFFFFFFF NOT AND DUP3 PUSH28 0xFFFFFFFFFFFFFFFFFFFFFFFFFFFFFFFFFFFFFFFFFFFFFFFFFFFFFFFF NOT AND EQ JUMPDEST DUP1 PUSH2 0x1214 JUMPI POP PUSH2 0x1213 DUP3 PUSH2 0x33CA JUMP JUMPDEST JUMPDEST DUP1 PUSH2 0x1263 JUMPI POP PUSH4 0x2A55205A PUSH1 0xE0 SHL PUSH28 0xFFFFFFFFFFFFFFFFFFFFFFFFFFFFFFFFFFFFFFFFFFFFFFFFFFFFFFFF NOT AND DUP3 PUSH28 0xFFFFFFFFFFFFFFFFFFFFFFFFFFFFFFFFFFFFFFFFFFFFFFFFFFFFFFFF NOT AND EQ JUMPDEST DUP1 PUSH2 0x12B2 JUMPI POP PUSH4 0x1FFC9A7 PUSH1 0xE0 SHL PUSH28 0xFFFFFFFFFFFFFFFFFFFFFFFFFFFFFFFFFFFFFFFFFFFFFFFFFFFFFFFF NOT AND DUP3 PUSH28 0xFFFFFFFFFFFFFFFFFFFFFFFFFFFFFFFFFFFFFFFFFFFFFFFFFFFFFFFF NOT AND EQ JUMPDEST SWAP1 POP SWAP2 SWAP1 POP JUMP JUMPDEST PUSH1 0x60 PUSH1 0x0 PUSH2 0x12C5 PUSH2 0x345C JUMP JUMPDEST POP SWAP1 POP DUP1 SWAP2 POP POP SWAP1 JUMP JUMPDEST PUSH1 0x0 PUSH2 0x12DA DUP3 PUSH2 0x35B8 JUMP JUMPDEST PUSH2 0x12EF JUMPI PUSH2 0x12EE PUSH4 0xCF4700E4 PUSH1 0xE0 SHL PUSH2 0x3643 JUMP JUMPDEST JUMPDEST PUSH2 0x12F7 PUSH2 0x364D JUMP JUMPDEST PUSH1 0x6 ADD PUSH1 0x0 DUP4 DUP2 MSTORE PUSH1 0x20 ADD SWAP1 DUP2 MSTORE PUSH1 0x20 ADD PUSH1 0x0 KECCAK256 PUSH1 0x0 ADD PUSH1 0x0 SWAP1 SLOAD SWAP1 PUSH2 0x100 EXP SWAP1 DIV PUSH20 0xFFFFFFFFFFFFFFFFFFFFFFFFFFFFFFFFFFFFFFFF AND SWAP1 POP SWAP2 SWAP1 POP JUMP JUMPDEST DUP2 PUSH2 0x1340 DUP2 PUSH2 0x367A JUMP JUMPDEST PUSH2 0x134A DUP4 DUP4 PUSH2 0x3777 JUMP JUMPDEST POP POP POP JUMP JUMPDEST PUSH1 0x4 DUP1 SLOAD PUSH2 0x135C SWAP1 PUSH2 0x5B76 JUMP JUMPDEST DUP1 PUSH1 0x1F ADD PUSH1 0x20 DUP1 SWAP2 DIV MUL PUSH1 0x20 ADD PUSH1 0x40 MLOAD SWAP1 DUP2 ADD PUSH1 0x40 MSTORE DUP1 SWAP3 SWAP2 SWAP1 DUP2 DUP2 MSTORE PUSH1 0x20 ADD DUP3 DUP1 SLOAD PUSH2 0x1388 SWAP1 PUSH2 0x5B76 JUMP JUMPDEST DUP1 ISZERO PUSH2 0x13D5 JUMPI DUP1 PUSH1 0x1F LT PUSH2 0x13AA JUMPI PUSH2 0x100 DUP1 DUP4 SLOAD DIV MUL DUP4 MSTORE SWAP2 PUSH1 0x20 ADD SWAP2 PUSH2 0x13D5 JUMP JUMPDEST DUP3 ADD SWAP2 SWAP1 PUSH1 0x0 MSTORE PUSH1 0x20 PUSH1 0x0 KECCAK256 SWAP1 JUMPDEST DUP2 SLOAD DUP2 MSTORE SWAP1 PUSH1 0x1 ADD SWAP1 PUSH1 0x20 ADD DUP1 DUP4 GT PUSH2 0x13B8 JUMPI DUP3 SWAP1 SUB PUSH1 0x1F AND DUP3 ADD SWAP2 JUMPDEST POP POP POP POP POP DUP2 JUMP JUMPDEST PUSH1 0x0 DUP2 MLOAD PUSH1 0x5 SHL JUMPDEST DUP1 ISZERO PUSH2 0x1401 JUMPI DUP2 PUSH1 0x1 DUP3 DUP6 ADD MLOAD SHL OR SWAP2 POP PUSH1 0x20 DUP2 SUB SWAP1 POP PUSH2 0x13E5 JUMP JUMPDEST POP SWAP2 SWAP1 POP JUMP JUMPDEST PUSH1 0x1 PUSH2 0x1412 DUP2 PUSH2 0x3787 JUMP JUMPDEST PUSH2 0x141B DUP3 PUSH2 0x37BE JUMP JUMPDEST POP POP JUMP JUMPDEST PUSH1 0x0 PUSH2 0x1429 PUSH2 0x37FC JUMP JUMPDEST PUSH2 0x1431 PUSH2 0x364D JUMP JUMPDEST PUSH1 0x1 ADD SLOAD PUSH2 0x143D PUSH2 0x364D JUMP JUMPDEST PUSH1 0x0 ADD SLOAD SUB SUB SWAP1 POP SWAP1 JUMP JUMPDEST PUSH2 0x1452 CALLER DUP3 PUSH2 0x3805 JUMP JUMPDEST POP JUMP JUMPDEST PUSH1 0x0 DUP2 PUSH1 0xFF DUP2 GT ISZERO PUSH2 0x1493 JUMPI PUSH1 0x40 MLOAD PUSH32 0x851CF82A00000000000000000000000000000000000000000000000000000000 DUP2 MSTORE PUSH1 0x4 ADD PUSH1 0x40 MLOAD DUP1 SWAP2 SUB SWAP1 REVERT JUMPDEST DUP3 PUSH1 0x0 PUSH2 0x149E PUSH2 0x24E2 JUMP JUMPDEST SWAP1 POP PUSH1 0x0 PUSH2 0x14AA PUSH2 0x3080 JUMP JUMPDEST PUSH4 0xFFFFFFFF AND SWAP1 POP DUP1 DUP4 DUP4 ADD GT ISZERO PUSH2 0x1500 JUMPI PUSH1 0x0 DUP3 DUP3 SUB SWAP1 POP DUP1 PUSH1 0x40 MLOAD PUSH32 0x4D5C803F00000000000000000000000000000000000000000000000000000000 DUP2 MSTORE PUSH1 0x4 ADD PUSH2 0x14F7 SWAP2 SWAP1 PUSH2 0x4EAE JUMP JUMPDEST PUSH1 0x40 MLOAD DUP1 SWAP2 SUB SWAP1 REVERT JUMPDEST POP POP PUSH1 0x0 PUSH1 0x8 PUSH1 0x0 ADD PUSH1 0x0 SWAP1 SLOAD SWAP1 PUSH2 0x100 EXP SWAP1 DIV PUSH13 0xFFFFFFFFFFFFFFFFFFFFFFFFFF AND PUSH13 0xFFFFFFFFFFFFFFFFFFFFFFFFFF AND SWAP1 POP DUP5 DUP2 PUSH2 0x1540 SWAP2 SWAP1 PUSH2 0x5BD6 JUMP JUMPDEST CALLVALUE EQ PUSH2 0x158E JUMPI DUP5 DUP2 PUSH2 0x1552 SWAP2 SWAP1 PUSH2 0x5BD6 JUMP JUMPDEST PUSH1 0x40 MLOAD PUSH32 0x6A1C179E00000000000000000000000000000000000000000000000000000000 DUP2 MSTORE PUSH1 0x4 ADD PUSH2 0x1585 SWAP2 SWAP1 PUSH2 0x4B44 JUMP JUMPDEST PUSH1 0x40 MLOAD DUP1 SWAP2 SUB SWAP1 REVERT JUMPDEST PUSH1 0x0 PUSH1 0x8 PUSH1 0x0 ADD PUSH1 0xD SWAP1 SLOAD SWAP1 PUSH2 0x100 EXP SWAP1 DIV PUSH4 0xFFFFFFFF AND PUSH4 0xFFFFFFFF AND EQ ISZERO DUP1 ISZERO PUSH2 0x1631 JUMPI POP PUSH1 0x8 PUSH1 0x0 ADD PUSH1 0xD SWAP1 SLOAD SWAP1 PUSH2 0x100 EXP SWAP1 DIV PUSH4 0xFFFFFFFF AND PUSH4 0xFFFFFFFF AND PUSH1 0xB PUSH1 0x0 CALLER PUSH20 0xFFFFFFFFFFFFFFFFFFFFFFFFFFFFFFFFFFFFFFFF AND PUSH20 0xFFFFFFFFFFFFFFFFFFFFFFFFFFFFFFFFFFFFFFFF AND DUP2 MSTORE PUSH1 0x20 ADD SWAP1 DUP2 MSTORE PUSH1 0x20 ADD PUSH1 0x0 KECCAK256 SLOAD DUP7 PUSH2 0x161B CALLER PUSH2 0x3854 JUMP JUMPDEST PUSH2 0x1625 SWAP2 SWAP1 PUSH2 0x5C18 JUMP JUMPDEST PUSH2 0x162F SWAP2 SWAP1 PUSH2 0x5C4C JUMP JUMPDEST GT JUMPDEST ISZERO PUSH2 0x1668 JUMPI PUSH1 0x40 MLOAD PUSH32 0x220AE94C00000000000000000000000000000000000000000000000000000000 DUP2 MSTORE PUSH1 0x4 ADD PUSH1 0x40 MLOAD DUP1 SWAP2 SUB SWAP1 REVERT JUMPDEST PUSH2 0x1670 PUSH2 0x38B4 JUMP JUMPDEST SWAP4 POP PUSH2 0x167C CALLER DUP7 PUSH2 0x38C7 JUMP JUMPDEST PUSH32 0x25B428DFDE728CCFADDAD7E29E4AC23C24ED7FD1A6E3E3F91894A9A073F5DFFF CALLER DUP7 DUP7 PUSH1 0x40 MLOAD PUSH2 0x16AF SWAP4 SWAP3 SWAP2 SWAP1 PUSH2 0x5C80 JUMP JUMPDEST PUSH1 0x40 MLOAD DUP1 SWAP2 SUB SWAP1 LOG1 POP POP POP SWAP2 SWAP1 POP JUMP JUMPDEST PUSH2 0x16C7 PUSH2 0x3A4F JUMP JUMPDEST PUSH2 0x16D1 DUP3 DUP3 PUSH2 0x3A6C JUMP JUMPDEST POP POP JUMP JUMPDEST PUSH1 0x0 PUSH4 0x8B78C6D8 PUSH1 0xC MSTORE DUP3 PUSH1 0x0 MSTORE DUP2 DUP3 PUSH1 0x20 PUSH1 0xC KECCAK256 SLOAD AND EQ SWAP1 POP SWAP3 SWAP2 POP POP JUMP JUMPDEST PUSH1 0x8 DUP1 PUSH1 0x0 ADD PUSH1 0x0 SWAP1 SLOAD SWAP1 PUSH2 0x100 EXP SWAP1 DIV PUSH13 0xFFFFFFFFFFFFFFFFFFFFFFFFFF AND SWAP1 DUP1 PUSH1 0x0 ADD PUSH1 0xD SWAP1 SLOAD SWAP1 PUSH2 0x100 EXP SWAP1 DIV PUSH4 0xFFFFFFFF AND SWAP1 DUP1 PUSH1 0x0 ADD PUSH1 0x11 SWAP1 SLOAD SWAP1 PUSH2 0x100 EXP SWAP1 DIV PUSH8 0xFFFFFFFFFFFFFFFF AND SWAP1 DUP1 PUSH1 0x1 ADD PUSH1 0x0 SWAP1 SLOAD SWAP1 PUSH2 0x100 EXP SWAP1 DIV PUSH8 0xFFFFFFFFFFFFFFFF AND SWAP1 DUP1 PUSH1 0x1 ADD PUSH1 0x8 SWAP1 SLOAD SWAP1 PUSH2 0x100 EXP SWAP1 DIV PUSH8 0xFFFFFFFFFFFFFFFF AND SWAP1 DUP1 PUSH1 0x1 ADD PUSH1 0x10 SWAP1 SLOAD SWAP1 PUSH2 0x100 EXP SWAP1 DIV PUSH8 0xFFFFFFFFFFFFFFFF AND SWAP1 DUP1 PUSH1 0x2 ADD SLOAD SWAP1 POP DUP8 JUMP JUMPDEST DUP3 CALLER PUSH20 0xFFFFFFFFFFFFFFFFFFFFFFFFFFFFFFFFFFFFFFFF AND DUP2 PUSH20 0xFFFFFFFFFFFFFFFFFFFFFFFFFFFFFFFFFFFFFFFF AND EQ PUSH2 0x17DC JUMPI PUSH2 0x17DB CALLER PUSH2 0x367A JUMP JUMPDEST JUMPDEST PUSH2 0x17E7 DUP5 DUP5 DUP5 PUSH2 0x3AB7 JUMP JUMPDEST POP POP POP POP JUMP JUMPDEST PUSH1 0x0 PUSH1 0x2 PUSH1 0x0 SLOAD SUB PUSH2 0x1834 JUMPI PUSH1 0x40 MLOAD PUSH32 0x8C379A000000000000000000000000000000000000000000000000000000000 DUP2 MSTORE PUSH1 0x4 ADD PUSH2 0x182B SWAP1 PUSH2 0x5D03 JUMP JUMPDEST PUSH1 0x40 MLOAD DUP1 SWAP2 SUB SWAP1 REVERT JUMPDEST PUSH1 0x2 PUSH1 0x0 DUP2 SWAP1 SSTORE POP DUP6 PUSH1 0x0 PUSH2 0x1847 PUSH2 0x24E2 JUMP JUMPDEST SWAP1 POP PUSH1 0x0 PUSH2 0x1853 PUSH2 0x3080 JUMP JUMPDEST PUSH4 0xFFFFFFFF AND SWAP1 POP DUP1 DUP4 DUP4 ADD GT ISZERO PUSH2 0x18A9 JUMPI PUSH1 0x0 DUP3 DUP3 SUB SWAP1 POP DUP1 PUSH1 0x40 MLOAD PUSH32 0x4D5C803F00000000000000000000000000000000000000000000000000000000 DUP2 MSTORE PUSH1 0x4 ADD PUSH2 0x18A0 SWAP2 SWAP1 PUSH2 0x4EAE JUMP JUMPDEST PUSH1 0x40 MLOAD DUP1 SWAP2 SUB SWAP1 REVERT JUMPDEST POP POP PUSH2 0x18B3 PUSH2 0x3DAE JUMP JUMPDEST PUSH2 0x18E9 JUMPI PUSH1 0x40 MLOAD PUSH32 0x95ED3C1A00000000000000000000000000000000000000000000000000000000 DUP2 MSTORE PUSH1 0x4 ADD PUSH1 0x40 MLOAD DUP1 SWAP2 SUB SWAP1 REVERT JUMPDEST PUSH2 0x1964 DUP5 DUP5 DUP1 DUP1 PUSH1 0x20 MUL PUSH1 0x20 ADD PUSH1 0x40 MLOAD SWAP1 DUP2 ADD PUSH1 0x40 MSTORE DUP1 SWAP4 SWAP3 SWAP2 SWAP1 DUP2 DUP2 MSTORE PUSH1 0x20 ADD DUP4 DUP4 PUSH1 0x20 MUL DUP1 DUP3 DUP5 CALLDATACOPY PUSH1 0x0 DUP2 DUP5 ADD MSTORE PUSH1 0x1F NOT PUSH1 0x1F DUP3 ADD AND SWAP1 POP DUP1 DUP4 ADD SWAP3 POP POP POP POP POP POP POP PUSH1 0x8 PUSH1 0x2 ADD SLOAD CALLER DUP10 DUP10 PUSH1 0x40 MLOAD PUSH1 0x20 ADD PUSH2 0x1949 SWAP4 SWAP3 SWAP2 SWAP1 PUSH2 0x5C80 JUMP JUMPDEST PUSH1 0x40 MLOAD PUSH1 0x20 DUP2 DUP4 SUB SUB DUP2 MSTORE SWAP1 PUSH1 0x40 MSTORE DUP1 MLOAD SWAP1 PUSH1 0x20 ADD KECCAK256 PUSH2 0x3E0A JUMP JUMPDEST PUSH2 0x199A JUMPI PUSH1 0x40 MLOAD PUSH32 0x85B70E5200000000000000000000000000000000000000000000000000000000 DUP2 MSTORE PUSH1 0x4 ADD PUSH1 0x40 MLOAD DUP1 SWAP2 SUB SWAP1 REVERT JUMPDEST DUP7 DUP6 PUSH2 0x19A6 SWAP2 SWAP1 PUSH2 0x5BD6 JUMP JUMPDEST CALLVALUE EQ PUSH2 0x19F4 JUMPI DUP7 DUP6 PUSH2 0x19B8 SWAP2 SWAP1 PUSH2 0x5BD6 JUMP JUMPDEST PUSH1 0x40 MLOAD PUSH32 0x6A1C179E00000000000000000000000000000000000000000000000000000000 DUP2 MSTORE PUSH1 0x4 ADD PUSH2 0x19EB SWAP2 SWAP1 PUSH2 0x4B44 JUMP JUMPDEST PUSH1 0x40 MLOAD DUP1 SWAP2 SUB SWAP1 REVERT JUMPDEST DUP7 PUSH1 0xB PUSH1 0x0 CALLER PUSH20 0xFFFFFFFFFFFFFFFFFFFFFFFFFFFFFFFFFFFFFFFF AND PUSH20 0xFFFFFFFFFFFFFFFFFFFFFFFFFFFFFFFFFFFFFFFF AND DUP2 MSTORE PUSH1 0x20 ADD SWAP1 DUP2 MSTORE PUSH1 0x20 ADD PUSH1 0x0 KECCAK256 PUSH1 0x0 DUP3 DUP3 SLOAD PUSH2 0x1A43 SWAP2 SWAP1 PUSH2 0x5C18 JUMP JUMPDEST SWAP3 POP POP DUP2 SWAP1 SSTORE POP DUP6 PUSH1 0xB PUSH1 0x0 CALLER PUSH20 0xFFFFFFFFFFFFFFFFFFFFFFFFFFFFFFFFFFFFFFFF AND PUSH20 0xFFFFFFFFFFFFFFFFFFFFFFFFFFFFFFFFFFFFFFFF AND DUP2 MSTORE PUSH1 0x20 ADD SWAP1 DUP2 MSTORE PUSH1 0x20 ADD PUSH1 0x0 KECCAK256 SLOAD GT ISZERO PUSH2 0x1AC3 JUMPI PUSH1 0x40 MLOAD PUSH32 0xA7B32BB100000000000000000000000000000000000000000000000000000000 DUP2 MSTORE PUSH1 0x4 ADD PUSH1 0x40 MLOAD DUP1 SWAP2 SUB SWAP1 REVERT JUMPDEST PUSH2 0x1ACD CALLER DUP9 PUSH2 0x38C7 JUMP JUMPDEST PUSH1 0x0 PUSH2 0x1AD7 PUSH2 0x38B4 JUMP JUMPDEST SWAP1 POP DUP6 DUP9 CALLER PUSH20 0xFFFFFFFFFFFFFFFFFFFFFFFFFFFFFFFFFFFFFFFF AND PUSH32 0x4E26B0356A15833A75D497ECC40EBBB716B99466ED0DBA9454F1FFF451E25A90 DUP5 PUSH1 0x40 MLOAD PUSH2 0x1B21 SWAP2 SWAP1 PUSH2 0x4B44 JUMP JUMPDEST PUSH1 0x40 MLOAD DUP1 SWAP2 SUB SWAP1 LOG4 DUP1 SWAP3 POP POP POP PUSH1 0x1 PUSH1 0x0 DUP2 SWAP1 SSTORE POP SWAP6 SWAP5 POP POP POP POP POP JUMP JUMPDEST PUSH1 0x0 PUSH2 0x1B49 PUSH2 0x2870 JUMP JUMPDEST PUSH8 0xFFFFFFFFFFFFFFFF AND TIMESTAMP ADD SWAP1 POP PUSH4 0x389A75E1 PUSH1 0xC MSTORE CALLER PUSH1 0x0 MSTORE DUP1 PUSH1 0x20 PUSH1 0xC KECCAK256 SSTORE CALLER PUSH32 0xDBF36A107DA19E49527A7176A1BABF963B4B0FF8CDE35EE35D6CD8F1F9AC7E1D PUSH1 0x0 DUP1 LOG2 POP JUMP JUMPDEST PUSH1 0x0 DUP1 PUSH1 0x5 PUSH1 0x0 SWAP1 SLOAD SWAP1 PUSH2 0x100 EXP SWAP1 DIV PUSH20 0xFFFFFFFFFFFFFFFFFFFFFFFFFFFFFFFFFFFFFFFF AND SWAP2 POP PUSH2 0x2710 PUSH2 0xFFFF AND PUSH1 0x6 PUSH1 0x1D SWAP1 SLOAD SWAP1 PUSH2 0x100 EXP SWAP1 DIV PUSH2 0xFFFF AND PUSH2 0xFFFF AND DUP5 PUSH2 0x1BE2 SWAP2 SWAP1 PUSH2 0x5BD6 JUMP JUMPDEST PUSH2 0x1BEC SWAP2 SWAP1 PUSH2 0x5D52 JUMP JUMPDEST SWAP1 POP SWAP3 POP SWAP3 SWAP1 POP JUMP JUMPDEST PUSH1 0x1 DUP2 JUMP JUMPDEST PUSH1 0x0 PUSH4 0x8B78C6D8 PUSH1 0xC MSTORE DUP2 PUSH1 0x0 MSTORE PUSH1 0x20 PUSH1 0xC KECCAK256 SLOAD SWAP1 POP SWAP2 SWAP1 POP JUMP JUMPDEST PUSH1 0x1 PUSH2 0x1C20 DUP2 PUSH2 0x3E21 JUMP JUMPDEST PUSH1 0x0 PUSH20 0xFFFFFFFFFFFFFFFFFFFFFFFFFFFFFFFFFFFFFFFF AND DUP3 PUSH20 0xFFFFFFFFFFFFFFFFFFFFFFFFFFFFFFFFFFFFFFFF AND SUB PUSH2 0x1C86 JUMPI PUSH1 0x40 MLOAD PUSH32 0xB942D92000000000000000000000000000000000000000000000000000000000 DUP2 MSTORE PUSH1 0x4 ADD PUSH1 0x40 MLOAD DUP1 SWAP2 SUB SWAP1 REVERT JUMPDEST DUP2 PUSH1 0x5 PUSH1 0x0 PUSH2 0x100 EXP DUP2 SLOAD DUP2 PUSH20 0xFFFFFFFFFFFFFFFFFFFFFFFFFFFFFFFFFFFFFFFF MUL NOT AND SWAP1 DUP4 PUSH20 0xFFFFFFFFFFFFFFFFFFFFFFFFFFFFFFFFFFFFFFFF AND MUL OR SWAP1 SSTORE POP PUSH32 0x8442BCB3C78BBC2D0A1A10DD2C2BA99EF8058B97C2843A976F7CA7EDBFE9D3F1 PUSH1 0x5 PUSH1 0x0 SWAP1 SLOAD SWAP1 PUSH2 0x100 EXP SWAP1 DIV PUSH20 0xFFFFFFFFFFFFFFFFFFFFFFFFFFFFFFFFFFFFFFFF AND PUSH1 0x40 MLOAD PUSH2 0x1D18 SWAP2 SWAP1 PUSH2 0x48E4 JUMP JUMPDEST PUSH1 0x40 MLOAD DUP1 SWAP2 SUB SWAP1 LOG1 POP POP JUMP JUMPDEST PUSH1 0x1 PUSH2 0x1D2F DUP2 PUSH2 0x3E21 JUMP JUMPDEST DUP2 PUSH2 0x2710 PUSH2 0xFFFF AND DUP2 PUSH2 0xFFFF AND GT ISZERO PUSH2 0x1D74 JUMPI PUSH1 0x40 MLOAD PUSH32 0xCA88643800000000000000000000000000000000000000000000000000000000 DUP2 MSTORE PUSH1 0x4 ADD PUSH1 0x40 MLOAD DUP1 SWAP2 SUB SWAP1 REVERT JUMPDEST DUP3 PUSH1 0x6 PUSH1 0x1D PUSH2 0x100 EXP DUP2 SLOAD DUP2 PUSH2 0xFFFF MUL NOT AND SWAP1 DUP4 PUSH2 0xFFFF AND MUL OR SWAP1 SSTORE POP PUSH32 0x92D0AA94DC2B378C7FD77FAAAF4CB3FD8336AE247CD486FB593726705772AC0 DUP4 PUSH1 0x40 MLOAD PUSH2 0x1DC0 SWAP2 SWAP1 PUSH2 0x54DA JUMP JUMPDEST PUSH1 0x40 MLOAD DUP1 SWAP2 SUB SWAP1 LOG1 POP POP POP JUMP JUMPDEST PUSH1 0x1 PUSH1 0x0 SWAP1 SLOAD SWAP1 PUSH2 0x100 EXP SWAP1 DIV PUSH4 0xFFFFFFFF AND DUP2 JUMP JUMPDEST PUSH1 0x6 PUSH1 0x0 SWAP1 SLOAD SWAP1 PUSH2 0x100 EXP SWAP1 DIV PUSH20 0xFFFFFFFFFFFFFFFFFFFFFFFFFFFFFFFFFFFFFFFF AND DUP2 JUMP JUMPDEST PUSH14 0xAAEB6D7670E522A718067333CD4E DUP2 JUMP JUMPDEST DUP3 CALLER PUSH20 0xFFFFFFFFFFFFFFFFFFFFFFFFFFFFFFFFFFFFFFFF AND DUP2 PUSH20 0xFFFFFFFFFFFFFFFFFFFFFFFFFFFFFFFFFFFFFFFF AND EQ PUSH2 0x1E59 JUMPI PUSH2 0x1E58 CALLER PUSH2 0x367A JUMP JUMPDEST JUMPDEST PUSH2 0x1E64 DUP5 DUP5 DUP5 PUSH2 0x3E58 JUMP JUMPDEST POP POP POP POP JUMP JUMPDEST PUSH2 0x1E72 PUSH2 0x3A4F JUMP JUMPDEST PUSH2 0x1E7C DUP3 DUP3 PUSH2 0x3805 JUMP JUMPDEST POP POP JUMP JUMPDEST PUSH1 0x1 PUSH2 0x1E8B DUP2 PUSH2 0x3E21 JUMP JUMPDEST PUSH1 0xC PUSH1 0x0 SWAP1 SLOAD SWAP1 PUSH2 0x100 EXP SWAP1 DIV PUSH1 0xFF AND ISZERO PUSH2 0x1EA5 JUMPI PUSH1 0x0 DUP1 REVERT JUMPDEST PUSH1 0x1 PUSH1 0xC PUSH1 0x0 PUSH2 0x100 EXP DUP2 SLOAD DUP2 PUSH1 0xFF MUL NOT AND SWAP1 DUP4 ISZERO ISZERO MUL OR SWAP1 SSTORE POP DUP3 DUP3 PUSH1 0x3 SWAP2 DUP3 PUSH2 0x1ED1 SWAP3 SWAP2 SWAP1 PUSH2 0x5F30 JUMP JUMPDEST POP PUSH32 0x518159E6371CD5B4C2AADCB329217344EE78B366CD3730E987F31878702401B6 DUP4 DUP4 PUSH1 0x1 PUSH1 0x40 MLOAD PUSH2 0x1F06 SWAP4 SWAP3 SWAP2 SWAP1 PUSH2 0x602D JUMP JUMPDEST PUSH1 0x40 MLOAD DUP1 SWAP2 SUB SWAP1 LOG1 POP POP POP JUMP JUMPDEST PUSH1 0x0 PUSH4 0x8B78C6D8 PUSH1 0xC MSTORE DUP3 PUSH1 0x0 MSTORE DUP2 PUSH1 0x20 PUSH1 0xC KECCAK256 SLOAD AND ISZERO ISZERO SWAP1 POP SWAP3 SWAP2 POP POP JUMP JUMPDEST PUSH1 0xC PUSH1 0x0 SWAP1 SLOAD SWAP1 PUSH2 0x100 EXP SWAP1 DIV PUSH1 0xFF AND DUP2 JUMP JUMPDEST PUSH4 0x389A75E1 PUSH1 0xC MSTORE CALLER PUSH1 0x0 MSTORE PUSH1 0x0 PUSH1 0x20 PUSH1 0xC KECCAK256 SSTORE CALLER PUSH32 0xFA7B8EAB7DA67F412CC9575ED43464468F9BFBAE89D1675917346CA6D8FE3C92 PUSH1 0x0 DUP1 LOG2 JUMP JUMPDEST PUSH1 0x1 PUSH2 0x1F8D DUP2 PUSH2 0x3E21 JUMP JUMPDEST PUSH1 0x0 PUSH1 0x1 PUSH1 0x6 PUSH1 0x1F SWAP1 SLOAD SWAP1 PUSH2 0x100 EXP SWAP1 DIV PUSH1 0xFF AND AND PUSH1 0xFF AND EQ PUSH2 0x1FDC JUMPI PUSH1 0x40 MLOAD PUSH32 0xB087BBF300000000000000000000000000000000000000000000000000000000 DUP2 MSTORE PUSH1 0x4 ADD PUSH1 0x40 MLOAD DUP1 SWAP2 SUB SWAP1 REVERT JUMPDEST DUP2 PUSH1 0x3 SWAP1 DUP2 PUSH2 0x1FEB SWAP2 SWAP1 PUSH2 0x605F JUMP JUMPDEST POP DUP2 PUSH1 0x40 MLOAD PUSH2 0x1FFA SWAP2 SWAP1 PUSH2 0x616D JUMP JUMPDEST PUSH1 0x40 MLOAD DUP1 SWAP2 SUB SWAP1 KECCAK256 PUSH32 0xF9C7803E94E0D3C02900D8A90893A6D5E90DD04D32A4CFE825520F82BF9F32F6 PUSH1 0x40 MLOAD PUSH1 0x40 MLOAD DUP1 SWAP2 SUB SWAP1 LOG2 POP POP JUMP JUMPDEST PUSH1 0x60 DUP2 SWAP1 POP SWAP2 SWAP1 POP JUMP JUMPDEST PUSH1 0x5 PUSH1 0x0 SWAP1 SLOAD SWAP1 PUSH2 0x100 EXP SWAP1 DIV PUSH20 0xFFFFFFFFFFFFFFFFFFFFFFFFFFFFFFFFFFFFFFFF AND DUP2 JUMP JUMPDEST PUSH1 0x4 DUP2 JUMP JUMPDEST PUSH1 0xB PUSH1 0x20 MSTORE DUP1 PUSH1 0x0 MSTORE PUSH1 0x40 PUSH1 0x0 KECCAK256 PUSH1 0x0 SWAP2 POP SWAP1 POP SLOAD DUP2 JUMP JUMPDEST PUSH1 0x0 PUSH2 0x208A DUP3 PUSH2 0x3E78 JUMP JUMPDEST SWAP1 POP SWAP2 SWAP1 POP JUMP JUMPDEST PUSH1 0x60 PUSH1 0x3 DUP1 SLOAD PUSH2 0x20A0 SWAP1 PUSH2 0x5B76 JUMP JUMPDEST DUP1 PUSH1 0x1F ADD PUSH1 0x20 DUP1 SWAP2 DIV MUL PUSH1 0x20 ADD PUSH1 0x40 MLOAD SWAP1 DUP2 ADD PUSH1 0x40 MSTORE DUP1 SWAP3 SWAP2 SWAP1 DUP2 DUP2 MSTORE PUSH1 0x20 ADD DUP3 DUP1 SLOAD PUSH2 0x20CC SWAP1 PUSH2 0x5B76 JUMP JUMPDEST DUP1 ISZERO PUSH2 0x2119 JUMPI DUP1 PUSH1 0x1F LT PUSH2 0x20EE JUMPI PUSH2 0x100 DUP1 DUP4 SLOAD DIV MUL DUP4 MSTORE SWAP2 PUSH1 0x20 ADD SWAP2 PUSH2 0x2119 JUMP JUMPDEST DUP3 ADD SWAP2 SWAP1 PUSH1 0x0 MSTORE PUSH1 0x20 PUSH1 0x0 KECCAK256 SWAP1 JUMPDEST DUP2 SLOAD DUP2 MSTORE SWAP1 PUSH1 0x1 ADD SWAP1 PUSH1 0x20 ADD DUP1 DUP4 GT PUSH2 0x20FC JUMPI DUP3 SWAP1 SUB PUSH1 0x1F AND DUP3 ADD SWAP2 JUMPDEST POP POP POP POP POP SWAP1 POP SWAP1 JUMP JUMPDEST PUSH1 0xFF DUP2 JUMP JUMPDEST PUSH1 0x0 DUP1 PUSH20 0xFFFFFFFFFFFFFFFFFFFFFFFFFFFFFFFFFFFFFFFF AND DUP3 PUSH20 0xFFFFFFFFFFFFFFFFFFFFFFFFFFFFFFFFFFFFFFFF AND SUB PUSH2 0x216E JUMPI PUSH2 0x216D PUSH4 0x8F4EB604 PUSH1 0xE0 SHL PUSH2 0x3643 JUMP JUMPDEST JUMPDEST PUSH8 0xFFFFFFFFFFFFFFFF PUSH2 0x217F PUSH2 0x364D JUMP JUMPDEST PUSH1 0x5 ADD PUSH1 0x0 DUP5 PUSH20 0xFFFFFFFFFFFFFFFFFFFFFFFFFFFFFFFFFFFFFFFF AND PUSH20 0xFFFFFFFFFFFFFFFFFFFFFFFFFFFFFFFFFFFFFFFF AND DUP2 MSTORE PUSH1 0x20 ADD SWAP1 DUP2 MSTORE PUSH1 0x20 ADD PUSH1 0x0 KECCAK256 SLOAD AND SWAP1 POP SWAP2 SWAP1 POP JUMP JUMPDEST PUSH2 0x21D0 PUSH2 0x3A4F JUMP JUMPDEST PUSH2 0x21DA PUSH1 0x0 PUSH2 0x37BE JUMP JUMPDEST JUMP JUMPDEST PUSH1 0x1 PUSH2 0x21E7 DUP2 PUSH2 0x3E21 JUMP JUMPDEST PUSH1 0xC PUSH1 0x0 SWAP1 SLOAD SWAP1 PUSH2 0x100 EXP SWAP1 DIV PUSH1 0xFF AND ISZERO PUSH2 0x2201 JUMPI PUSH1 0x0 DUP1 REVERT JUMPDEST DUP2 PUSH1 0x3 SWAP1 DUP2 PUSH2 0x2210 SWAP2 SWAP1 PUSH2 0x605F JUMP JUMPDEST POP PUSH32 0x518159E6371CD5B4C2AADCB329217344EE78B366CD3730E987F31878702401B6 DUP3 PUSH1 0x0 PUSH1 0x40 MLOAD PUSH2 0x2243 SWAP3 SWAP2 SWAP1 PUSH2 0x6184 JUMP JUMPDEST PUSH1 0x40 MLOAD DUP1 SWAP2 SUB SWAP1 LOG1 POP POP JUMP JUMPDEST JUMP JUMPDEST PUSH1 0x60 PUSH1 0x40 MLOAD SWAP1 POP PUSH1 0x20 DUP2 ADD PUSH1 0x0 DUP4 JUMPDEST PUSH1 0x1 ISZERO PUSH2 0x2286 JUMPI DUP2 DUP4 MSTORE PUSH1 0x1 DUP2 AND PUSH1 0x5 SHL DUP4 ADD SWAP3 POP PUSH1 0x1 DUP3 ADD SWAP2 POP DUP5 DUP3 SHR SWAP1 POP DUP1 PUSH2 0x2260 JUMPI JUMPDEST POP PUSH1 0x20 DUP4 ADD DUP3 SUB PUSH1 0x5 SHR DUP4 MSTORE DUP2 PUSH1 0x40 MSTORE POP POP SWAP2 SWAP1 POP JUMP JUMPDEST PUSH1 0x0 PUSH2 0x22A7 PUSH2 0x38B4 JUMP JUMPDEST SWAP1 POP SWAP1 JUMP JUMPDEST PUSH1 0x1 DUP2 JUMP JUMPDEST PUSH1 0x0 PUSH1 0x1 PUSH2 0x22BE DUP2 PUSH2 0x3E21 JUMP JUMPDEST PUSH1 0x0 DUP6 DUP6 SWAP1 POP SUB PUSH2 0x22FB JUMPI PUSH1 0x40 MLOAD PUSH32 0xE10344D500000000000000000000000000000000000000000000000000000000 DUP2 MSTORE PUSH1 0x4 ADD PUSH1 0x40 MLOAD DUP1 SWAP2 SUB SWAP1 REVERT JUMPDEST PUSH2 0x2303 PUSH2 0x38B4 JUMP JUMPDEST SWAP2 POP PUSH1 0x0 DUP6 DUP6 SWAP1 POP SWAP1 POP PUSH1 0x0 JUMPDEST DUP2 DUP2 EQ PUSH2 0x2353 JUMPI PUSH2 0x2348 DUP8 DUP8 DUP4 DUP2 DUP2 LT PUSH2 0x232D JUMPI PUSH2 0x232C PUSH2 0x61B4 JUMP JUMPDEST JUMPDEST SWAP1 POP PUSH1 0x20 MUL ADD PUSH1 0x20 DUP2 ADD SWAP1 PUSH2 0x2342 SWAP2 SWAP1 PUSH2 0x4B5F JUMP JUMPDEST DUP7 PUSH2 0x38C7 JUMP JUMPDEST DUP1 PUSH1 0x1 ADD SWAP1 POP PUSH2 0x2310 JUMP JUMPDEST POP POP PUSH32 0xFE9AC969BDC4DBB3461E515FB1F4B43A4BF6D21274B0C195082E75BCB586EAD3 DUP6 DUP6 DUP6 DUP6 PUSH1 0x40 MLOAD PUSH2 0x238A SWAP5 SWAP4 SWAP3 SWAP2 SWAP1 PUSH2 0x62A6 JUMP JUMPDEST PUSH1 0x40 MLOAD DUP1 SWAP2 SUB SWAP1 LOG1 POP SWAP4 SWAP3 POP POP POP JUMP JUMPDEST PUSH1 0x7 DUP1 PUSH1 0x0 ADD PUSH1 0x0 SWAP1 SLOAD SWAP1 PUSH2 0x100 EXP SWAP1 DIV PUSH8 0xFFFFFFFFFFFFFFFF AND SWAP1 DUP1 PUSH1 0x0 ADD PUSH1 0x8 SWAP1 SLOAD SWAP1 PUSH2 0x100 EXP SWAP1 DIV PUSH2 0xFFFF AND SWAP1 DUP1 PUSH1 0x0 ADD PUSH1 0xA SWAP1 SLOAD SWAP1 PUSH2 0x100 EXP SWAP1 DIV PUSH20 0xFFFFFFFFFFFFFFFFFFFFFFFFFFFFFFFFFFFFFFFF AND SWAP1 POP DUP4 JUMP JUMPDEST PUSH1 0x0 PUSH2 0x23FE PUSH2 0x3F7F JUMP JUMPDEST SWAP1 POP SWAP1 JUMP JUMPDEST PUSH1 0x1 PUSH2 0x240E DUP2 PUSH2 0x3E21 JUMP JUMPDEST PUSH1 0x0 PUSH1 0x1 PUSH1 0x6 PUSH1 0x1F SWAP1 SLOAD SWAP1 PUSH2 0x100 EXP SWAP1 DIV PUSH1 0xFF AND AND PUSH1 0xFF AND EQ PUSH2 0x245D JUMPI PUSH1 0x40 MLOAD PUSH32 0xB087BBF300000000000000000000000000000000000000000000000000000000 DUP2 MSTORE PUSH1 0x4 ADD PUSH1 0x40 MLOAD DUP1 SWAP2 SUB SWAP1 REVERT JUMPDEST DUP2 PUSH1 0x4 SWAP1 DUP2 PUSH2 0x246C SWAP2 SWAP1 PUSH2 0x605F JUMP JUMPDEST POP DUP2 PUSH1 0x40 MLOAD PUSH2 0x247B SWAP2 SWAP1 PUSH2 0x616D JUMP JUMPDEST PUSH1 0x40 MLOAD DUP1 SWAP2 SUB SWAP1 KECCAK256 PUSH32 0xAF497693A87DB12CA89131A31EDBB3DB4BB5702DFB284E8AE7427D185F09112D PUSH1 0x40 MLOAD PUSH1 0x40 MLOAD DUP1 SWAP2 SUB SWAP1 LOG2 POP POP JUMP JUMPDEST PUSH1 0x60 PUSH1 0x0 PUSH2 0x24BF PUSH2 0x345C JUMP JUMPDEST SWAP2 POP POP DUP1 SWAP2 POP POP SWAP1 JUMP JUMPDEST DUP2 PUSH2 0x24D3 DUP2 PUSH2 0x367A JUMP JUMPDEST PUSH2 0x24DD DUP4 DUP4 PUSH2 0x3F8D JUMP JUMPDEST POP POP POP JUMP JUMPDEST PUSH1 0x0 PUSH2 0x24EC PUSH2 0x40A1 JUMP JUMPDEST SWAP1 POP SWAP1 JUMP JUMPDEST PUSH1 0x0 PUSH2 0x24FB PUSH2 0x3080 JUMP JUMPDEST PUSH4 0xFFFFFFFF AND PUSH2 0x2509 PUSH2 0x40A1 JUMP JUMPDEST EQ SWAP1 POP SWAP1 JUMP JUMPDEST PUSH1 0x0 PUSH1 0x1 SWAP1 POP SWAP1 JUMP JUMPDEST PUSH1 0x1 PUSH2 0x2523 DUP2 PUSH2 0x3E21 JUMP JUMPDEST DUP2 ISZERO ISZERO PUSH2 0x252E PUSH2 0x3234 JUMP JUMPDEST ISZERO ISZERO EQ PUSH2 0x2573 JUMPI PUSH1 0x4 PUSH1 0x6 PUSH1 0x1F DUP3 DUP3 DUP3 SWAP1 SLOAD SWAP1 PUSH2 0x100 EXP SWAP1 DIV PUSH1 0xFF AND XOR SWAP3 POP PUSH2 0x100 EXP DUP2 SLOAD DUP2 PUSH1 0xFF MUL NOT AND SWAP1 DUP4 PUSH1 0xFF AND MUL OR SWAP1 SSTORE POP DUP2 ISZERO PUSH2 0x2572 JUMPI PUSH2 0x2571 PUSH2 0x224F JUMP JUMPDEST JUMPDEST JUMPDEST PUSH32 0xDF13A96AC57161F0B62AAE644560A12A80C1877FAAC821EE18874355FF1AB73B DUP3 PUSH1 0x40 MLOAD PUSH2 0x25A2 SWAP2 SWAP1 PUSH2 0x4773 JUMP JUMPDEST PUSH1 0x40 MLOAD DUP1 SWAP2 SUB SWAP1 LOG1 POP POP JUMP JUMPDEST DUP4 CALLER PUSH20 0xFFFFFFFFFFFFFFFFFFFFFFFFFFFFFFFFFFFFFFFF AND DUP2 PUSH20 0xFFFFFFFFFFFFFFFFFFFFFFFFFFFFFFFFFFFFFFFF AND EQ PUSH2 0x25EC JUMPI PUSH2 0x25EB CALLER PUSH2 0x367A JUMP JUMPDEST JUMPDEST PUSH2 0x25F8 DUP6 DUP6 DUP6 DUP6 PUSH2 0x40BD JUMP JUMPDEST POP POP POP POP POP JUMP JUMPDEST PUSH1 0x6 PUSH1 0x1D SWAP1 SLOAD SWAP1 PUSH2 0x100 EXP SWAP1 DIV PUSH2 0xFFFF AND DUP2 JUMP JUMPDEST PUSH1 0x2 DUP2 JUMP JUMPDEST PUSH1 0x8 DUP2 JUMP JUMPDEST PUSH1 0x3 DUP1 SLOAD PUSH2 0x262A SWAP1 PUSH2 0x5B76 JUMP JUMPDEST DUP1 PUSH1 0x1F ADD PUSH1 0x20 DUP1 SWAP2 DIV MUL PUSH1 0x20 ADD PUSH1 0x40 MLOAD SWAP1 DUP2 ADD PUSH1 0x40 MSTORE DUP1 SWAP3 SWAP2 SWAP1 DUP2 DUP2 MSTORE PUSH1 0x20 ADD DUP3 DUP1 SLOAD PUSH2 0x2656 SWAP1 PUSH2 0x5B76 JUMP JUMPDEST DUP1 ISZERO PUSH2 0x26A3 JUMPI DUP1 PUSH1 0x1F LT PUSH2 0x2678 JUMPI PUSH2 0x100 DUP1 DUP4 SLOAD DIV MUL DUP4 MSTORE SWAP2 PUSH1 0x20 ADD SWAP2 PUSH2 0x26A3 JUMP JUMPDEST DUP3 ADD SWAP2 SWAP1 PUSH1 0x0 MSTORE PUSH1 0x20 PUSH1 0x0 KECCAK256 SWAP1 JUMPDEST DUP2 SLOAD DUP2 MSTORE SWAP1 PUSH1 0x1 ADD SWAP1 PUSH1 0x20 ADD DUP1 DUP4 GT PUSH2 0x2686 JUMPI DUP3 SWAP1 SUB PUSH1 0x1F AND DUP3 ADD SWAP2 JUMPDEST POP POP POP POP POP DUP2 JUMP JUMPDEST PUSH1 0x60 PUSH2 0x26B6 DUP3 PUSH2 0x35B8 JUMP JUMPDEST PUSH2 0x26EC JUMPI PUSH1 0x40 MLOAD PUSH32 0xA14C4B5000000000000000000000000000000000000000000000000000000000 DUP2 MSTORE PUSH1 0x4 ADD PUSH1 0x40 MLOAD DUP1 SWAP2 SUB SWAP1 REVERT JUMPDEST PUSH1 0x0 PUSH2 0x26F6 PUSH2 0x2091 JUMP JUMPDEST SWAP1 POP PUSH1 0x0 DUP2 MLOAD SUB PUSH2 0x2716 JUMPI PUSH1 0x40 MLOAD DUP1 PUSH1 0x20 ADD PUSH1 0x40 MSTORE DUP1 PUSH1 0x0 DUP2 MSTORE POP PUSH2 0x2741 JUMP JUMPDEST DUP1 PUSH2 0x2720 DUP5 PUSH2 0x410F JUMP JUMPDEST PUSH1 0x40 MLOAD PUSH1 0x20 ADD PUSH2 0x2731 SWAP3 SWAP2 SWAP1 PUSH2 0x62E6 JUMP JUMPDEST PUSH1 0x40 MLOAD PUSH1 0x20 DUP2 DUP4 SUB SUB DUP2 MSTORE SWAP1 PUSH1 0x40 MSTORE JUMPDEST SWAP2 POP POP SWAP2 SWAP1 POP JUMP JUMPDEST PUSH1 0x1 PUSH2 0x2754 DUP2 PUSH2 0x3E21 JUMP JUMPDEST PUSH1 0x0 DUP3 MLOAD SWAP1 POP PUSH1 0x0 JUMPDEST DUP2 DUP2 LT ISZERO PUSH2 0x2793 JUMPI PUSH2 0x2788 DUP5 DUP3 DUP2 MLOAD DUP2 LT PUSH2 0x277B JUMPI PUSH2 0x277A PUSH2 0x61B4 JUMP JUMPDEST JUMPDEST PUSH1 0x20 MUL PUSH1 0x20 ADD ADD MLOAD PUSH2 0x415F JUMP JUMPDEST DUP1 PUSH1 0x1 ADD SWAP1 POP PUSH2 0x275D JUMP JUMPDEST POP POP POP POP JUMP JUMPDEST PUSH1 0x1 PUSH2 0x27A4 DUP2 PUSH2 0x3E21 JUMP JUMPDEST PUSH1 0x0 PUSH1 0x1 PUSH1 0x6 PUSH1 0x1F SWAP1 SLOAD SWAP1 PUSH2 0x100 EXP SWAP1 DIV PUSH1 0xFF AND AND PUSH1 0xFF AND EQ PUSH2 0x27F3 JUMPI PUSH1 0x40 MLOAD PUSH32 0xB087BBF300000000000000000000000000000000000000000000000000000000 DUP2 MSTORE PUSH1 0x4 ADD PUSH1 0x40 MLOAD DUP1 SWAP2 SUB SWAP1 REVERT JUMPDEST PUSH1 0x1 PUSH1 0x6 PUSH1 0x1F DUP3 DUP3 DUP3 SWAP1 SLOAD SWAP1 PUSH2 0x100 EXP SWAP1 DIV PUSH1 0xFF AND OR SWAP3 POP PUSH2 0x100 EXP DUP2 SLOAD DUP2 PUSH1 0xFF MUL NOT AND SWAP1 DUP4 PUSH1 0xFF AND MUL OR SWAP1 SSTORE POP PUSH32 0x3CD3338A64F0386BCA46B40BD96E90A61BE656A5183DC54B430D8626E1333273 PUSH2 0x284A PUSH2 0x2091 JUMP JUMPDEST PUSH2 0x2852 PUSH2 0x309A JUMP JUMPDEST PUSH1 0x40 MLOAD PUSH2 0x2860 SWAP3 SWAP2 SWAP1 PUSH2 0x630A JUMP JUMPDEST PUSH1 0x40 MLOAD DUP1 SWAP2 SUB SWAP1 LOG1 POP JUMP JUMPDEST PUSH1 0x2 DUP2 JUMP JUMPDEST PUSH1 0x0 PUSH3 0x2A300 SWAP1 POP SWAP1 JUMP JUMPDEST PUSH1 0x0 PUSH2 0x2886 DUP3 PUSH2 0x3854 JUMP JUMPDEST SWAP1 POP SWAP2 SWAP1 POP JUMP JUMPDEST DUP5 PUSH2 0x2710 PUSH2 0xFFFF AND DUP2 PUSH2 0xFFFF AND GT ISZERO PUSH2 0x28D2 JUMPI PUSH1 0x40 MLOAD PUSH32 0xCA88643800000000000000000000000000000000000000000000000000000000 DUP2 MSTORE PUSH1 0x4 ADD PUSH1 0x40 MLOAD DUP1 SWAP2 SUB SWAP1 REVERT JUMPDEST PUSH1 0x0 PUSH2 0x28DC PUSH2 0x38B4 JUMP JUMPDEST EQ PUSH2 0x2913 JUMPI PUSH1 0x40 MLOAD PUSH32 0x82B4290000000000000000000000000000000000000000000000000000000000 DUP2 MSTORE PUSH1 0x4 ADD PUSH1 0x40 MLOAD DUP1 SWAP2 SUB SWAP1 REVERT JUMPDEST PUSH1 0x0 PUSH20 0xFFFFFFFFFFFFFFFFFFFFFFFFFFFFFFFFFFFFFFFF AND DUP8 PUSH20 0xFFFFFFFFFFFFFFFFFFFFFFFFFFFFFFFFFFFFFFFF AND SUB PUSH2 0x2979 JUMPI PUSH1 0x40 MLOAD PUSH32 0xB942D92000000000000000000000000000000000000000000000000000000000 DUP2 MSTORE PUSH1 0x4 ADD PUSH1 0x40 MLOAD DUP1 SWAP2 SUB SWAP1 REVERT JUMPDEST PUSH2 0x2983 DUP12 DUP12 PUSH2 0x41BE JUMP JUMPDEST PUSH2 0x298B PUSH2 0x37FC JUMP JUMPDEST PUSH2 0x2993 PUSH2 0x364D JUMP JUMPDEST PUSH1 0x0 ADD DUP2 SWAP1 SSTORE POP PUSH2 0x29A3 CALLER PUSH2 0x421B JUMP JUMPDEST DUP9 PUSH1 0x3 SWAP1 DUP2 PUSH2 0x29B2 SWAP2 SWAP1 PUSH2 0x605F JUMP JUMPDEST POP DUP8 PUSH1 0x4 SWAP1 DUP2 PUSH2 0x29C2 SWAP2 SWAP1 PUSH2 0x605F JUMP JUMPDEST POP DUP7 PUSH1 0x5 PUSH1 0x0 PUSH2 0x100 EXP DUP2 SLOAD DUP2 PUSH20 0xFFFFFFFFFFFFFFFFFFFFFFFFFFFFFFFFFFFFFFFF MUL NOT AND SWAP1 DUP4 PUSH20 0xFFFFFFFFFFFFFFFFFFFFFFFFFFFFFFFFFFFFFFFF AND MUL OR SWAP1 SSTORE POP DUP5 PUSH1 0x8 PUSH1 0x0 DUP3 ADD MLOAD DUP2 PUSH1 0x0 ADD PUSH1 0x0 PUSH2 0x100 EXP DUP2 SLOAD DUP2 PUSH13 0xFFFFFFFFFFFFFFFFFFFFFFFFFF MUL NOT AND SWAP1 DUP4 PUSH13 0xFFFFFFFFFFFFFFFFFFFFFFFFFF AND MUL OR SWAP1 SSTORE POP PUSH1 0x20 DUP3 ADD MLOAD DUP2 PUSH1 0x0 ADD PUSH1 0xD PUSH2 0x100 EXP DUP2 SLOAD DUP2 PUSH4 0xFFFFFFFF MUL NOT AND SWAP1 DUP4 PUSH4 0xFFFFFFFF AND MUL OR SWAP1 SSTORE POP PUSH1 0x40 DUP3 ADD MLOAD DUP2 PUSH1 0x0 ADD PUSH1 0x11 PUSH2 0x100 EXP DUP2 SLOAD DUP2 PUSH8 0xFFFFFFFFFFFFFFFF MUL NOT AND SWAP1 DUP4 PUSH8 0xFFFFFFFFFFFFFFFF AND MUL OR SWAP1 SSTORE POP PUSH1 0x60 DUP3 ADD MLOAD DUP2 PUSH1 0x1 ADD PUSH1 0x0 PUSH2 0x100 EXP DUP2 SLOAD DUP2 PUSH8 0xFFFFFFFFFFFFFFFF MUL NOT AND SWAP1 DUP4 PUSH8 0xFFFFFFFFFFFFFFFF AND MUL OR SWAP1 SSTORE POP PUSH1 0x80 DUP3 ADD MLOAD DUP2 PUSH1 0x1 ADD PUSH1 0x8 PUSH2 0x100 EXP DUP2 SLOAD DUP2 PUSH8 0xFFFFFFFFFFFFFFFF MUL NOT AND SWAP1 DUP4 PUSH8 0xFFFFFFFFFFFFFFFF AND MUL OR SWAP1 SSTORE POP PUSH1 0xA0 DUP3 ADD MLOAD DUP2 PUSH1 0x1 ADD PUSH1 0x10 PUSH2 0x100 EXP DUP2 SLOAD DUP2 PUSH8 0xFFFFFFFFFFFFFFFF MUL NOT AND SWAP1 DUP4 PUSH8 0xFFFFFFFFFFFFFFFF AND MUL OR SWAP1 SSTORE POP PUSH1 0xC0 DUP3 ADD MLOAD DUP2 PUSH1 0x2 ADD SSTORE SWAP1 POP POP DUP3 PUSH1 0x6 PUSH1 0x1F PUSH2 0x100 EXP DUP2 SLOAD DUP2 PUSH1 0xFF MUL NOT AND SWAP1 DUP4 PUSH1 0xFF AND MUL OR SWAP1 SSTORE POP DUP6 PUSH1 0x6 PUSH1 0x1D PUSH2 0x100 EXP DUP2 SLOAD DUP2 PUSH2 0xFFFF MUL NOT AND SWAP1 DUP4 PUSH2 0xFFFF AND MUL OR SWAP1 SSTORE POP DUP2 PUSH1 0x6 PUSH1 0x0 PUSH2 0x100 EXP DUP2 SLOAD DUP2 PUSH20 0xFFFFFFFFFFFFFFFFFFFFFFFFFFFFFFFFFFFFFFFF MUL NOT AND SWAP1 DUP4 PUSH20 0xFFFFFFFFFFFFFFFFFFFFFFFFFFFFFFFFFFFFFFFF AND MUL OR SWAP1 SSTORE POP DUP4 PUSH1 0x1 PUSH1 0x0 PUSH2 0x100 EXP DUP2 SLOAD DUP2 PUSH4 0xFFFFFFFF MUL NOT AND SWAP1 DUP4 PUSH4 0xFFFFFFFF AND MUL OR SWAP1 SSTORE POP PUSH1 0x0 PUSH1 0x4 DUP5 AND PUSH1 0xFF AND EQ PUSH2 0x2BE1 JUMPI PUSH2 0x2BE0 PUSH2 0x224F JUMP JUMPDEST JUMPDEST POP POP POP POP POP POP POP POP POP POP POP JUMP JUMPDEST PUSH1 0x2 PUSH1 0x0 SLOAD SUB PUSH2 0x2C33 JUMPI PUSH1 0x40 MLOAD PUSH32 0x8C379A000000000000000000000000000000000000000000000000000000000 DUP2 MSTORE PUSH1 0x4 ADD PUSH2 0x2C2A SWAP1 PUSH2 0x5D03 JUMP JUMPDEST PUSH1 0x40 MLOAD DUP1 SWAP2 SUB SWAP1 REVERT JUMPDEST PUSH1 0x2 PUSH1 0x0 DUP2 SWAP1 SSTORE POP PUSH1 0x0 SELFBALANCE SWAP1 POP PUSH1 0x0 PUSH1 0x6 PUSH1 0x0 SWAP1 SLOAD SWAP1 PUSH2 0x100 EXP SWAP1 DIV PUSH20 0xFFFFFFFFFFFFFFFFFFFFFFFFFFFFFFFFFFFFFFFF AND PUSH20 0xFFFFFFFFFFFFFFFFFFFFFFFFFFFFFFFFFFFFFFFF AND PUSH4 0xE714942D PUSH1 0x40 MLOAD DUP2 PUSH4 0xFFFFFFFF AND PUSH1 0xE0 SHL DUP2 MSTORE PUSH1 0x4 ADD PUSH1 0x20 PUSH1 0x40 MLOAD DUP1 DUP4 SUB DUP2 DUP7 GAS STATICCALL ISZERO DUP1 ISZERO PUSH2 0x2CAF JUMPI RETURNDATASIZE PUSH1 0x0 DUP1 RETURNDATACOPY RETURNDATASIZE PUSH1 0x0 REVERT JUMPDEST POP POP POP POP PUSH1 0x40 MLOAD RETURNDATASIZE PUSH1 0x1F NOT PUSH1 0x1F DUP3 ADD AND DUP3 ADD DUP1 PUSH1 0x40 MSTORE POP DUP2 ADD SWAP1 PUSH2 0x2CD3 SWAP2 SWAP1 PUSH2 0x6356 JUMP JUMPDEST SWAP1 POP PUSH1 0x0 PUSH1 0x6 PUSH1 0x0 SWAP1 SLOAD SWAP1 PUSH2 0x100 EXP SWAP1 DIV PUSH20 0xFFFFFFFFFFFFFFFFFFFFFFFFFFFFFFFFFFFFFFFF AND PUSH20 0xFFFFFFFFFFFFFFFFFFFFFFFFFFFFFFFFFFFFFFFF AND PUSH4 0xD411B21 DUP5 PUSH1 0x40 MLOAD DUP3 PUSH4 0xFFFFFFFF AND PUSH1 0xE0 SHL DUP2 MSTORE PUSH1 0x4 ADD PUSH2 0x2D32 SWAP2 SWAP1 PUSH2 0x63AE JUMP JUMPDEST PUSH1 0x20 PUSH1 0x40 MLOAD DUP1 DUP4 SUB DUP2 DUP7 GAS STATICCALL ISZERO DUP1 ISZERO PUSH2 0x2D4F JUMPI RETURNDATASIZE PUSH1 0x0 DUP1 RETURNDATACOPY RETURNDATASIZE PUSH1 0x0 REVERT JUMPDEST POP POP POP POP PUSH1 0x40 MLOAD RETURNDATASIZE PUSH1 0x1F NOT PUSH1 0x1F DUP3 ADD AND DUP3 ADD DUP1 PUSH1 0x40 MSTORE POP DUP2 ADD SWAP1 PUSH2 0x2D73 SWAP2 SWAP1 PUSH2 0x63F5 JUMP JUMPDEST PUSH16 0xFFFFFFFFFFFFFFFFFFFFFFFFFFFFFFFF AND SWAP1 POP PUSH1 0x0 DUP2 GT ISZERO PUSH2 0x2E49 JUMPI PUSH1 0x0 DUP3 PUSH20 0xFFFFFFFFFFFFFFFFFFFFFFFFFFFFFFFFFFFFFFFF AND DUP3 PUSH3 0x33450 SWAP1 PUSH1 0x40 MLOAD PUSH2 0x2DBB SWAP1 PUSH2 0x6453 JUMP JUMPDEST PUSH1 0x0 PUSH1 0x40 MLOAD DUP1 DUP4 SUB DUP2 DUP6 DUP9 DUP9 CALL SWAP4 POP POP POP POP RETURNDATASIZE DUP1 PUSH1 0x0 DUP2 EQ PUSH2 0x2DF9 JUMPI PUSH1 0x40 MLOAD SWAP2 POP PUSH1 0x1F NOT PUSH1 0x3F RETURNDATASIZE ADD AND DUP3 ADD PUSH1 0x40 MSTORE RETURNDATASIZE DUP3 MSTORE RETURNDATASIZE PUSH1 0x0 PUSH1 0x20 DUP5 ADD RETURNDATACOPY PUSH2 0x2DFE JUMP JUMPDEST PUSH1 0x60 SWAP2 POP JUMPDEST POP POP SWAP1 POP DUP1 PUSH2 0x2E39 JUMPI PUSH1 0x40 MLOAD PUSH32 0xD3C0B1F400000000000000000000000000000000000000000000000000000000 DUP2 MSTORE PUSH1 0x4 ADD PUSH1 0x40 MLOAD DUP1 SWAP2 SUB SWAP1 REVERT JUMPDEST DUP2 DUP5 PUSH2 0x2E45 SWAP2 SWAP1 PUSH2 0x5C4C JUMP JUMPDEST SWAP4 POP POP JUMPDEST PUSH1 0x0 PUSH1 0x5 PUSH1 0x0 SWAP1 SLOAD SWAP1 PUSH2 0x100 EXP SWAP1 DIV PUSH20 0xFFFFFFFFFFFFFFFFFFFFFFFFFFFFFFFFFFFFFFFF AND PUSH20 0xFFFFFFFFFFFFFFFFFFFFFFFFFFFFFFFFFFFFFFFF AND DUP5 PUSH3 0x33450 SWAP1 PUSH1 0x40 MLOAD PUSH2 0x2E96 SWAP1 PUSH2 0x6453 JUMP JUMPDEST PUSH1 0x0 PUSH1 0x40 MLOAD DUP1 DUP4 SUB DUP2 DUP6 DUP9 DUP9 CALL SWAP4 POP POP POP POP RETURNDATASIZE DUP1 PUSH1 0x0 DUP2 EQ PUSH2 0x2ED4 JUMPI PUSH1 0x40 MLOAD SWAP2 POP PUSH1 0x1F NOT PUSH1 0x3F RETURNDATASIZE ADD AND DUP3 ADD PUSH1 0x40 MSTORE RETURNDATASIZE DUP3 MSTORE RETURNDATASIZE PUSH1 0x0 PUSH1 0x20 DUP5 ADD RETURNDATACOPY PUSH2 0x2ED9 JUMP JUMPDEST PUSH1 0x60 SWAP2 POP JUMPDEST POP POP SWAP1 POP DUP1 PUSH2 0x2F14 JUMPI PUSH1 0x40 MLOAD PUSH32 0xD3C0B1F400000000000000000000000000000000000000000000000000000000 DUP2 MSTORE PUSH1 0x4 ADD PUSH1 0x40 MLOAD DUP1 SWAP2 SUB SWAP1 REVERT JUMPDEST PUSH1 0x5 PUSH1 0x0 SWAP1 SLOAD SWAP1 PUSH2 0x100 EXP SWAP1 DIV PUSH20 0xFFFFFFFFFFFFFFFFFFFFFFFFFFFFFFFFFFFFFFFF AND PUSH20 0xFFFFFFFFFFFFFFFFFFFFFFFFFFFFFFFFFFFFFFFF AND CALLER PUSH20 0xFFFFFFFFFFFFFFFFFFFFFFFFFFFFFFFFFFFFFFFF AND PUSH32 0x8A95554E4C9DCAAF33F247387F2EE77390780487D3365E3A804788791A1DF500 DUP7 DUP7 DUP7 PUSH1 0x40 MLOAD PUSH2 0x2F97 SWAP4 SWAP3 SWAP2 SWAP1 PUSH2 0x6468 JUMP JUMPDEST PUSH1 0x40 MLOAD DUP1 SWAP2 SUB SWAP1 LOG3 POP POP POP POP PUSH1 0x1 PUSH1 0x0 DUP2 SWAP1 SSTORE POP JUMP JUMPDEST PUSH1 0x0 PUSH1 0x1 PUSH2 0x2FBA DUP2 PUSH2 0x3E21 JUMP JUMPDEST DUP3 PUSH1 0x0 PUSH2 0x2FC5 PUSH2 0x24E2 JUMP JUMPDEST SWAP1 POP PUSH1 0x0 PUSH2 0x2FD1 PUSH2 0x3080 JUMP JUMPDEST PUSH4 0xFFFFFFFF AND SWAP1 POP DUP1 DUP4 DUP4 ADD GT ISZERO PUSH2 0x3027 JUMPI PUSH1 0x0 DUP3 DUP3 SUB SWAP1 POP DUP1 PUSH1 0x40 MLOAD PUSH32 0x4D5C803F00000000000000000000000000000000000000000000000000000000 DUP2 MSTORE PUSH1 0x4 ADD PUSH2 0x301E SWAP2 SWAP1 PUSH2 0x4EAE JUMP JUMPDEST PUSH1 0x40 MLOAD DUP1 SWAP2 SUB SWAP1 REVERT JUMPDEST POP POP PUSH2 0x3031 PUSH2 0x38B4 JUMP JUMPDEST SWAP3 POP PUSH2 0x303D DUP6 DUP6 PUSH2 0x38C7 JUMP JUMPDEST PUSH32 0x25B428DFDE728CCFADDAD7E29E4AC23C24ED7FD1A6E3E3F91894A9A073F5DFFF DUP6 DUP6 DUP6 PUSH1 0x40 MLOAD PUSH2 0x3070 SWAP4 SWAP3 SWAP2 SWAP1 PUSH2 0x5C80 JUMP JUMPDEST PUSH1 0x40 MLOAD DUP1 SWAP2 SUB SWAP1 LOG1 POP POP SWAP3 SWAP2 POP POP JUMP JUMPDEST PUSH1 0x0 PUSH1 0x1 PUSH1 0x0 SWAP1 SLOAD SWAP1 PUSH2 0x100 EXP SWAP1 DIV PUSH4 0xFFFFFFFF AND SWAP1 POP SWAP1 JUMP JUMPDEST PUSH1 0x60 PUSH1 0x4 DUP1 SLOAD PUSH2 0x30A9 SWAP1 PUSH2 0x5B76 JUMP JUMPDEST DUP1 PUSH1 0x1F ADD PUSH1 0x20 DUP1 SWAP2 DIV MUL PUSH1 0x20 ADD PUSH1 0x40 MLOAD SWAP1 DUP2 ADD PUSH1 0x40 MSTORE DUP1 SWAP3 SWAP2 SWAP1 DUP2 DUP2 MSTORE PUSH1 0x20 ADD DUP3 DUP1 SLOAD PUSH2 0x30D5 SWAP1 PUSH2 0x5B76 JUMP JUMPDEST DUP1 ISZERO PUSH2 0x3122 JUMPI DUP1 PUSH1 0x1F LT PUSH2 0x30F7 JUMPI PUSH2 0x100 DUP1 DUP4 SLOAD DIV MUL DUP4 MSTORE SWAP2 PUSH1 0x20 ADD SWAP2 PUSH2 0x3122 JUMP JUMPDEST DUP3 ADD SWAP2 SWAP1 PUSH1 0x0 MSTORE PUSH1 0x20 PUSH1 0x0 KECCAK256 SWAP1 JUMPDEST DUP2 SLOAD DUP2 MSTORE SWAP1 PUSH1 0x1 ADD SWAP1 PUSH1 0x20 ADD DUP1 DUP4 GT PUSH2 0x3105 JUMPI DUP3 SWAP1 SUB PUSH1 0x1F AND DUP3 ADD SWAP2 JUMPDEST POP POP POP POP POP SWAP1 POP SWAP1 JUMP JUMPDEST PUSH1 0x0 PUSH2 0x3136 PUSH2 0x364D JUMP JUMPDEST PUSH1 0x7 ADD PUSH1 0x0 DUP5 PUSH20 0xFFFFFFFFFFFFFFFFFFFFFFFFFFFFFFFFFFFFFFFF AND PUSH20 0xFFFFFFFFFFFFFFFFFFFFFFFFFFFFFFFFFFFFFFFF AND DUP2 MSTORE PUSH1 0x20 ADD SWAP1 DUP2 MSTORE PUSH1 0x20 ADD PUSH1 0x0 KECCAK256 PUSH1 0x0 DUP4 PUSH20 0xFFFFFFFFFFFFFFFFFFFFFFFFFFFFFFFFFFFFFFFF AND PUSH20 0xFFFFFFFFFFFFFFFFFFFFFFFFFFFFFFFFFFFFFFFF AND DUP2 MSTORE PUSH1 0x20 ADD SWAP1 DUP2 MSTORE PUSH1 0x20 ADD PUSH1 0x0 KECCAK256 PUSH1 0x0 SWAP1 SLOAD SWAP1 PUSH2 0x100 EXP SWAP1 DIV PUSH1 0xFF AND SWAP1 POP SWAP3 SWAP2 POP POP JUMP JUMPDEST PUSH2 0x31D1 PUSH2 0x3A4F JUMP JUMPDEST PUSH4 0x389A75E1 PUSH1 0xC MSTORE DUP1 PUSH1 0x0 MSTORE PUSH1 0x20 PUSH1 0xC KECCAK256 DUP1 SLOAD TIMESTAMP GT ISZERO PUSH2 0x31F9 JUMPI PUSH4 0x6F5E8818 PUSH1 0x0 MSTORE PUSH1 0x4 PUSH1 0x1C REVERT JUMPDEST PUSH1 0x0 DUP2 SSTORE POP PUSH2 0x3207 DUP2 PUSH2 0x37BE JUMP JUMPDEST POP JUMP JUMPDEST PUSH2 0x3212 PUSH2 0x3A4F JUMP JUMPDEST DUP1 PUSH1 0x60 SHL PUSH2 0x3228 JUMPI PUSH4 0x7448FBAE PUSH1 0x0 MSTORE PUSH1 0x4 PUSH1 0x1C REVERT JUMPDEST PUSH2 0x3231 DUP2 PUSH2 0x37BE JUMP JUMPDEST POP JUMP JUMPDEST PUSH1 0x0 PUSH2 0x323E PUSH2 0x250F JUMP JUMPDEST SWAP1 POP SWAP1 JUMP JUMPDEST PUSH1 0x0 PUSH4 0x389A75E1 PUSH1 0xC MSTORE DUP2 PUSH1 0x0 MSTORE PUSH1 0x20 PUSH1 0xC KECCAK256 SLOAD SWAP1 POP SWAP2 SWAP1 POP JUMP JUMPDEST PUSH1 0x1 PUSH2 0x3269 DUP2 PUSH2 0x3E21 JUMP JUMPDEST DUP8 PUSH1 0x8 PUSH1 0x0 ADD PUSH1 0x0 PUSH2 0x100 EXP DUP2 SLOAD DUP2 PUSH13 0xFFFFFFFFFFFFFFFFFFFFFFFFFF MUL NOT AND SWAP1 DUP4 PUSH13 0xFFFFFFFFFFFFFFFFFFFFFFFFFF AND MUL OR SWAP1 SSTORE POP DUP7 PUSH1 0x8 PUSH1 0x0 ADD PUSH1 0xD PUSH2 0x100 EXP DUP2 SLOAD DUP2 PUSH4 0xFFFFFFFF MUL NOT AND SWAP1 DUP4 PUSH4 0xFFFFFFFF AND MUL OR SWAP1 SSTORE POP DUP6 PUSH1 0x8 PUSH1 0x0 ADD PUSH1 0x11 PUSH2 0x100 EXP DUP2 SLOAD DUP2 PUSH8 0xFFFFFFFFFFFFFFFF MUL NOT AND SWAP1 DUP4 PUSH8 0xFFFFFFFFFFFFFFFF AND MUL OR SWAP1 SSTORE POP DUP5 PUSH1 0x8 PUSH1 0x1 ADD PUSH1 0x0 PUSH2 0x100 EXP DUP2 SLOAD DUP2 PUSH8 0xFFFFFFFFFFFFFFFF MUL NOT AND SWAP1 DUP4 PUSH8 0xFFFFFFFFFFFFFFFF AND MUL OR SWAP1 SSTORE POP DUP4 PUSH1 0x8 PUSH1 0x1 ADD PUSH1 0x8 PUSH2 0x100 EXP DUP2 SLOAD DUP2 PUSH8 0xFFFFFFFFFFFFFFFF MUL NOT AND SWAP1 DUP4 PUSH8 0xFFFFFFFFFFFFFFFF AND MUL OR SWAP1 SSTORE POP DUP3 PUSH1 0x8 PUSH1 0x1 ADD PUSH1 0x10 PUSH2 0x100 EXP DUP2 SLOAD DUP2 PUSH8 0xFFFFFFFFFFFFFFFF MUL NOT AND SWAP1 DUP4 PUSH8 0xFFFFFFFFFFFFFFFF AND MUL OR SWAP1 SSTORE POP DUP2 PUSH1 0x8 PUSH1 0x2 ADD DUP2 SWAP1 SSTORE POP CALLER PUSH20 0xFFFFFFFFFFFFFFFFFFFFFFFFFFFFFFFFFFFFFFFF AND PUSH32 0xC1FF5E4744AC8DD2B8027A10E3723B165975297501C71C4E7DCB8796D96375DB PUSH1 0x40 MLOAD PUSH1 0x40 MLOAD DUP1 SWAP2 SUB SWAP1 LOG2 POP POP POP POP POP POP POP POP JUMP JUMPDEST PUSH1 0x0 PUSH4 0x1FFC9A7 PUSH1 0xE0 SHL DUP3 PUSH28 0xFFFFFFFFFFFFFFFFFFFFFFFFFFFFFFFFFFFFFFFFFFFFFFFFFFFFFFFF NOT AND EQ DUP1 PUSH2 0x3425 JUMPI POP PUSH4 0x80AC58CD PUSH1 0xE0 SHL DUP3 PUSH28 0xFFFFFFFFFFFFFFFFFFFFFFFFFFFFFFFFFFFFFFFFFFFFFFFFFFFFFFFF NOT AND EQ JUMPDEST DUP1 PUSH2 0x3455 JUMPI POP PUSH4 0x5B5E139F PUSH1 0xE0 SHL DUP3 PUSH28 0xFFFFFFFFFFFFFFFFFFFFFFFFFFFFFFFFFFFFFFFFFFFFFFFFFFFFFFFF NOT AND EQ JUMPDEST SWAP1 POP SWAP2 SWAP1 POP JUMP JUMPDEST PUSH1 0x60 DUP1 PUSH1 0x0 PUSH1 0x2 SLOAD SWAP1 POP PUSH1 0x0 DUP1 SHL DUP2 EQ PUSH2 0x3486 JUMPI PUSH2 0x3479 DUP2 PUSH2 0x4257 JUMP JUMPDEST DUP1 SWAP4 POP DUP2 SWAP5 POP POP POP PUSH2 0x35B3 JUMP JUMPDEST PUSH2 0x348E PUSH2 0x364D JUMP JUMPDEST PUSH1 0x2 ADD DUP1 SLOAD PUSH2 0x349C SWAP1 PUSH2 0x5B76 JUMP JUMPDEST DUP1 PUSH1 0x1F ADD PUSH1 0x20 DUP1 SWAP2 DIV MUL PUSH1 0x20 ADD PUSH1 0x40 MLOAD SWAP1 DUP2 ADD PUSH1 0x40 MSTORE DUP1 SWAP3 SWAP2 SWAP1 DUP2 DUP2 MSTORE PUSH1 0x20 ADD DUP3 DUP1 SLOAD PUSH2 0x34C8 SWAP1 PUSH2 0x5B76 JUMP JUMPDEST DUP1 ISZERO PUSH2 0x3515 JUMPI DUP1 PUSH1 0x1F LT PUSH2 0x34EA JUMPI PUSH2 0x100 DUP1 DUP4 SLOAD DIV MUL DUP4 MSTORE SWAP2 PUSH1 0x20 ADD SWAP2 PUSH2 0x3515 JUMP JUMPDEST DUP3 ADD SWAP2 SWAP1 PUSH1 0x0 MSTORE PUSH1 0x20 PUSH1 0x0 KECCAK256 SWAP1 JUMPDEST DUP2 SLOAD DUP2 MSTORE SWAP1 PUSH1 0x1 ADD SWAP1 PUSH1 0x20 ADD DUP1 DUP4 GT PUSH2 0x34F8 JUMPI DUP3 SWAP1 SUB PUSH1 0x1F AND DUP3 ADD SWAP2 JUMPDEST POP POP POP POP POP SWAP3 POP PUSH2 0x3524 PUSH2 0x364D JUMP JUMPDEST PUSH1 0x3 ADD DUP1 SLOAD PUSH2 0x3532 SWAP1 PUSH2 0x5B76 JUMP JUMPDEST DUP1 PUSH1 0x1F ADD PUSH1 0x20 DUP1 SWAP2 DIV MUL PUSH1 0x20 ADD PUSH1 0x40 MLOAD SWAP1 DUP2 ADD PUSH1 0x40 MSTORE DUP1 SWAP3 SWAP2 SWAP1 DUP2 DUP2 MSTORE PUSH1 0x20 ADD DUP3 DUP1 SLOAD PUSH2 0x355E SWAP1 PUSH2 0x5B76 JUMP JUMPDEST DUP1 ISZERO PUSH2 0x35AB JUMPI DUP1 PUSH1 0x1F LT PUSH2 0x3580 JUMPI PUSH2 0x100 DUP1 DUP4 SLOAD DIV MUL DUP4 MSTORE SWAP2 PUSH1 0x20 ADD SWAP2 PUSH2 0x35AB JUMP JUMPDEST DUP3 ADD SWAP2 SWAP1 PUSH1 0x0 MSTORE PUSH1 0x20 PUSH1 0x0 KECCAK256 SWAP1 JUMPDEST DUP2 SLOAD DUP2 MSTORE SWAP1 PUSH1 0x1 ADD SWAP1 PUSH1 0x20 ADD DUP1 DUP4 GT PUSH2 0x358E JUMPI DUP3 SWAP1 SUB PUSH1 0x1F AND DUP3 ADD SWAP2 JUMPDEST POP POP POP POP POP SWAP2 POP JUMPDEST POP SWAP1 SWAP2 JUMP JUMPDEST PUSH1 0x0 DUP2 PUSH2 0x35C3 PUSH2 0x37FC JUMP JUMPDEST GT PUSH2 0x363E JUMPI PUSH2 0x35D0 PUSH2 0x364D JUMP JUMPDEST PUSH1 0x0 ADD SLOAD DUP3 LT ISZERO PUSH2 0x363D JUMPI PUSH1 0x0 JUMPDEST PUSH1 0x0 PUSH2 0x35E8 PUSH2 0x364D JUMP JUMPDEST PUSH1 0x4 ADD PUSH1 0x0 DUP6 DUP2 MSTORE PUSH1 0x20 ADD SWAP1 DUP2 MSTORE PUSH1 0x20 ADD PUSH1 0x0 KECCAK256 SLOAD SWAP2 POP DUP2 SUB PUSH2 0x3616 JUMPI DUP3 PUSH2 0x360F SWAP1 PUSH2 0x649F JUMP JUMPDEST SWAP3 POP PUSH2 0x35DE JUMP JUMPDEST PUSH1 0x0 PUSH29 0x100000000000000000000000000000000000000000000000000000000 DUP3 AND EQ SWAP2 POP POP JUMPDEST JUMPDEST SWAP2 SWAP1 POP JUMP JUMPDEST DUP1 PUSH1 0x0 MSTORE PUSH1 0x4 PUSH1 0x0 REVERT JUMPDEST PUSH1 0x0 DUP1 PUSH32 0x2569078DFB4B0305704D3008E7403993AE9601B85F7AE5E742DE3DE8F8011C40 SWAP1 POP DUP1 SWAP2 POP POP SWAP1 JUMP JUMPDEST PUSH1 0x0 PUSH14 0xAAEB6D7670E522A718067333CD4E PUSH20 0xFFFFFFFFFFFFFFFFFFFFFFFFFFFFFFFFFFFFFFFF AND EXTCODESIZE GT ISZERO PUSH2 0x3774 JUMPI PUSH14 0xAAEB6D7670E522A718067333CD4E PUSH20 0xFFFFFFFFFFFFFFFFFFFFFFFFFFFFFFFFFFFFFFFF AND PUSH4 0xC6171134 ADDRESS DUP4 PUSH1 0x40 MLOAD DUP4 PUSH4 0xFFFFFFFF AND PUSH1 0xE0 SHL DUP2 MSTORE PUSH1 0x4 ADD PUSH2 0x36F1 SWAP3 SWAP2 SWAP1 PUSH2 0x64C8 JUMP JUMPDEST PUSH1 0x20 PUSH1 0x40 MLOAD DUP1 DUP4 SUB DUP2 DUP7 GAS STATICCALL ISZERO DUP1 ISZERO PUSH2 0x370E JUMPI RETURNDATASIZE PUSH1 0x0 DUP1 RETURNDATACOPY RETURNDATASIZE PUSH1 0x0 REVERT JUMPDEST POP POP POP POP PUSH1 0x40 MLOAD RETURNDATASIZE PUSH1 0x1F NOT PUSH1 0x1F DUP3 ADD AND DUP3 ADD DUP1 PUSH1 0x40 MSTORE POP DUP2 ADD SWAP1 PUSH2 0x3732 SWAP2 SWAP1 PUSH2 0x6506 JUMP JUMPDEST PUSH2 0x3773 JUMPI DUP1 PUSH1 0x40 MLOAD PUSH32 0xEDE71DCC00000000000000000000000000000000000000000000000000000000 DUP2 MSTORE PUSH1 0x4 ADD PUSH2 0x376A SWAP2 SWAP1 PUSH2 0x48E4 JUMP JUMPDEST PUSH1 0x40 MLOAD DUP1 SWAP2 SUB SWAP1 REVERT JUMPDEST JUMPDEST POP JUMP JUMPDEST PUSH2 0x3783 DUP3 DUP3 PUSH1 0x1 PUSH2 0x42A0 JUMP JUMPDEST POP POP JUMP JUMPDEST PUSH4 0x8B78C6D8 NOT SLOAD CALLER EQ PUSH2 0x37BB JUMPI PUSH4 0x8B78C6D8 PUSH1 0xC MSTORE CALLER PUSH1 0x0 MSTORE DUP1 PUSH1 0x20 PUSH1 0xC KECCAK256 SLOAD AND PUSH2 0x37BA JUMPI PUSH4 0x82B42900 PUSH1 0x0 MSTORE PUSH1 0x4 PUSH1 0x1C REVERT JUMPDEST JUMPDEST POP JUMP JUMPDEST PUSH4 0x8B78C6D8 NOT DUP2 PUSH1 0x60 SHL PUSH1 0x60 SHR SWAP2 POP DUP2 DUP2 SLOAD PUSH32 0x8BE0079C531659141344CD1FD0A4F28419497F9722A3DAAFE3B4186F6B6457E0 PUSH1 0x0 DUP1 LOG3 DUP2 DUP2 SSTORE POP POP JUMP JUMPDEST PUSH1 0x0 PUSH1 0x1 SWAP1 POP SWAP1 JUMP JUMPDEST PUSH4 0x8B78C6D8 PUSH1 0xC MSTORE DUP2 PUSH1 0x0 MSTORE PUSH1 0x20 PUSH1 0xC KECCAK256 DUP1 SLOAD DUP3 DUP2 AND DUP2 XOR SWAP3 POP DUP3 DUP3 SSTORE DUP3 PUSH1 0xC MLOAD PUSH1 0x60 SHR PUSH32 0x715AD5CE61FC9595C7B415289D59CF203F23A94FA06F04AF7E489A0A76E1FE26 PUSH1 0x0 DUP1 LOG3 POP POP POP POP JUMP JUMPDEST PUSH1 0x0 PUSH8 0xFFFFFFFFFFFFFFFF PUSH1 0x40 PUSH2 0x3869 PUSH2 0x364D JUMP JUMPDEST PUSH1 0x5 ADD PUSH1 0x0 DUP6 PUSH20 0xFFFFFFFFFFFFFFFFFFFFFFFFFFFFFFFFFFFFFFFF AND PUSH20 0xFFFFFFFFFFFFFFFFFFFFFFFFFFFFFFFFFFFFFFFF AND DUP2 MSTORE PUSH1 0x20 ADD SWAP1 DUP2 MSTORE PUSH1 0x20 ADD PUSH1 0x0 KECCAK256 SLOAD SWAP1 SHR AND SWAP1 POP SWAP2 SWAP1 POP JUMP JUMPDEST PUSH1 0x0 PUSH2 0x38BE PUSH2 0x364D JUMP JUMPDEST PUSH1 0x0 ADD SLOAD SWAP1 POP SWAP1 JUMP JUMPDEST PUSH1 0x0 PUSH2 0x38D1 PUSH2 0x364D JUMP JUMPDEST PUSH1 0x0 ADD SLOAD SWAP1 POP PUSH1 0x0 DUP3 SUB PUSH2 0x38F0 JUMPI PUSH2 0x38EF PUSH4 0xB562E8DD PUSH1 0xE0 SHL PUSH2 0x3643 JUMP JUMPDEST JUMPDEST PUSH2 0x38FD PUSH1 0x0 DUP5 DUP4 DUP6 PUSH2 0x43D8 JUMP JUMPDEST PUSH2 0x391D DUP4 PUSH2 0x390E PUSH1 0x0 DUP7 PUSH1 0x0 PUSH2 0x43DE JUMP JUMPDEST PUSH2 0x3917 DUP6 PUSH2 0x4406 JUMP JUMPDEST OR PUSH2 0x4416 JUMP JUMPDEST PUSH2 0x3925 PUSH2 0x364D JUMP JUMPDEST PUSH1 0x4 ADD PUSH1 0x0 DUP4 DUP2 MSTORE PUSH1 0x20 ADD SWAP1 DUP2 MSTORE PUSH1 0x20 ADD PUSH1 0x0 KECCAK256 DUP2 SWAP1 SSTORE POP PUSH1 0x1 PUSH1 0x40 PUSH1 0x1 SWAP1 SHL OR DUP3 MUL PUSH2 0x3950 PUSH2 0x364D JUMP JUMPDEST PUSH1 0x5 ADD PUSH1 0x0 DUP6 PUSH20 0xFFFFFFFFFFFFFFFFFFFFFFFFFFFFFFFFFFFFFFFF AND PUSH20 0xFFFFFFFFFFFFFFFFFFFFFFFFFFFFFFFFFFFFFFFF AND DUP2 MSTORE PUSH1 0x20 ADD SWAP1 DUP2 MSTORE PUSH1 0x20 ADD PUSH1 0x0 KECCAK256 PUSH1 0x0 DUP3 DUP3 SLOAD ADD SWAP3 POP POP DUP2 SWAP1 SSTORE POP PUSH1 0x0 PUSH20 0xFFFFFFFFFFFFFFFFFFFFFFFFFFFFFFFFFFFFFFFF DUP5 PUSH20 0xFFFFFFFFFFFFFFFFFFFFFFFFFFFFFFFFFFFFFFFF AND AND SWAP1 POP PUSH1 0x0 DUP2 SUB PUSH2 0x39E7 JUMPI PUSH2 0x39E6 PUSH4 0x2E076300 PUSH1 0xE0 SHL PUSH2 0x3643 JUMP JUMPDEST JUMPDEST PUSH1 0x0 DUP4 DUP4 ADD SWAP1 POP PUSH1 0x0 DUP4 SWAP1 POP JUMPDEST DUP1 DUP4 PUSH1 0x0 PUSH32 0xDDF252AD1BE2C89B69C2B068FC378DAA952BA7F163C4A11628F55A4DF523B3EF PUSH1 0x0 DUP1 LOG4 DUP2 DUP2 PUSH1 0x1 ADD SWAP2 POP DUP2 SUB PUSH2 0x39F4 JUMPI DUP2 PUSH2 0x3A33 PUSH2 0x364D JUMP JUMPDEST PUSH1 0x0 ADD DUP2 SWAP1 SSTORE POP POP POP POP PUSH2 0x3A4A PUSH1 0x0 DUP5 DUP4 DUP6 PUSH2 0x4441 JUMP JUMPDEST POP POP POP JUMP JUMPDEST PUSH4 0x8B78C6D8 NOT SLOAD CALLER EQ PUSH2 0x3A6A JUMPI PUSH4 0x82B42900 PUSH1 0x0 MSTORE PUSH1 0x4 PUSH1 0x1C REVERT JUMPDEST JUMP JUMPDEST PUSH4 0x8B78C6D8 PUSH1 0xC MSTORE DUP2 PUSH1 0x0 MSTORE PUSH1 0x20 PUSH1 0xC KECCAK256 DUP2 DUP2 SLOAD OR SWAP2 POP DUP2 DUP2 SSTORE DUP2 PUSH1 0xC MLOAD PUSH1 0x60 SHR PUSH32 0x715AD5CE61FC9595C7B415289D59CF203F23A94FA06F04AF7E489A0A76E1FE26 PUSH1 0x0 DUP1 LOG3 POP POP POP JUMP JUMPDEST PUSH1 0x0 PUSH2 0x3AC2 DUP3 PUSH2 0x3E78 JUMP JUMPDEST SWAP1 POP PUSH20 0xFFFFFFFFFFFFFFFFFFFFFFFFFFFFFFFFFFFFFFFF DUP5 PUSH20 0xFFFFFFFFFFFFFFFFFFFFFFFFFFFFFFFFFFFFFFFF AND AND SWAP4 POP DUP4 PUSH20 0xFFFFFFFFFFFFFFFFFFFFFFFFFFFFFFFFFFFFFFFF AND DUP2 PUSH20 0xFFFFFFFFFFFFFFFFFFFFFFFFFFFFFFFFFFFFFFFF AND EQ PUSH2 0x3B37 JUMPI PUSH2 0x3B36 PUSH4 0xA1148100 PUSH1 0xE0 SHL PUSH2 0x3643 JUMP JUMPDEST JUMPDEST PUSH1 0x0 DUP1 PUSH2 0x3B43 DUP5 PUSH2 0x4447 JUMP JUMPDEST SWAP2 POP SWAP2 POP PUSH2 0x3B59 DUP2 DUP8 PUSH2 0x3B54 PUSH2 0x4477 JUMP JUMPDEST PUSH2 0x447F JUMP JUMPDEST PUSH2 0x3B84 JUMPI PUSH2 0x3B6E DUP7 PUSH2 0x3B69 PUSH2 0x4477 JUMP JUMPDEST PUSH2 0x312C JUMP JUMPDEST PUSH2 0x3B83 JUMPI PUSH2 0x3B82 PUSH4 0x59C896BE PUSH1 0xE0 SHL PUSH2 0x3643 JUMP JUMPDEST JUMPDEST JUMPDEST PUSH2 0x3B91 DUP7 DUP7 DUP7 PUSH1 0x1 PUSH2 0x43D8 JUMP JUMPDEST DUP1 ISZERO PUSH2 0x3B9C JUMPI PUSH1 0x0 DUP3 SSTORE JUMPDEST PUSH2 0x3BA4 PUSH2 0x364D JUMP JUMPDEST PUSH1 0x5 ADD PUSH1 0x0 DUP8 PUSH20 0xFFFFFFFFFFFFFFFFFFFFFFFFFFFFFFFFFFFFFFFF AND PUSH20 0xFFFFFFFFFFFFFFFFFFFFFFFFFFFFFFFFFFFFFFFF AND DUP2 MSTORE PUSH1 0x20 ADD SWAP1 DUP2 MSTORE PUSH1 0x20 ADD PUSH1 0x0 KECCAK256 PUSH1 0x0 DUP2 SLOAD PUSH1 0x1 SWAP1 SUB SWAP2 SWAP1 POP DUP2 SWAP1 SSTORE POP PUSH2 0x3BFB PUSH2 0x364D JUMP JUMPDEST PUSH1 0x5 ADD PUSH1 0x0 DUP7 PUSH20 0xFFFFFFFFFFFFFFFFFFFFFFFFFFFFFFFFFFFFFFFF AND PUSH20 0xFFFFFFFFFFFFFFFFFFFFFFFFFFFFFFFFFFFFFFFF AND DUP2 MSTORE PUSH1 0x20 ADD SWAP1 DUP2 MSTORE PUSH1 0x20 ADD PUSH1 0x0 KECCAK256 PUSH1 0x0 DUP2 SLOAD PUSH1 0x1 ADD SWAP2 SWAP1 POP DUP2 SWAP1 SSTORE POP PUSH2 0x3C7C DUP6 PUSH2 0x3C58 DUP9 DUP9 DUP8 PUSH2 0x43DE JUMP JUMPDEST PUSH29 0x200000000000000000000000000000000000000000000000000000000 OR PUSH2 0x4416 JUMP JUMPDEST PUSH2 0x3C84 PUSH2 0x364D JUMP JUMPDEST PUSH1 0x4 ADD PUSH1 0x0 DUP7 DUP2 MSTORE PUSH1 0x20 ADD SWAP1 DUP2 MSTORE PUSH1 0x20 ADD PUSH1 0x0 KECCAK256 DUP2 SWAP1 SSTORE POP PUSH1 0x0 PUSH29 0x200000000000000000000000000000000000000000000000000000000 DUP5 AND SUB PUSH2 0x3D26 JUMPI PUSH1 0x0 PUSH1 0x1 DUP6 ADD SWAP1 POP PUSH1 0x0 PUSH2 0x3CD5 PUSH2 0x364D JUMP JUMPDEST PUSH1 0x4 ADD PUSH1 0x0 DUP4 DUP2 MSTORE PUSH1 0x20 ADD SWAP1 DUP2 MSTORE PUSH1 0x20 ADD PUSH1 0x0 KECCAK256 SLOAD SUB PUSH2 0x3D24 JUMPI PUSH2 0x3CF7 PUSH2 0x364D JUMP JUMPDEST PUSH1 0x0 ADD SLOAD DUP2 EQ PUSH2 0x3D23 JUMPI DUP4 PUSH2 0x3D0A PUSH2 0x364D JUMP JUMPDEST PUSH1 0x4 ADD PUSH1 0x0 DUP4 DUP2 MSTORE PUSH1 0x20 ADD SWAP1 DUP2 MSTORE PUSH1 0x20 ADD PUSH1 0x0 KECCAK256 DUP2 SWAP1 SSTORE POP JUMPDEST JUMPDEST POP JUMPDEST PUSH1 0x0 PUSH20 0xFFFFFFFFFFFFFFFFFFFFFFFFFFFFFFFFFFFFFFFF DUP7 PUSH20 0xFFFFFFFFFFFFFFFFFFFFFFFFFFFFFFFFFFFFFFFF AND AND SWAP1 POP DUP5 DUP2 DUP9 PUSH32 0xDDF252AD1BE2C89B69C2B068FC378DAA952BA7F163C4A11628F55A4DF523B3EF PUSH1 0x0 DUP1 LOG4 PUSH1 0x0 DUP2 SUB PUSH2 0x3D98 JUMPI PUSH2 0x3D97 PUSH4 0xEA553B34 PUSH1 0xE0 SHL PUSH2 0x3643 JUMP JUMPDEST JUMPDEST PUSH2 0x3DA5 DUP8 DUP8 DUP8 PUSH1 0x1 PUSH2 0x4441 JUMP JUMPDEST POP POP POP POP POP POP POP JUMP JUMPDEST PUSH1 0x0 TIMESTAMP PUSH1 0x8 PUSH1 0x1 ADD PUSH1 0x8 SWAP1 SLOAD SWAP1 PUSH2 0x100 EXP SWAP1 DIV PUSH8 0xFFFFFFFFFFFFFFFF AND PUSH8 0xFFFFFFFFFFFFFFFF AND GT ISZERO DUP1 ISZERO PUSH2 0x3E05 JUMPI POP TIMESTAMP PUSH1 0x8 PUSH1 0x1 ADD PUSH1 0x10 SWAP1 SLOAD SWAP1 PUSH2 0x100 EXP SWAP1 DIV PUSH8 0xFFFFFFFFFFFFFFFF AND PUSH8 0xFFFFFFFFFFFFFFFF AND GT JUMPDEST SWAP1 POP SWAP1 JUMP JUMPDEST PUSH1 0x0 DUP3 PUSH2 0x3E17 DUP6 DUP5 PUSH2 0x44C3 JUMP JUMPDEST EQ SWAP1 POP SWAP4 SWAP3 POP POP POP JUMP JUMPDEST PUSH4 0x8B78C6D8 PUSH1 0xC MSTORE CALLER PUSH1 0x0 MSTORE DUP1 PUSH1 0x20 PUSH1 0xC KECCAK256 SLOAD AND PUSH2 0x3E55 JUMPI PUSH4 0x8B78C6D8 NOT SLOAD CALLER EQ PUSH2 0x3E54 JUMPI PUSH4 0x82B42900 PUSH1 0x0 MSTORE PUSH1 0x4 PUSH1 0x1C REVERT JUMPDEST JUMPDEST POP JUMP JUMPDEST PUSH2 0x3E73 DUP4 DUP4 DUP4 PUSH1 0x40 MLOAD DUP1 PUSH1 0x20 ADD PUSH1 0x40 MSTORE DUP1 PUSH1 0x0 DUP2 MSTORE POP PUSH2 0x25AE JUMP JUMPDEST POP POP POP JUMP JUMPDEST PUSH1 0x0 DUP2 PUSH2 0x3E83 PUSH2 0x37FC JUMP JUMPDEST GT PUSH2 0x3F69 JUMPI PUSH2 0x3E90 PUSH2 0x364D JUMP JUMPDEST PUSH1 0x4 ADD PUSH1 0x0 DUP4 DUP2 MSTORE PUSH1 0x20 ADD SWAP1 DUP2 MSTORE PUSH1 0x20 ADD PUSH1 0x0 KECCAK256 SLOAD SWAP1 POP PUSH1 0x0 DUP2 SUB PUSH2 0x3F40 JUMPI PUSH2 0x3EB7 PUSH2 0x364D JUMP JUMPDEST PUSH1 0x0 ADD SLOAD DUP3 LT PUSH2 0x3ED2 JUMPI PUSH2 0x3ED1 PUSH4 0xDF2D9B42 PUSH1 0xE0 SHL PUSH2 0x3643 JUMP JUMPDEST JUMPDEST JUMPDEST PUSH2 0x3EDB PUSH2 0x364D JUMP JUMPDEST PUSH1 0x4 ADD PUSH1 0x0 DUP4 PUSH1 0x1 SWAP1 SUB SWAP4 POP DUP4 DUP2 MSTORE PUSH1 0x20 ADD SWAP1 DUP2 MSTORE PUSH1 0x20 ADD PUSH1 0x0 KECCAK256 SLOAD SWAP1 POP PUSH1 0x0 DUP2 SUB ISZERO PUSH2 0x3F3B JUMPI PUSH1 0x0 PUSH29 0x100000000000000000000000000000000000000000000000000000000 DUP3 AND SUB ISZERO PUSH2 0x3F7A JUMPI PUSH2 0x3F3A PUSH4 0xDF2D9B42 PUSH1 0xE0 SHL PUSH2 0x3643 JUMP JUMPDEST JUMPDEST PUSH2 0x3ED3 JUMP JUMPDEST PUSH1 0x0 PUSH29 0x100000000000000000000000000000000000000000000000000000000 DUP3 AND SUB ISZERO PUSH2 0x3F7A JUMPI JUMPDEST PUSH2 0x3F79 PUSH4 0xDF2D9B42 PUSH1 0xE0 SHL PUSH2 0x3643 JUMP JUMPDEST JUMPDEST SWAP2 SWAP1 POP JUMP JUMPDEST PUSH1 0x0 PUSH4 0x8B78C6D8 NOT SLOAD SWAP1 POP SWAP1 JUMP JUMPDEST DUP1 PUSH2 0x3F96 PUSH2 0x364D JUMP JUMPDEST PUSH1 0x7 ADD PUSH1 0x0 PUSH2 0x3FA3 PUSH2 0x4477 JUMP JUMPDEST PUSH20 0xFFFFFFFFFFFFFFFFFFFFFFFFFFFFFFFFFFFFFFFF AND PUSH20 0xFFFFFFFFFFFFFFFFFFFFFFFFFFFFFFFFFFFFFFFF AND DUP2 MSTORE PUSH1 0x20 ADD SWAP1 DUP2 MSTORE PUSH1 0x20 ADD PUSH1 0x0 KECCAK256 PUSH1 0x0 DUP5 PUSH20 0xFFFFFFFFFFFFFFFFFFFFFFFFFFFFFFFFFFFFFFFF AND PUSH20 0xFFFFFFFFFFFFFFFFFFFFFFFFFFFFFFFFFFFFFFFF AND DUP2 MSTORE PUSH1 0x20 ADD SWAP1 DUP2 MSTORE PUSH1 0x20 ADD PUSH1 0x0 KECCAK256 PUSH1 0x0 PUSH2 0x100 EXP DUP2 SLOAD DUP2 PUSH1 0xFF MUL NOT AND SWAP1 DUP4 ISZERO ISZERO MUL OR SWAP1 SSTORE POP DUP2 PUSH20 0xFFFFFFFFFFFFFFFFFFFFFFFFFFFFFFFFFFFFFFFF AND PUSH2 0x4050 PUSH2 0x4477 JUMP JUMPDEST PUSH20 0xFFFFFFFFFFFFFFFFFFFFFFFFFFFFFFFFFFFFFFFF AND PUSH32 0x17307EAB39AB6107E8899845AD3D59BD9653F200F220920489CA2B5937696C31 DUP4 PUSH1 0x40 MLOAD PUSH2 0x4095 SWAP2 SWAP1 PUSH2 0x4773 JUMP JUMPDEST PUSH1 0x40 MLOAD DUP1 SWAP2 SUB SWAP1 LOG3 POP POP JUMP JUMPDEST PUSH1 0x0 PUSH2 0x40AB PUSH2 0x37FC JUMP JUMPDEST PUSH2 0x40B3 PUSH2 0x364D JUMP JUMPDEST PUSH1 0x0 ADD SLOAD SUB SWAP1 POP SWAP1 JUMP JUMPDEST PUSH2 0x40C8 DUP5 DUP5 DUP5 PUSH2 0x179E JUMP JUMPDEST PUSH1 0x0 DUP4 PUSH20 0xFFFFFFFFFFFFFFFFFFFFFFFFFFFFFFFFFFFFFFFF AND EXTCODESIZE EQ PUSH2 0x4109 JUMPI PUSH2 0x40F3 DUP5 DUP5 DUP5 DUP5 PUSH2 0x4519 JUMP JUMPDEST PUSH2 0x4108 JUMPI PUSH2 0x4107 PUSH4 0xD1A57ED6 PUSH1 0xE0 SHL PUSH2 0x3643 JUMP JUMPDEST JUMPDEST JUMPDEST POP POP POP POP JUMP JUMPDEST PUSH1 0x60 PUSH1 0xA0 PUSH1 0x40 MLOAD ADD DUP1 PUSH1 0x40 MSTORE PUSH1 0x20 DUP2 SUB SWAP2 POP PUSH1 0x0 DUP3 MSTORE DUP2 DUP4 JUMPDEST PUSH1 0x1 ISZERO PUSH2 0x414A JUMPI PUSH1 0x1 DUP5 SUB SWAP4 POP PUSH1 0xA DUP2 MOD PUSH1 0x30 ADD DUP5 MSTORE8 PUSH1 0xA DUP2 DIV SWAP1 POP DUP1 PUSH2 0x4128 JUMPI JUMPDEST POP DUP3 DUP2 SUB PUSH1 0x20 DUP5 SUB SWAP4 POP DUP1 DUP5 MSTORE POP POP POP SWAP2 SWAP1 POP JUMP JUMPDEST PUSH1 0x0 DUP2 PUSH1 0x20 ADD MLOAD MLOAD SWAP1 POP PUSH1 0x0 JUMPDEST DUP2 DUP2 LT ISZERO PUSH2 0x41B9 JUMPI PUSH1 0x0 DUP4 PUSH1 0x20 ADD MLOAD DUP3 DUP2 MLOAD DUP2 LT PUSH2 0x418D JUMPI PUSH2 0x418C PUSH2 0x61B4 JUMP JUMPDEST JUMPDEST PUSH1 0x20 MUL PUSH1 0x20 ADD ADD MLOAD SWAP1 POP PUSH2 0x41AD PUSH2 0x41A2 PUSH2 0x23F4 JUMP JUMPDEST DUP6 PUSH1 0x0 ADD MLOAD DUP4 PUSH2 0x1E1B JUMP JUMPDEST DUP2 PUSH1 0x1 ADD SWAP2 POP POP PUSH2 0x416C JUMP JUMPDEST POP POP POP JUMP JUMPDEST PUSH1 0x0 PUSH2 0x41CA DUP4 DUP4 PUSH2 0x4648 JUMP JUMPDEST SWAP1 POP PUSH1 0x0 DUP1 SHL DUP2 SUB PUSH2 0x420E JUMPI DUP3 PUSH2 0x41DF PUSH2 0x364D JUMP JUMPDEST PUSH1 0x2 ADD SWAP1 DUP2 PUSH2 0x41EE SWAP2 SWAP1 PUSH2 0x605F JUMP JUMPDEST POP DUP2 PUSH2 0x41F8 PUSH2 0x364D JUMP JUMPDEST PUSH1 0x3 ADD SWAP1 DUP2 PUSH2 0x4207 SWAP2 SWAP1 PUSH2 0x605F JUMP JUMPDEST POP POP PUSH2 0x4217 JUMP JUMPDEST DUP1 PUSH1 0x2 DUP2 SWAP1 SSTORE POP POP JUMPDEST POP POP JUMP JUMPDEST DUP1 PUSH1 0x60 SHL PUSH1 0x60 SHR SWAP1 POP DUP1 PUSH4 0x8B78C6D8 NOT SSTORE DUP1 PUSH1 0x0 PUSH32 0x8BE0079C531659141344CD1FD0A4F28419497F9722A3DAAFE3B4186F6B6457E0 PUSH1 0x0 DUP1 LOG3 POP JUMP JUMPDEST PUSH1 0x60 DUP1 PUSH1 0x40 MLOAD SWAP2 POP PUSH1 0x40 DUP3 ADD SWAP1 POP PUSH1 0x40 DUP2 ADD PUSH1 0x40 MSTORE PUSH1 0x0 DUP3 MSTORE PUSH1 0x0 DUP2 MSTORE DUP3 PUSH1 0x1F DUP4 ADD MSTORE DUP2 MLOAD PUSH1 0x20 DUP4 ADD ADD MLOAD PUSH1 0x1F DUP3 ADD MSTORE PUSH1 0x0 DUP3 MLOAD PUSH1 0x20 DUP5 ADD ADD MSTORE PUSH1 0x0 DUP2 MLOAD PUSH1 0x20 DUP4 ADD ADD MSTORE SWAP2 POP SWAP2 JUMP JUMPDEST PUSH1 0x0 PUSH2 0x42AB DUP4 PUSH2 0x207F JUMP JUMPDEST SWAP1 POP DUP2 DUP1 ISZERO PUSH2 0x42ED JUMPI POP DUP1 PUSH20 0xFFFFFFFFFFFFFFFFFFFFFFFFFFFFFFFFFFFFFFFF AND PUSH2 0x42D4 PUSH2 0x4477 JUMP JUMPDEST PUSH20 0xFFFFFFFFFFFFFFFFFFFFFFFFFFFFFFFFFFFFFFFF AND EQ ISZERO JUMPDEST ISZERO PUSH2 0x4319 JUMPI PUSH2 0x4303 DUP2 PUSH2 0x42FE PUSH2 0x4477 JUMP JUMPDEST PUSH2 0x312C JUMP JUMPDEST PUSH2 0x4318 JUMPI PUSH2 0x4317 PUSH4 0xCFB3B942 PUSH1 0xE0 SHL PUSH2 0x3643 JUMP JUMPDEST JUMPDEST JUMPDEST DUP4 PUSH2 0x4322 PUSH2 0x364D JUMP JUMPDEST PUSH1 0x6 ADD PUSH1 0x0 DUP6 DUP2 MSTORE PUSH1 0x20 ADD SWAP1 DUP2 MSTORE PUSH1 0x20 ADD PUSH1 0x0 KECCAK256 PUSH1 0x0 ADD PUSH1 0x0 PUSH2 0x100 EXP DUP2 SLOAD DUP2 PUSH20 0xFFFFFFFFFFFFFFFFFFFFFFFFFFFFFFFFFFFFFFFF MUL NOT AND SWAP1 DUP4 PUSH20 0xFFFFFFFFFFFFFFFFFFFFFFFFFFFFFFFFFFFFFFFF AND MUL OR SWAP1 SSTORE POP DUP3 DUP5 PUSH20 0xFFFFFFFFFFFFFFFFFFFFFFFFFFFFFFFFFFFFFFFF AND DUP3 PUSH20 0xFFFFFFFFFFFFFFFFFFFFFFFFFFFFFFFFFFFFFFFF AND PUSH32 0x8C5BE1E5EBEC7D5BD14F71427D1E84F3DD0314C0F7B2291E5B200AC8C7C3B925 PUSH1 0x40 MLOAD PUSH1 0x40 MLOAD DUP1 SWAP2 SUB SWAP1 LOG4 POP POP POP POP JUMP JUMPDEST POP POP POP POP JUMP JUMPDEST PUSH1 0x0 DUP1 PUSH1 0xE8 DUP4 SWAP1 SHR SWAP1 POP PUSH1 0xE8 PUSH2 0x43F5 DUP7 DUP7 DUP5 PUSH2 0x4674 JUMP JUMPDEST PUSH3 0xFFFFFF AND SWAP1 SHL SWAP2 POP POP SWAP4 SWAP3 POP POP POP JUMP JUMPDEST PUSH1 0x0 PUSH1 0x1 DUP3 EQ PUSH1 0xE1 SHL SWAP1 POP SWAP2 SWAP1 POP JUMP JUMPDEST PUSH1 0x0 PUSH20 0xFFFFFFFFFFFFFFFFFFFFFFFFFFFFFFFFFFFFFFFF DUP4 AND SWAP3 POP DUP2 TIMESTAMP PUSH1 0xA0 SHL OR DUP4 OR SWAP1 POP SWAP3 SWAP2 POP POP JUMP JUMPDEST POP POP POP POP JUMP JUMPDEST PUSH1 0x0 DUP1 PUSH1 0x0 PUSH2 0x4454 PUSH2 0x364D JUMP JUMPDEST PUSH1 0x6 ADD PUSH1 0x0 DUP6 DUP2 MSTORE PUSH1 0x20 ADD SWAP1 DUP2 MSTORE PUSH1 0x20 ADD PUSH1 0x0 KECCAK256 SWAP1 POP DUP1 SWAP3 POP DUP3 SLOAD SWAP2 POP POP SWAP2 POP SWAP2 JUMP JUMPDEST PUSH1 0x0 CALLER SWAP1 POP SWAP1 JUMP JUMPDEST PUSH1 0x0 PUSH20 0xFFFFFFFFFFFFFFFFFFFFFFFFFFFFFFFFFFFFFFFF DUP4 AND SWAP3 POP PUSH20 0xFFFFFFFFFFFFFFFFFFFFFFFFFFFFFFFFFFFFFFFF DUP3 AND SWAP2 POP DUP4 DUP3 EQ DUP4 DUP4 EQ OR SWAP1 POP SWAP4 SWAP3 POP POP POP JUMP JUMPDEST PUSH1 0x0 DUP1 DUP3 SWAP1 POP PUSH1 0x0 JUMPDEST DUP5 MLOAD DUP2 LT ISZERO PUSH2 0x450E JUMPI PUSH2 0x44F9 DUP3 DUP7 DUP4 DUP2 MLOAD DUP2 LT PUSH2 0x44EC JUMPI PUSH2 0x44EB PUSH2 0x61B4 JUMP JUMPDEST JUMPDEST PUSH1 0x20 MUL PUSH1 0x20 ADD ADD MLOAD PUSH2 0x467D JUMP JUMPDEST SWAP2 POP DUP1 DUP1 PUSH2 0x4506 SWAP1 PUSH2 0x6533 JUMP JUMPDEST SWAP2 POP POP PUSH2 0x44CC JUMP JUMPDEST POP DUP1 SWAP2 POP POP SWAP3 SWAP2 POP POP JUMP JUMPDEST PUSH1 0x0 DUP4 PUSH20 0xFFFFFFFFFFFFFFFFFFFFFFFFFFFFFFFFFFFFFFFF AND PUSH4 0x150B7A02 PUSH2 0x453F PUSH2 0x4477 JUMP JUMPDEST DUP8 DUP7 DUP7 PUSH1 0x40 MLOAD DUP6 PUSH4 0xFFFFFFFF AND PUSH1 0xE0 SHL DUP2 MSTORE PUSH1 0x4 ADD PUSH2 0x4561 SWAP5 SWAP4 SWAP3 SWAP2 SWAP1 PUSH2 0x65D0 JUMP JUMPDEST PUSH1 0x20 PUSH1 0x40 MLOAD DUP1 DUP4 SUB DUP2 PUSH1 0x0 DUP8 GAS CALL SWAP3 POP POP POP DUP1 ISZERO PUSH2 0x459D JUMPI POP PUSH1 0x40 MLOAD RETURNDATASIZE PUSH1 0x1F NOT PUSH1 0x1F DUP3 ADD AND DUP3 ADD DUP1 PUSH1 0x40 MSTORE POP DUP2 ADD SWAP1 PUSH2 0x459A SWAP2 SWAP1 PUSH2 0x6631 JUMP JUMPDEST PUSH1 0x1 JUMPDEST PUSH2 0x45F5 JUMPI RETURNDATASIZE DUP1 PUSH1 0x0 DUP2 EQ PUSH2 0x45CD JUMPI PUSH1 0x40 MLOAD SWAP2 POP PUSH1 0x1F NOT PUSH1 0x3F RETURNDATASIZE ADD AND DUP3 ADD PUSH1 0x40 MSTORE RETURNDATASIZE DUP3 MSTORE RETURNDATASIZE PUSH1 0x0 PUSH1 0x20 DUP5 ADD RETURNDATACOPY PUSH2 0x45D2 JUMP JUMPDEST PUSH1 0x60 SWAP2 POP JUMPDEST POP PUSH1 0x0 DUP2 MLOAD SUB PUSH2 0x45ED JUMPI PUSH2 0x45EC PUSH4 0xD1A57ED6 PUSH1 0xE0 SHL PUSH2 0x3643 JUMP JUMPDEST JUMPDEST DUP1 MLOAD DUP2 PUSH1 0x20 ADD REVERT JUMPDEST PUSH4 0x150B7A02 PUSH1 0xE0 SHL PUSH28 0xFFFFFFFFFFFFFFFFFFFFFFFFFFFFFFFFFFFFFFFFFFFFFFFFFFFFFFFF NOT AND DUP2 PUSH28 0xFFFFFFFFFFFFFFFFFFFFFFFFFFFFFFFFFFFFFFFFFFFFFFFFFFFFFFFF NOT AND EQ SWAP2 POP POP SWAP5 SWAP4 POP POP POP POP JUMP JUMPDEST PUSH1 0x0 DUP3 MLOAD PUSH1 0x1E PUSH1 0x1 DUP5 MLOAD DUP4 ADD SUB LT DUP2 PUSH1 0x1E DUP6 ADD SUB MLOAD DUP3 DUP7 ADD MLOAD DUP4 PUSH1 0x1F SUB PUSH1 0x3 SHL SHL OR MUL SWAP2 POP POP SWAP3 SWAP2 POP POP JUMP JUMPDEST PUSH1 0x0 SWAP4 SWAP3 POP POP POP JUMP JUMPDEST PUSH1 0x0 DUP2 DUP4 LT PUSH2 0x4695 JUMPI PUSH2 0x4690 DUP3 DUP5 PUSH2 0x46A8 JUMP JUMPDEST PUSH2 0x46A0 JUMP JUMPDEST PUSH2 0x469F DUP4 DUP4 PUSH2 0x46A8 JUMP JUMPDEST JUMPDEST SWAP1 POP SWAP3 SWAP2 POP POP JUMP JUMPDEST PUSH1 0x0 DUP3 PUSH1 0x0 MSTORE DUP2 PUSH1 0x20 MSTORE PUSH1 0x40 PUSH1 0x0 KECCAK256 SWAP1 POP SWAP3 SWAP2 POP POP JUMP JUMPDEST PUSH1 0x0 PUSH1 0x40 MLOAD SWAP1 POP SWAP1 JUMP JUMPDEST PUSH1 0x0 DUP1 REVERT JUMPDEST PUSH1 0x0 DUP1 REVERT JUMPDEST PUSH1 0x0 PUSH32 0xFFFFFFFF00000000000000000000000000000000000000000000000000000000 DUP3 AND SWAP1 POP SWAP2 SWAP1 POP JUMP JUMPDEST PUSH2 0x4708 DUP2 PUSH2 0x46D3 JUMP JUMPDEST DUP2 EQ PUSH2 0x4713 JUMPI PUSH1 0x0 DUP1 REVERT JUMPDEST POP JUMP JUMPDEST PUSH1 0x0 DUP2 CALLDATALOAD SWAP1 POP PUSH2 0x4725 DUP2 PUSH2 0x46FF JUMP JUMPDEST SWAP3 SWAP2 POP POP JUMP JUMPDEST PUSH1 0x0 PUSH1 0x20 DUP3 DUP5 SUB SLT ISZERO PUSH2 0x4741 JUMPI PUSH2 0x4740 PUSH2 0x46C9 JUMP JUMPDEST JUMPDEST PUSH1 0x0 PUSH2 0x474F DUP5 DUP3 DUP6 ADD PUSH2 0x4716 JUMP JUMPDEST SWAP2 POP POP SWAP3 SWAP2 POP POP JUMP JUMPDEST PUSH1 0x0 DUP2 ISZERO ISZERO SWAP1 POP SWAP2 SWAP1 POP JUMP JUMPDEST PUSH2 0x476D DUP2 PUSH2 0x4758 JUMP JUMPDEST DUP3 MSTORE POP POP JUMP JUMPDEST PUSH1 0x0 PUSH1 0x20 DUP3 ADD SWAP1 POP PUSH2 0x4788 PUSH1 0x0 DUP4 ADD DUP5 PUSH2 0x4764 JUMP JUMPDEST SWAP3 SWAP2 POP POP JUMP JUMPDEST PUSH1 0x0 DUP2 MLOAD SWAP1 POP SWAP2 SWAP1 POP JUMP JUMPDEST PUSH1 0x0 DUP3 DUP3 MSTORE PUSH1 0x20 DUP3 ADD SWAP1 POP SWAP3 SWAP2 POP POP JUMP JUMPDEST PUSH1 0x0 JUMPDEST DUP4 DUP2 LT ISZERO PUSH2 0x47C8 JUMPI DUP1 DUP3 ADD MLOAD DUP2 DUP5 ADD MSTORE PUSH1 0x20 DUP2 ADD SWAP1 POP PUSH2 0x47AD JUMP JUMPDEST PUSH1 0x0 DUP5 DUP5 ADD MSTORE POP POP POP POP JUMP JUMPDEST PUSH1 0x0 PUSH1 0x1F NOT PUSH1 0x1F DUP4 ADD AND SWAP1 POP SWAP2 SWAP1 POP JUMP JUMPDEST PUSH1 0x0 PUSH2 0x47F0 DUP3 PUSH2 0x478E JUMP JUMPDEST PUSH2 0x47FA DUP2 DUP6 PUSH2 0x4799 JUMP JUMPDEST SWAP4 POP PUSH2 0x480A DUP2 DUP6 PUSH1 0x20 DUP7 ADD PUSH2 0x47AA JUMP JUMPDEST PUSH2 0x4813 DUP2 PUSH2 0x47D4 JUMP JUMPDEST DUP5 ADD SWAP2 POP POP SWAP3 SWAP2 POP POP JUMP JUMPDEST PUSH1 0x0 PUSH1 0x20 DUP3 ADD SWAP1 POP DUP2 DUP2 SUB PUSH1 0x0 DUP4 ADD MSTORE PUSH2 0x4838 DUP2 DUP5 PUSH2 0x47E5 JUMP JUMPDEST SWAP1 POP SWAP3 SWAP2 POP POP JUMP JUMPDEST PUSH1 0x0 DUP2 SWAP1 POP SWAP2 SWAP1 POP JUMP JUMPDEST PUSH2 0x4853 DUP2 PUSH2 0x4840 JUMP JUMPDEST DUP2 EQ PUSH2 0x485E JUMPI PUSH1 0x0 DUP1 REVERT JUMPDEST POP JUMP JUMPDEST PUSH1 0x0 DUP2 CALLDATALOAD SWAP1 POP PUSH2 0x4870 DUP2 PUSH2 0x484A JUMP JUMPDEST SWAP3 SWAP2 POP POP JUMP JUMPDEST PUSH1 0x0 PUSH1 0x20 DUP3 DUP5 SUB SLT ISZERO PUSH2 0x488C JUMPI PUSH2 0x488B PUSH2 0x46C9 JUMP JUMPDEST JUMPDEST PUSH1 0x0 PUSH2 0x489A DUP5 DUP3 DUP6 ADD PUSH2 0x4861 JUMP JUMPDEST SWAP2 POP POP SWAP3 SWAP2 POP POP JUMP JUMPDEST PUSH1 0x0 PUSH20 0xFFFFFFFFFFFFFFFFFFFFFFFFFFFFFFFFFFFFFFFF DUP3 AND SWAP1 POP SWAP2 SWAP1 POP JUMP JUMPDEST PUSH1 0x0 PUSH2 0x48CE DUP3 PUSH2 0x48A3 JUMP JUMPDEST SWAP1 POP SWAP2 SWAP1 POP JUMP JUMPDEST PUSH2 0x48DE DUP2 PUSH2 0x48C3 JUMP JUMPDEST DUP3 MSTORE POP POP JUMP JUMPDEST PUSH1 0x0 PUSH1 0x20 DUP3 ADD SWAP1 POP PUSH2 0x48F9 PUSH1 0x0 DUP4 ADD DUP5 PUSH2 0x48D5 JUMP JUMPDEST SWAP3 SWAP2 POP POP JUMP JUMPDEST PUSH2 0x4908 DUP2 PUSH2 0x48C3 JUMP JUMPDEST DUP2 EQ PUSH2 0x4913 JUMPI PUSH1 0x0 DUP1 REVERT JUMPDEST POP JUMP JUMPDEST PUSH1 0x0 DUP2 CALLDATALOAD SWAP1 POP PUSH2 0x4925 DUP2 PUSH2 0x48FF JUMP JUMPDEST SWAP3 SWAP2 POP POP JUMP JUMPDEST PUSH1 0x0 DUP1 PUSH1 0x40 DUP4 DUP6 SUB SLT ISZERO PUSH2 0x4942 JUMPI PUSH2 0x4941 PUSH2 0x46C9 JUMP JUMPDEST JUMPDEST PUSH1 0x0 PUSH2 0x4950 DUP6 DUP3 DUP7 ADD PUSH2 0x4916 JUMP JUMPDEST SWAP3 POP POP PUSH1 0x20 PUSH2 0x4961 DUP6 DUP3 DUP7 ADD PUSH2 0x4861 JUMP JUMPDEST SWAP2 POP POP SWAP3 POP SWAP3 SWAP1 POP JUMP JUMPDEST PUSH1 0x0 DUP1 REVERT JUMPDEST PUSH32 0x4E487B7100000000000000000000000000000000000000000000000000000000 PUSH1 0x0 MSTORE PUSH1 0x41 PUSH1 0x4 MSTORE PUSH1 0x24 PUSH1 0x0 REVERT JUMPDEST PUSH2 0x49A8 DUP3 PUSH2 0x47D4 JUMP JUMPDEST DUP2 ADD DUP2 DUP2 LT PUSH8 0xFFFFFFFFFFFFFFFF DUP3 GT OR ISZERO PUSH2 0x49C7 JUMPI PUSH2 0x49C6 PUSH2 0x4970 JUMP JUMPDEST JUMPDEST DUP1 PUSH1 0x40 MSTORE POP POP POP JUMP JUMPDEST PUSH1 0x0 PUSH2 0x49DA PUSH2 0x46BF JUMP JUMPDEST SWAP1 POP PUSH2 0x49E6 DUP3 DUP3 PUSH2 0x499F JUMP JUMPDEST SWAP2 SWAP1 POP JUMP JUMPDEST PUSH1 0x0 PUSH8 0xFFFFFFFFFFFFFFFF DUP3 GT ISZERO PUSH2 0x4A06 JUMPI PUSH2 0x4A05 PUSH2 0x4970 JUMP JUMPDEST JUMPDEST PUSH1 0x20 DUP3 MUL SWAP1 POP PUSH1 0x20 DUP2 ADD SWAP1 POP SWAP2 SWAP1 POP JUMP JUMPDEST PUSH1 0x0 DUP1 REVERT JUMPDEST PUSH1 0x0 PUSH1 0xFF DUP3 AND SWAP1 POP SWAP2 SWAP1 POP JUMP JUMPDEST PUSH2 0x4A32 DUP2 PUSH2 0x4A1C JUMP JUMPDEST DUP2 EQ PUSH2 0x4A3D JUMPI PUSH1 0x0 DUP1 REVERT JUMPDEST POP JUMP JUMPDEST PUSH1 0x0 DUP2 CALLDATALOAD SWAP1 POP PUSH2 0x4A4F DUP2 PUSH2 0x4A29 JUMP JUMPDEST SWAP3 SWAP2 POP POP JUMP JUMPDEST PUSH1 0x0 PUSH2 0x4A68 PUSH2 0x4A63 DUP5 PUSH2 0x49EB JUMP JUMPDEST PUSH2 0x49D0 JUMP JUMPDEST SWAP1 POP DUP1 DUP4 DUP3 MSTORE PUSH1 0x20 DUP3 ADD SWAP1 POP PUSH1 0x20 DUP5 MUL DUP4 ADD DUP6 DUP2 GT ISZERO PUSH2 0x4A8B JUMPI PUSH2 0x4A8A PUSH2 0x4A17 JUMP JUMPDEST JUMPDEST DUP4 JUMPDEST DUP2 DUP2 LT ISZERO PUSH2 0x4AB4 JUMPI DUP1 PUSH2 0x4AA0 DUP9 DUP3 PUSH2 0x4A40 JUMP JUMPDEST DUP5 MSTORE PUSH1 0x20 DUP5 ADD SWAP4 POP POP PUSH1 0x20 DUP2 ADD SWAP1 POP PUSH2 0x4A8D JUMP JUMPDEST POP POP POP SWAP4 SWAP3 POP POP POP JUMP JUMPDEST PUSH1 0x0 DUP3 PUSH1 0x1F DUP4 ADD SLT PUSH2 0x4AD3 JUMPI PUSH2 0x4AD2 PUSH2 0x496B JUMP JUMPDEST JUMPDEST DUP2 CALLDATALOAD PUSH2 0x4AE3 DUP5 DUP3 PUSH1 0x20 DUP7 ADD PUSH2 0x4A55 JUMP JUMPDEST SWAP2 POP POP SWAP3 SWAP2 POP POP JUMP JUMPDEST PUSH1 0x0 PUSH1 0x20 DUP3 DUP5 SUB SLT ISZERO PUSH2 0x4B02 JUMPI PUSH2 0x4B01 PUSH2 0x46C9 JUMP JUMPDEST JUMPDEST PUSH1 0x0 DUP3 ADD CALLDATALOAD PUSH8 0xFFFFFFFFFFFFFFFF DUP2 GT ISZERO PUSH2 0x4B20 JUMPI PUSH2 0x4B1F PUSH2 0x46CE JUMP JUMPDEST JUMPDEST PUSH2 0x4B2C DUP5 DUP3 DUP6 ADD PUSH2 0x4ABE JUMP JUMPDEST SWAP2 POP POP SWAP3 SWAP2 POP POP JUMP JUMPDEST PUSH2 0x4B3E DUP2 PUSH2 0x4840 JUMP JUMPDEST DUP3 MSTORE POP POP JUMP JUMPDEST PUSH1 0x0 PUSH1 0x20 DUP3 ADD SWAP1 POP PUSH2 0x4B59 PUSH1 0x0 DUP4 ADD DUP5 PUSH2 0x4B35 JUMP JUMPDEST SWAP3 SWAP2 POP POP JUMP JUMPDEST PUSH1 0x0 PUSH1 0x20 DUP3 DUP5 SUB SLT ISZERO PUSH2 0x4B75 JUMPI PUSH2 0x4B74 PUSH2 0x46C9 JUMP JUMPDEST JUMPDEST PUSH1 0x0 PUSH2 0x4B83 DUP5 DUP3 DUP6 ADD PUSH2 0x4916 JUMP JUMPDEST SWAP2 POP POP SWAP3 SWAP2 POP POP JUMP JUMPDEST PUSH1 0x0 PUSH13 0xFFFFFFFFFFFFFFFFFFFFFFFFFF DUP3 AND SWAP1 POP SWAP2 SWAP1 POP JUMP JUMPDEST PUSH2 0x4BAE DUP2 PUSH2 0x4B8C JUMP JUMPDEST DUP3 MSTORE POP POP JUMP JUMPDEST PUSH1 0x0 PUSH4 0xFFFFFFFF DUP3 AND SWAP1 POP SWAP2 SWAP1 POP JUMP JUMPDEST PUSH2 0x4BCD DUP2 PUSH2 0x4BB4 JUMP JUMPDEST DUP3 MSTORE POP POP JUMP JUMPDEST PUSH1 0x0 PUSH8 0xFFFFFFFFFFFFFFFF DUP3 AND SWAP1 POP SWAP2 SWAP1 POP JUMP JUMPDEST PUSH2 0x4BF0 DUP2 PUSH2 0x4BD3 JUMP JUMPDEST DUP3 MSTORE POP POP JUMP JUMPDEST PUSH1 0x0 DUP2 SWAP1 POP SWAP2 SWAP1 POP JUMP JUMPDEST PUSH2 0x4C09 DUP2 PUSH2 0x4BF6 JUMP JUMPDEST DUP3 MSTORE POP POP JUMP JUMPDEST PUSH1 0x0 PUSH1 0xE0 DUP3 ADD SWAP1 POP PUSH2 0x4C24 PUSH1 0x0 DUP4 ADD DUP11 PUSH2 0x4BA5 JUMP JUMPDEST PUSH2 0x4C31 PUSH1 0x20 DUP4 ADD DUP10 PUSH2 0x4BC4 JUMP JUMPDEST PUSH2 0x4C3E PUSH1 0x40 DUP4 ADD DUP9 PUSH2 0x4BE7 JUMP JUMPDEST PUSH2 0x4C4B PUSH1 0x60 DUP4 ADD DUP8 PUSH2 0x4BE7 JUMP JUMPDEST PUSH2 0x4C58 PUSH1 0x80 DUP4 ADD DUP7 PUSH2 0x4BE7 JUMP JUMPDEST PUSH2 0x4C65 PUSH1 0xA0 DUP4 ADD DUP6 PUSH2 0x4BE7 JUMP JUMPDEST PUSH2 0x4C72 PUSH1 0xC0 DUP4 ADD DUP5 PUSH2 0x4C00 JUMP JUMPDEST SWAP9 SWAP8 POP POP POP POP POP POP POP POP JUMP JUMPDEST PUSH1 0x0 DUP1 PUSH1 0x0 PUSH1 0x60 DUP5 DUP7 SUB SLT ISZERO PUSH2 0x4C97 JUMPI PUSH2 0x4C96 PUSH2 0x46C9 JUMP JUMPDEST JUMPDEST PUSH1 0x0 PUSH2 0x4CA5 DUP7 DUP3 DUP8 ADD PUSH2 0x4916 JUMP JUMPDEST SWAP4 POP POP PUSH1 0x20 PUSH2 0x4CB6 DUP7 DUP3 DUP8 ADD PUSH2 0x4916 JUMP JUMPDEST SWAP3 POP POP PUSH1 0x40 PUSH2 0x4CC7 DUP7 DUP3 DUP8 ADD PUSH2 0x4861 JUMP JUMPDEST SWAP2 POP POP SWAP3 POP SWAP3 POP SWAP3 JUMP JUMPDEST PUSH1 0x0 DUP1 REVERT JUMPDEST PUSH1 0x0 DUP1 DUP4 PUSH1 0x1F DUP5 ADD SLT PUSH2 0x4CEC JUMPI PUSH2 0x4CEB PUSH2 0x496B JUMP JUMPDEST JUMPDEST DUP3 CALLDATALOAD SWAP1 POP PUSH8 0xFFFFFFFFFFFFFFFF DUP2 GT ISZERO PUSH2 0x4D09 JUMPI PUSH2 0x4D08 PUSH2 0x4CD1 JUMP JUMPDEST JUMPDEST PUSH1 0x20 DUP4 ADD SWAP2 POP DUP4 PUSH1 0x20 DUP3 MUL DUP4 ADD GT ISZERO PUSH2 0x4D25 JUMPI PUSH2 0x4D24 PUSH2 0x4A17 JUMP JUMPDEST JUMPDEST SWAP3 POP SWAP3 SWAP1 POP JUMP JUMPDEST PUSH1 0x0 DUP1 PUSH1 0x0 DUP1 PUSH1 0x0 PUSH1 0x80 DUP7 DUP9 SUB SLT ISZERO PUSH2 0x4D48 JUMPI PUSH2 0x4D47 PUSH2 0x46C9 JUMP JUMPDEST JUMPDEST PUSH1 0x0 PUSH2 0x4D56 DUP9 DUP3 DUP10 ADD PUSH2 0x4861 JUMP JUMPDEST SWAP6 POP POP PUSH1 0x20 PUSH2 0x4D67 DUP9 DUP3 DUP10 ADD PUSH2 0x4861 JUMP JUMPDEST SWAP5 POP POP PUSH1 0x40 PUSH2 0x4D78 DUP9 DUP3 DUP10 ADD PUSH2 0x4861 JUMP JUMPDEST SWAP4 POP POP PUSH1 0x60 DUP7 ADD CALLDATALOAD PUSH8 0xFFFFFFFFFFFFFFFF DUP2 GT ISZERO PUSH2 0x4D99 JUMPI PUSH2 0x4D98 PUSH2 0x46CE JUMP JUMPDEST JUMPDEST PUSH2 0x4DA5 DUP9 DUP3 DUP10 ADD PUSH2 0x4CD6 JUMP JUMPDEST SWAP3 POP SWAP3 POP POP SWAP3 SWAP6 POP SWAP3 SWAP6 SWAP1 SWAP4 POP JUMP JUMPDEST PUSH1 0x0 DUP1 PUSH1 0x40 DUP4 DUP6 SUB SLT ISZERO PUSH2 0x4DCB JUMPI PUSH2 0x4DCA PUSH2 0x46C9 JUMP JUMPDEST JUMPDEST PUSH1 0x0 PUSH2 0x4DD9 DUP6 DUP3 DUP7 ADD PUSH2 0x4861 JUMP JUMPDEST SWAP3 POP POP PUSH1 0x20 PUSH2 0x4DEA DUP6 DUP3 DUP7 ADD PUSH2 0x4861 JUMP JUMPDEST SWAP2 POP POP SWAP3 POP SWAP3 SWAP1 POP JUMP JUMPDEST PUSH1 0x0 PUSH1 0x40 DUP3 ADD SWAP1 POP PUSH2 0x4E09 PUSH1 0x0 DUP4 ADD DUP6 PUSH2 0x48D5 JUMP JUMPDEST PUSH2 0x4E16 PUSH1 0x20 DUP4 ADD DUP5 PUSH2 0x4B35 JUMP JUMPDEST SWAP4 SWAP3 POP POP POP JUMP JUMPDEST PUSH2 0x4E26 DUP2 PUSH2 0x4A1C JUMP JUMPDEST DUP3 MSTORE POP POP JUMP JUMPDEST PUSH1 0x0 PUSH1 0x20 DUP3 ADD SWAP1 POP PUSH2 0x4E41 PUSH1 0x0 DUP4 ADD DUP5 PUSH2 0x4E1D JUMP JUMPDEST SWAP3 SWAP2 POP POP JUMP JUMPDEST PUSH1 0x0 PUSH2 0xFFFF DUP3 AND SWAP1 POP SWAP2 SWAP1 POP JUMP JUMPDEST PUSH2 0x4E5E DUP2 PUSH2 0x4E47 JUMP JUMPDEST DUP2 EQ PUSH2 0x4E69 JUMPI PUSH1 0x0 DUP1 REVERT JUMPDEST POP JUMP JUMPDEST PUSH1 0x0 DUP2 CALLDATALOAD SWAP1 POP PUSH2 0x4E7B DUP2 PUSH2 0x4E55 JUMP JUMPDEST SWAP3 SWAP2 POP POP JUMP JUMPDEST PUSH1 0x0 PUSH1 0x20 DUP3 DUP5 SUB SLT ISZERO PUSH2 0x4E97 JUMPI PUSH2 0x4E96 PUSH2 0x46C9 JUMP JUMPDEST JUMPDEST PUSH1 0x0 PUSH2 0x4EA5 DUP5 DUP3 DUP6 ADD PUSH2 0x4E6C JUMP JUMPDEST SWAP2 POP POP SWAP3 SWAP2 POP POP JUMP JUMPDEST PUSH1 0x0 PUSH1 0x20 DUP3 ADD SWAP1 POP PUSH2 0x4EC3 PUSH1 0x0 DUP4 ADD DUP5 PUSH2 0x4BC4 JUMP JUMPDEST SWAP3 SWAP2 POP POP JUMP JUMPDEST PUSH1 0x0 DUP2 SWAP1 POP SWAP2 SWAP1 POP JUMP JUMPDEST PUSH1 0x0 PUSH2 0x4EEE PUSH2 0x4EE9 PUSH2 0x4EE4 DUP5 PUSH2 0x48A3 JUMP JUMPDEST PUSH2 0x4EC9 JUMP JUMPDEST PUSH2 0x48A3 JUMP JUMPDEST SWAP1 POP SWAP2 SWAP1 POP JUMP JUMPDEST PUSH1 0x0 PUSH2 0x4F00 DUP3 PUSH2 0x4ED3 JUMP JUMPDEST SWAP1 POP SWAP2 SWAP1 POP JUMP JUMPDEST PUSH1 0x0 PUSH2 0x4F12 DUP3 PUSH2 0x4EF5 JUMP JUMPDEST SWAP1 POP SWAP2 SWAP1 POP JUMP JUMPDEST PUSH2 0x4F22 DUP2 PUSH2 0x4F07 JUMP JUMPDEST DUP3 MSTORE POP POP JUMP JUMPDEST PUSH1 0x0 PUSH1 0x20 DUP3 ADD SWAP1 POP PUSH2 0x4F3D PUSH1 0x0 DUP4 ADD DUP5 PUSH2 0x4F19 JUMP JUMPDEST SWAP3 SWAP2 POP POP JUMP JUMPDEST PUSH1 0x0 PUSH2 0x4F4E DUP3 PUSH2 0x4EF5 JUMP JUMPDEST SWAP1 POP SWAP2 SWAP1 POP JUMP JUMPDEST PUSH2 0x4F5E DUP2 PUSH2 0x4F43 JUMP JUMPDEST DUP3 MSTORE POP POP JUMP JUMPDEST PUSH1 0x0 PUSH1 0x20 DUP3 ADD SWAP1 POP PUSH2 0x4F79 PUSH1 0x0 DUP4 ADD DUP5 PUSH2 0x4F55 JUMP JUMPDEST SWAP3 SWAP2 POP POP JUMP JUMPDEST PUSH1 0x0 DUP1 DUP4 PUSH1 0x1F DUP5 ADD SLT PUSH2 0x4F95 JUMPI PUSH2 0x4F94 PUSH2 0x496B JUMP JUMPDEST JUMPDEST DUP3 CALLDATALOAD SWAP1 POP PUSH8 0xFFFFFFFFFFFFFFFF DUP2 GT ISZERO PUSH2 0x4FB2 JUMPI PUSH2 0x4FB1 PUSH2 0x4CD1 JUMP JUMPDEST JUMPDEST PUSH1 0x20 DUP4 ADD SWAP2 POP DUP4 PUSH1 0x1 DUP3 MUL DUP4 ADD GT ISZERO PUSH2 0x4FCE JUMPI PUSH2 0x4FCD PUSH2 0x4A17 JUMP JUMPDEST JUMPDEST SWAP3 POP SWAP3 SWAP1 POP JUMP JUMPDEST PUSH1 0x0 DUP1 PUSH1 0x20 DUP4 DUP6 SUB SLT ISZERO PUSH2 0x4FEC JUMPI PUSH2 0x4FEB PUSH2 0x46C9 JUMP JUMPDEST JUMPDEST PUSH1 0x0 DUP4 ADD CALLDATALOAD PUSH8 0xFFFFFFFFFFFFFFFF DUP2 GT ISZERO PUSH2 0x500A JUMPI PUSH2 0x5009 PUSH2 0x46CE JUMP JUMPDEST JUMPDEST PUSH2 0x5016 DUP6 DUP3 DUP7 ADD PUSH2 0x4F7F JUMP JUMPDEST SWAP3 POP SWAP3 POP POP SWAP3 POP SWAP3 SWAP1 POP JUMP JUMPDEST PUSH1 0x0 DUP1 REVERT JUMPDEST PUSH1 0x0 PUSH8 0xFFFFFFFFFFFFFFFF DUP3 GT ISZERO PUSH2 0x5042 JUMPI PUSH2 0x5041 PUSH2 0x4970 JUMP JUMPDEST JUMPDEST PUSH2 0x504B DUP3 PUSH2 0x47D4 JUMP JUMPDEST SWAP1 POP PUSH1 0x20 DUP2 ADD SWAP1 POP SWAP2 SWAP1 POP JUMP JUMPDEST DUP3 DUP2 DUP4 CALLDATACOPY PUSH1 0x0 DUP4 DUP4 ADD MSTORE POP POP POP JUMP JUMPDEST PUSH1 0x0 PUSH2 0x507A PUSH2 0x5075 DUP5 PUSH2 0x5027 JUMP JUMPDEST PUSH2 0x49D0 JUMP JUMPDEST SWAP1 POP DUP3 DUP2 MSTORE PUSH1 0x20 DUP2 ADD DUP5 DUP5 DUP5 ADD GT ISZERO PUSH2 0x5096 JUMPI PUSH2 0x5095 PUSH2 0x5022 JUMP JUMPDEST JUMPDEST PUSH2 0x50A1 DUP5 DUP3 DUP6 PUSH2 0x5058 JUMP JUMPDEST POP SWAP4 SWAP3 POP POP POP JUMP JUMPDEST PUSH1 0x0 DUP3 PUSH1 0x1F DUP4 ADD SLT PUSH2 0x50BE JUMPI PUSH2 0x50BD PUSH2 0x496B JUMP JUMPDEST JUMPDEST DUP2 CALLDATALOAD PUSH2 0x50CE DUP5 DUP3 PUSH1 0x20 DUP7 ADD PUSH2 0x5067 JUMP JUMPDEST SWAP2 POP POP SWAP3 SWAP2 POP POP JUMP JUMPDEST PUSH1 0x0 PUSH1 0x20 DUP3 DUP5 SUB SLT ISZERO PUSH2 0x50ED JUMPI PUSH2 0x50EC PUSH2 0x46C9 JUMP JUMPDEST JUMPDEST PUSH1 0x0 DUP3 ADD CALLDATALOAD PUSH8 0xFFFFFFFFFFFFFFFF DUP2 GT ISZERO PUSH2 0x510B JUMPI PUSH2 0x510A PUSH2 0x46CE JUMP JUMPDEST JUMPDEST PUSH2 0x5117 DUP5 DUP3 DUP6 ADD PUSH2 0x50A9 JUMP JUMPDEST SWAP2 POP POP SWAP3 SWAP2 POP POP JUMP JUMPDEST PUSH1 0x0 DUP2 MLOAD SWAP1 POP SWAP2 SWAP1 POP JUMP JUMPDEST PUSH1 0x0 DUP3 DUP3 MSTORE PUSH1 0x20 DUP3 ADD SWAP1 POP SWAP3 SWAP2 POP POP JUMP JUMPDEST PUSH1 0x0 DUP2 SWAP1 POP PUSH1 0x20 DUP3 ADD SWAP1 POP SWAP2 SWAP1 POP JUMP JUMPDEST PUSH2 0x5155 DUP2 PUSH2 0x4A1C JUMP JUMPDEST DUP3 MSTORE POP POP JUMP JUMPDEST PUSH1 0x0 PUSH2 0x5167 DUP4 DUP4 PUSH2 0x514C JUMP JUMPDEST PUSH1 0x20 DUP4 ADD SWAP1 POP SWAP3 SWAP2 POP POP JUMP JUMPDEST PUSH1 0x0 PUSH1 0x20 DUP3 ADD SWAP1 POP SWAP2 SWAP1 POP JUMP JUMPDEST PUSH1 0x0 PUSH2 0x518B DUP3 PUSH2 0x5120 JUMP JUMPDEST PUSH2 0x5195 DUP2 DUP6 PUSH2 0x512B JUMP JUMPDEST SWAP4 POP PUSH2 0x51A0 DUP4 PUSH2 0x513C JUMP JUMPDEST DUP1 PUSH1 0x0 JUMPDEST DUP4 DUP2 LT ISZERO PUSH2 0x51D1 JUMPI DUP2 MLOAD PUSH2 0x51B8 DUP9 DUP3 PUSH2 0x515B JUMP JUMPDEST SWAP8 POP PUSH2 0x51C3 DUP4 PUSH2 0x5173 JUMP JUMPDEST SWAP3 POP POP PUSH1 0x1 DUP2 ADD SWAP1 POP PUSH2 0x51A4 JUMP JUMPDEST POP DUP6 SWAP4 POP POP POP POP SWAP3 SWAP2 POP POP JUMP JUMPDEST PUSH1 0x0 PUSH1 0x20 DUP3 ADD SWAP1 POP DUP2 DUP2 SUB PUSH1 0x0 DUP4 ADD MSTORE PUSH2 0x51F8 DUP2 DUP5 PUSH2 0x5180 JUMP JUMPDEST SWAP1 POP SWAP3 SWAP2 POP POP JUMP JUMPDEST PUSH1 0x0 DUP1 DUP4 PUSH1 0x1F DUP5 ADD SLT PUSH2 0x5216 JUMPI PUSH2 0x5215 PUSH2 0x496B JUMP JUMPDEST JUMPDEST DUP3 CALLDATALOAD SWAP1 POP PUSH8 0xFFFFFFFFFFFFFFFF DUP2 GT ISZERO PUSH2 0x5233 JUMPI PUSH2 0x5232 PUSH2 0x4CD1 JUMP JUMPDEST JUMPDEST PUSH1 0x20 DUP4 ADD SWAP2 POP DUP4 PUSH1 0x20 DUP3 MUL DUP4 ADD GT ISZERO PUSH2 0x524F JUMPI PUSH2 0x524E PUSH2 0x4A17 JUMP JUMPDEST JUMPDEST SWAP3 POP SWAP3 SWAP1 POP JUMP JUMPDEST PUSH1 0x0 DUP1 PUSH1 0x0 PUSH1 0x40 DUP5 DUP7 SUB SLT ISZERO PUSH2 0x526F JUMPI PUSH2 0x526E PUSH2 0x46C9 JUMP JUMPDEST JUMPDEST PUSH1 0x0 DUP5 ADD CALLDATALOAD PUSH8 0xFFFFFFFFFFFFFFFF DUP2 GT ISZERO PUSH2 0x528D JUMPI PUSH2 0x528C PUSH2 0x46CE JUMP JUMPDEST JUMPDEST PUSH2 0x5299 DUP7 DUP3 DUP8 ADD PUSH2 0x5200 JUMP JUMPDEST SWAP4 POP SWAP4 POP POP PUSH1 0x20 PUSH2 0x52AC DUP7 DUP3 DUP8 ADD PUSH2 0x4861 JUMP JUMPDEST SWAP2 POP POP SWAP3 POP SWAP3 POP SWAP3 JUMP JUMPDEST PUSH2 0x52BF DUP2 PUSH2 0x4E47 JUMP JUMPDEST DUP3 MSTORE POP POP JUMP JUMPDEST PUSH1 0x0 PUSH2 0x52D0 DUP3 PUSH2 0x48A3 JUMP JUMPDEST SWAP1 POP SWAP2 SWAP1 POP JUMP JUMPDEST PUSH2 0x52E0 DUP2 PUSH2 0x52C5 JUMP JUMPDEST DUP3 MSTORE POP POP JUMP JUMPDEST PUSH1 0x0 PUSH1 0x60 DUP3 ADD SWAP1 POP PUSH2 0x52FB PUSH1 0x0 DUP4 ADD DUP7 PUSH2 0x4BE7 JUMP JUMPDEST PUSH2 0x5308 PUSH1 0x20 DUP4 ADD DUP6 PUSH2 0x52B6 JUMP JUMPDEST PUSH2 0x5315 PUSH1 0x40 DUP4 ADD DUP5 PUSH2 0x52D7 JUMP JUMPDEST SWAP5 SWAP4 POP POP POP POP JUMP JUMPDEST PUSH2 0x5326 DUP2 PUSH2 0x4758 JUMP JUMPDEST DUP2 EQ PUSH2 0x5331 JUMPI PUSH1 0x0 DUP1 REVERT JUMPDEST POP JUMP JUMPDEST PUSH1 0x0 DUP2 CALLDATALOAD SWAP1 POP PUSH2 0x5343 DUP2 PUSH2 0x531D JUMP JUMPDEST SWAP3 SWAP2 POP POP JUMP JUMPDEST PUSH1 0x0 DUP1 PUSH1 0x40 DUP4 DUP6 SUB SLT ISZERO PUSH2 0x5360 JUMPI PUSH2 0x535F PUSH2 0x46C9 JUMP JUMPDEST JUMPDEST PUSH1 0x0 PUSH2 0x536E DUP6 DUP3 DUP7 ADD PUSH2 0x4916 JUMP JUMPDEST SWAP3 POP POP PUSH1 0x20 PUSH2 0x537F DUP6 DUP3 DUP7 ADD PUSH2 0x5334 JUMP JUMPDEST SWAP2 POP POP SWAP3 POP SWAP3 SWAP1 POP JUMP JUMPDEST PUSH1 0x0 PUSH1 0x20 DUP3 DUP5 SUB SLT ISZERO PUSH2 0x539F JUMPI PUSH2 0x539E PUSH2 0x46C9 JUMP JUMPDEST JUMPDEST PUSH1 0x0 PUSH2 0x53AD DUP5 DUP3 DUP6 ADD PUSH2 0x5334 JUMP JUMPDEST SWAP2 POP POP SWAP3 SWAP2 POP POP JUMP JUMPDEST PUSH1 0x0 PUSH8 0xFFFFFFFFFFFFFFFF DUP3 GT ISZERO PUSH2 0x53D1 JUMPI PUSH2 0x53D0 PUSH2 0x4970 JUMP JUMPDEST JUMPDEST PUSH2 0x53DA DUP3 PUSH2 0x47D4 JUMP JUMPDEST SWAP1 POP PUSH1 0x20 DUP2 ADD SWAP1 POP SWAP2 SWAP1 POP JUMP JUMPDEST PUSH1 0x0 PUSH2 0x53FA PUSH2 0x53F5 DUP5 PUSH2 0x53B6 JUMP JUMPDEST PUSH2 0x49D0 JUMP JUMPDEST SWAP1 POP DUP3 DUP2 MSTORE PUSH1 0x20 DUP2 ADD DUP5 DUP5 DUP5 ADD GT ISZERO PUSH2 0x5416 JUMPI PUSH2 0x5415 PUSH2 0x5022 JUMP JUMPDEST JUMPDEST PUSH2 0x5421 DUP5 DUP3 DUP6 PUSH2 0x5058 JUMP JUMPDEST POP SWAP4 SWAP3 POP POP POP JUMP JUMPDEST PUSH1 0x0 DUP3 PUSH1 0x1F DUP4 ADD SLT PUSH2 0x543E JUMPI PUSH2 0x543D PUSH2 0x496B JUMP JUMPDEST JUMPDEST DUP2 CALLDATALOAD PUSH2 0x544E DUP5 DUP3 PUSH1 0x20 DUP7 ADD PUSH2 0x53E7 JUMP JUMPDEST SWAP2 POP POP SWAP3 SWAP2 POP POP JUMP JUMPDEST PUSH1 0x0 DUP1 PUSH1 0x0 DUP1 PUSH1 0x80 DUP6 DUP8 SUB SLT ISZERO PUSH2 0x5471 JUMPI PUSH2 0x5470 PUSH2 0x46C9 JUMP JUMPDEST JUMPDEST PUSH1 0x0 PUSH2 0x547F DUP8 DUP3 DUP9 ADD PUSH2 0x4916 JUMP JUMPDEST SWAP5 POP POP PUSH1 0x20 PUSH2 0x5490 DUP8 DUP3 DUP9 ADD PUSH2 0x4916 JUMP JUMPDEST SWAP4 POP POP PUSH1 0x40 PUSH2 0x54A1 DUP8 DUP3 DUP9 ADD PUSH2 0x4861 JUMP JUMPDEST SWAP3 POP POP PUSH1 0x60 DUP6 ADD CALLDATALOAD PUSH8 0xFFFFFFFFFFFFFFFF DUP2 GT ISZERO PUSH2 0x54C2 JUMPI PUSH2 0x54C1 PUSH2 0x46CE JUMP JUMPDEST JUMPDEST PUSH2 0x54CE DUP8 DUP3 DUP9 ADD PUSH2 0x5429 JUMP JUMPDEST SWAP2 POP POP SWAP3 SWAP6 SWAP2 SWAP5 POP SWAP3 POP JUMP JUMPDEST PUSH1 0x0 PUSH1 0x20 DUP3 ADD SWAP1 POP PUSH2 0x54EF PUSH1 0x0 DUP4 ADD DUP5 PUSH2 0x52B6 JUMP JUMPDEST SWAP3 SWAP2 POP POP JUMP JUMPDEST PUSH1 0x0 PUSH8 0xFFFFFFFFFFFFFFFF DUP3 GT ISZERO PUSH2 0x5510 JUMPI PUSH2 0x550F PUSH2 0x4970 JUMP JUMPDEST JUMPDEST PUSH1 0x20 DUP3 MUL SWAP1 POP PUSH1 0x20 DUP2 ADD SWAP1 POP SWAP2 SWAP1 POP JUMP JUMPDEST PUSH1 0x0 DUP1 REVERT JUMPDEST PUSH1 0x0 DUP1 REVERT JUMPDEST PUSH1 0x0 PUSH8 0xFFFFFFFFFFFFFFFF DUP3 GT ISZERO PUSH2 0x5546 JUMPI PUSH2 0x5545 PUSH2 0x4970 JUMP JUMPDEST JUMPDEST PUSH1 0x20 DUP3 MUL SWAP1 POP PUSH1 0x20 DUP2 ADD SWAP1 POP SWAP2 SWAP1 POP JUMP JUMPDEST PUSH1 0x0 PUSH2 0x556A PUSH2 0x5565 DUP5 PUSH2 0x552B JUMP JUMPDEST PUSH2 0x49D0 JUMP JUMPDEST SWAP1 POP DUP1 DUP4 DUP3 MSTORE PUSH1 0x20 DUP3 ADD SWAP1 POP PUSH1 0x20 DUP5 MUL DUP4 ADD DUP6 DUP2 GT ISZERO PUSH2 0x558D JUMPI PUSH2 0x558C PUSH2 0x4A17 JUMP JUMPDEST JUMPDEST DUP4 JUMPDEST DUP2 DUP2 LT ISZERO PUSH2 0x55B6 JUMPI DUP1 PUSH2 0x55A2 DUP9 DUP3 PUSH2 0x4861 JUMP JUMPDEST DUP5 MSTORE PUSH1 0x20 DUP5 ADD SWAP4 POP POP PUSH1 0x20 DUP2 ADD SWAP1 POP PUSH2 0x558F JUMP JUMPDEST POP POP POP SWAP4 SWAP3 POP POP POP JUMP JUMPDEST PUSH1 0x0 DUP3 PUSH1 0x1F DUP4 ADD SLT PUSH2 0x55D5 JUMPI PUSH2 0x55D4 PUSH2 0x496B JUMP JUMPDEST JUMPDEST DUP2 CALLDATALOAD PUSH2 0x55E5 DUP5 DUP3 PUSH1 0x20 DUP7 ADD PUSH2 0x5557 JUMP JUMPDEST SWAP2 POP POP SWAP3 SWAP2 POP POP JUMP JUMPDEST PUSH1 0x0 PUSH1 0x40 DUP3 DUP5 SUB SLT ISZERO PUSH2 0x5604 JUMPI PUSH2 0x5603 PUSH2 0x5521 JUMP JUMPDEST JUMPDEST PUSH2 0x560E PUSH1 0x40 PUSH2 0x49D0 JUMP JUMPDEST SWAP1 POP PUSH1 0x0 PUSH2 0x561E DUP5 DUP3 DUP6 ADD PUSH2 0x4916 JUMP JUMPDEST PUSH1 0x0 DUP4 ADD MSTORE POP PUSH1 0x20 DUP3 ADD CALLDATALOAD PUSH8 0xFFFFFFFFFFFFFFFF DUP2 GT ISZERO PUSH2 0x5642 JUMPI PUSH2 0x5641 PUSH2 0x5526 JUMP JUMPDEST JUMPDEST PUSH2 0x564E DUP5 DUP3 DUP6 ADD PUSH2 0x55C0 JUMP JUMPDEST PUSH1 0x20 DUP4 ADD MSTORE POP SWAP3 SWAP2 POP POP JUMP JUMPDEST PUSH1 0x0 PUSH2 0x566D PUSH2 0x5668 DUP5 PUSH2 0x54F5 JUMP JUMPDEST PUSH2 0x49D0 JUMP JUMPDEST SWAP1 POP DUP1 DUP4 DUP3 MSTORE PUSH1 0x20 DUP3 ADD SWAP1 POP PUSH1 0x20 DUP5 MUL DUP4 ADD DUP6 DUP2 GT ISZERO PUSH2 0x5690 JUMPI PUSH2 0x568F PUSH2 0x4A17 JUMP JUMPDEST JUMPDEST DUP4 JUMPDEST DUP2 DUP2 LT ISZERO PUSH2 0x56D7 JUMPI DUP1 CALLDATALOAD PUSH8 0xFFFFFFFFFFFFFFFF DUP2 GT ISZERO PUSH2 0x56B5 JUMPI PUSH2 0x56B4 PUSH2 0x496B JUMP JUMPDEST JUMPDEST DUP1 DUP7 ADD PUSH2 0x56C2 DUP10 DUP3 PUSH2 0x55EE JUMP JUMPDEST DUP6 MSTORE PUSH1 0x20 DUP6 ADD SWAP5 POP POP POP PUSH1 0x20 DUP2 ADD SWAP1 POP PUSH2 0x5692 JUMP JUMPDEST POP POP POP SWAP4 SWAP3 POP POP POP JUMP JUMPDEST PUSH1 0x0 DUP3 PUSH1 0x1F DUP4 ADD SLT PUSH2 0x56F6 JUMPI PUSH2 0x56F5 PUSH2 0x496B JUMP JUMPDEST JUMPDEST DUP2 CALLDATALOAD PUSH2 0x5706 DUP5 DUP3 PUSH1 0x20 DUP7 ADD PUSH2 0x565A JUMP JUMPDEST SWAP2 POP POP SWAP3 SWAP2 POP POP JUMP JUMPDEST PUSH1 0x0 PUSH1 0x20 DUP3 DUP5 SUB SLT ISZERO PUSH2 0x5725 JUMPI PUSH2 0x5724 PUSH2 0x46C9 JUMP JUMPDEST JUMPDEST PUSH1 0x0 DUP3 ADD CALLDATALOAD PUSH8 0xFFFFFFFFFFFFFFFF DUP2 GT ISZERO PUSH2 0x5743 JUMPI PUSH2 0x5742 PUSH2 0x46CE JUMP JUMPDEST JUMPDEST PUSH2 0x574F DUP5 DUP3 DUP6 ADD PUSH2 0x56E1 JUMP JUMPDEST SWAP2 POP POP SWAP3 SWAP2 POP POP JUMP JUMPDEST PUSH1 0x0 PUSH1 0x20 DUP3 ADD SWAP1 POP PUSH2 0x576D PUSH1 0x0 DUP4 ADD DUP5 PUSH2 0x4BE7 JUMP JUMPDEST SWAP3 SWAP2 POP POP JUMP JUMPDEST PUSH2 0x577C DUP2 PUSH2 0x4B8C JUMP JUMPDEST DUP2 EQ PUSH2 0x5787 JUMPI PUSH1 0x0 DUP1 REVERT JUMPDEST POP JUMP JUMPDEST PUSH1 0x0 DUP2 CALLDATALOAD SWAP1 POP PUSH2 0x5799 DUP2 PUSH2 0x5773 JUMP JUMPDEST SWAP3 SWAP2 POP POP JUMP JUMPDEST PUSH2 0x57A8 DUP2 PUSH2 0x4BB4 JUMP JUMPDEST DUP2 EQ PUSH2 0x57B3 JUMPI PUSH1 0x0 DUP1 REVERT JUMPDEST POP JUMP JUMPDEST PUSH1 0x0 DUP2 CALLDATALOAD SWAP1 POP PUSH2 0x57C5 DUP2 PUSH2 0x579F JUMP JUMPDEST SWAP3 SWAP2 POP POP JUMP JUMPDEST PUSH2 0x57D4 DUP2 PUSH2 0x4BD3 JUMP JUMPDEST DUP2 EQ PUSH2 0x57DF JUMPI PUSH1 0x0 DUP1 REVERT JUMPDEST POP JUMP JUMPDEST PUSH1 0x0 DUP2 CALLDATALOAD SWAP1 POP PUSH2 0x57F1 DUP2 PUSH2 0x57CB JUMP JUMPDEST SWAP3 SWAP2 POP POP JUMP JUMPDEST PUSH2 0x5800 DUP2 PUSH2 0x4BF6 JUMP JUMPDEST DUP2 EQ PUSH2 0x580B JUMPI PUSH1 0x0 DUP1 REVERT JUMPDEST POP JUMP JUMPDEST PUSH1 0x0 DUP2 CALLDATALOAD SWAP1 POP PUSH2 0x581D DUP2 PUSH2 0x57F7 JUMP JUMPDEST SWAP3 SWAP2 POP POP JUMP JUMPDEST PUSH1 0x0 PUSH1 0xE0 DUP3 DUP5 SUB SLT ISZERO PUSH2 0x5839 JUMPI PUSH2 0x5838 PUSH2 0x5521 JUMP JUMPDEST JUMPDEST PUSH2 0x5843 PUSH1 0xE0 PUSH2 0x49D0 JUMP JUMPDEST SWAP1 POP PUSH1 0x0 PUSH2 0x5853 DUP5 DUP3 DUP6 ADD PUSH2 0x578A JUMP JUMPDEST PUSH1 0x0 DUP4 ADD MSTORE POP PUSH1 0x20 PUSH2 0x5867 DUP5 DUP3 DUP6 ADD PUSH2 0x57B6 JUMP JUMPDEST PUSH1 0x20 DUP4 ADD MSTORE POP PUSH1 0x40 PUSH2 0x587B DUP5 DUP3 DUP6 ADD PUSH2 0x57E2 JUMP JUMPDEST PUSH1 0x40 DUP4 ADD MSTORE POP PUSH1 0x60 PUSH2 0x588F DUP5 DUP3 DUP6 ADD PUSH2 0x57E2 JUMP JUMPDEST PUSH1 0x60 DUP4 ADD MSTORE POP PUSH1 0x80 PUSH2 0x58A3 DUP5 DUP3 DUP6 ADD PUSH2 0x57E2 JUMP JUMPDEST PUSH1 0x80 DUP4 ADD MSTORE POP PUSH1 0xA0 PUSH2 0x58B7 DUP5 DUP3 DUP6 ADD PUSH2 0x57E2 JUMP JUMPDEST PUSH1 0xA0 DUP4 ADD MSTORE POP PUSH1 0xC0 PUSH2 0x58CB DUP5 DUP3 DUP6 ADD PUSH2 0x580E JUMP JUMPDEST PUSH1 0xC0 DUP4 ADD MSTORE POP SWAP3 SWAP2 POP POP JUMP JUMPDEST PUSH1 0x0 PUSH2 0x58E2 DUP3 PUSH2 0x48C3 JUMP JUMPDEST SWAP1 POP SWAP2 SWAP1 POP JUMP JUMPDEST PUSH2 0x58F2 DUP2 PUSH2 0x58D7 JUMP JUMPDEST DUP2 EQ PUSH2 0x58FD JUMPI PUSH1 0x0 DUP1 REVERT JUMPDEST POP JUMP JUMPDEST PUSH1 0x0 DUP2 CALLDATALOAD SWAP1 POP PUSH2 0x590F DUP2 PUSH2 0x58E9 JUMP JUMPDEST SWAP3 SWAP2 POP POP JUMP JUMPDEST PUSH1 0x0 DUP1 PUSH1 0x0 DUP1 PUSH1 0x0 DUP1 PUSH1 0x0 DUP1 PUSH1 0x0 DUP1 PUSH2 0x200 DUP12 DUP14 SUB SLT ISZERO PUSH2 0x5939 JUMPI PUSH2 0x5938 PUSH2 0x46C9 JUMP JUMPDEST JUMPDEST PUSH1 0x0 DUP12 ADD CALLDATALOAD PUSH8 0xFFFFFFFFFFFFFFFF DUP2 GT ISZERO PUSH2 0x5957 JUMPI PUSH2 0x5956 PUSH2 0x46CE JUMP JUMPDEST JUMPDEST PUSH2 0x5963 DUP14 DUP3 DUP15 ADD PUSH2 0x50A9 JUMP JUMPDEST SWAP11 POP POP PUSH1 0x20 DUP12 ADD CALLDATALOAD PUSH8 0xFFFFFFFFFFFFFFFF DUP2 GT ISZERO PUSH2 0x5984 JUMPI PUSH2 0x5983 PUSH2 0x46CE JUMP JUMPDEST JUMPDEST PUSH2 0x5990 DUP14 DUP3 DUP15 ADD PUSH2 0x50A9 JUMP JUMPDEST SWAP10 POP POP PUSH1 0x40 DUP12 ADD CALLDATALOAD PUSH8 0xFFFFFFFFFFFFFFFF DUP2 GT ISZERO PUSH2 0x59B1 JUMPI PUSH2 0x59B0 PUSH2 0x46CE JUMP JUMPDEST JUMPDEST PUSH2 0x59BD DUP14 DUP3 DUP15 ADD PUSH2 0x50A9 JUMP JUMPDEST SWAP9 POP POP PUSH1 0x60 DUP12 ADD CALLDATALOAD PUSH8 0xFFFFFFFFFFFFFFFF DUP2 GT ISZERO PUSH2 0x59DE JUMPI PUSH2 0x59DD PUSH2 0x46CE JUMP JUMPDEST JUMPDEST PUSH2 0x59EA DUP14 DUP3 DUP15 ADD PUSH2 0x50A9 JUMP JUMPDEST SWAP8 POP POP PUSH1 0x80 PUSH2 0x59FB DUP14 DUP3 DUP15 ADD PUSH2 0x4916 JUMP JUMPDEST SWAP7 POP POP PUSH1 0xA0 PUSH2 0x5A0C DUP14 DUP3 DUP15 ADD PUSH2 0x4E6C JUMP JUMPDEST SWAP6 POP POP PUSH1 0xC0 PUSH2 0x5A1D DUP14 DUP3 DUP15 ADD PUSH2 0x5823 JUMP JUMPDEST SWAP5 POP POP PUSH2 0x1A0 PUSH2 0x5A2F DUP14 DUP3 DUP15 ADD PUSH2 0x57B6 JUMP JUMPDEST SWAP4 POP POP PUSH2 0x1C0 PUSH2 0x5A41 DUP14 DUP3 DUP15 ADD PUSH2 0x4A40 JUMP JUMPDEST SWAP3 POP POP PUSH2 0x1E0 PUSH2 0x5A53 DUP14 DUP3 DUP15 ADD PUSH2 0x5900 JUMP JUMPDEST SWAP2 POP POP SWAP3 SWAP6 SWAP9 SWAP12 SWAP2 SWAP5 SWAP8 SWAP11 POP SWAP3 SWAP6 SWAP9 POP JUMP JUMPDEST PUSH1 0x0 DUP1 PUSH1 0x40 DUP4 DUP6 SUB SLT ISZERO PUSH2 0x5A7C JUMPI PUSH2 0x5A7B PUSH2 0x46C9 JUMP JUMPDEST JUMPDEST PUSH1 0x0 PUSH2 0x5A8A DUP6 DUP3 DUP7 ADD PUSH2 0x4916 JUMP JUMPDEST SWAP3 POP POP PUSH1 0x20 PUSH2 0x5A9B DUP6 DUP3 DUP7 ADD PUSH2 0x4916 JUMP JUMPDEST SWAP2 POP POP SWAP3 POP SWAP3 SWAP1 POP JUMP JUMPDEST PUSH1 0x0 DUP1 PUSH1 0x0 DUP1 PUSH1 0x0 DUP1 PUSH1 0x0 PUSH1 0xE0 DUP9 DUP11 SUB SLT ISZERO PUSH2 0x5AC4 JUMPI PUSH2 0x5AC3 PUSH2 0x46C9 JUMP JUMPDEST JUMPDEST PUSH1 0x0 PUSH2 0x5AD2 DUP11 DUP3 DUP12 ADD PUSH2 0x578A JUMP JUMPDEST SWAP8 POP POP PUSH1 0x20 PUSH2 0x5AE3 DUP11 DUP3 DUP12 ADD PUSH2 0x57B6 JUMP JUMPDEST SWAP7 POP POP PUSH1 0x40 PUSH2 0x5AF4 DUP11 DUP3 DUP12 ADD PUSH2 0x57E2 JUMP JUMPDEST SWAP6 POP POP PUSH1 0x60 PUSH2 0x5B05 DUP11 DUP3 DUP12 ADD PUSH2 0x57E2 JUMP JUMPDEST SWAP5 POP POP PUSH1 0x80 PUSH2 0x5B16 DUP11 DUP3 DUP12 ADD PUSH2 0x57E2 JUMP JUMPDEST SWAP4 POP POP PUSH1 0xA0 PUSH2 0x5B27 DUP11 DUP3 DUP12 ADD PUSH2 0x57E2 JUMP JUMPDEST SWAP3 POP POP PUSH1 0xC0 PUSH2 0x5B38 DUP11 DUP3 DUP12 ADD PUSH2 0x580E JUMP JUMPDEST SWAP2 POP POP SWAP3 SWAP6 SWAP9 SWAP2 SWAP5 SWAP8 POP SWAP3 SWAP6 POP JUMP JUMPDEST PUSH32 0x4E487B7100000000000000000000000000000000000000000000000000000000 PUSH1 0x0 MSTORE PUSH1 0x22 PUSH1 0x4 MSTORE PUSH1 0x24 PUSH1 0x0 REVERT JUMPDEST PUSH1 0x0 PUSH1 0x2 DUP3 DIV SWAP1 POP PUSH1 0x1 DUP3 AND DUP1 PUSH2 0x5B8E JUMPI PUSH1 0x7F DUP3 AND SWAP2 POP JUMPDEST PUSH1 0x20 DUP3 LT DUP2 SUB PUSH2 0x5BA1 JUMPI PUSH2 0x5BA0 PUSH2 0x5B47 JUMP JUMPDEST JUMPDEST POP SWAP2 SWAP1 POP JUMP JUMPDEST PUSH32 0x4E487B7100000000000000000000000000000000000000000000000000000000 PUSH1 0x0 MSTORE PUSH1 0x11 PUSH1 0x4 MSTORE PUSH1 0x24 PUSH1 0x0 REVERT JUMPDEST PUSH1 0x0 PUSH2 0x5BE1 DUP3 PUSH2 0x4840 JUMP JUMPDEST SWAP2 POP PUSH2 0x5BEC DUP4 PUSH2 0x4840 JUMP JUMPDEST SWAP3 POP DUP3 DUP3 MUL PUSH2 0x5BFA DUP2 PUSH2 0x4840 JUMP JUMPDEST SWAP2 POP DUP3 DUP3 DIV DUP5 EQ DUP4 ISZERO OR PUSH2 0x5C11 JUMPI PUSH2 0x5C10 PUSH2 0x5BA7 JUMP JUMPDEST JUMPDEST POP SWAP3 SWAP2 POP POP JUMP JUMPDEST PUSH1 0x0 PUSH2 0x5C23 DUP3 PUSH2 0x4840 JUMP JUMPDEST SWAP2 POP PUSH2 0x5C2E DUP4 PUSH2 0x4840 JUMP JUMPDEST SWAP3 POP DUP3 DUP3 ADD SWAP1 POP DUP1 DUP3 GT ISZERO PUSH2 0x5C46 JUMPI PUSH2 0x5C45 PUSH2 0x5BA7 JUMP JUMPDEST JUMPDEST SWAP3 SWAP2 POP POP JUMP JUMPDEST PUSH1 0x0 PUSH2 0x5C57 DUP3 PUSH2 0x4840 JUMP JUMPDEST SWAP2 POP PUSH2 0x5C62 DUP4 PUSH2 0x4840 JUMP JUMPDEST SWAP3 POP DUP3 DUP3 SUB SWAP1 POP DUP2 DUP2 GT ISZERO PUSH2 0x5C7A JUMPI PUSH2 0x5C79 PUSH2 0x5BA7 JUMP JUMPDEST JUMPDEST SWAP3 SWAP2 POP POP JUMP JUMPDEST PUSH1 0x0 PUSH1 0x60 DUP3 ADD SWAP1 POP PUSH2 0x5C95 PUSH1 0x0 DUP4 ADD DUP7 PUSH2 0x48D5 JUMP JUMPDEST PUSH2 0x5CA2 PUSH1 0x20 DUP4 ADD DUP6 PUSH2 0x4B35 JUMP JUMPDEST PUSH2 0x5CAF PUSH1 0x40 DUP4 ADD DUP5 PUSH2 0x4B35 JUMP JUMPDEST SWAP5 SWAP4 POP POP POP POP JUMP JUMPDEST PUSH32 0x5265656E7472616E637947756172643A207265656E7472616E742063616C6C00 PUSH1 0x0 DUP3 ADD MSTORE POP JUMP JUMPDEST PUSH1 0x0 PUSH2 0x5CED PUSH1 0x1F DUP4 PUSH2 0x4799 JUMP JUMPDEST SWAP2 POP PUSH2 0x5CF8 DUP3 PUSH2 0x5CB7 JUMP JUMPDEST PUSH1 0x20 DUP3 ADD SWAP1 POP SWAP2 SWAP1 POP JUMP JUMPDEST PUSH1 0x0 PUSH1 0x20 DUP3 ADD SWAP1 POP DUP2 DUP2 SUB PUSH1 0x0 DUP4 ADD MSTORE PUSH2 0x5D1C DUP2 PUSH2 0x5CE0 JUMP JUMPDEST SWAP1 POP SWAP2 SWAP1 POP JUMP JUMPDEST PUSH32 0x4E487B7100000000000000000000000000000000000000000000000000000000 PUSH1 0x0 MSTORE PUSH1 0x12 PUSH1 0x4 MSTORE PUSH1 0x24 PUSH1 0x0 REVERT JUMPDEST PUSH1 0x0 PUSH2 0x5D5D DUP3 PUSH2 0x4840 JUMP JUMPDEST SWAP2 POP PUSH2 0x5D68 DUP4 PUSH2 0x4840 JUMP JUMPDEST SWAP3 POP DUP3 PUSH2 0x5D78 JUMPI PUSH2 0x5D77 PUSH2 0x5D23 JUMP JUMPDEST JUMPDEST DUP3 DUP3 DIV SWAP1 POP SWAP3 SWAP2 POP POP JUMP JUMPDEST PUSH1 0x0 DUP3 SWAP1 POP SWAP3 SWAP2 POP POP JUMP JUMPDEST PUSH1 0x0 DUP2 SWAP1 POP DUP2 PUSH1 0x0 MSTORE PUSH1 0x20 PUSH1 0x0 KECCAK256 SWAP1 POP SWAP2 SWAP1 POP JUMP JUMPDEST PUSH1 0x0 PUSH1 0x20 PUSH1 0x1F DUP4 ADD DIV SWAP1 POP SWAP2 SWAP1 POP JUMP JUMPDEST PUSH1 0x0 DUP3 DUP3 SHL SWAP1 POP SWAP3 SWAP2 POP POP JUMP JUMPDEST PUSH1 0x0 PUSH1 0x8 DUP4 MUL PUSH2 0x5DF0 PUSH32 0xFFFFFFFFFFFFFFFFFFFFFFFFFFFFFFFFFFFFFFFFFFFFFFFFFFFFFFFFFFFFFFFF DUP3 PUSH2 0x5DB3 JUMP JUMPDEST PUSH2 0x5DFA DUP7 DUP4 PUSH2 0x5DB3 JUMP JUMPDEST SWAP6 POP DUP1 NOT DUP5 AND SWAP4 POP DUP1 DUP7 AND DUP5 OR SWAP3 POP POP POP SWAP4 SWAP3 POP POP POP JUMP JUMPDEST PUSH1 0x0 PUSH2 0x5E2D PUSH2 0x5E28 PUSH2 0x5E23 DUP5 PUSH2 0x4840 JUMP JUMPDEST PUSH2 0x4EC9 JUMP JUMPDEST PUSH2 0x4840 JUMP JUMPDEST SWAP1 POP SWAP2 SWAP1 POP JUMP JUMPDEST PUSH1 0x0 DUP2 SWAP1 POP SWAP2 SWAP1 POP JUMP JUMPDEST PUSH2 0x5E47 DUP4 PUSH2 0x5E12 JUMP JUMPDEST PUSH2 0x5E5B PUSH2 0x5E53 DUP3 PUSH2 0x5E34 JUMP JUMPDEST DUP5 DUP5 SLOAD PUSH2 0x5DC0 JUMP JUMPDEST DUP3 SSTORE POP POP POP POP JUMP JUMPDEST PUSH1 0x0 SWAP1 JUMP JUMPDEST PUSH2 0x5E70 PUSH2 0x5E63 JUMP JUMPDEST PUSH2 0x5E7B DUP2 DUP5 DUP5 PUSH2 0x5E3E JUMP JUMPDEST POP POP POP JUMP JUMPDEST JUMPDEST DUP2 DUP2 LT ISZERO PUSH2 0x5E9F JUMPI PUSH2 0x5E94 PUSH1 0x0 DUP3 PUSH2 0x5E68 JUMP JUMPDEST PUSH1 0x1 DUP2 ADD SWAP1 POP PUSH2 0x5E81 JUMP JUMPDEST POP POP JUMP JUMPDEST PUSH1 0x1F DUP3 GT ISZERO PUSH2 0x5EE4 JUMPI PUSH2 0x5EB5 DUP2 PUSH2 0x5D8E JUMP JUMPDEST PUSH2 0x5EBE DUP5 PUSH2 0x5DA3 JUMP JUMPDEST DUP2 ADD PUSH1 0x20 DUP6 LT ISZERO PUSH2 0x5ECD JUMPI DUP2 SWAP1 POP JUMPDEST PUSH2 0x5EE1 PUSH2 0x5ED9 DUP6 PUSH2 0x5DA3 JUMP JUMPDEST DUP4 ADD DUP3 PUSH2 0x5E80 JUMP JUMPDEST POP POP JUMPDEST POP POP POP JUMP JUMPDEST PUSH1 0x0 DUP3 DUP3 SHR SWAP1 POP SWAP3 SWAP2 POP POP JUMP JUMPDEST PUSH1 0x0 PUSH2 0x5F07 PUSH1 0x0 NOT DUP5 PUSH1 0x8 MUL PUSH2 0x5EE9 JUMP JUMPDEST NOT DUP1 DUP4 AND SWAP2 POP POP SWAP3 SWAP2 POP POP JUMP JUMPDEST PUSH1 0x0 PUSH2 0x5F20 DUP4 DUP4 PUSH2 0x5EF6 JUMP JUMPDEST SWAP2 POP DUP3 PUSH1 0x2 MUL DUP3 OR SWAP1 POP SWAP3 SWAP2 POP POP JUMP JUMPDEST PUSH2 0x5F3A DUP4 DUP4 PUSH2 0x5D83 JUMP JUMPDEST PUSH8 0xFFFFFFFFFFFFFFFF DUP2 GT ISZERO PUSH2 0x5F53 JUMPI PUSH2 0x5F52 PUSH2 0x4970 JUMP JUMPDEST JUMPDEST PUSH2 0x5F5D DUP3 SLOAD PUSH2 0x5B76 JUMP JUMPDEST PUSH2 0x5F68 DUP3 DUP3 DUP6 PUSH2 0x5EA3 JUMP JUMPDEST PUSH1 0x0 PUSH1 0x1F DUP4 GT PUSH1 0x1 DUP2 EQ PUSH2 0x5F97 JUMPI PUSH1 0x0 DUP5 ISZERO PUSH2 0x5F85 JUMPI DUP3 DUP8 ADD CALLDATALOAD SWAP1 POP JUMPDEST PUSH2 0x5F8F DUP6 DUP3 PUSH2 0x5F14 JUMP JUMPDEST DUP7 SSTORE POP PUSH2 0x5FF7 JUMP JUMPDEST PUSH1 0x1F NOT DUP5 AND PUSH2 0x5FA5 DUP7 PUSH2 0x5D8E JUMP JUMPDEST PUSH1 0x0 JUMPDEST DUP3 DUP2 LT ISZERO PUSH2 0x5FCD JUMPI DUP5 DUP10 ADD CALLDATALOAD DUP3 SSTORE PUSH1 0x1 DUP3 ADD SWAP2 POP PUSH1 0x20 DUP6 ADD SWAP5 POP PUSH1 0x20 DUP2 ADD SWAP1 POP PUSH2 0x5FA8 JUMP JUMPDEST DUP7 DUP4 LT ISZERO PUSH2 0x5FEA JUMPI DUP5 DUP10 ADD CALLDATALOAD PUSH2 0x5FE6 PUSH1 0x1F DUP10 AND DUP3 PUSH2 0x5EF6 JUMP JUMPDEST DUP4 SSTORE POP JUMPDEST PUSH1 0x1 PUSH1 0x2 DUP9 MUL ADD DUP9 SSTORE POP POP POP JUMPDEST POP POP POP POP POP POP POP JUMP JUMPDEST PUSH1 0x0 PUSH2 0x600C DUP4 DUP6 PUSH2 0x4799 JUMP JUMPDEST SWAP4 POP PUSH2 0x6019 DUP4 DUP6 DUP5 PUSH2 0x5058 JUMP JUMPDEST PUSH2 0x6022 DUP4 PUSH2 0x47D4 JUMP JUMPDEST DUP5 ADD SWAP1 POP SWAP4 SWAP3 POP POP POP JUMP JUMPDEST PUSH1 0x0 PUSH1 0x40 DUP3 ADD SWAP1 POP DUP2 DUP2 SUB PUSH1 0x0 DUP4 ADD MSTORE PUSH2 0x6048 DUP2 DUP6 DUP8 PUSH2 0x6000 JUMP JUMPDEST SWAP1 POP PUSH2 0x6057 PUSH1 0x20 DUP4 ADD DUP5 PUSH2 0x4764 JUMP JUMPDEST SWAP5 SWAP4 POP POP POP POP JUMP JUMPDEST PUSH2 0x6068 DUP3 PUSH2 0x478E JUMP JUMPDEST PUSH8 0xFFFFFFFFFFFFFFFF DUP2 GT ISZERO PUSH2 0x6081 JUMPI PUSH2 0x6080 PUSH2 0x4970 JUMP JUMPDEST JUMPDEST PUSH2 0x608B DUP3 SLOAD PUSH2 0x5B76 JUMP JUMPDEST PUSH2 0x6096 DUP3 DUP3 DUP6 PUSH2 0x5EA3 JUMP JUMPDEST PUSH1 0x0 PUSH1 0x20 SWAP1 POP PUSH1 0x1F DUP4 GT PUSH1 0x1 DUP2 EQ PUSH2 0x60C9 JUMPI PUSH1 0x0 DUP5 ISZERO PUSH2 0x60B7 JUMPI DUP3 DUP8 ADD MLOAD SWAP1 POP JUMPDEST PUSH2 0x60C1 DUP6 DUP3 PUSH2 0x5F14 JUMP JUMPDEST DUP7 SSTORE POP PUSH2 0x6129 JUMP JUMPDEST PUSH1 0x1F NOT DUP5 AND PUSH2 0x60D7 DUP7 PUSH2 0x5D8E JUMP JUMPDEST PUSH1 0x0 JUMPDEST DUP3 DUP2 LT ISZERO PUSH2 0x60FF JUMPI DUP5 DUP10 ADD MLOAD DUP3 SSTORE PUSH1 0x1 DUP3 ADD SWAP2 POP PUSH1 0x20 DUP6 ADD SWAP5 POP PUSH1 0x20 DUP2 ADD SWAP1 POP PUSH2 0x60DA JUMP JUMPDEST DUP7 DUP4 LT ISZERO PUSH2 0x611C JUMPI DUP5 DUP10 ADD MLOAD PUSH2 0x6118 PUSH1 0x1F DUP10 AND DUP3 PUSH2 0x5EF6 JUMP JUMPDEST DUP4 SSTORE POP JUMPDEST PUSH1 0x1 PUSH1 0x2 DUP9 MUL ADD DUP9 SSTORE POP POP POP JUMPDEST POP POP POP POP POP POP JUMP JUMPDEST PUSH1 0x0 DUP2 SWAP1 POP SWAP3 SWAP2 POP POP JUMP JUMPDEST PUSH1 0x0 PUSH2 0x6147 DUP3 PUSH2 0x478E JUMP JUMPDEST PUSH2 0x6151 DUP2 DUP6 PUSH2 0x6131 JUMP JUMPDEST SWAP4 POP PUSH2 0x6161 DUP2 DUP6 PUSH1 0x20 DUP7 ADD PUSH2 0x47AA JUMP JUMPDEST DUP1 DUP5 ADD SWAP2 POP POP SWAP3 SWAP2 POP POP JUMP JUMPDEST PUSH1 0x0 PUSH2 0x6179 DUP3 DUP5 PUSH2 0x613C JUMP JUMPDEST SWAP2 POP DUP2 SWAP1 POP SWAP3 SWAP2 POP POP JUMP JUMPDEST PUSH1 0x0 PUSH1 0x40 DUP3 ADD SWAP1 POP DUP2 DUP2 SUB PUSH1 0x0 DUP4 ADD MSTORE PUSH2 0x619E DUP2 DUP6 PUSH2 0x47E5 JUMP JUMPDEST SWAP1 POP PUSH2 0x61AD PUSH1 0x20 DUP4 ADD DUP5 PUSH2 0x4764 JUMP JUMPDEST SWAP4 SWAP3 POP POP POP JUMP JUMPDEST PUSH32 0x4E487B7100000000000000000000000000000000000000000000000000000000 PUSH1 0x0 MSTORE PUSH1 0x32 PUSH1 0x4 MSTORE PUSH1 0x24 PUSH1 0x0 REVERT JUMPDEST PUSH1 0x0 DUP3 DUP3 MSTORE PUSH1 0x20 DUP3 ADD SWAP1 POP SWAP3 SWAP2 POP POP JUMP JUMPDEST PUSH1 0x0 DUP2 SWAP1 POP SWAP2 SWAP1 POP JUMP JUMPDEST PUSH2 0x6207 DUP2 PUSH2 0x48C3 JUMP JUMPDEST DUP3 MSTORE POP POP JUMP JUMPDEST PUSH1 0x0 PUSH2 0x6219 DUP4 DUP4 PUSH2 0x61FE JUMP JUMPDEST PUSH1 0x20 DUP4 ADD SWAP1 POP SWAP3 SWAP2 POP POP JUMP JUMPDEST PUSH1 0x0 PUSH2 0x6234 PUSH1 0x20 DUP5 ADD DUP5 PUSH2 0x4916 JUMP JUMPDEST SWAP1 POP SWAP3 SWAP2 POP POP JUMP JUMPDEST PUSH1 0x0 PUSH1 0x20 DUP3 ADD SWAP1 POP SWAP2 SWAP1 POP JUMP JUMPDEST PUSH1 0x0 PUSH2 0x6255 DUP4 DUP6 PUSH2 0x61E3 JUMP JUMPDEST SWAP4 POP PUSH2 0x6260 DUP3 PUSH2 0x61F4 JUMP JUMPDEST DUP1 PUSH1 0x0 JUMPDEST DUP6 DUP2 LT ISZERO PUSH2 0x6299 JUMPI PUSH2 0x6276 DUP3 DUP5 PUSH2 0x6225 JUMP JUMPDEST PUSH2 0x6280 DUP9 DUP3 PUSH2 0x620D JUMP JUMPDEST SWAP8 POP PUSH2 0x628B DUP4 PUSH2 0x623C JUMP JUMPDEST SWAP3 POP POP PUSH1 0x1 DUP2 ADD SWAP1 POP PUSH2 0x6264 JUMP JUMPDEST POP DUP6 SWAP3 POP POP POP SWAP4 SWAP3 POP POP POP JUMP JUMPDEST PUSH1 0x0 PUSH1 0x60 DUP3 ADD SWAP1 POP DUP2 DUP2 SUB PUSH1 0x0 DUP4 ADD MSTORE PUSH2 0x62C1 DUP2 DUP7 DUP9 PUSH2 0x6249 JUMP JUMPDEST SWAP1 POP PUSH2 0x62D0 PUSH1 0x20 DUP4 ADD DUP6 PUSH2 0x4B35 JUMP JUMPDEST PUSH2 0x62DD PUSH1 0x40 DUP4 ADD DUP5 PUSH2 0x4B35 JUMP JUMPDEST SWAP6 SWAP5 POP POP POP POP POP JUMP JUMPDEST PUSH1 0x0 PUSH2 0x62F2 DUP3 DUP6 PUSH2 0x613C JUMP JUMPDEST SWAP2 POP PUSH2 0x62FE DUP3 DUP5 PUSH2 0x613C JUMP JUMPDEST SWAP2 POP DUP2 SWAP1 POP SWAP4 SWAP3 POP POP POP JUMP JUMPDEST PUSH1 0x0 PUSH1 0x40 DUP3 ADD SWAP1 POP DUP2 DUP2 SUB PUSH1 0x0 DUP4 ADD MSTORE PUSH2 0x6324 DUP2 DUP6 PUSH2 0x47E5 JUMP JUMPDEST SWAP1 POP DUP2 DUP2 SUB PUSH1 0x20 DUP4 ADD MSTORE PUSH2 0x6338 DUP2 DUP5 PUSH2 0x47E5 JUMP JUMPDEST SWAP1 POP SWAP4 SWAP3 POP POP POP JUMP JUMPDEST PUSH1 0x0 DUP2 MLOAD SWAP1 POP PUSH2 0x6350 DUP2 PUSH2 0x48FF JUMP JUMPDEST SWAP3 SWAP2 POP POP JUMP JUMPDEST PUSH1 0x0 PUSH1 0x20 DUP3 DUP5 SUB SLT ISZERO PUSH2 0x636C JUMPI PUSH2 0x636B PUSH2 0x46C9 JUMP JUMPDEST JUMPDEST PUSH1 0x0 PUSH2 0x637A DUP5 DUP3 DUP6 ADD PUSH2 0x6341 JUMP JUMPDEST SWAP2 POP POP SWAP3 SWAP2 POP POP JUMP JUMPDEST PUSH1 0x0 PUSH16 0xFFFFFFFFFFFFFFFFFFFFFFFFFFFFFFFF DUP3 AND SWAP1 POP SWAP2 SWAP1 POP JUMP JUMPDEST PUSH2 0x63A8 DUP2 PUSH2 0x6383 JUMP JUMPDEST DUP3 MSTORE POP POP JUMP JUMPDEST PUSH1 0x0 PUSH1 0x20 DUP3 ADD SWAP1 POP PUSH2 0x63C3 PUSH1 0x0 DUP4 ADD DUP5 PUSH2 0x639F JUMP JUMPDEST SWAP3 SWAP2 POP POP JUMP JUMPDEST PUSH2 0x63D2 DUP2 PUSH2 0x6383 JUMP JUMPDEST DUP2 EQ PUSH2 0x63DD JUMPI PUSH1 0x0 DUP1 REVERT JUMPDEST POP JUMP JUMPDEST PUSH1 0x0 DUP2 MLOAD SWAP1 POP PUSH2 0x63EF DUP2 PUSH2 0x63C9 JUMP JUMPDEST SWAP3 SWAP2 POP POP JUMP JUMPDEST PUSH1 0x0 PUSH1 0x20 DUP3 DUP5 SUB SLT ISZERO PUSH2 0x640B JUMPI PUSH2 0x640A PUSH2 0x46C9 JUMP JUMPDEST JUMPDEST PUSH1 0x0 PUSH2 0x6419 DUP5 DUP3 DUP6 ADD PUSH2 0x63E0 JUMP JUMPDEST SWAP2 POP POP SWAP3 SWAP2 POP POP JUMP JUMPDEST PUSH1 0x0 DUP2 SWAP1 POP SWAP3 SWAP2 POP POP JUMP JUMPDEST POP JUMP JUMPDEST PUSH1 0x0 PUSH2 0x643D PUSH1 0x0 DUP4 PUSH2 0x6422 JUMP JUMPDEST SWAP2 POP PUSH2 0x6448 DUP3 PUSH2 0x642D JUMP JUMPDEST PUSH1 0x0 DUP3 ADD SWAP1 POP SWAP2 SWAP1 POP JUMP JUMPDEST PUSH1 0x0 PUSH2 0x645E DUP3 PUSH2 0x6430 JUMP JUMPDEST SWAP2 POP DUP2 SWAP1 POP SWAP2 SWAP1 POP JUMP JUMPDEST PUSH1 0x0 PUSH1 0x60 DUP3 ADD SWAP1 POP PUSH2 0x647D PUSH1 0x0 DUP4 ADD DUP7 PUSH2 0x4B35 JUMP JUMPDEST PUSH2 0x648A PUSH1 0x20 DUP4 ADD DUP6 PUSH2 0x48D5 JUMP JUMPDEST PUSH2 0x6497 PUSH1 0x40 DUP4 ADD DUP5 PUSH2 0x4B35 JUMP JUMPDEST SWAP5 SWAP4 POP POP POP POP JUMP JUMPDEST PUSH1 0x0 PUSH2 0x64AA DUP3 PUSH2 0x4840 JUMP JUMPDEST SWAP2 POP PUSH1 0x0 DUP3 SUB PUSH2 0x64BD JUMPI PUSH2 0x64BC PUSH2 0x5BA7 JUMP JUMPDEST JUMPDEST PUSH1 0x1 DUP3 SUB SWAP1 POP SWAP2 SWAP1 POP JUMP JUMPDEST PUSH1 0x0 PUSH1 0x40 DUP3 ADD SWAP1 POP PUSH2 0x64DD PUSH1 0x0 DUP4 ADD DUP6 PUSH2 0x48D5 JUMP JUMPDEST PUSH2 0x64EA PUSH1 0x20 DUP4 ADD DUP5 PUSH2 0x48D5 JUMP JUMPDEST SWAP4 SWAP3 POP POP POP JUMP JUMPDEST PUSH1 0x0 DUP2 MLOAD SWAP1 POP PUSH2 0x6500 DUP2 PUSH2 0x531D JUMP JUMPDEST SWAP3 SWAP2 POP POP JUMP JUMPDEST PUSH1 0x0 PUSH1 0x20 DUP3 DUP5 SUB SLT ISZERO PUSH2 0x651C JUMPI PUSH2 0x651B PUSH2 0x46C9 JUMP JUMPDEST JUMPDEST PUSH1 0x0 PUSH2 0x652A DUP5 DUP3 DUP6 ADD PUSH2 0x64F1 JUMP JUMPDEST SWAP2 POP POP SWAP3 SWAP2 POP POP JUMP JUMPDEST PUSH1 0x0 PUSH2 0x653E DUP3 PUSH2 0x4840 JUMP JUMPDEST SWAP2 POP PUSH32 0xFFFFFFFFFFFFFFFFFFFFFFFFFFFFFFFFFFFFFFFFFFFFFFFFFFFFFFFFFFFFFFFF DUP3 SUB PUSH2 0x6570 JUMPI PUSH2 0x656F PUSH2 0x5BA7 JUMP JUMPDEST JUMPDEST PUSH1 0x1 DUP3 ADD SWAP1 POP SWAP2 SWAP1 POP JUMP JUMPDEST PUSH1 0x0 DUP2 MLOAD SWAP1 POP SWAP2 SWAP1 POP JUMP JUMPDEST PUSH1 0x0 DUP3 DUP3 MSTORE PUSH1 0x20 DUP3 ADD SWAP1 POP SWAP3 SWAP2 POP POP JUMP JUMPDEST PUSH1 0x0 PUSH2 0x65A2 DUP3 PUSH2 0x657B JUMP JUMPDEST PUSH2 0x65AC DUP2 DUP6 PUSH2 0x6586 JUMP JUMPDEST SWAP4 POP PUSH2 0x65BC DUP2 DUP6 PUSH1 0x20 DUP7 ADD PUSH2 0x47AA JUMP JUMPDEST PUSH2 0x65C5 DUP2 PUSH2 0x47D4 JUMP JUMPDEST DUP5 ADD SWAP2 POP POP SWAP3 SWAP2 POP POP JUMP JUMPDEST PUSH1 0x0 PUSH1 0x80 DUP3 ADD SWAP1 POP PUSH2 0x65E5 PUSH1 0x0 DUP4 ADD DUP8 PUSH2 0x48D5 JUMP JUMPDEST PUSH2 0x65F2 PUSH1 0x20 DUP4 ADD DUP7 PUSH2 0x48D5 JUMP JUMPDEST PUSH2 0x65FF PUSH1 0x40 DUP4 ADD DUP6 PUSH2 0x4B35 JUMP JUMPDEST DUP2 DUP2 SUB PUSH1 0x60 DUP4 ADD MSTORE PUSH2 0x6611 DUP2 DUP5 PUSH2 0x6597 JUMP JUMPDEST SWAP1 POP SWAP6 SWAP5 POP POP POP POP POP JUMP JUMPDEST PUSH1 0x0 DUP2 MLOAD SWAP1 POP PUSH2 0x662B DUP2 PUSH2 0x46FF JUMP JUMPDEST SWAP3 SWAP2 POP POP JUMP JUMPDEST PUSH1 0x0 PUSH1 0x20 DUP3 DUP5 SUB SLT ISZERO PUSH2 0x6647 JUMPI PUSH2 0x6646 PUSH2 0x46C9 JUMP JUMPDEST JUMPDEST PUSH1 0x0 PUSH2 0x6655 DUP5 DUP3 DUP6 ADD PUSH2 0x661C JUMP JUMPDEST SWAP2 POP POP SWAP3 SWAP2 POP POP JUMP INVALID LOG2 PUSH5 0x6970667358 0x22 SLT KECCAK256 0xB9 0xF 0xC4 DUP12 0x4F 0xD5 0xCF 0xA7 SWAP12 ISZERO PUSH1 0x29 0xB1 0xB7 0xE7 0xA6 0xF6 0x1E PUSH29 0x8290985F621BE29BA26F5812CD64736F6C634300081200330000000000 "
		},
		"gasEstimates": {
			"creation": {
				"codeDepositCost": "5252000",
				"executionCost": "infinite",
				"totalCost": "infinite"
			},
			"external": {
				"ADDRESS_BATCH_MINT_LIMIT()": "484",
				"ADMIN_ROLE()": "441",
				"METADATA_IS_FROZEN_FLAG()": "469",
				"MINTER_ROLE()": "418",
				"MINT_RANDOMNESS_ENABLED_FLAG()": "403",
				"OPERATOR_FILTERING_ENABLED_FLAG()": "402",
				"OPERATOR_FILTER_REGISTRY()": "infinite",
				"REVEALED_FLAG()": "425",
				"_editionMaxMintable()": "2590",
				"_operatorFilteringEnabled()": "432",
				"_registerForOperatorFiltering()": "279",
				"abc(string)": "infinite",
				"adminMint(address,uint256)": "infinite",
				"airdropAdminMint(address[],uint256)": "infinite",
				"approve(address,uint256)": "infinite",
				"balanceOf(address)": "3005",
				"baseURI()": "infinite",
				"baseURIStorage()": "infinite",
				"cancelOwnershipHandover()": "6408",
				"completeOwnershipHandover(address)": "35617",
				"config()": "7292",
				"contractURI()": "infinite",
				"contractURIStorage()": "infinite",
				"editionMaxMintable()": "2584",
				"freezeMetadata()": "infinite",
				"getApproved(uint256)": "infinite",
				"grantRoles(address,uint256)": "28684",
				"hasAllRoles(address,uint256)": "3112",
				"hasAnyRole(address,uint256)": "3155",
				"initialize(string,string,string,string,address,uint16,(uint104,uint32,uint64,uint64,uint64,uint64,bytes32),uint32,uint8,address)": "infinite",
				"isApprovedForAll(address,address)": "infinite",
				"isRevealed()": "2539",
				"mintConcluded()": "4823",
				"name()": "infinite",
				"nextTokenId()": "2616",
				"numberMinted(address)": "3086",
				"operatorFilteringEnabled()": "488",
				"ordinalsFromRoles(uint256)": "infinite",
				"owner()": "2592",
				"ownerOf(uint256)": "infinite",
				"ownershipHandoverExpiresAt(address)": "2940",
				"ownershipHandoverValidFor()": "454",
				"payAndMint(uint256)": "infinite",
				"payoutAddress()": "2670",
				"presaleMintsByAddress(address)": "2903",
				"purchasePresale(uint256,uint256,uint256,bytes32[])": "infinite",
				"renounceOwnership()": "11038",
				"renounceRoles(uint256)": "26389",
				"requestOwnershipHandover()": "23567",
				"reveal(string)": "infinite",
				"revokeRoles(address,uint256)": "28716",
				"rolesFromOrdinals(uint8[])": "infinite",
				"rolesOf(address)": "2964",
				"royaltyBPS()": "2676",
				"royaltyInfo(uint256,uint256)": "infinite",
				"safeBatchTransferPublic((address,uint256[])[])": "infinite",
				"safeTransferFrom(address,address,uint256)": "infinite",
				"safeTransferFrom(address,address,uint256,bytes)": "infinite",
				"salesConfig()": "infinite",
				"setApprovalForAll(address,bool)": "infinite",
				"setBaseURI(string)": "infinite",
				"setContractURI(string)": "infinite",
				"setOperatorFilteringEnabled(bool)": "infinite",
				"setOwner(address)": "30684",
				"setPayoutAddress(address)": "infinite",
				"setRoyalty(uint16)": "infinite",
				"setSaleConfiguration(uint104,uint32,uint64,uint64,uint64,uint64,bytes32)": "infinite",
				"supportsInterface(bytes4)": "1036",
				"symbol()": "infinite",
				"testFeeManager()": "infinite",
				"tokenURI(uint256)": "infinite",
				"totalMinted()": "2723",
				"totalSupply()": "infinite",
				"transferFrom(address,address,uint256)": "infinite",
				"transferOwnership(address)": "28469",
				"updatePreRevealContent(string)": "infinite",
				"withdrawETH()": "infinite"
			},
			"internal": {
				"_initializeNameAndSymbol(string memory,string memory)": "infinite",
				"_loadNameAndSymbol()": "infinite",
				"_presaleActive()": "4457",
				"_startTokenId()": "23",
				"safeBatchTransfer(struct ERC721TestDrop.batchTransferParams memory)": "infinite"
			}
		},
		"methodIdentifiers": {
			"ADDRESS_BATCH_MINT_LIMIT()": "6f38c330",
			"ADMIN_ROLE()": "75b238fc",
			"METADATA_IS_FROZEN_FLAG()": "2c02cb7e",
			"MINTER_ROLE()": "d5391393",
			"MINT_RANDOMNESS_ENABLED_FLAG()": "bbc17bc4",
			"OPERATOR_FILTERING_ENABLED_FLAG()": "5e6ae4ed",
			"OPERATOR_FILTER_REGISTRY()": "41f43434",
			"REVEALED_FLAG()": "c303734a",
			"_editionMaxMintable()": "e6c5a1ef",
			"_operatorFilteringEnabled()": "b040adf6",
			"_registerForOperatorFiltering()": "72dfb778",
			"abc(string)": "5b84a1ed",
			"adminMint(address,uint256)": "e58306f9",
			"airdropAdminMint(address[],uint256)": "778faeec",
			"approve(address,uint256)": "095ea7b3",
			"balanceOf(address)": "70a08231",
			"baseURI()": "6c0360eb",
			"baseURIStorage()": "c4e5db8f",
			"cancelOwnershipHandover()": "54d1f13d",
			"completeOwnershipHandover(address)": "f04e283e",
			"config()": "79502c55",
			"contractURI()": "e8a3d485",
			"contractURIStorage()": "0fd0733d",
			"editionMaxMintable()": "3ab9d139",
			"freezeMetadata()": "d111515d",
			"getApproved(uint256)": "081812fc",
			"grantRoles(address,uint256)": "1c10893f",
			"hasAllRoles(address,uint256)": "1cd64df4",
			"hasAnyRole(address,uint256)": "514e62fc",
			"initialize(string,string,string,string,address,uint16,(uint104,uint32,uint64,uint64,uint64,uint64,bytes32),uint32,uint8,address)": "de4effbd",
			"isApprovedForAll(address,address)": "e985e9c5",
			"isRevealed()": "54214f69",
			"mintConcluded()": "a6f32d43",
			"name()": "06fdde03",
			"nextTokenId()": "75794a3c",
			"numberMinted(address)": "dc33e681",
			"operatorFilteringEnabled()": "fb796e6c",
			"ordinalsFromRoles(uint256)": "7359e41f",
			"owner()": "8da5cb5b",
			"ownerOf(uint256)": "6352211e",
			"ownershipHandoverExpiresAt(address)": "fee81cf4",
			"ownershipHandoverValidFor()": "d7533f02",
			"payAndMint(uint256)": "1909159a",
			"payoutAddress()": "5b8d02d7",
			"presaleMintsByAddress(address)": "61fea768",
			"purchasePresale(uint256,uint256,uint256,bytes32[])": "25024a2b",
			"renounceOwnership()": "715018a6",
			"renounceRoles(uint256)": "183a4f6e",
			"requestOwnershipHandover()": "25692962",
			"reveal(string)": "4c261247",
			"revokeRoles(address,uint256)": "4a4ee7b1",
			"rolesFromOrdinals(uint8[])": "13a661ed",
			"rolesOf(address)": "2de94807",
			"royaltyBPS()": "b9c9d93a",
			"royaltyInfo(uint256,uint256)": "2a55205a",
			"safeBatchTransferPublic((address,uint256[])[])": "d05e8732",
			"safeTransferFrom(address,address,uint256)": "42842e0e",
			"safeTransferFrom(address,address,uint256,bytes)": "b88d4fde",
			"salesConfig()": "1d2c0b38",
			"setApprovalForAll(address,bool)": "a22cb465",
			"setBaseURI(string)": "55f804b3",
			"setContractURI(string)": "938e3d7b",
			"setOperatorFilteringEnabled(bool)": "b7c0b8e8",
			"setOwner(address)": "13af4035",
			"setPayoutAddress(address)": "33ea51a8",
			"setRoyalty(uint16)": "36e79a5a",
			"setSaleConfiguration(uint104,uint32,uint64,uint64,uint64,uint64,bytes32)": "ffdb7163",
			"supportsInterface(bytes4)": "01ffc9a7",
			"symbol()": "95d89b41",
			"testFeeManager()": "40197c14",
			"tokenURI(uint256)": "c87b56dd",
			"totalMinted()": "a2309ff8",
			"totalSupply()": "18160ddd",
			"transferFrom(address,address,uint256)": "23b872dd",
			"transferOwnership(address)": "f2fde38b",
			"updatePreRevealContent(string)": "72c7dbbe",
			"withdrawETH()": "e086e5ec"
		}
	},
	"abi": [
		{
			"inputs": [],
			"name": "ApprovalCallerNotOwnerNorApproved",
			"type": "error"
		},
		{
			"inputs": [],
			"name": "ApprovalQueryForNonexistentToken",
			"type": "error"
		},
		{
			"inputs": [],
			"name": "BalanceQueryForZeroAddress",
			"type": "error"
		},
		{
			"inputs": [],
			"name": "ExceedsAddressBatchMintLimit",
			"type": "error"
		},
		{
			"inputs": [
				{
					"internalType": "uint32",
					"name": "available",
					"type": "uint32"
				}
			],
			"name": "ExceedsEditionAvailableSupply",
			"type": "error"
		},
		{
			"inputs": [],
			"name": "InvalidPayoutAddress",
			"type": "error"
		},
		{
			"inputs": [],
			"name": "InvalidRoyaltyBPS",
			"type": "error"
		},
		{
			"inputs": [],
			"name": "MetadataIsFrozen",
			"type": "error"
		},
		{
			"inputs": [],
			"name": "MintERC2309QuantityExceedsLimit",
			"type": "error"
		},
		{
			"inputs": [],
			"name": "MintToZeroAddress",
			"type": "error"
		},
		{
			"inputs": [],
			"name": "MintZeroQuantity",
			"type": "error"
		},
		{
			"inputs": [],
			"name": "Mint_SoldOut",
			"type": "error"
		},
		{
			"inputs": [],
			"name": "NewOwnerIsZeroAddress",
			"type": "error"
		},
		{
			"inputs": [],
			"name": "NoAddressesToAirdrop",
			"type": "error"
		},
		{
			"inputs": [],
			"name": "NoHandoverRequest",
			"type": "error"
		},
		{
			"inputs": [
				{
					"internalType": "address",
					"name": "operator",
					"type": "address"
				}
			],
			"name": "OperatorNotAllowed",
			"type": "error"
		},
		{
			"inputs": [],
			"name": "OwnerQueryForNonexistentToken",
			"type": "error"
		},
		{
			"inputs": [],
			"name": "OwnershipNotInitializedForExtraData",
			"type": "error"
		},
		{
			"inputs": [],
			"name": "Presale_Inactive",
			"type": "error"
		},
		{
			"inputs": [],
			"name": "Presale_MerkleNotApproved",
			"type": "error"
		},
		{
			"inputs": [],
			"name": "Presale_TooManyForAddress",
			"type": "error"
		},
		{
			"inputs": [],
			"name": "Purchase_TooManyForAddress",
			"type": "error"
		},
		{
			"inputs": [
				{
					"internalType": "uint256",
					"name": "correctPrice",
					"type": "uint256"
				}
			],
			"name": "Purchase_WrongPrice",
			"type": "error"
		},
		{
			"inputs": [],
			"name": "Sale_Inactive",
			"type": "error"
		},
		{
			"inputs": [],
			"name": "TransferCallerNotOwnerNorApproved",
			"type": "error"
		},
		{
			"inputs": [],
			"name": "TransferFromIncorrectOwner",
			"type": "error"
		},
		{
			"inputs": [],
			"name": "TransferToNonERC721ReceiverImplementer",
			"type": "error"
		},
		{
			"inputs": [],
			"name": "TransferToZeroAddress",
			"type": "error"
		},
		{
			"inputs": [],
			"name": "URIQueryForNonexistentToken",
			"type": "error"
		},
		{
			"inputs": [],
			"name": "Unauthorized",
			"type": "error"
		},
		{
			"inputs": [],
			"name": "WithdrawFundsSendFailure",
			"type": "error"
		},
		{
			"anonymous": false,
			"inputs": [
				{
					"indexed": false,
					"internalType": "address[]",
					"name": "to",
					"type": "address[]"
				},
				{
					"indexed": false,
					"internalType": "uint256",
					"name": "quantity",
					"type": "uint256"
				},
				{
					"indexed": false,
					"internalType": "uint256",
					"name": "fromTokenId",
					"type": "uint256"
				}
			],
			"name": "Airdropped",
			"type": "event"
		},
		{
			"anonymous": false,
			"inputs": [
				{
					"indexed": true,
					"internalType": "address",
					"name": "owner",
					"type": "address"
				},
				{
					"indexed": true,
					"internalType": "address",
					"name": "approved",
					"type": "address"
				},
				{
					"indexed": true,
					"internalType": "uint256",
					"name": "tokenId",
					"type": "uint256"
				}
			],
			"name": "Approval",
			"type": "event"
		},
		{
			"anonymous": false,
			"inputs": [
				{
					"indexed": true,
					"internalType": "address",
					"name": "owner",
					"type": "address"
				},
				{
					"indexed": true,
					"internalType": "address",
					"name": "operator",
					"type": "address"
				},
				{
					"indexed": false,
					"internalType": "bool",
					"name": "approved",
					"type": "bool"
				}
			],
			"name": "ApprovalForAll",
			"type": "event"
		},
		{
			"anonymous": false,
			"inputs": [
				{
					"indexed": true,
					"internalType": "string",
					"name": "_baseURI",
					"type": "string"
				}
			],
			"name": "BaseURISet",
			"type": "event"
		},
		{
			"anonymous": false,
			"inputs": [
				{
					"indexed": true,
					"internalType": "uint256",
					"name": "fromTokenId",
					"type": "uint256"
				},
				{
					"indexed": false,
					"internalType": "uint256",
					"name": "toTokenId",
					"type": "uint256"
				},
				{
					"indexed": true,
					"internalType": "address",
					"name": "from",
					"type": "address"
				},
				{
					"indexed": true,
					"internalType": "address",
					"name": "to",
					"type": "address"
				}
			],
			"name": "ConsecutiveTransfer",
			"type": "event"
		},
		{
			"anonymous": false,
			"inputs": [
				{
					"indexed": true,
					"internalType": "string",
					"name": "_contractURI",
					"type": "string"
				}
			],
			"name": "ContractURISet",
			"type": "event"
		},
		{
			"anonymous": false,
			"inputs": [
				{
					"indexed": true,
					"internalType": "address",
					"name": "withdrawnBy",
					"type": "address"
				},
				{
					"indexed": true,
					"internalType": "address",
					"name": "withdrawnTo",
					"type": "address"
				},
				{
					"indexed": false,
					"internalType": "uint256",
					"name": "amount",
					"type": "uint256"
				},
				{
					"indexed": false,
					"internalType": "address",
					"name": "feeRecipient",
					"type": "address"
				},
				{
					"indexed": false,
					"internalType": "uint256",
					"name": "feeAmount",
					"type": "uint256"
				}
			],
			"name": "FundsWithdrawn",
			"type": "event"
		},
		{
			"anonymous": false,
			"inputs": [
				{
					"indexed": false,
					"internalType": "string",
					"name": "baseURI",
					"type": "string"
				},
				{
					"indexed": false,
					"internalType": "string",
					"name": "contractURI",
					"type": "string"
				}
			],
			"name": "MetadataFrozen",
			"type": "event"
		},
		{
			"anonymous": false,
			"inputs": [
				{
					"indexed": false,
					"internalType": "address",
					"name": "to",
					"type": "address"
				},
				{
					"indexed": false,
					"internalType": "uint256",
					"name": "quantity",
					"type": "uint256"
				},
				{
					"indexed": false,
					"internalType": "uint256",
					"name": "_firstMintedTokenId",
					"type": "uint256"
				}
			],
			"name": "Minted",
			"type": "event"
		},
		{
			"anonymous": false,
			"inputs": [
				{
					"indexed": false,
					"internalType": "bool",
					"name": "operatorFilteringEnabled_",
					"type": "bool"
				}
			],
			"name": "OperatorFilteringEnablededSet",
			"type": "event"
		},
		{
			"anonymous": false,
			"inputs": [
				{
					"indexed": true,
					"internalType": "address",
					"name": "pendingOwner",
					"type": "address"
				}
			],
			"name": "OwnershipHandoverCanceled",
			"type": "event"
		},
		{
			"anonymous": false,
			"inputs": [
				{
					"indexed": true,
					"internalType": "address",
					"name": "pendingOwner",
					"type": "address"
				}
			],
			"name": "OwnershipHandoverRequested",
			"type": "event"
		},
		{
			"anonymous": false,
			"inputs": [
				{
					"indexed": true,
					"internalType": "address",
					"name": "oldOwner",
					"type": "address"
				},
				{
					"indexed": true,
					"internalType": "address",
					"name": "newOwner",
					"type": "address"
				}
			],
			"name": "OwnershipTransferred",
			"type": "event"
		},
		{
			"anonymous": false,
			"inputs": [
				{
					"indexed": false,
					"internalType": "address",
					"name": "payoutAddress",
					"type": "address"
				}
			],
			"name": "PayoutAddressSet",
			"type": "event"
		},
		{
			"anonymous": false,
			"inputs": [
				{
					"indexed": true,
					"internalType": "address",
					"name": "user",
					"type": "address"
				},
				{
					"indexed": true,
					"internalType": "uint256",
					"name": "roles",
					"type": "uint256"
				}
			],
			"name": "RolesUpdated",
			"type": "event"
		},
		{
			"anonymous": false,
			"inputs": [
				{
					"indexed": false,
					"internalType": "uint16",
					"name": "bps",
					"type": "uint16"
				}
			],
			"name": "RoyaltySet",
			"type": "event"
		},
		{
			"anonymous": false,
			"inputs": [
				{
					"indexed": true,
					"internalType": "address",
					"name": "to",
					"type": "address"
				},
				{
					"indexed": true,
					"internalType": "uint256",
					"name": "quantity",
					"type": "uint256"
				},
				{
					"indexed": true,
					"internalType": "uint256",
					"name": "pricePerToken",
					"type": "uint256"
				},
				{
					"indexed": false,
					"internalType": "uint256",
					"name": "firstPurchasedTokenId",
					"type": "uint256"
				}
			],
			"name": "Sale",
			"type": "event"
		},
		{
			"anonymous": false,
			"inputs": [
				{
					"indexed": true,
					"internalType": "address",
					"name": "changedBy",
					"type": "address"
				}
			],
			"name": "SalesConfigChanged",
			"type": "event"
		},
		{
			"anonymous": false,
			"inputs": [
				{
					"indexed": true,
					"internalType": "address",
					"name": "from",
					"type": "address"
				},
				{
					"indexed": true,
					"internalType": "address",
					"name": "to",
					"type": "address"
				},
				{
					"indexed": true,
					"internalType": "uint256",
					"name": "tokenId",
					"type": "uint256"
				}
			],
			"name": "Transfer",
			"type": "event"
		},
		{
			"anonymous": false,
			"inputs": [
				{
					"indexed": false,
					"internalType": "string",
					"name": "baseURI",
					"type": "string"
				},
				{
					"indexed": false,
					"internalType": "bool",
					"name": "isRevealed",
					"type": "bool"
				}
			],
			"name": "URIUpdated",
			"type": "event"
		},
		{
			"inputs": [],
			"name": "ADDRESS_BATCH_MINT_LIMIT",
			"outputs": [
				{
					"internalType": "uint256",
					"name": "",
					"type": "uint256"
				}
			],
			"stateMutability": "view",
			"type": "function"
		},
		{
			"inputs": [],
			"name": "ADMIN_ROLE",
			"outputs": [
				{
					"internalType": "uint256",
					"name": "",
					"type": "uint256"
				}
			],
			"stateMutability": "view",
			"type": "function"
		},
		{
			"inputs": [],
			"name": "METADATA_IS_FROZEN_FLAG",
			"outputs": [
				{
					"internalType": "uint8",
					"name": "",
					"type": "uint8"
				}
			],
			"stateMutability": "view",
			"type": "function"
		},
		{
			"inputs": [],
			"name": "MINTER_ROLE",
			"outputs": [
				{
					"internalType": "uint256",
					"name": "",
					"type": "uint256"
				}
			],
			"stateMutability": "view",
			"type": "function"
		},
		{
			"inputs": [],
			"name": "MINT_RANDOMNESS_ENABLED_FLAG",
			"outputs": [
				{
					"internalType": "uint8",
					"name": "",
					"type": "uint8"
				}
			],
			"stateMutability": "view",
			"type": "function"
		},
		{
			"inputs": [],
			"name": "OPERATOR_FILTERING_ENABLED_FLAG",
			"outputs": [
				{
					"internalType": "uint8",
					"name": "",
					"type": "uint8"
				}
			],
			"stateMutability": "view",
			"type": "function"
		},
		{
			"inputs": [],
			"name": "OPERATOR_FILTER_REGISTRY",
			"outputs": [
				{
					"internalType": "contract IOperatorFilterRegistry",
					"name": "",
					"type": "address"
				}
			],
			"stateMutability": "view",
			"type": "function"
		},
		{
			"inputs": [],
			"name": "REVEALED_FLAG",
			"outputs": [
				{
					"internalType": "uint8",
					"name": "",
					"type": "uint8"
				}
			],
			"stateMutability": "view",
			"type": "function"
		},
		{
			"inputs": [],
			"name": "_editionMaxMintable",
			"outputs": [
				{
					"internalType": "uint32",
					"name": "",
					"type": "uint32"
				}
			],
			"stateMutability": "view",
			"type": "function"
		},
		{
			"inputs": [],
			"name": "_operatorFilteringEnabled",
			"outputs": [
				{
					"internalType": "bool",
					"name": "",
					"type": "bool"
				}
			],
			"stateMutability": "view",
			"type": "function"
		},
		{
			"inputs": [],
			"name": "_registerForOperatorFiltering",
			"outputs": [],
			"stateMutability": "view",
			"type": "function"
		},
		{
			"inputs": [
				{
					"internalType": "string",
					"name": "name_",
					"type": "string"
				}
			],
			"name": "abc",
			"outputs": [
				{
					"internalType": "string",
					"name": "",
					"type": "string"
				}
			],
			"stateMutability": "view",
			"type": "function"
		},
		{
			"inputs": [
				{
					"internalType": "address",
					"name": "to",
					"type": "address"
				},
				{
					"internalType": "uint256",
					"name": "quantity",
					"type": "uint256"
				}
			],
			"name": "adminMint",
			"outputs": [
				{
					"internalType": "uint256",
					"name": "_firstMintedTokenId",
					"type": "uint256"
				}
			],
			"stateMutability": "payable",
			"type": "function"
		},
		{
			"inputs": [
				{
					"internalType": "address[]",
					"name": "_to",
					"type": "address[]"
				},
				{
					"internalType": "uint256",
					"name": "_quantity",
					"type": "uint256"
				}
			],
			"name": "airdropAdminMint",
			"outputs": [
				{
					"internalType": "uint256",
					"name": "_firstMintedTokenId",
					"type": "uint256"
				}
			],
			"stateMutability": "nonpayable",
			"type": "function"
		},
		{
			"inputs": [
				{
					"internalType": "address",
					"name": "operator",
					"type": "address"
				},
				{
					"internalType": "uint256",
					"name": "tokenId",
					"type": "uint256"
				}
			],
			"name": "approve",
			"outputs": [],
			"stateMutability": "payable",
			"type": "function"
		},
		{
			"inputs": [
				{
					"internalType": "address",
					"name": "owner",
					"type": "address"
				}
			],
			"name": "balanceOf",
			"outputs": [
				{
					"internalType": "uint256",
					"name": "",
					"type": "uint256"
				}
			],
			"stateMutability": "view",
			"type": "function"
		},
		{
			"inputs": [],
			"name": "baseURI",
			"outputs": [
				{
					"internalType": "string",
					"name": "",
					"type": "string"
				}
			],
			"stateMutability": "view",
			"type": "function"
		},
		{
			"inputs": [],
			"name": "baseURIStorage",
			"outputs": [
				{
					"internalType": "string",
					"name": "",
					"type": "string"
				}
			],
			"stateMutability": "view",
			"type": "function"
		},
		{
			"inputs": [],
			"name": "cancelOwnershipHandover",
			"outputs": [],
			"stateMutability": "payable",
			"type": "function"
		},
		{
			"inputs": [
				{
					"internalType": "address",
					"name": "pendingOwner",
					"type": "address"
				}
			],
			"name": "completeOwnershipHandover",
			"outputs": [],
			"stateMutability": "payable",
			"type": "function"
		},
		{
			"inputs": [],
			"name": "config",
			"outputs": [
				{
					"internalType": "uint64",
					"name": "editionSize",
					"type": "uint64"
				},
				{
					"internalType": "uint16",
					"name": "royaltyBPS",
					"type": "uint16"
				},
				{
					"internalType": "address payable",
					"name": "fundsRecipient",
					"type": "address"
				}
			],
			"stateMutability": "view",
			"type": "function"
		},
		{
			"inputs": [],
			"name": "contractURI",
			"outputs": [
				{
					"internalType": "string",
					"name": "",
					"type": "string"
				}
			],
			"stateMutability": "view",
			"type": "function"
		},
		{
			"inputs": [],
			"name": "contractURIStorage",
			"outputs": [
				{
					"internalType": "string",
					"name": "",
					"type": "string"
				}
			],
			"stateMutability": "view",
			"type": "function"
		},
		{
			"inputs": [],
			"name": "editionMaxMintable",
			"outputs": [
				{
					"internalType": "uint32",
					"name": "",
					"type": "uint32"
				}
			],
			"stateMutability": "view",
			"type": "function"
		},
		{
			"inputs": [],
			"name": "freezeMetadata",
			"outputs": [],
			"stateMutability": "nonpayable",
			"type": "function"
		},
		{
			"inputs": [
				{
					"internalType": "uint256",
					"name": "tokenId",
					"type": "uint256"
				}
			],
			"name": "getApproved",
			"outputs": [
				{
					"internalType": "address",
					"name": "",
					"type": "address"
				}
			],
			"stateMutability": "view",
			"type": "function"
		},
		{
			"inputs": [
				{
					"internalType": "address",
					"name": "user",
					"type": "address"
				},
				{
					"internalType": "uint256",
					"name": "roles",
					"type": "uint256"
				}
			],
			"name": "grantRoles",
			"outputs": [],
			"stateMutability": "payable",
			"type": "function"
		},
		{
			"inputs": [
				{
					"internalType": "address",
					"name": "user",
					"type": "address"
				},
				{
					"internalType": "uint256",
					"name": "roles",
					"type": "uint256"
				}
			],
			"name": "hasAllRoles",
			"outputs": [
				{
					"internalType": "bool",
					"name": "result",
					"type": "bool"
				}
			],
			"stateMutability": "view",
			"type": "function"
		},
		{
			"inputs": [
				{
					"internalType": "address",
					"name": "user",
					"type": "address"
				},
				{
					"internalType": "uint256",
					"name": "roles",
					"type": "uint256"
				}
			],
			"name": "hasAnyRole",
			"outputs": [
				{
					"internalType": "bool",
					"name": "result",
					"type": "bool"
				}
			],
			"stateMutability": "view",
			"type": "function"
		},
		{
			"inputs": [
				{
					"internalType": "string",
					"name": "name_",
					"type": "string"
				},
				{
					"internalType": "string",
					"name": "symbol_",
					"type": "string"
				},
				{
					"internalType": "string",
					"name": "baseURI_",
					"type": "string"
				},
				{
					"internalType": "string",
					"name": "contractURI_",
					"type": "string"
				},
				{
					"internalType": "address",
					"name": "payoutAddress_",
					"type": "address"
				},
				{
					"internalType": "uint16",
					"name": "royaltyBPS_",
					"type": "uint16"
				},
				{
					"components": [
						{
							"internalType": "uint104",
							"name": "publicSalePrice",
							"type": "uint104"
						},
						{
							"internalType": "uint32",
							"name": "maxSalePurchasePerAddress",
							"type": "uint32"
						},
						{
							"internalType": "uint64",
							"name": "publicSaleStart",
							"type": "uint64"
						},
						{
							"internalType": "uint64",
							"name": "publicSaleEnd",
							"type": "uint64"
						},
						{
							"internalType": "uint64",
							"name": "presaleStart",
							"type": "uint64"
						},
						{
							"internalType": "uint64",
							"name": "presaleEnd",
							"type": "uint64"
						},
						{
							"internalType": "bytes32",
							"name": "presaleMerkleRoot",
							"type": "bytes32"
						}
					],
					"internalType": "struct IERC721TestDrop.SalesConfiguration",
					"name": "_salesconfig",
					"type": "tuple"
				},
				{
					"internalType": "uint32",
					"name": "editionMaxMintable_",
					"type": "uint32"
				},
				{
					"internalType": "uint8",
					"name": "flags_",
					"type": "uint8"
				},
				{
					"internalType": "contract ITestFeeManager",
					"name": "testFeeManager_",
					"type": "address"
				}
			],
			"name": "initialize",
			"outputs": [],
			"stateMutability": "nonpayable",
			"type": "function"
		},
		{
			"inputs": [
				{
					"internalType": "address",
					"name": "owner",
					"type": "address"
				},
				{
					"internalType": "address",
					"name": "operator",
					"type": "address"
				}
			],
			"name": "isApprovedForAll",
			"outputs": [
				{
					"internalType": "bool",
					"name": "",
					"type": "bool"
				}
			],
			"stateMutability": "view",
			"type": "function"
		},
		{
			"inputs": [],
			"name": "isRevealed",
			"outputs": [
				{
					"internalType": "bool",
					"name": "",
					"type": "bool"
				}
			],
			"stateMutability": "view",
			"type": "function"
		},
		{
			"inputs": [],
			"name": "mintConcluded",
			"outputs": [
				{
					"internalType": "bool",
					"name": "",
					"type": "bool"
				}
			],
			"stateMutability": "view",
			"type": "function"
		},
		{
			"inputs": [],
			"name": "name",
			"outputs": [
				{
					"internalType": "string",
					"name": "",
					"type": "string"
				}
			],
			"stateMutability": "view",
			"type": "function"
		},
		{
			"inputs": [],
			"name": "nextTokenId",
			"outputs": [
				{
					"internalType": "uint256",
					"name": "",
					"type": "uint256"
				}
			],
			"stateMutability": "view",
			"type": "function"
		},
		{
			"inputs": [
				{
					"internalType": "address",
					"name": "owner",
					"type": "address"
				}
			],
			"name": "numberMinted",
			"outputs": [
				{
					"internalType": "uint256",
					"name": "",
					"type": "uint256"
				}
			],
			"stateMutability": "view",
			"type": "function"
		},
		{
			"inputs": [],
			"name": "operatorFilteringEnabled",
			"outputs": [
				{
					"internalType": "bool",
					"name": "",
					"type": "bool"
				}
			],
			"stateMutability": "view",
			"type": "function"
		},
		{
			"inputs": [
				{
					"internalType": "uint256",
					"name": "roles",
					"type": "uint256"
				}
			],
			"name": "ordinalsFromRoles",
			"outputs": [
				{
					"internalType": "uint8[]",
					"name": "ordinals",
					"type": "uint8[]"
				}
			],
			"stateMutability": "pure",
			"type": "function"
		},
		{
			"inputs": [],
			"name": "owner",
			"outputs": [
				{
					"internalType": "address",
					"name": "",
					"type": "address"
				}
			],
			"stateMutability": "view",
			"type": "function"
		},
		{
			"inputs": [
				{
					"internalType": "uint256",
					"name": "tokenId",
					"type": "uint256"
				}
			],
			"name": "ownerOf",
			"outputs": [
				{
					"internalType": "address",
					"name": "",
					"type": "address"
				}
			],
			"stateMutability": "view",
			"type": "function"
		},
		{
			"inputs": [
				{
					"internalType": "address",
					"name": "pendingOwner",
					"type": "address"
				}
			],
			"name": "ownershipHandoverExpiresAt",
			"outputs": [
				{
					"internalType": "uint256",
					"name": "result",
					"type": "uint256"
				}
			],
			"stateMutability": "view",
			"type": "function"
		},
		{
			"inputs": [],
			"name": "ownershipHandoverValidFor",
			"outputs": [
				{
					"internalType": "uint64",
					"name": "",
					"type": "uint64"
				}
			],
			"stateMutability": "view",
			"type": "function"
		},
		{
			"inputs": [
				{
					"internalType": "uint256",
					"name": "quantity",
					"type": "uint256"
				}
			],
			"name": "payAndMint",
			"outputs": [
				{
					"internalType": "uint256",
					"name": "_firstMintedTokenId",
					"type": "uint256"
				}
			],
			"stateMutability": "payable",
			"type": "function"
		},
		{
			"inputs": [],
			"name": "payoutAddress",
			"outputs": [
				{
					"internalType": "address",
					"name": "",
					"type": "address"
				}
			],
			"stateMutability": "view",
			"type": "function"
		},
		{
			"inputs": [
				{
					"internalType": "address",
					"name": "",
					"type": "address"
				}
			],
			"name": "presaleMintsByAddress",
			"outputs": [
				{
					"internalType": "uint256",
					"name": "",
					"type": "uint256"
				}
			],
			"stateMutability": "view",
			"type": "function"
		},
		{
			"inputs": [
				{
					"internalType": "uint256",
					"name": "quantity",
					"type": "uint256"
				},
				{
					"internalType": "uint256",
					"name": "maxQuantity",
					"type": "uint256"
				},
				{
					"internalType": "uint256",
					"name": "pricePerToken",
					"type": "uint256"
				},
				{
					"internalType": "bytes32[]",
					"name": "merkleProof",
					"type": "bytes32[]"
				}
			],
			"name": "purchasePresale",
			"outputs": [
				{
					"internalType": "uint256",
					"name": "",
					"type": "uint256"
				}
			],
			"stateMutability": "payable",
			"type": "function"
		},
		{
			"inputs": [],
			"name": "renounceOwnership",
			"outputs": [],
			"stateMutability": "payable",
			"type": "function"
		},
		{
			"inputs": [
				{
					"internalType": "uint256",
					"name": "roles",
					"type": "uint256"
				}
			],
			"name": "renounceRoles",
			"outputs": [],
			"stateMutability": "payable",
			"type": "function"
		},
		{
			"inputs": [],
			"name": "requestOwnershipHandover",
			"outputs": [],
			"stateMutability": "payable",
			"type": "function"
		},
		{
			"inputs": [
				{
					"internalType": "string",
					"name": "baseURI_",
					"type": "string"
				}
			],
			"name": "reveal",
			"outputs": [],
			"stateMutability": "nonpayable",
			"type": "function"
		},
		{
			"inputs": [
				{
					"internalType": "address",
					"name": "user",
					"type": "address"
				},
				{
					"internalType": "uint256",
					"name": "roles",
					"type": "uint256"
				}
			],
			"name": "revokeRoles",
			"outputs": [],
			"stateMutability": "payable",
			"type": "function"
		},
		{
			"inputs": [
				{
					"internalType": "uint8[]",
					"name": "ordinals",
					"type": "uint8[]"
				}
			],
			"name": "rolesFromOrdinals",
			"outputs": [
				{
					"internalType": "uint256",
					"name": "roles",
					"type": "uint256"
				}
			],
			"stateMutability": "pure",
			"type": "function"
		},
		{
			"inputs": [
				{
					"internalType": "address",
					"name": "user",
					"type": "address"
				}
			],
			"name": "rolesOf",
			"outputs": [
				{
					"internalType": "uint256",
					"name": "roles",
					"type": "uint256"
				}
			],
			"stateMutability": "view",
			"type": "function"
		},
		{
			"inputs": [],
			"name": "royaltyBPS",
			"outputs": [
				{
					"internalType": "uint16",
					"name": "",
					"type": "uint16"
				}
			],
			"stateMutability": "view",
			"type": "function"
		},
		{
			"inputs": [
				{
					"internalType": "uint256",
					"name": "",
					"type": "uint256"
				},
				{
					"internalType": "uint256",
					"name": "salePrice",
					"type": "uint256"
				}
			],
			"name": "royaltyInfo",
			"outputs": [
				{
					"internalType": "address",
					"name": "fundingRecipient_",
					"type": "address"
				},
				{
					"internalType": "uint256",
					"name": "royaltyAmount",
					"type": "uint256"
				}
			],
			"stateMutability": "view",
			"type": "function"
		},
		{
			"inputs": [
				{
					"components": [
						{
							"internalType": "address",
							"name": "recipient",
							"type": "address"
						},
						{
							"internalType": "uint256[]",
							"name": "tokenIds",
							"type": "uint256[]"
						}
					],
					"internalType": "struct ERC721TestDrop.batchTransferParams[]",
					"name": "params",
					"type": "tuple[]"
				}
			],
			"name": "safeBatchTransferPublic",
			"outputs": [],
			"stateMutability": "nonpayable",
			"type": "function"
		},
		{
			"inputs": [
				{
					"internalType": "address",
					"name": "from",
					"type": "address"
				},
				{
					"internalType": "address",
					"name": "to",
					"type": "address"
				},
				{
					"internalType": "uint256",
					"name": "tokenId",
					"type": "uint256"
				}
			],
			"name": "safeTransferFrom",
			"outputs": [],
			"stateMutability": "payable",
			"type": "function"
		},
		{
			"inputs": [
				{
					"internalType": "address",
					"name": "from",
					"type": "address"
				},
				{
					"internalType": "address",
					"name": "to",
					"type": "address"
				},
				{
					"internalType": "uint256",
					"name": "tokenId",
					"type": "uint256"
				},
				{
					"internalType": "bytes",
					"name": "data",
					"type": "bytes"
				}
			],
			"name": "safeTransferFrom",
			"outputs": [],
			"stateMutability": "payable",
			"type": "function"
		},
		{
			"inputs": [],
			"name": "salesConfig",
			"outputs": [
				{
					"internalType": "uint104",
					"name": "publicSalePrice",
					"type": "uint104"
				},
				{
					"internalType": "uint32",
					"name": "maxSalePurchasePerAddress",
					"type": "uint32"
				},
				{
					"internalType": "uint64",
					"name": "publicSaleStart",
					"type": "uint64"
				},
				{
					"internalType": "uint64",
					"name": "publicSaleEnd",
					"type": "uint64"
				},
				{
					"internalType": "uint64",
					"name": "presaleStart",
					"type": "uint64"
				},
				{
					"internalType": "uint64",
					"name": "presaleEnd",
					"type": "uint64"
				},
				{
					"internalType": "bytes32",
					"name": "presaleMerkleRoot",
					"type": "bytes32"
				}
			],
			"stateMutability": "view",
			"type": "function"
		},
		{
			"inputs": [
				{
					"internalType": "address",
					"name": "operator",
					"type": "address"
				},
				{
					"internalType": "bool",
					"name": "approved",
					"type": "bool"
				}
			],
			"name": "setApprovalForAll",
			"outputs": [],
			"stateMutability": "nonpayable",
			"type": "function"
		},
		{
			"inputs": [
				{
					"internalType": "string",
					"name": "contractURI_",
					"type": "string"
				}
			],
			"name": "setBaseURI",
			"outputs": [],
			"stateMutability": "nonpayable",
			"type": "function"
		},
		{
			"inputs": [
				{
					"internalType": "string",
					"name": "contractURI_",
					"type": "string"
				}
			],
			"name": "setContractURI",
			"outputs": [],
			"stateMutability": "nonpayable",
			"type": "function"
		},
		{
			"inputs": [
				{
					"internalType": "bool",
					"name": "operatorFilteringEnabled_",
					"type": "bool"
				}
			],
			"name": "setOperatorFilteringEnabled",
			"outputs": [],
			"stateMutability": "nonpayable",
			"type": "function"
		},
		{
			"inputs": [
				{
					"internalType": "address",
					"name": "newOwner",
					"type": "address"
				}
			],
			"name": "setOwner",
			"outputs": [],
			"stateMutability": "nonpayable",
			"type": "function"
		},
		{
			"inputs": [
				{
					"internalType": "address",
					"name": "_payoutAddress",
					"type": "address"
				}
			],
			"name": "setPayoutAddress",
			"outputs": [],
			"stateMutability": "nonpayable",
			"type": "function"
		},
		{
			"inputs": [
				{
					"internalType": "uint16",
					"name": "royaltyBPS_",
					"type": "uint16"
				}
			],
			"name": "setRoyalty",
			"outputs": [],
			"stateMutability": "nonpayable",
			"type": "function"
		},
		{
			"inputs": [
				{
					"internalType": "uint104",
					"name": "publicSalePrice",
					"type": "uint104"
				},
				{
					"internalType": "uint32",
					"name": "maxSalePurchasePerAddress",
					"type": "uint32"
				},
				{
					"internalType": "uint64",
					"name": "publicSaleStart",
					"type": "uint64"
				},
				{
					"internalType": "uint64",
					"name": "publicSaleEnd",
					"type": "uint64"
				},
				{
					"internalType": "uint64",
					"name": "presaleStart",
					"type": "uint64"
				},
				{
					"internalType": "uint64",
					"name": "presaleEnd",
					"type": "uint64"
				},
				{
					"internalType": "bytes32",
					"name": "presaleMerkleRoot",
					"type": "bytes32"
				}
			],
			"name": "setSaleConfiguration",
			"outputs": [],
			"stateMutability": "nonpayable",
			"type": "function"
		},
		{
			"inputs": [
				{
					"internalType": "bytes4",
					"name": "interfaceId",
					"type": "bytes4"
				}
			],
			"name": "supportsInterface",
			"outputs": [
				{
					"internalType": "bool",
					"name": "",
					"type": "bool"
				}
			],
			"stateMutability": "view",
			"type": "function"
		},
		{
			"inputs": [],
			"name": "symbol",
			"outputs": [
				{
					"internalType": "string",
					"name": "",
					"type": "string"
				}
			],
			"stateMutability": "view",
			"type": "function"
		},
		{
			"inputs": [],
			"name": "testFeeManager",
			"outputs": [
				{
					"internalType": "contract ITestFeeManager",
					"name": "",
					"type": "address"
				}
			],
			"stateMutability": "view",
			"type": "function"
		},
		{
			"inputs": [
				{
					"internalType": "uint256",
					"name": "tokenId",
					"type": "uint256"
				}
			],
			"name": "tokenURI",
			"outputs": [
				{
					"internalType": "string",
					"name": "",
					"type": "string"
				}
			],
			"stateMutability": "view",
			"type": "function"
		},
		{
			"inputs": [],
			"name": "totalMinted",
			"outputs": [
				{
					"internalType": "uint256",
					"name": "",
					"type": "uint256"
				}
			],
			"stateMutability": "view",
			"type": "function"
		},
		{
			"inputs": [],
			"name": "totalSupply",
			"outputs": [
				{
					"internalType": "uint256",
					"name": "",
					"type": "uint256"
				}
			],
			"stateMutability": "view",
			"type": "function"
		},
		{
			"inputs": [
				{
					"internalType": "address",
					"name": "from",
					"type": "address"
				},
				{
					"internalType": "address",
					"name": "to",
					"type": "address"
				},
				{
					"internalType": "uint256",
					"name": "tokenId",
					"type": "uint256"
				}
			],
			"name": "transferFrom",
			"outputs": [],
			"stateMutability": "payable",
			"type": "function"
		},
		{
			"inputs": [
				{
					"internalType": "address",
					"name": "newOwner",
					"type": "address"
				}
			],
			"name": "transferOwnership",
			"outputs": [],
			"stateMutability": "payable",
			"type": "function"
		},
		{
			"inputs": [
				{
					"internalType": "string",
					"name": "baseURI_",
					"type": "string"
				}
			],
			"name": "updatePreRevealContent",
			"outputs": [],
			"stateMutability": "nonpayable",
			"type": "function"
		},
		{
			"inputs": [],
			"name": "withdrawETH",
			"outputs": [],
			"stateMutability": "nonpayable",
			"type": "function"
		}
	]
}